:020000040000FA
:040000005CEF2DF094
:08000800056ED8CF06F0E0CF31
:1000100007F00001E9CF0DF0EACF08F0E1CF09F0D9
:10002000E2CF0AF0D9CF0BF0DACF0CF0F3CF14F017
:10003000F4CF15F0FACF16F000C00FF001C010F0A9
:1000400002C011F003C012F004C013F0F0A62CEFB0
:1000500000F0F0B06EEF08F00FC000F010C001F03B
:1000600011C002F012C003F013C004F00DC0E9FF8C
:1000700008C0EAFF09C0E1FF0AC0E2FF0BC0D9FFD8
:100080000CC0DAFF14C0F3FF15C0F4FF16C0FAFF6E
:10009000055007C0E0FF06C0D8FF1000F2CF0EF0F9
:1000A000F29EF76AB60FF66E000EF7220900F550C1
:1000B0000EBEF28E12002C0F0106F2CF0EF0F29E51
:1000C000F76AD40FF66E000EF7220900F5500EBE47
:1000D000F28E1200496E696369616C697A616E64BF
:1000E0006F2E2E2E0000F2CF0EF0F29EF76A000F58
:1000F000F66E010EF7220900F5500EBEF28E1200C8
:1001000053697374656D6120696E696369616C69B7
:100110007A61646F20636F6E20657869746F210D5A
:100120000000F2CF0EF0F29EF76A3C0FF66E010E61
:10013000F7220900F5500EBEF28E12002020456E07
:1001400063656E6469656E646F0A202073697374F9
:10015000656D612E2E2E0000F2CF0EF0F29EF76A32
:10016000720FF66E010EF7220900F5500EBEF28EE8
:100170001200202041706167616E646F0A20207355
:10018000697374656D612E2E2E00F2CF0EF0F29E13
:10019000F76AA40FF66E010EF7220900F5500EBEA5
:1001A000F28E12002020496E6469717565206C61C1
:1001B000200A20206F7065726163696F6E202020B5
:1001C0003100F2CF0EF0F29EF76ADC0FF66E010EF0
:1001D000F7220900F5500EBEF28E12002020416E6B
:1001E000756C616E646F0A20206F7065726163695F
:1001F0006F6E2E2E2E00F2CF0EF0F29EF76A100FC9
:10020000F66E020EF7220900F5500EBEF28E1200B5
:100210004D6F646966696361720A7465726D6F73AC
:100220007461746F20252E30662563430000F2CF81
:100230000EF0F29EF76A480FF66E020EF7220900E2
:10024000F5500EBEF28E12004E7565766F20766107
:100250006C6F723A0A2563430000F2CF0EF0F29EF3
:10026000F76A740FF66E020EF7220900F5500EBE03
:10027000F28E1200202041706C6963616E646F0A17
:10028000202063616D62696F732E2E2E0000F2CF05
:100290000EF0F29EF76AA80FF66E020EF722090022
:1002A000F5500EBEF28E12002050726F6772616DB3
:1002B00061720A2073697374656D6100F2CF0EF08C
:1002C000F29EF76AD60FF66E020EF7220900F5507D
:1002D0000EBEF28E120020494E54455256414C4FEC
:1002E0002025690A3A3A0000F2CF0EF0F29EF76A32
:1002F000020FF66E030EF7220900F5500EBEF28EC5
:10030000120020202056616C6F7265730A20202035
:10031000696E636F72726563746F7300F2CF0EF073
:10032000F29EF76A360FF66E030EF7220900F550BB
:100330000EBEF28E1200496E74657276616C6F208B
:100340006C696D6974650A6465203420686F726138
:100350007300F2CF0EF0F29EF76A6C0FF66E030E8A
:10036000F7220900F5500EBEF28E12005465726D30
:100370006F737461746F2025690A25634300F2CF9F
:100380000EF0F29EF76A980FF66E030EF722090040
:10039000F5500EBEF28E1200536F6C6170616D6984
:1003A000656E746F0A646520696E74657276616C3F
:1003B0006F732100F2CF0EF0F29EF76ACE0FF66E49
:1003C000030EF7220900F5500EBEF28E1200202017
:1003D000496E74726F64757A63610A2020636C6180
:1003E00076650000F2CF0EF0F29EF76AFE0FF66E11
:1003F000030EF7220900F5500EBEF28E12002020E7
:10040000436C6176650A2020696E636F7272656362
:1004100074610000F2CF0EF0F29EF76A2E0FF66EB6
:10042000040EF7220900F5500EBEF28E12002020B5
:100430004D6F646F0A20207265766973696F6E0074
:10044000F2CF0EF0F29EF76A5A0FF66E040EF72204
:100450000900F5500EBEF28E120044656D6173699D
:1004600061646F207469656D706F0A656E63656E97
:100470006469646F2100F2CF0EF0F29EF76A900F6C
:10048000F66E040EF7220900F5500EBEF28E120031
:100490003000F2CF0EF0F29EF76AAC0FF66E040E4B
:1004A000F7220900F5500EBEF28E12000D496E695A
:1004B0006369616C697A6163696F6E2064656C2041
:1004C00073697374656D610D0000F2CF0EF0F29EDA
:1004D000F76AE40FF66E040EF7220900F5500EBE1F
:1004E000F28E12002A2A2A2A2A2A2A2A2A2A2A2A82
:1004F0002A2A2A2A2A2A2A2A2A2A2A2A2A2A0D00A3
:10050000F2CF0EF0F29EF76A1A0FF66E050EF72282
:100510000900F5500EBEF28E120044696120646538
:10052000206C612073656D616E612028312D3E4C19
:10053000756E65732C20322D3E4D61727465732C7F
:10054000202E2E2E293A204C554E45532020202077
:100550000000F2CF0EF0F29EF76A6C0FF66E050EF9
:10056000F7220900F5500EBEF28E120008080808A6
:1005700008080808084C554E45532020202000004C
:10058000F2CF0EF0F29EF76A9A0FF66E050EF72282
:100590000900F5500EBEF28E12000808080808087F
:1005A0000808084D41525445532020200000F2CF46
:1005B0000EF0F29EF76AC80FF66E050EF7220900DC
:1005C000F5500EBEF28E1200080808080808080848
:1005D000084D494552434F4C45530000F2CF0EF0B1
:1005E000F29EF76AF60FF66E050EF7220900F55037
:1005F0000EBEF28E12000808080808080808084A0B
:1006000055455645532020200000F2CF0EF0F29EB3
:10061000F76A240FF66E060EF7220900F5500EBE9B
:10062000F28E12000808080808080808085649450C
:10063000524E455320200000F2CF0EF0F29EF76A92
:10064000520FF66E060EF7220900F5500EBEF28E1E
:1006500012000808080808080808085341424144E5
:100660004F2020200000F2CF0EF0F29EF76A800F9C
:10067000F66E060EF7220900F5500EBEF28E12003D
:10068000080808080808080808444F4D494E474F15
:1006900020200000F2CF0EF0F29EF76AAE0FF66E49
:1006A000060EF7220900F5500EBEF28E12000D461E
:1006B000454348413A200000F2CF0EF0F29EF76A1F
:1006C000D20FF66E060EF7220900F5500EBEF28E1E
:1006D00012000D526573657465616E646F20696EFA
:1006E000696369616C697A6163696F6E2E2E2E0D84
:1006F0000000F2CF0EF0F29EF76A0C0FF66E070EB6
:10070000F7220900F5500EBEF28E12000D44696109
:1007100020696E636F72726563746F2E2052657309
:10072000657465616E646F20696E696369616C6987
:100730007A6163696F6E2E2E2E0D0000F2CF0EF0DF
:10074000F29EF76A560FF66E070EF7220900F55073
:100750000EBEF28E12002F00F2CF0EF0F29EF76A5C
:10076000720FF66E070EF7220900F5500EBEF28EDC
:1007700012000D4D657320696E636F72726563744C
:100780006F2E20526573657465616E646F20696EAB
:10079000696369616C697A6163696F6E2E2E2E0DD3
:1007A0000000F2CF0EF0F29EF76ABC0FF66E070E55
:1007B000F7220900F5500EBEF28E12000D4572723E
:1007C0006F7220656E206C612066656368612E2003
:1007D000526573657465616E646F20696E696369E3
:1007E000616C697A6163696F6E2E2E2E0D00F2CFF7
:1007F0000EF0F29EF76A080FF66E080EF722090057
:10080000F5500EBEF28E12000D416E6E6F20696EB5
:10081000636F72726563746F2E20526573657465C1
:10082000616E646F20696E696369616C697A616386
:10083000696F6E2E2E2E0D00F2CF0EF0F29EF76A2B
:10084000520FF66E080EF7220900F5500EBEF28E1A
:1008500012000D456C20616E6E6F206E6F20657307
:1008600020626973696573746F2E205265736574B5
:1008700065616E646F20696E696369616C697A6134
:1008800063696F6E2E2E2E0D0000F2CF0EF0F29ED9
:10089000F76AA40FF66E080EF7220900F5500EBE97
:1008A000F28E12000D484F52413A2000F2CF0EF066
:1008B000F29EF76AC60FF66E080EF7220900F55091
:1008C0000EBEF28E12000D526573657465616E6422
:1008D0006F206C6120696E696369616C697A61631C
:1008E000696F6E2E2E2E0D00F2CF0EF0F29EF76A7B
:1008F000020FF66E090EF7220900F5500EBEF28EB9
:1009000012002020486F726120696E636F727265F9
:10091000637461210000F2CF0EF0F29EF76A300F8F
:10092000F66E090EF7220900F5500EBEF28E120087
:100930003A00F2CF0EF0F29EF76A4C0FF66E090EF7
:10094000F7220900F5500EBEF28E120020204D69EC
:100950006E75746F7320696E636F72726563746F06
:1009600073210000F2CF0EF0F29EF76A7E0FF66E52
:10097000090EF7220900F5500EBEF28E12000D4747
:1009800075617264616E646F20636F6E666967750E
:10099000726163696F6E2E2E2E00F2CF0EF0F29E02
:1009A000F76AB40FF66E090EF7220900F5500EBE75
:1009B000F28E12000D496E696369616E646F207377
:1009C000697374656D612E2E2E0D0000F2CF0EF04E
:1009D000F29EF76AE60FF66E090EF7220900F5504F
:1009E0000EBEF28E120054454D50202D2025332E80
:1009F0003166202563430A484F5241202D200000D4
:100A0000F2CF0EF0F29EF76A1A0FF66E0A0EF72278
:100A10000900F5500EBEF28E12000D5245474953A3
:100A200054524F204445204556454E544F530D00D7
:100A3000F2CF0EF0F29EF76A4A0FF66E0A0EF72218
:100A40000900F5500EBEF28E12002A2A2A2A2A2AFE
:100A50002A2A2A2A2A2A2A2A2A2A2A2A2A0D000067
:100A6000F2CF0EF0F29EF76A7A0FF66E0A0EF722B8
:100A70000900F5500EBEF28E1200466563686120D3
:100A80002020202020202020202054656D702E2042
:100A90002020205465726D2E20204D696E2E532E1D
:100AA00020204D696E2E432E0D00F2CF0EF0F29EE7
:100AB000F76AC40FF66E0A0EF7220900F5500EBE53
:100AC000F28E12003D3D3D3D3D3D3D3D3D3D3D3DB8
:100AD0003D3D3D3D3D3D3D3D3D3D3D3D3D3D3D3D46
:100AE0003D3D3D3D3D3D3D3D3D3D3D3D3D3D3D3D36
:100AF0003D3D0D00F2CF0EF0F29EF76A0E0FF66E3E
:100B00000B0EF7220900F5500EBEF28E12002000E7
:100B1000F2CF0EF0F29EF76A2A0FF66E0B0EF72256
:100B20000900F5500EBEF28E12000D3D3D3D3D3DDB
:100B30003D3D3D3D3D3D3D3D3D3D3D3D3D3D3D3DE5
:100B40003D3D3D3D3D3D3D3D3D3D3D3D3D3D3D3DD5
:100B50003D3D3D3D3D3D3D3D0D00F2CF0EF0F29E51
:100B6000F76A740FF66E0B0EF7220900F5500EBEF1
:100B7000F28E1200BF517565206F706572616369F6
:100B80006F6E206465736561207265616C697A615E
:100B9000723F0D00F2CF0EF0F29EF76AAE0FF66EC6
:100BA0000B0EF7220900F5500EBEF28E1200302E09
:100BB0002053616C69720D00F2CF0EF0F29EF76A5D
:100BC000D20FF66E0B0EF7220900F5500EBEF28E14
:100BD0001200312E20457874726165722074696547
:100BE0006D706F73206D6564696F7320706F722014
:100BF0006469610D0000F2CF0EF0F29EF76A100FEB
:100C0000F66E0C0EF7220900F5500EBEF28E1200A1
:100C1000322E2045787472616572207469656D703A
:100C20006F7320746F74616C65730D00F2CF0EF0FA
:100C3000F29EF76A460FF66E0C0EF7220900F55089
:100C40000EBEF28E1200332E2045787472616572EA
:100C5000206461746F73206D656E7375616C65736C
:100C60000D00F2CF0EF0F29EF76A7C0FF66E0C0EBE
:100C7000F7220900F5500EBEF28E12003D3D3D3DBB
:100C80003D3D3D3D3D3D3D3D3D3D3D3D3D3D3D3D94
:100C90003D3D3D3D3D3D3D3D3D3D3D3D3D3D3D3D84
:100CA0003D3D3D3D3D3D3D3D3D0D0000F2CF0EF053
:100CB000F29EF76AC60FF66E0C0EF7220900F55089
:100CC0000EBEF28E12000D53616C69656E646F2E5C
:100CD0002E2E0D00F2CF0EF0F29EF76AEE0FF66E9A
:100CE0000C0EF7220900F5500EBEF28E12000D54C4
:100CF0002E206D6564696F20656E63656E6469643E
:100D00006F2073697374656D6120706F7220646900
:100D1000613A2025332E3266206D696E75746F73CB
:100D20000D0D0000F2CF0EF0F29EF76A3E0FF66E48
:100D30000D0EF7220900F5500EBEF28E1200542E51
:100D4000206D6564696F20656E63656E6469646FAC
:100D50002063616C6465726120706F7220646961E8
:100D60003A2025332E3266206D696E75746F730DCF
:100D70000D00F2CF0EF0F29EF76A8C0FF66E0D0E9C
:100D8000F7220900F5500EBEF28E12000D542E20EF
:100D9000746F74616C20656E63656E6469646F2046
:100DA00073697374656D613A20256C75206D696E89
:100DB00075746F730D0D0000F2CF0EF0F29EF76A9E
:100DC000D20FF66E0D0EF7220900F5500EBEF28E10
:100DD0001200542E20746F74616C20656E63656E12
:100DE0006469646F2063616C646572613A20256C8C
:100DF00075206D696E75746F730D0D00F2CF0EF076
:100E0000F29EF76A160FF66E0E0EF7220900F550E5
:100E10000EBEF28E12000D323000F2CF0EF0F29EB6
:100E2000F76A340FF66E0E0EF7220900F5500EBE6B
:100E3000F28E12002D2D2D2D2D2D2D2D2D2D2D2D04
:100E40002D2D2D2D2D2D2D2D2D2D2D2D2D2D2D2DD2
:100E50002D2D2D2D2D2D2D2D2D2D2D2D2D2D2D2DC2
:100E60002D2D2D2D2D2D2D2D2D0D0000F2CF0EF021
:100E7000F29EF76A860FF66E0E0EF7220900F55005
:100E80000EBEF28E120020202020202020202020C4
:100E900020542E2073697374656D6120286D696E0E
:100EA0002F646961292020542E2063616C6465726F
:100EB0006120286D696E2F646961290D0000F2CFF1
:100EC0000EF0F29EF76AD80FF66E0E0EF7220900AA
:100ED000F5500EBEF28E1200454E45524F25332E70
:100EE000326625332E32660D0000F2CF0EF0F29EF0
:100EF000F76A040FF66E0F0EF7220900F5500EBECA
:100F0000F28E12004645425245524F25332E32662C
:100F100025332E32660D0000F2CF0EF0F29EF76AF6
:100F2000320FF66E0F0EF7220900F5500EBEF28E4C
:100F300012004D41525A4F25332E326625332E3240
:100F4000660D0000F2CF0EF0F29EF76A5E0FF66EAD
:100F50000F0EF7220900F5500EBEF28E120041422C
:100F600052494C25332E326625332E32660D000051
:100F7000F2CF0EF0F29EF76A8A0FF66E0F0EF7228E
:100F80000900F5500EBEF28E12004D41594F253327
:100F90002E326625332E32660D00F2CF0EF0F29E11
:100FA000F76AB40FF66E0F0EF7220900F5500EBE69
:100FB000F28E12004A554E494F25332E32662533A4
:100FC0002E32660D0000F2CF0EF0F29EF76AE00FAF
:100FD000F66E0F0EF7220900F5500EBEF28E1200CB
:100FE0004A554C494F25332E326625332E32660D35
:100FF0000000F2CF0EF0F29EF76A0C0FF66E100EA4
:10100000F7220900F5500EBEF28E120041474F53F1
:10101000544F25332E326625332E32660D00F2CF23
:101020000EF0F29EF76A380FF66E100EF7220900E6
:10103000F5500EBEF28E12005345505449454D42B4
:10104000524525332E326625332E32660D00F2CFFF
:101050000EF0F29EF76A680FF66E100EF722090086
:10106000F5500EBEF28E12004F43545542524525A4
:10107000332E326625332E32660D0000F2CF0EF08D
:10108000F29EF76A960FF66E100EF7220900F550E1
:101090000EBEF28E12004E4F5649454D4252452526
:1010A000332E326625332E32660D0000F2CF0EF05D
:1010B000F29EF76AC60FF66E100EF7220900F55081
:1010C0000EBEF28E120044494349454D4252452519
:1010D000332E326625332E32660D0000F0901E88C6
:1010E000F0902CEF00F0EA6A880EE96EEF5012E003
:1010F000020E016EBF0E006E0400002EFDD7012E01
:10110000F9D7960E006E002EFED7000000000400F6
:10111000EF2EEED7000C8939F00B006E0F0E811404
:101120000010816E000081860400000000000000B5
:101130008196000C090E895F0BE3EA6A890EE96E5D
:10114000D890EF32EF5004E001D00400EF2EFDD72D
:10115000000C81940400020E886FC5DF090E886FB1
:101160006D0E896FE7DF882FFBD786A1819486B14A
:1011700081840000000081968739886F0F0E8817E0
:1011800088C089F0C8DF87510F0B886F896FC3DF74
:10119000000C030E936E81948196320E886FA3DF4C
:1011A000020E896FB8DF050E886F9DDF6F6A6F5082
:1011B000030812E3036A6F50F2CF70F0F29E4EEC18
:1011C00000F070BEF28E716E866B876FC2DF050E07
:1011D000886F89DF6F2AEBD78AEF2DF0832D01D03E
:1011E00003D0400E846F01D0846B010E825D842792
:1011F00084518009856F866B876FABDF000C81514E
:101200000C0A05E0060A0BE0020A0FE013D0866B19
:10121000010E876F9EDF020E886F65DF11D0010E11
:10122000826F020E836FDADF0BD0866B100E876F32
:1012300090DF06D0010E866F81C087F08ADF00D074
:10124000000C006A016A8151D89082B100260032F8
:10125000013282B300260032013282B5002600320C
:10126000013282B700260032013282B900260032F4
:10127000013282BB00260032013282BD00260032DC
:10128000013282BF002600320132B3EF09F07F6ADB
:101290007D6A0A0E7E6E7C6A7A507B1003E1000E36
:1012A000016EC1D07F507F2A036A7A24E96E7B5099
:1012B0000320EA6EEFCF80F080512D080DE1010E82
:1012C0007D6E7F507F2A036A7A24E96E7B5003206B
:1012D000EA6EEFCF80F00DD080512B080AE17F50ED
:1012E0007F2A036A7A24E96E7B500320EA6EEFCFEF
:1012F00080F080512F08D8B08ED080513908D8A006
:101300008AD08051300821E1036A7F507A24E96E47
:101310007B500320EA6EEF5078080AE0036A7F50A2
:101320007A24E96E7B500320EA6EEF5058080DE1F5
:10133000100E7E6E7F2A7F507F2A036A7A24E96E20
:101340007B500320EA6EEFCF80F07E500A081BE14D
:1013500080512F0817E28051390814E30A0E816F7B
:101360007CC082F06ED7300E805D01247C6E7F5091
:101370007F2A036A7A24E96E7B500320EA6EEFCF5E
:1013800080F0E6D748D07E50100845E180516008D3
:1013900006E280517A0803E38051DF0B01D08051CF
:1013A000806F80512F0803E28051390806E2805196
:1013B000400831E2805146082EE380512F080CE2AC
:1013C0008051390809E37C38816FF00E8117300EA7
:1013D000805D81257C6E09D07C38816FF00E81178D
:1013E000410E805D0A0F81257C6E7F507F2A036A43
:1013F0007A24E96E7B500320EA6EEFCF80F08051B3
:10140000600806E280517A0803E38051DF0B01D0C7
:101410008051806FC6D77D2C04D07E500A0801E130
:101420007C6C7CC001F0000C796A79C078F078C0DF
:1014300077F077502F0803E27750390808E27750A9
:10144000080805E09EAAFED7AECF77F0F2D7775016
:10145000080803E1640E016E21D077509EA8FED7E4
:10146000AD6E78502F0803E27850390808E27850C2
:10147000080805E09EAAFED7AECF78F0F2D77850E4
:10148000080803E1640E016E09D078509EA8FED7CB
:10149000AD6E7B6A770E7A6EFADE0150000C806BBF
:1014A0007F50090805E20A0E7F5E100E802703D0E8
:1014B0007F50802701D0F4D780C001F0000C080EC7
:1014C000016E0000000000008B9694960000000062
:1014D000000082378B98D8B09488D8A094989486CE
:1014E00082A6FED7012EEDD7000000008B969496C1
:1014F00000009488000000000000000000000000D0
:10150000948682A6FED7016A00000000000082B81F
:1015100001808B9694968B989498000CF29CF29E86
:10152000F2BEFDD794880000000094860000000001
:1015300000008B989498000000008B969496A00E63
:10154000826FBDDF80C082F0BADF81C082F0B7DF7A
:1015500094980000948682A6FED700000000000048
:1015600000000000948800000000000C7750E96E35
:1015700078C0EAFFEFCF7EF07EC07FF090DF01C041
:1015800079F0010E7724E96E000E7820EA6EEFCF35
:101590007EF07EC07FF083DF01C07AF0020E7724F8
:1015A000E96E000E7820EA6EEFCF7EF07EC07FF00D
:1015B00076DF01C07BF0030E7724E96E000E782001
:1015C000EA6EEFCF7EF07EC07FF069DF050E7724F4
:1015D000E96E000E7820EA6EEF38006E00360036B5
:1015E000C00E0016005001107C6E040E7724E96EC8
:1015F000000E7820EA6EEFCF7EF07EC07FF04FDFE6
:10160000060E7724E96E000E7820EA6EEF38006E41
:101610000036E00E0016005001107D6E806B800ECB
:10162000816F7CDFF29CF29EF2BEFDD794880000B1
:10163000000094860000000000008B989498000041
:1016400000008B969496A00E826F39DF010E826F98
:1016500036DF826B34DF79C082F031DF7AC082F00E
:101660002EDF7BC082F02BDF7CC082F028DF7DC0C4
:1016700082F025DF94980000948682A6FED70000B1
:101680000000000000000000948800000000050E2B
:101690007724E96E000E7820EA6EEFCF7EF0100E10
:1016A000806F7EC081F03ADF806B816B37DFCCEFDB
:1016B0000EF08E0E006E8751005E88C002F089C069
:1016C00001F0028E005209E0D890025202E101526C
:1016D00004E002320132002EF7D788AF05D0011E98
:1016E000021E012AD8B4022A0000000C929A899A9C
:1016F0000400020E876FF70E896F1CDD872FFBD762
:10170000928A0400020E876FF70E896F13DD872F10
:10171000FBD7928A000C896B895107081AE3929AC9
:10172000899A0400000000000000D890883302E28B
:10173000899A01D0898A929A0400270E006E002EA1
:10174000FED70000928A0400000000000000892BF0
:10175000E3D7000C02019E51D8B471D0006EA251A3
:10176000D8B46DD0002604E3810E002668E204D0D0
:101770007F0E005E64E363E09FC2A6F2A351A61B46
:101780009F8FA38FA151A503F4CFA8F2A051A4036A
:10179000F4CF03F0F3CFA7F2A503F350A827F4503A
:1017A000A723000E0322A151A403F350A827F4504D
:1017B000A723000E026A032202229F51A503F350C1
:1017C000A727F4500322000E02229F51A403F350D6
:1017D0000326F4500222000E016A0122A151A30344
:1017E000F350A727F4500322000E02220122A05139
:1017F000A303F3500326F4500222000E01229F514E
:10180000A303F3500226F4500122002A01BE05D0A2
:10181000A7370336023601360006000EA7AF0AD0FE
:10182000032A02220122015005E1025003E1035084
:1018300001E1002AA6BF018EA6AF019E04D0006A76
:10184000016A026A036A00000001000C4FDFCC0E3F
:10185000886F61DF4E0E886F5EDF0201A16BA06BA7
:101860009F6B800E9E6F7AC0A5F279C0A4F278C0FB
:10187000A3F277C0A2F200016DDF03C082F002C0C4
:1018800081F001C080F000C07FF00201A16BA06B6D
:101890009F6B800E9E6F7EC0A5F27DC0A4F27CC0BF
:1018A000A3F27BC0A2F2000155DF03C086F002C0A4
:1018B00085F001C084F000C083F082C08AF081C04E
:1018C00089F080C088F07FC087F0F3DE01C087F028
:1018D00001C088F020DF86C08AF085C089F084C00E
:1018E00088F083C087F0E5DE01C087F001C088F092
:1018F00012DFFCDECC0E886F0EDF480E886F0BDF28
:1019000004000A0E886F73EC08F00D0E876F2C0E22
:10191000896F10DC872FFBD7000C776A775049EC72
:1019200002F0000905E0772A9EA8FED7AD6EF6D733
:10193000776A775065EC02F0000905E0772A9EA8E7
:10194000FED7AD6EF6D7776A775080EC02F00009CB
:1019500005E0772A9EA8FED7AD6EF6D76F6A766A45
:1019600076C075F075500D08D8B465D09EAAFED724
:10197000AECF75F07B6A750E7A6E89DC010E015C64
:101980006F6E6F50F90F56E2070F62EF0FF0776A34
:101990007750A9EC02F0000905E0772A9EA8FED74F
:1019A000AD6EF6D747D0776A7750C0EC02F00009E9
:1019B00005E0772A9EA8FED7AD6EF6D73BD0776AB2
:1019C0007750D7EC02F0000905E0772A9EA8FED7F1
:1019D000AD6EF6D72FD0776A7750EEEC02F00009A3
:1019E00005E0772A9EA8FED7AD6EF6D723D0776A9A
:1019F000775005EC03F0000905E0772A9EA8FED792
:101A0000AD6EF6D717D0776A77501CEC03F000095B
:101A100005E0772A9EA8FED7AD6EF6D70BD0776A81
:101A2000775033EC03F0000905E0772A9EA8FED733
:101A3000AD6EF6D797D7776A77504AEC03F0000976
:101A400005E0772A9EA8FED7AD6EF6D7EDDC01C083
:101A500070F0705064080CE1776A77505CEC03F02A
:101A6000000905E0772A9EA8FED7AD6EF6D755D7B8
:101A700070501F0802E3705214E1776A775079ECD6
:101A800003F0000905E0772A9EA8FED7AD6EF6D7D1
:101A9000020E776EFA0E886F73EC08F0772EFAD785
:101AA0003CD7776A77509EEC03F0000905E0772A6F
:101AB0009EA8FED7AD6EF6D7B7DC01C071F07150AD
:101AC00064080CE1776A77505CEC03F0000905E0EC
:101AD000772A9EA8FED7AD6EF6D71FD771500C0897
:101AE00002E3715214E1776A7750ACEC03F000091D
:101AF00005E0772A9EA8FED7AD6EF6D7020E776E68
:101B0000FA0E886F73EC08F0772EFAD706D770506C
:101B10001D0803E2715002080FE070501F0820E119
:101B20007150040809E07150060806E07150090878
:101B300003E071500B0814E1776A7750D1EC03F0A1
:101B4000000905E0772A9EA8FED7AD6EF6D7020EF3
:101B5000776EFA0E886F73EC08F0772EFAD7DDD621
:101B6000776A77509EEC03F0000905E0772A9EA87B
:101B7000FED7AD6EF6D758DC01C072F07250640823
:101B800014E1776A77505CEC03F0000905E0772AEE
:101B90009EA8FED7AD6EF6D7020E776EFA0E886F4E
:101BA00073EC08F0772EFAD7B8D67250630803E3C7
:101BB0007250080814E3776A7750F7EC03F00009D5
:101BC00005E0772A9EA8FED7AD6EF6D7020E776E97
:101BD000FA0E886F73EC08F0772EFAD79ED6725003
:101BE000030B1AE07150020817E170501D0814E150
:101BF000776A77501CEC04F0000905E0772A9EA86C
:101C0000FED7AD6EF6D7020E776EFA0E886F73ECC4
:101C100008F0772EFAD781D6020E776EFA0E886F0B
:101C200073EC08F0772EFAD77250030B02E1556A75
:101C300014D0010E725C030B03E1010E556E0DD042
:101C4000020E725C030B03E1020E556E06D0030E0A
:101C5000725C030B02E1030E556E776A775045EC18
:101C600004F0000905E0772A9EA8FED7AD6EF6D7EE
:101C700014EC0AF001C073F07350640814E1776A41
:101C8000775056EC04F0000905E0772A9EA8FED7AD
:101C9000AD6EF6D7020E776EFA0E886F73EC08F011
:101CA000772EFAD73AD67350170814E2776A77502E
:101CB00074EC04F0000905E0772A9EA8FED7AD6E0B
:101CC000F6D7020E776EFA0E886F73EC08F0772E57
:101CD000FAD7C3D7776A77508BEC04F0000905E098
:101CE000772A9EA8FED7AD6EF6D714EC0AF001C095
:101CF00074F07450640814E1776A775056EC04F07D
:101D0000000905E0772A9EA8FED7AD6EF6D7020E31
:101D1000776EFA0E886F73EC08F0772EFAD7FDD540
:101D200074503B0814E2776A775099EC04F000098C
:101D300005E0772A9EA8FED7AD6EF6D7020E776E25
:101D4000FA0E886F73EC08F0772EFAD786D7020E5A
:101D5000776EFA0E886F73EC08F0772EFAD7776AF1
:101D60007750B2EC04F0000905E0772A9EA8FED770
:101D7000AD6EF6D771C049F070C048F055C04AF05A
:101D800073C047F074C046F0456A6FC04BF0786A84
:101D9000450E776EB6EF0AF0226A216A200E206E99
:101DA000830E1F6E436A536A72C054F022C08AF0D9
:101DB00021C089F020C088F01FC087F07ADC01C004
:101DC00077F0A96A01C0A8FFA69CA69EA684F2CFC0
:101DD00000F0F29E0F01550EA76EAA0EA76EA68206
:101DE000A6B2FED7A6940050F212010EA96E43C00F
:101DF000A8FFA69CA69EA684F2CF00F0F29E550EE8
:101E0000A76EAA0EA76EA682A6B2FED7A694005011
:101E1000F212020EA96E53C0A8FFA69CA69EA6842D
:101E2000F2CF00F0F29E550EA76EAA0EA76EA68204
:101E3000A6B2FED7A6940050F212030EA96E54C0AB
:101E4000A8FFA69CA69EA684F2CF00F0F29E550E97
:101E5000A76EAA0EA76EA682A6B2FED7A6940050C1
:101E6000F212040EA96E55C0A8FFA69CA69EA684D9
:101E7000F2CF00F0F29E550EA76EAA0EA76EA682B4
:101E8000A6B2FED7A6940050F2127A6A796A7F0E43
:101E9000786E850E776E22C07EF021C07DF020C066
:101EA0007CF01FC07BF00001D1DC776A7750CDEC6D
:101EB00004F0000905E0772A9EA8FED7AD6EF6D79C
:101EC000A1EF2DF0F2CF0EF0F29EE824E90FF66EAE
:101ED0001E0EF76ED8B0F72A0A00F550FA6E080009
:101EE000F5500EBEF28EF96E8E19A619BE19D619CE
:101EF000EE19061A1E1A806B805107081DE3929A8C
:101F0000899A0400000000000000928A0400040E78
:101F1000006E002EFED700000000928A80BA02D028
:101F2000D89001D0D880813304004F0E006E002E6F
:101F3000FED70000802BE0D781C001F0000C8E0E90
:101F4000006E81C001F080C002F0036A81AF05D04D
:101F5000011E021E022A01E1012A015209E102C00A
:101F600001F0026A080E005E015202E1006A0AD026
:101F7000D89001BE04D0023601360006F9D781BFE1
:101F800001D0019E00009FEF10F002018851D8B4EB
:101F9000A5D0946F8C51D8B4A1D0945F05E37F0E87
:101FA0009427D8B09BD006D0810E945FD8A096D04D
:101FB000D8B494D094C200F0016A026A036A936BA9
:101FC00089C292F2928F8AC291F28BC290F2190E5C
:101FD000946F8F51905F0DE2010E915F0AE2925F64
:101FE00008E2935F06E2932B922B912B8F5190275F
:101FF00028D08E51915F12E2010E925F0FE2935F43
:102000000DE2932B922B8E5191278F51902719E33C
:10201000912B17E1922B15E1932B13D08D51800951
:10202000925F0EE2010E935F0BE2932B8D518009BC
:1020300092278E519127E9E3922BE7E1932BE5D785
:102040000380942F01D00BD0D890903791379237DE
:102050009337D8900336023601369537BAD795A113
:1020600006D0D890013202320332953302D00006F6
:1020700035E095BF1ED0D89090379137923793377F
:102080008F51905F07E2010E915F04E2925F02E2DE
:10209000935F1AE38E51915F05E2010E925F02E2B7
:1020A000935F12E38D518009925F03E2010E935F0B
:1020B0000BE3032A09E1022A07E1012A05E1002ACC
:1020C0000DE001320232033289C294F28D51941B29
:1020D00094AF02D0018E06D0019E04D0006A016A3E
:1020E000026A036A00000001000C776A76EC0BF0CC
:1020F000CC0E886F8BEC0BF0440E886F8BEC0BF0E2
:10210000775204E1F8DE01C077F0FAD776EC0BF0F5
:10211000CC0E886F8BEC0BF0BE0E886F8BEC0BF047
:10212000EADE01C078F0E7DE01C079F079C07BF02B
:1021300078C07AF07BC081F07AC080F000D700C010
:1021400080F001C081F002C082F003C083F003C0C0
:102150008BF202C08AF201C089F200C088F202014B
:102160008F6B8E6B8D6B800E8C6F00010EDF03C04A
:102170007FF002C07EF001C07DF000C07CF0C80E90
:10218000886F73EC08F07CC000F07DC001F07EC069
:1021900002F07FC003F0000C6F6A76EC0BF0CC0EFF
:1021A000886F8BEC0BF0440E886F8BEC0BF06F524A
:1021B00004E1A1DE01C06FF0FAD776EC0BF0EC0E73
:1021C000886F8BEC0BF0929A899A04000000000053
:1021D0000000928A0400040E006E002EFED700005C
:1021E0000000928A709080BA708004004F0E006EDA
:1021F000002EFED70000929A899A04000000000089
:102200000000928A0400040E006E002EFED700002B
:102210000000928A709280BA708204004F0E006EA5
:10222000002EFED70000006A70B2008070500018C7
:10223000010B04E0010E016E04D003D0000E016E0C
:1022400000D0000C800ED8A202D00201871B020130
:102250008C6B8D6B83C28BF287518B1B8251D8B4F0
:10226000DFD08A6F006E8651D8B4E3D08A5FD8B4CD
:1022700083D03EE387C290F2908F88C28FF289C2EA
:102280008EF28D6BD89090338F338E338D338A2FAF
:10229000F8D78BAF03D08C81E0D08C918A918C8958
:1022A000020EEA6E850EE96EEBD08C998BBF0AD0D8
:1022B0008AA113D090338F338E338D33002AD8B454
:1022C000C7D00BD090BF0CD0D8908D378E378F37BA
:1022D00090370006D8B4BCD0F5D78C8D6DD08C9DCE
:1022E00083C28BF283AF02D0908FABD0909FA9D0E6
:1022F00086C28AF286C200F082518A5F83C290F25F
:10230000908F84C28FF285C28EF28D6BD8909033FD
:102310008F338E338D338A2FF8D78BAF03D08C83D6
:102320009CD08C938A918C8B020EEA6E890EE96E9A
:10233000A7D08C9B8BBF0AD08AA113D090338F3348
:102340008E338D33002AD8B483D00BD090BF0CD0FD
:10235000D8908D378E378F3790370006D8B478D025
:10236000F5D78C8F29D08C9F87C28BF287AF02D094
:10237000908F67D0909F65D087C290F2908F88C26F
:102380008FF289C28EF28BAF04D0909F8C8565D07E
:102390008C958D6B8A91020EEA6E850EE96E70D077
:1023A0008BBF1CD083C28BF28AA106D090338F33AF
:1023B0008E338D33002A4CE08DAF0BD08E2B09E18C
:1023C0008F2B07E1902B05E190338F338E33002A5A
:1023D0003FE08CBD84D78CBFC6D71CD0800E901B2D
:1023E00090AF04D03AD087C28BF20AD083C28BF26E
:1023F000905306E18F5304E18E5302E1006A21D02D
:1024000090BF08D0D8908D378E378F379037002EF9
:10241000F7D71ED08BAF02D0908F13D0909F11D0E2
:1024200086C200F087C290F288C28FF289C28EF213
:1024300008D082C200F083C290F284C28FF285C2BB
:102440008EF290C201F08FC202F08EC203F034D03F
:10245000006A016A026A036A2FD08D6B8E1F8F1F7C
:10246000901F8D1F8D2B05E18E2B03E18F2B01E13A
:10247000902B8CB112D78CB354D78CB589D7B3D7E6
:10248000EF508E2705E38F2B03E1902BD8B48A8180
:10249000ED52EF508F2703E3902BD8B48A81ED5291
:1024A000EF50EFBE01D0800A9027D8B08A818CB956
:1024B000FCD68CBB3ED774D700000001000C8E0EFA
:1024C000006E89C201F088C202F0036A015209E17C
:1024D00002C001F0026A080E005E015202E1006AC9
:1024E00008D0D89001BE04D0023601360006F9D7D4
:1024F000019E0000000C78C07FF07C507F1A7FAEF8
:1025000005D0D894D89078BED8802FD078C07FF0EE
:102510007BC080F07750805F06E07FAE26D0D85039
:10252000010AD86E22D07CC080F07850805F06E02F
:102530007FAE1BD0D850010AD86E17D07DC080F076
:102540007950805F06E07FAE10D0D850010AD86E77
:102550000CD07EC080F07A50805F06E07FAE05D060
:10256000D850010AD86E01D0D890000C0C0E016E24
:10257000C250C30B0110C26E0400060E006E002E86
:10258000FED7C282C2B2FED7C4500201896B886FE7
:10259000000195DF0201A16BA06B480E9F6F850EB5
:1025A0009E6F03C0A5F202C0A4F201C0A3F200C056
:1025B000A2F20001AAEC0BF000C077F001C078F0A5
:1025C00002C079F003C07AF003C08BF202C08AF235
:1025D00001C089F200C088F202018F6B8E6B7F0E02
:1025E0008D6F860E8C6F0001D0DCD8920201856B56
:1025F000846B836B826B03C089F202C088F201C0D6
:1026000087F200C086F200011DDE03C072F002C036
:1026100071F001C070F000C06FF0080E016EC25082
:10262000C30B0110C26E0400060E006E002EFED712
:10263000C282C2B2FED7C4500201896B886F00010A
:102640003EDF0201A16BA06B480E9F6F850E9E6F4F
:1026500003C0A5F202C0A4F201C0A3F200C0A2F21E
:102660000001AAEC0BF000C077F001C078F002C0C6
:1026700079F003C07AF003C08BF202C08AF201C085
:1026800089F200C088F202018F6B8E6B7F0E8D6F16
:10269000860E8C6F000179DCD8920201856B846B09
:1026A000836B826B03C089F202C088F201C087F29B
:1026B00000C086F20001C6DD03C076F002C075F0EE
:1026C00001C074F000C073F01EA02DD0D88272C07B
:1026D00085F271C084F270C083F26FC082F2020191
:1026E000896B886B200E876F810E866F0001AADDD3
:1026F00003C07AF002C079F001C078F000C077F032
:1027000076C07EF075C07DF074C07CF073C07BF045
:10271000F2DE01E204E1010E016E1FD003D0000ED3
:10272000016E1BD01AD072C07AF071C079F070C0FF
:1027300078F06FC077F076C07EF075C07DF074C021
:102740007CF073C07BF0D7DE01E204E1010E016E84
:1027500004D003D0000E016E00D0000C080E836F71
:1027600000C084F09488000000000000948682A6D7
:10277000FED782B8D88082A8D89001360000000029
:1027800094968B96832FEED794880000000000006B
:102790008B988451D8A494980000948682A6FED782
:1027A000000000008B9694960000000000008B98BB
:1027B0009498000C83C084F0D8908433780E8417EA
:1027C0008431006E00323F0E001600508425856F64
:1027D00083510F0B8525016E000CF29CF29EF2BE18
:1027E000FDD79488000000009486000000000000DF
:1027F0008B989498000000008B969496A00E826FA0
:102800005FEC0AF080C082F05FEC0AF09488000070
:102810000000948600000000000082A6FED78B987E
:102820009498000000008B969496A10E826F5FEC46
:102830000AF0006A93DF01C081F09498000094864A
:1028400082A6FED70000000000000000000094886F
:102850000000000081C001F0F4EF14F0F29CF29E41
:10286000F2BEFDD7948800000000948600000000AE
:1028700000008B989498000000008B969496A00E10
:10288000826F5FEC0AF0020E826F5FEC0AF09488B0
:1028900000000000948600000000000082A6FED721
:1028A0008B989498000000008B969496A10E826FEE
:1028B0005FEC0AF0010E006E51DF01C07BF0010EEB
:1028C000006E4CDF01C07CF0010E006E47DF01C0DE
:1028D0007DF0010E006E42DF01C07EF0006A3EDF37
:1028E00001C07FF094980000948682A6FED7000075
:1028F000000000000000000094880000000077C085
:1029000001F078C003F077C080F078C081F07BC020
:1029100083F050DF81C0EAFF80C0E9FF01C0EFFF14
:10292000010E7724016E000E7820036E01C080F046
:10293000816F7CC083F03EDF81C0EAFF80C0E9FF89
:1029400001C0EFFF020E7724016E000E7820036EA7
:1029500001C080F0816F7D503F0B826F836F2ADF53
:1029600081C0EAFF80C0E9FF01C0EFFF030E7724BA
:10297000016E000E7820036E01C080F0816F7E50E2
:102980003F0B826F836F16DF81C0EAFF80C0E9FFD3
:1029900001C0EFFF040E7724016E000E7820036E55
:1029A00001C080F0816F7F501F0B826F836F02DF49
:1029B00081C0EAFF80C0E9FF01C0EFFF060E772467
:1029C000E96E000E7820EA6E7F38006E0032070E46
:1029D000001600C0EFFF7E38796E79327932030E2F
:1029E0007916100E806FF9D601C07AF07A50030B79
:1029F000795C02E07A2AFAD7050E7724E96E000E98
:102A00007820EA6E7AC0EFFF100E806F7AC081F0F6
:102A10008EEC0AF0000C786A450E776E1FDF47C017
:102A20004CF046C04DF0526A516A83A006D047C0B0
:102A30004EF046C04FF045C050F08384000C445027
:102A4000050DF350036A2F0F016E000E032201C023
:102A500071F003C072F0EA6A3E0EE96E03C0E2FF55
:102A600001C0E1FF050E016EE6CFEEFF012EFCD79F
:102A70003EC056F03FC057F01E8C000C8351815D64
:102A800003E2010E016E13D08151835D03E2000E5B
:102A9000016E0DD08351815D0AE18251845D04E3B2
:102AA000010E016E04D003D0000E016E00D0000CA8
:102AB00088518A03F3CF01F0F4CF00F08B03F35079
:102AC000002689518A03F3500020026E000C77C063
:102AD00081F078C082F079C083F07AC084F0CEDFD4
:102AE000015230E07E6A79C07DF07EC089F079C005
:102AF00088F08B6B3C0E8A6FDBDF02C07FF001C079
:102B00007EF0036A7A500124806F03500220816FA7
:102B1000836B77C082F083C089F077C088F08B6BBD
:102B20003C0E8A6FC5DF01C083F0036A7850012430
:102B3000016E025003220150805D7B6E035081596B
:102B40007C6E36D07E6A77C07DF07EC089F077C01B
:102B500088F08B6B3C0E8A6FABDF02C07FF001C048
:102B60007EF0036A78500124016E02500322015066
:102B7000FF0AA10F806F050E0354816F836B79C02C
:102B800082F083C089F079C088F08B6B3C0E8A6F2D
:102B90008FDF02C003F001508025836F0250812136
:102BA000846F036A7A5083257B6E035084217C6E88
:102BB0007BC001F07CC002F0000C77C081F078C0CF
:102BC00082F07AC083F07BC084F058DF01524FE07E
:102BD0007A50775C08E17B50785C05E179507C5C49
:102BE0007E6A7D6E43D0826B7AC081F082C089F0AC
:102BF0007AC088F08B6B3C0E8A6F5ADF02C083F07C
:102C000001C082F0036A7B500124846F03500220CC
:102C1000856F876B77C086F087C089F077C088F0B2
:102C20008B6B3C0E8A6F44DF01C087F0036A7850DB
:102C30000124016E025003220150845D7F6E035017
:102C40008559806F80C089F07FC088F08B6B3C0E07
:102C50008A6F2EDF7C500124836F000E0220846F68
:102C60007950835D7D6E000E84597E6E4AD0826BF2
:102C700077C081F082C089F077C088F08B6B3C0E02
:102C80008A6F16DF02C083F001C082F0036A7850B9
:102C90000124016E025003220150FF0AA10F846F2C
:102CA000050E0354856F876B7AC086F087C089F064
:102CB0007AC088F08B6B3C0E8A6FFADE02C003F09C
:102CC00001508425876F02508521886F036A7B50ED
:102CD00087257F6E03508821806F80C089F07FC078
:102CE00088F08B6B3C0E8A6FE3DE7C500124836F8F
:102CF000000E0220846F7950835D7D6E000E845932
:102D00007E6E7DC001F07EC002F0000C016A026A96
:102D1000006A036A7C5002E17B5018E0100E7D6E61
:102D2000D89079367A36003603367C50035C02E15F
:102D30007B50005C07E37B50005ED8A003067C500C
:102D4000035ED880013602367D2EEAD700002DEFD3
:102D500018F053501A0801E2536A786A450E776EEC
:102D60007DDD4CC077F04DC078F047C079F046C0AB
:102D70007AF0ADDE02C070F001C06FF075EC10F0BB
:102D800003C076F002C075F001C074F000C073F0AB
:102D900076C08AF075C089F074C088F073C087F07F
:102DA00059EC0BF001C071F00201896B71C088F21F
:102DB00000015FEC12F0D88276C085F275C084F213
:102DC00074C083F273C082F203C089F202C088F239
:102DD00001C087F200C086F222EC11F000C077F04B
:102DE00001C078F002C079F003C07AF003C0A1F20C
:102DF00002C0A0F201C09FF200C09EF20201A56BCA
:102E0000A46B480EA36F850EA26F0001AAEC0BF015
:102E100003C08AF002C089F001C088F000C087F0CA
:102E200059EC0BF001C072F083A011D04EC077F0C6
:102E30004FC078F050C079F047C07AF046C07BF0C0
:102E400045C07CF0BADE01505126025052224A5051
:102E5000555C2CE0542A552A030EA96E54C0A8FFD5
:102E6000A69CA69EA684F2CF00F0F29E0F01550EFE
:102E7000A76EAA0EA76EA682A6B2FED7A694005091
:102E8000F212040EA96E55C0A8FFA69CA69EA684A9
:102E9000F2CF00F0F29E550EA76EAA0EA76EA68284
:102EA000A6B2FED7A6940050F212000153500A0DAC
:102EB000F350140F776EA96E48C0A8FFA69CA69E7B
:102EC000A684F2CF00F0F29E0F01550EA76EAA0E57
:102ED000A76EA682A6B2FED7A6940050F212535057
:102EE0000A0DF350140F010F786EA96E49C0A8FFA8
:102EF000A69CA69EA684F2CF00F0F29E550EA76E69
:102F0000AA0EA76EA682A6B2FED7A6940050F21211
:102F100053500A0DF350140F020F786EA96E54C06F
:102F2000A8FFA69CA69EA684F2CF00F0F29E550EA6
:102F3000A76EAA0EA76EA682A6B2FED7A6940050D0
:102F4000F21253500A0DF350140F030F786EA96E4E
:102F500047C0A8FFA69CA69EA684F2CF00F0F29ED2
:102F6000550EA76EAA0EA76EA682A6B2FED7A6948D
:102F70000050F21253500A0DF350140F040F786EE4
:102F8000A96E46C0A8FFA69CA69EA684F2CF00F01C
:102F9000F29E550EA76EAA0EA76EA682A6B2FED707
:102FA000A6940050F21253500A0DF350140F050F5F
:102FB000786EA96E71C0A8FFA69CA69EA684F2CFCB
:102FC00000F0F29E550EA76EAA0EA76EA682A6B2BC
:102FD000FED7A6940050F21253500A0DF350140F6E
:102FE000060F786EA96E72C0A8FFA69CA69EA68446
:102FF000F2CF00F0F29E550EA76EAA0EA76EA68223
:10300000A6B2FED7A6940050F21253500A0DF35008
:10301000140F070F786EA96E6FC0A8FFA69CA69E1E
:10302000A684F2CF00F0F29E550EA76EAA0EA76EF0
:10303000A682A6B2FED7A6940050F21253500A0DF3
:10304000F350140F080F786E52C07AF051C079F027
:103050007C6A3C0E7B6E000159D601C079F078C0C5
:10306000A9FF01C0A8FFA69CA69EA684F2CF00F0EF
:10307000F29E0F01550EA76EAA0EA76EA682A6B2EB
:10308000FED7A6940050F2121EA23CD053500A0D57
:10309000F350140F090F786ED89222C085F221C028
:1030A00084F220C083F21FC082F22EC089F22DC0AC
:1030B00088F22CC087F22BC086F2000122EC11F0BE
:1030C00003C08AF002C089F001C088F000C087F018
:1030D00059EC0BF001C079F078C0A9FF01C0A8FF3E
:1030E000A69CA69EA684F2CF00F0F29E0F01550E7C
:1030F000A76EAA0EA76EA682A6B2FED7A69400500F
:10310000F21228D053500A0DF350140F090F786EA5
:1031100022C08AF021C089F020C088F01FC087F04B
:10312000000159EC0BF001C079F078C0A9FF01C093
:10313000A8FFA69CA69EA684F2CF00F0F29E0F01E7
:10314000550EA76EAA0EA76EA682A6B2FED7A694AB
:103150000050F212532A020EA96E53C0A8FFA69C7B
:10316000A69EA684F2CF00F0F29E550EA76EAA0E80
:10317000A76EA682A6B2FED7A6940050F212839440
:103180000001000C02018651016A855D03E285C2DF
:1031900000F00CD0006A080E876F85370036865124
:1031A000005CD8B0006E0136872FF7D70001000C05
:1031B000200E7BA8300E7C6E7AC000F07AAE07D06D
:1031C000001E002A00C07AF02D0E7C6E7B8E01500E
:1031D0007AC085F2640E0201866F0001D3DF00C061
:1031E0007AF0300E01247D6E7AC085F20A0E02015B
:1031F000866F0001C7DF300E00247F6E300E012481
:103200007E6E7CC000F07BA602D07BAE7B947BB848
:103210000BD07BAE22D07BB420D000C07DF07BB23F
:103220001CD000C07EF019D0300E7D5C16E100C0CD
:103230007DF0200E7C6E7BA604D07B947B827BAEDF
:103240007B92300E7E5C09E100C07EF0200E7D6E28
:103250007BA6F7D77B927BAE7B907BA404D07CC00F
:1032600081F0FFEC08F07BA204D07DC081F0FFEC80
:1032700008F07BA004D07EC081F0FFEC08F07FC096
:1032800081F0FFEC08F0000C02019E51B6089E6F21
:10329000036A9FC2A2F29F8FD8909F33A033A133BD
:1032A00003320232013200329E2FF6D7A2AF0BD08A
:1032B000001E011E021E031E002AD8B4012AD8B423
:1032C000022AD8B4032A0001000C006A016A026ACB
:1032D000036A0201A66BA76BA86BA96BA551A41189
:1032E000A311A2112CE0200EAA6FD8909E379F3711
:1032F000A037A137A637A737A837A937A551A95DA9
:1033000008E1A451A85D05E1A351A75D02E1A25126
:10331000A65D0FE3A251A65FA351D8A0A33DA75F6E
:10332000A451D8A0A43DA85FA551D8A0A53DA95FF0
:10333000D8800036013602360336AA2FD6D70000D1
:10334000020EEA6EA60EE96E0001000CE950796EDD
:1033500078507B6E1CE077C0A1F276C0A0F275C0F9
:103360009FF274C09EF20201A56BA46B200EA36FA6
:10337000820EA26F0001AAEC0BF003C077F002C02E
:1033800076F001C075F000C074F07B2EE4D777C0F2
:10339000A1F276C0A0F275C09FF274C09EF274DFF5
:1033A00003C077F002C076F001C075F000C074F081
:1033B00077AE0DD07906798A741E751E761E771E3B
:1033C000742AD8B4752AD8B4762AD8B4772A3B0E92
:1033D000806F9A0E7F6ECA0E7E6E7D6A0A0E7B6EBD
:1033E0007850D8B4792A77C0A1F276C0A0F275C01F
:1033F0009FF274C09EF280C0A5F27FC0A4F27EC08E
:10340000A3F27DC0A2F261DF0150EFCF74F0ECCFE8
:1034100075F0ECCF76F0ECCF77F000520FE1782822
:103420007B5C0CE079500CE00F0B7B5C01E03BE235
:1034300079BE39D079BC04D0200E30D0200E791658
:1034400079AA0DD0799A7850D8A479060050796E6F
:103450002D0E816FFFEC08F07950006E796A78507C
:103460007B5C0BE10050796E2E0E816FFFEC08F053
:103470007950006E200E7916000E300E79AA0ED00B
:10348000799A7850D8A479060050796E2D0E816F04
:10349000FFEC08F07950006E796A300E002600C00B
:1034A00081F0FFEC08F080C0A1F27FC0A0F27EC0E6
:1034B0009FF27DC09EF20201A56BA46BA36B0A0E66
:1034C000A26F000102DF03C080F002C07FF001C0E4
:1034D0007EF000C07DF07B2E86D7000C74C075F0A6
:1034E000866B0E0E876FA9EC08F071C082F0020E99
:1034F000836FEEEC08F075BE03D0755009080BE33E
:103500007A6A7A503BEC02F0000905E07A2A816F72
:10351000FFEC08F0F6D775C07AF01F0E7B6E48DE20
:1035200071C082F0020E836FEEEC08F082B068D0BA
:10353000752A75BE05D07550735C02E272C075F0D5
:1035400075BE03D0755009080BE37A6A7A503BECDC
:1035500002F0000905E07A2A816FFFEC08F0F6D747
:1035600075C07AF01F0E7B6E23DE71C082F0020EF2
:10357000836FEEEC08F0796A786A776A010E766EEE
:1035800082B03DD079520AE1785208E177509B0829
:103590002DE2FF0A03E17650400828E2752A75BE45
:1035A00005D07550735C02E272C075F075BE03D031
:1035B000755009080BE37A6A7A503BEC02F0000977
:1035C00005E07A2A816FFFEC08F0F6D775C07AF033
:1035D0001F0E7B6EEDDD71C082F0020E836FEEEC8C
:1035E00008F0C80E886F73EC08F008D0010E76263C
:1035F000D8B0772AD8B4782AD8B4792AC1D796D740
:1036000082B268D0750675BE03D07250755C02E256
:1036100073C075F075BE03D0755009080BE37A6A64
:103620007A503BEC02F0000905E07A2A816FFFEC4A
:1036300008F0F6D775C07AF01F0E7B6EB9DD71C049
:1036400082F0020E836FEEEC08F0796A786A776A8E
:10365000010E766E82B23DD079520AE1785208E1CD
:1036600077509B082DE2FF0A03E17650400828E2DC
:10367000750675BE03D07250755C02E273C075F0BA
:1036800075BE03D0755009080BE37A6A7A503BEC9B
:1036900002F0000905E07A2A816FFFEC08F0F6D706
:1036A00075C07AF01F0E7B6E83DD71C082F0020E52
:1036B000836FEEEC08F0C80E886F73EC08F008D04A
:1036C000010E7626D8B0772AD8B4782AD8B4792AC9
:1036D000C1D72CD782B404D082B401D0FDD709D091
:1036E00082BA06D0640E756E82BA01D0FDD701D0C1
:1036F0001DD7866B0C0E876FA9EC08F075C001F022
:10370000000C706A2F0E6F6E726A716E736A43508E
:10371000735CD8B090D04350050DF3502F0F7E6EE0
:103720007F6AD8B07F2A0A0E7E5C6F6E000E7F58CB
:10373000706E4350050DF3502F0F7E6E7F6AD8B028
:103740007F2A050E7E5C716E000E7F58726E746A61
:103750007350435CFF0F745C6CE26FC0E9FF70C094
:10376000EAFFEFCF75F0010E6F24E96E000E7020B6
:10377000EA6EEFCF76F071C0E9FF72C0EAFFEFCFDB
:1037800077F0010E7124E96E000E7220EA6EEFCF21
:1037900078F077C081F078C082F075C083F076C091
:1037A00084F03EEC15F001523AE070C003F06FC0B7
:1037B0007EF070C07FF0EA6A790EE96E70C0E2FFB9
:1037C0006FC0E1FF050E016EE6CFEEFF012EFCD7C4
:1037D0006FC080F070C081F072C003F071C082F0E1
:1037E00072C083F070C0EAFF6FC0E9FF72C0E2FFF1
:1037F00071C0E1FF050E016EE6CFEEFF012EFCD792
:1038000072C003F071C0E9FF03C0EAFFE26A790EFB
:10381000E16E050E016EE6CFEEFF012EFCD7FB0E2A
:103820006F26D8A07006FB0E7126D8A07206742AE7
:103830008FD7732A6CD719EF33F0446A786A450E34
:10384000776E2EEC14F047C070F046C071F06F6ACE
:1038500043506F5C31E26F50050DF350756A746E22
:103860002F0E7424E96E000E7520EA6EEFCF72F011
:103870006F50050DF350756A746E010E7424016E5D
:10388000000E7520036E01502F0FE96E000E03200D
:10389000EA6EEFCF73F072C081F073C082F070C037
:1038A00083F071C084F03EEC15F0015203E16FC06B
:1038B00044F002D06F2ACCD71BEF33F0796A435023
:1038C000795CD8B099D07950050DF350036A2F0F69
:1038D000016E000E032201C07AF003C07BF0EA6A99
:1038E000740EE96E03C0E2FF01C0E1FF050E016E38
:1038F000E6CFEEFF012EFCD77950050DF350050FF2
:103900007A6EA96E74C0A8FFA69CA69EA684F2CF6C
:1039100000F0F29E0F01550EA76EAA0EA76EA682AA
:10392000A6B2FED7A6940050F2127950050DF350BE
:10393000050F010F7B6EA96E75C0A8FFA69CA69E01
:10394000A684F2CF00F0F29E550EA76EAA0EA76EC7
:10395000A682A6B2FED7A6940050F2127950050DA9
:10396000F350050F020F7B6EA96E76C0A8FFA69CD0
:10397000A69EA684F2CF00F0F29E550EA76EAA0E68
:10398000A76EA682A6B2FED7A6940050F212795076
:10399000050DF350050F030F7B6EA96E77C0A8FFCE
:1039A000A69CA69EA684F2CF00F0F29E550EA76EAE
:1039B000AA0EA76EA682A6B2FED7A6940050F21257
:1039C0007950050DF350050F040F7B6EA96E78C07A
:1039D000A8FFA69CA69EA684F2CF00F0F29E550EEC
:1039E000A76EAA0EA76EA682A6B2FED7A694005016
:1039F000F212792A000163D7010EA96E43C0A8FF15
:103A0000A69CA69EA684F2CF00F0F29E0F01550E52
:103A1000A76EAA0EA76EA682A6B2FED7A6940050E5
:103A2000F2120001CBEF33F0015083C285F2640E35
:103A30000201866F0001C2EC18F000C083F2015051
:103A4000300E08E1020184A30ED084B70CD084B9F3
:103A5000200E04D0020184978499848101260150AC
:103A60009EA8FED7AD6E83C285F20A0E866F000156
:103A7000C2EC18F000C083F20150300E08E10201E0
:103A800084B70BD084A109D084B9200E000101268F
:103A900001509EA8FED7AD6E0201300E83278351E0
:103AA0009EA8FED7AD6E0001000CE9500201966F92
:103AB0009551986F1CE094C2A1F293C2A0F292C2F9
:103AC0009FF291C29EF2A56BA46B200EA36F820E93
:103AD000A26F0001AAEC0BF003C094F202C093F2B3
:103AE00001C092F200C091F20201982FE4D794C273
:103AF000A1F293C2A0F292C29FF291C29EF2000183
:103B000044EC19F003C094F202C093F201C092F2A7
:103B100000C091F2020194AF0DD09607968B911FD1
:103B2000921F931F941F912BD8B4922BD8B4932B30
:103B3000D8B4942B3B0E9D6F9A0E9C6FCA0E9B6F50
:103B40009A6B0A0E986F9551D8B4962B94C2A1F235
:103B500093C2A0F292C29FF291C29EF29DC2A5F2C0
:103B60009CC2A4F29BC2A3F29AC2A2F2000165EC2D
:103B700019F00150EFCF91F2ECCF92F2ECCF93F22B
:103B8000ECCF94F2005213E102019529985DD8A47C
:103B900002D000010CD096510DE00F0B985D01E0B2
:103BA0003CE296BF3AD096BD05D0200E31D0200E13
:103BB0000201961796AB0DD0969B9551D8A4960707
:103BC0000050966F2D0E9EA8FED7AD6E9651006EDA
:103BD000966B9551985D0BE10050966F2E0E9EA846
:103BE000FED7AD6E9651006E200E9617000E300E69
:103BF00096AB0ED0969B9551D8A496070050966F21
:103C00002D0E9EA8FED7AD6E9651006E966B300EAF
:103C1000002600509EA8FED7AD6E9DC2A1F29CC2A8
:103C2000A0F29BC29FF29AC29EF2A56BA46BA36BFB
:103C30000A0EA26F000165EC19F003C09DF202C0EC
:103C40009CF201C09BF200C09AF20201982F7ED72D
:103C50000001000CEACF8BF2E9CF8AF2020184392D
:103C6000F009866F8627E20F876F320F896F8451C4
:103C70000F0B872787278927E90F886F88278827D1
:103C800083390F0B8827892788378937891F893718
:103C900083510F0B89278637070E856F0A0E880719
:103CA0008927FDE387078827FDE386078727FDE34C
:103CB00085078627FDE3020EEA6E850EE96E070E84
:103CC0008A158A9DE926890EE95CD8B48A8DEF5061
:103CD000006E08E18ABD06D08AB90CD08AB702D03E
:103CE000200E03D08A878A99300E002600509EA8A5
:103CF000FED7AD6EEE508AADE6D70001000C1F0E68
:103D0000B76FB7C0B5F0B5C0B3F0B3C0B2F0B2C0D2
:103D1000B0F0B0C0AEF0AEC0ACF01C0EAD6F1E0E79
:103D2000B66FB6C0B4F0B4C0B1F0B1C0AFF06F6A56
:103D30006F500B080FE36F50040DF350036A7C0FB4
:103D4000E96E000E0320EA6EEF6AEC6AEC6AEC6A38
:103D50006F2AEED76F6A6F500B080FE36F50040D98
:103D6000F350036AC00FE96E000E0320EA6EEF6A9B
:103D7000EC6AEC6AEC6A6F2AEED76F6A6F50030840
:103D800021E3706A70500B081BE36F50300DF35045
:103D90000201836B826F7050040DF350036A822519
:103DA000016E835103220150F40FE96E000E0320CF
:103DB000EA6EEF6AEC6AEC6AEC6A702A0001E2D7FC
:103DC0006F2ADCD76F6A6F50030821E3706A705066
:103DD0000B081BE36F50300DF3500201836B826FB1
:103DE0007050040DF350036A8225016E8351032243
:103DF0000150B40FE96E010E0320EA6EEF6AEC6A1F
:103E0000EC6AEC6A702A0001E2D76F2ADCD7020163
:103E10007F6B7FC27EF27EC27DF2816B806B746BA2
:103E20000001BB6BBA6BB96BB86BBF6BBE6BBD6B84
:103E3000BC6BF16BF06BF36BF26B0201826B825126
:103E4000000100EC05F0000907E00201822B9EA8AA
:103E5000FED7AD6EF4D700010201826B82510001E2
:103E600018EC05F0000907E00201822B9EA8FED79E
:103E7000AD6EF4D700010201826B8251000130EC7B
:103E800005F0000907E00201822B9EA8FED7AD6E67
:103E9000F4D700010201826B8251000155EC05F05C
:103EA000000907E00201822B9EA8FED7AD6EF4D771
:103EB00000016F6A53506F5CD8B028EF23F06F5049
:103EC0000A0DF350140F0201F2CF83F2F29EA96E95
:103ED000A69CA69EA680A85083BFF28E726E6F50DD
:103EE0000A0DF350140F010FF2CF84F2F29EA96E67
:103EF000A69CA69EA680A85084BFF28E736E6F50BB
:103F00000A0DF350140F020FF2CF84F2F29EA96E45
:103F1000A69CA69EA680A85084BFF28E746E6F5099
:103F20000A0DF350140F030FF2CF84F2F29EA96E24
:103F3000A69CA69EA680A85084BFF28E756E6F5078
:103F40000A0DF350140F040FF2CF84F2F29EA96E03
:103F5000A69CA69EA680A85084BFF28E766E6F5057
:103F60000A0DF350140F050FF2CF84F2F29EA96EE2
:103F7000A69CA69EA680A85084BFF28E776E6F5036
:103F80000A0DF350140F060FF2CF84F2F29EA96EC1
:103F9000A69CA69EA680A85084BFF28E786E6F5015
:103FA0000A0DF350140F070FF2CF84F2F29EA96EA0
:103FB000A69CA69EA680A85084BFF28E796E6F50F4
:103FC0000A0DF350140F080FF2CF84F2F29EA96E7F
:103FD000A69CA69EA680A85084BFF28E7A6E6F50D3
:103FE0000A0DF350140F090FF2CF84F2F29EA96E5E
:103FF000A69CA69EA680A85084BFF28E7B6E7250AF
:104000007D5D07E173507E5D04E174507F5DD8B43F
:10401000AED17D536AE07AC289F279C288F200019A
:104020005FEC12F0D892BFC085F2BEC084F2BDC072
:1040300083F2BCC082F203C089F202C088F201C0E0
:1040400087F200C086F222EC11F003C0BFF002C07C
:10405000BEF001C0BDF000C0BCF0010E02017E5DEB
:10406000040DF350036A7C0FE96E000E0320EA6E24
:10407000BCC0EFFFBDC0ECFFBEC0ECFFBFC0ECFF9B
:104080007CC289F27BC288F200015FEC12F0D89208
:10409000BBC085F2BAC084F2B9C083F2B8C082F264
:1040A00003C089F202C088F201C087F200C086F224
:1040B00022EC11F003C0BBF002C0BAF001C0B9F0AD
:1040C00000C0B8F0010E02017E5D040DF350036ADA
:1040D000C00FE96E000E0320EA6EB8C0EFFFB9C052
:1040E000ECFFBAC0ECFFBBC0ECFF74507F5DD8B4EE
:1040F00031D17F53D8B423D1706A70500B08D8A047
:1041000014D17050040DF350036A7C0F016E000E41
:10411000032201C082F203C083F27050040DF350F9
:10412000036A7C0FE96E000E0320EA6EEFCF84F283
:10413000ECCF85F2ECCF86F2ECCF87F2036A7050B9
:10414000AC0FE96E000E0320EA6EEF50896B886FAA
:1041500000015FEC12F087C28BF286C28AF285C240
:1041600089F284C288F203C08FF202C08EF201C0CD
:104170008DF200C08CF2C5EC0FF083C2EAFF82C260
:10418000E9FF00C0EFFF01C0ECFF02C0ECFF03C07D
:10419000ECFF7050040DF350036AC00F016E000E67
:1041A000032201C082F2020103C083F27050040DA9
:1041B000F350036AC00FE96E000E0320EA6EEFCFE2
:1041C00084F2ECCF85F2ECCF86F2ECCF87F2036A73
:1041D0007050AC0FE96E000E0320EA6EEF50896B51
:1041E000886F00015FEC12F087C28BF286C28AF200
:1041F00085C289F284C288F203C08FF202C08EF2B7
:1042000001C08DF200C08CF2C5EC0FF083C2EAFF52
:1042100082C2E9FF00C0EFFF01C0ECFF02C0ECFF6B
:1042200003C0ECFF02017451300DF350836B826FB9
:104230007050040DF350036A8225016E83510322EE
:104240000150F40F016E000E032201C084F203C07E
:1042500085F27050040DF350036A7C0FE96E000E76
:104260000320EA6EEFCF00F0ECCF01F0ECCF02F0CC
:10427000ECCF03F085C2EAFF84C2E9FF00C0EFFF84
:1042800001C0ECFF02C0ECFF03C0ECFF7451300D25
:10429000F350836B826F7050040DF350036A8225D4
:1042A000016E835103220150B40F016E010E0322EF
:1042B00001C084F203C085F27050040DF350036A0C
:1042C000C00FE96E000E0320EA6EEFCF00F0ECCFD6
:1042D00001F0ECCF02F0ECCF03F085C2EAFF84C21C
:1042E000E9FF00C0EFFF01C0ECFF02C0ECFF03C01C
:1042F000ECFF7050040DF350036A7C0FE96E000E62
:104300000320EA6EEF6AEC6AEC6AEC6A7050040D06
:10431000F350036AC00FE96E000E0320EA6EEF6AE5
:10432000EC6AEC6AEC6A702AE8D6036A7451750F7D
:10433000E96E020E0320EA6E7FC2EFFF742B745009
:10434000030B04E11D0E0001AD6F03D01C0E000134
:10435000AD6F020172C07DF273C07EF274C07FF255
:10436000802BD8B4812B7A6B796B7C6B7B6B79500B
:104370007927000E7A237A507B27000E7C23795010
:104380000001F027000EF1237A50F227000EF323EC
:10439000725009080FE30201826B825100017AEC2E
:1043A00005F0000907E00201822B9EA8FED7AD6E42
:1043B000F4D7000172C083F21B0E0201846F00016A
:1043C00014EC1DF02F0E9EA8FED7AD6E7350090899
:1043D0000FE30201826B825100013BEC02F0000905
:1043E00007E00201822B9EA8FED7AD6EF4D7000134
:1043F00073C083F21B0E0201846F000114EC1DF0E8
:104400002F0E9EA8FED7AD6E745009080FE302016F
:10441000826B825100013BEC02F0000907E00201CF
:10442000822B9EA8FED7AD6EF4D7000174C083F234
:104430001B0E0201846F000114EC1DF0200E9EA8DB
:10444000FED7AD6E200E9EA8FED7AD6E7550090842
:104450000FE30201826B825100013BEC02F0000984
:1044600007E00201822B9EA8FED7AD6EF4D70001B3
:1044700075C083F21B0E0201846F000114EC1DF065
:104480003A0E9EA8FED7AD6E765009080FE30201E2
:10449000826B825100013BEC02F0000907E002014F
:1044A000822B9EA8FED7AD6EF4D7000176C083F2B2
:1044B0001B0E0201846F000114EC1DF0200E9EA85B
:1044C000FED7AD6E775009080FE30201826B82516F
:1044D00000017AEC05F0000907E00201822B9EA89A
:1044E000FED7AD6EF4D7000177C083F21B0E020138
:1044F000846F000114EC1DF02E0E9EA8FED7AD6E49
:10450000785009080FE30201826B825100013BECF5
:1045100002F0000907E00201822B9EA8FED7AD6ED3
:10452000F4D7000178C083F21B0E0201846F0001F2
:1045300014EC1DF0DF0E9EA8FED7AD6E430E9EA8B4
:10454000FED7AD6E200E9EA8FED7AD6E200E9EA8A3
:10455000FED7AD6E7BC083F21B0E0201846F00019B
:1045600014EC1DF0DF0E9EA8FED7AD6E430E9EA884
:10457000FED7AD6E030E0201826F200E9EA8FED7FD
:10458000AD6E822FFAD7795063080DE3826B8251AA
:1045900000017AEC05F0000907E00201822B9EA8D9
:1045A000FED7AD6EF4D70001795009080FE3020180
:1045B000826B825100017AEC05F0000907E00201EC
:1045C000822B9EA8FED7AD6EF4D7000179C083F28E
:1045D0001B0E0201846F000114EC1DF0050E020198
:1045E000826F200E9EA8FED7AD6E822FFAD77A502A
:1045F00063080DE3826B825100017AEC05F000093B
:1046000007E00201822B9EA8FED7AD6EF4D7000111
:104610007A5009080FE30201826B825100017AECA3
:1046200005F0000907E00201822B9EA8FED7AD6EBF
:10463000F4D700017AC083F21B0E0201846F0001DF
:1046400014EC1DF00D0E9EA8FED7AD6E6F2A32D46D
:1046500002017D536AE07AC289F279C288F20001D0
:104660005FEC12F0D892BFC085F2BEC084F2BDC02C
:1046700083F2BCC082F203C089F202C088F201C09A
:1046800087F200C086F222EC11F003C0BFF002C036
:10469000BEF001C0BDF000C0BCF0010E02017E5DA5
:1046A000040DF350036A7C0FE96E000E0320EA6EDE
:1046B000BCC0EFFFBDC0ECFFBEC0ECFFBFC0ECFF55
:1046C0007CC289F27BC288F200015FEC12F0D892C2
:1046D000BBC085F2BAC084F2B9C083F2B8C082F21E
:1046E00003C089F202C088F201C087F200C086F2DE
:1046F00022EC11F003C0BBF002C0BAF001C0B9F067
:1047000000C0B8F0010E02017E5D040DF350036A93
:10471000C00FE96E000E0320EA6EB8C0EFFFB9C00B
:10472000ECFFBAC0ECFFBBC0ECFF7F53D8B409D19B
:10473000706A70500B08D8A0FAD07050040DF35076
:10474000036A7C0F016E000E032201C082F203C0D7
:1047500083F27050040DF350036A7C0FE96E000E73
:104760000320EA6EEFCF84F2ECCF85F2ECCF86F235
:10477000ECCF87F2036A7050AC0FE96E000E032095
:10478000EA6EEF50896B886F00015FEC12F087C210
:104790008BF286C28AF285C289F284C288F203C093
:1047A0008FF202C08EF201C08DF200C08CF2C5EC17
:1047B0000FF083C2EAFF82C2E9FF00C0EFFF01C031
:1047C000ECFF02C0ECFF03C0ECFF7050040DF3508F
:1047D000036AC00F016E000E032201C082F20201C3
:1047E00003C083F27050040DF350036AC00FE96EEA
:1047F000000E0320EA6EEFCF84F2ECCF85F2ECCF0F
:1048000086F2ECCF87F2036A7050AC0FE96E000EAF
:104810000320EA6EEF50896B886F00015FEC12F0A5
:1048200087C28BF286C28AF285C289F284C288F27C
:1048300003C08FF202C08EF201C08DF200C08CF274
:10484000C5EC0FF083C2EAFF82C2E9FF00C0EFFFB0
:1048500001C0ECFF02C0ECFF03C0ECFF0201745189
:10486000300DF350836B826F7050040DF350036A68
:104870008225016E835103220150F40F016E000E58
:10488000032201C084F203C085F27050040DF3507E
:10489000036A7C0FE96E000E0320EA6EEFCF00F092
:1048A000ECCF01F0ECCF02F0ECCF03F085C2EAFFD1
:1048B00084C2E9FF00C0EFFF01C0ECFF02C0ECFFC3
:1048C00003C0ECFF7451300DF350836B826F705056
:1048D000040DF350036A8225016E835103220150B7
:1048E000B40F016E010E032201C084F203C085F2F1
:1048F0007050040DF350036AC00FE96E000E0320E0
:10490000EA6EEFCF00F0ECCF01F0ECCF02F0ECCF8D
:1049100003F085C2EAFF84C2E9FF00C0EFFF01C0D7
:10492000ECFF02C0ECFF03C0ECFF702A02D7036A61
:104930007451750FE96E020E0320EA6E7FC2EFFF1D
:10494000742B81C289F280C288F200015FEC12F000
:10495000BFC08BF2BEC08AF2BDC089F2BCC088F273
:1049600003C08FF202C08EF201C08DF200C08CF243
:10497000C5EC0FF003C0BFF002C0BEF001C0BDF037
:1049800000C0BCF081C289F280C288F25FEC12F0F4
:10499000BBC08BF2BAC08AF2B9C089F2B8C088F243
:1049A00003C08FF202C08EF201C08DF200C08CF203
:1049B000C5EC0FF003C0BBF002C0BAF001C0B9F003
:1049C00000C0B8F00201826B8251000188EC05F052
:1049D000000907E00201822B9EA8FED7AD6EF4D736
:1049E00000010201826B82510001ADEC05F000096B
:1049F00007E00201822B9EA8FED7AD6EF4D700011E
:104A00000201826B82510001CAEC05F0000907E047
:104A10000201822B9EA8FED7AD6EF4D700010201E1
:104A2000826B82510001DCEC05F0000907E0020115
:104A3000822B9EA8FED7AD6EF4D700010201826BD7
:104A400082510001FBEC05F0000907E00201822B16
:104A50009EA8FED7AD6EF4D700010201826B825191
:104A6000000116EC06F0000907E00201822B9EA867
:104A7000FED7AD6EF4D700010201826B82510001B6
:104A800031EC06F0000907E00201822B9EA8FED758
:104A9000AD6EF4D700014A0E716E715030080EE011
:104AA000715031080BE07150320808E07150330842
:104AB00005E09EAAFED7AECF71F0EFD7300E715C45
:104AC000FC0FD8B0FFEF2BF0040F01EF2CF0020128
:104AD000826B8251000156EC06F0000907E00201EA
:104AE000822B9EA8FED7AD6EF4D70001FFEF2BF00E
:104AF0000201826B825100016AEC06F00201822BF6
:104B0000006E00509EA8FED7AD6E250E825DF2E1CC
:104B1000020EE96EBFC094F2BEC093F2BDC092F225
:104B2000BCC091F2956F000155EC1DF02A0E0201F8
:104B3000836F835100016AEC06F00201832B006E43
:104B400000509EA8FED7AD6E340E835DF2E1826BFD
:104B50008251000192EC06F00201822B006E00509F
:104B60009EA8FED7AD6E240E825DF2E1020EE96EC4
:104B7000BBC094F2BAC093F2B9C092F2B8C091F23D
:104B8000956F000155EC1DF0290E0201836F8351D2
:104B9000000192EC06F00201832B006E00509EA8EB
:104BA000FED7AD6E330E835DF2E100010BD7FFEF50
:104BB0002BF00201826B82510001B9EC06F0020178
:104BC000822B006E00509EA8FED7AD6E1D0E825D3A
:104BD000F2E1100EE96EF1C084F2F0C083F2000140
:104BE0002AEC1EF0200E0201836F83510001B9EC04
:104BF00006F00201832B006E00509EA8FED7AD6E1A
:104C00002A0E835DF2E1826B82510001DCEC06F03A
:104C10000201822B006E00509EA8FED7AD6E1C0EC6
:104C2000825DF2E1100EE96EF3C084F2F2C083F20D
:104C300000012AEC1EF01F0E0201836F8351000158
:104C4000DCEC06F00201832B006E00509EA8FED71C
:104C5000AD6E290E835DF2E10001B4D6FFEF2BF0BB
:104C60006F6A020174516F5CD8B0FBEF2BF0826B5E
:104C700082510001FEEC06F0000907E00201822BE0
:104C80009EA8FED7AD6EF4D70001036A6F50750F72
:104C9000E96E020E0320EA6EEF5009080FE30201ED
:104CA000826B825100013BEC02F0000907E0020137
:104CB000822B9EA8FED7AD6EF4D70001036A6F5019
:104CC000750FE96E020E0320EA6EEFCF82F282C208
:104CD00083F21B0E0201846F000114EC1DF00D0E17
:104CE0009EA8FED7AD6E0201826B825100010DECD1
:104CF00007F0000907E00201822B9EA8FED7AD6EE7
:104D0000F4D700010201826B8251000136EC07F0FA
:104D1000000907E00201822B9EA8FED7AD6EF4D7F2
:104D200000016F50300DF3500201836B826FF40E5F
:104D30008225E96E000E8321EA6EEFCF84F2ECCF7C
:104D400085F2ECCF86F2ECCF87F26F50300DF35046
:104D5000896B886FB40E8825E96E010E8921EA6E91
:104D6000EFCF8AF2ECCF8BF2ECCF8CF2ECCF8DF25E
:104D70008E6B8E5100015FEC07F002018E2B006EEE
:104D800000509EA8FED7AD6E050E8E5DF2E10E0EB0
:104D90008F6F200E9EA8FED7AD6E8F2FFAD7020E12
:104DA000E96E87C294F286C293F285C292F284C2FF
:104DB00091F2956F000155EC1DF0100E0201906FFD
:104DC000200E9EA8FED7AD6E902FFAD7020EE96E88
:104DD0008DC294F28CC293F28BC292F28AC291F28B
:104DE000956F000155EC1DF00D0E9EA8FED7AD6E1F
:104DF0006F50300DF3500201836B826F040E8225D9
:104E0000016E000E8321036E0150F40FE96E000E57
:104E10000320EA6EEFCF84F2ECCF85F2ECCF86F27E
:104E2000ECCF87F26F50300DF350896B886F040E12
:104E30008825016E000E8921036E0150B40FE96EC2
:104E4000010E0320EA6EEFCF8AF2ECCF8BF2ECCFAB
:104E50008CF2ECCF8DF28E6B8E51000175EC07F069
:104E600002018E2B006E00509EA8FED7AD6E070E7D
:104E70008E5DF2E10C0E8F6F200E9EA8FED7AD6EF8
:104E80008F2FFAD7020EE96E87C294F286C293F290
:104E900085C292F284C291F2956F000155EC1DF02B
:104EA000100E0201906F200E9EA8FED7AD6E902FBF
:104EB000FAD7020EE96E8DC294F28CC293F28BC2C5
:104EC00092F28AC291F2956F000155EC1DF00D0E21
:104ED0009EA8FED7AD6E6F50300DF3500201836B6C
:104EE000826F080E8225016E000E8321036E015031
:104EF000F40FE96E000E0320EA6EEFCF84F2ECCFE0
:104F000085F2ECCF86F2ECCF87F26F50300DF35084
:104F1000896B886F080E8825016E000E8921036E4B
:104F20000150B40FE96E010E0320EA6EEFCF8AF252
:104F3000ECCF8BF2ECCF8CF2ECCF8DF28E6B8E51EE
:104F400000018CEC07F002018E2B006E00509EA831
:104F5000FED7AD6E050E8E5DF2E10E0E8F6F200E48
:104F60009EA8FED7AD6E8F2FFAD7020EE96E87C2CC
:104F700094F286C293F285C292F284C291F2956F46
:104F8000000155EC1DF0100E0201906F200E9EA83E
:104F9000FED7AD6E902FFAD7020EE96E8DC294F255
:104FA0008CC293F28BC292F28AC291F2956F000189
:104FB00055EC1DF00D0E9EA8FED7AD6E6F50300D56
:104FC000F3500201836B826F0C0E8225016E000E7E
:104FD0008321036E0150F40FE96E000E0320EA6E88
:104FE000EFCF84F2ECCF85F2ECCF86F2ECCF87F2F4
:104FF0006F50300DF350896B886F0C0E8825016E51
:10500000000E8921036E0150B40FE96E010E0320DA
:10501000EA6EEFCF8AF2ECCF8BF2ECCF8CF2ECCFD2
:105020008DF28E6B8E510001A2EC07F002018E2BE7
:10503000006E00509EA8FED7AD6E050E8E5DF2E1AB
:105040000E0E8F6F200E9EA8FED7AD6E8F2FFAD753
:10505000020EE96E87C294F286C293F285C292F282
:1050600084C291F2956F000155EC1DF0100E020103
:10507000906F200E9EA8FED7AD6E902FFAD7020E2D
:10508000E96E8DC294F28CC293F28BC292F28AC204
:1050900091F2956F000155EC1DF00D0E9EA8FED704
:1050A000AD6E6F50300DF3500201836B826F100EA6
:1050B0008225016E000E8321036E0150F40FE96E0C
:1050C000000E0320EA6EEFCF84F2ECCF85F2ECCF36
:1050D00086F2ECCF87F26F50300DF350896B886FFA
:1050E000100E8825016E000E8921036E0150B40F49
:1050F000E96E010E0320EA6EEFCF8AF2ECCF8BF25D
:10510000ECCF8CF2ECCF8DF28E6B8E510001B8ECAF
:1051100007F002018E2B006E00509EA8FED7AD6EE8
:10512000040E8E5DF2E10F0E8F6F200E9EA8FED74B
:10513000AD6E8F2FFAD7020EE96E87C294F286C247
:1051400093F285C292F284C291F2956F000155EC00
:105150001DF0100E0201906F200E9EA8FED7AD6EBE
:10516000902FFAD7020EE96E8DC294F28CC293F2A0
:105170008BC292F28AC291F2956F000155EC1DF03C
:105180000D0E9EA8FED7AD6E6F50300DF35002018C
:10519000836B826F140E8225016E000E8321036ED5
:1051A0000150F40FE96E000E0320EA6EEFCF84F297
:1051B000ECCF85F2ECCF86F2ECCF87F26F50300D5A
:1051C000F350896B886F140E8825016E000E8921BB
:1051D000036E0150B40FE96E010E0320EA6EEFCFAB
:1051E0008AF2ECCF8BF2ECCF8CF2ECCF8DF28E6B9F
:1051F0008E510001CDEC07F002018E2B006E0050A5
:105200009EA8FED7AD6E050E8E5DF2E10E0E8F6F7D
:10521000200E9EA8FED7AD6E8F2FFAD7020EE96E34
:1052200087C294F286C293F285C292F284C291F24E
:10523000956F000155EC1DF0100E0201906F200ECD
:105240009EA8FED7AD6E902FFAD7020EE96E8DC2E2
:1052500094F28CC293F28BC292F28AC291F2956F51
:10526000000155EC1DF00D0E9EA8FED7AD6E6F50DF
:10527000300DF3500201836B826F180E8225016E90
:10528000000E8321036E0150F40FE96E000E03201F
:10529000EA6EEFCF84F2ECCF85F2ECCF86F2ECCF62
:1052A00087F26F50300DF350896B886F180E882588
:1052B000016E000E8921036E0150B40FE96E010EDC
:1052C0000320EA6EEFCF8AF2ECCF8BF2ECCF8CF2B8
:1052D000ECCF8DF28E6B8E510001E3EC07F00201F2
:1052E0008E2B006E00509EA8FED7AD6E050E8E5D13
:1052F000F2E10E0E8F6F200E9EA8FED7AD6E8F2F9F
:10530000FAD7020EE96E87C294F286C293F285C282
:1053100092F284C291F2956F000155EC1DF0100ECF
:105320000201906F200E9EA8FED7AD6E902FFAD787
:10533000020EE96E8DC294F28CC293F28BC292F28D
:105340008AC291F2956F000155EC1DF00D0E9EA8DA
:10535000FED7AD6E6F50300DF3500201836B826F3C
:105360001C0E8225016E000E8321036E0150F40F86
:10537000E96E000E0320EA6EEFCF84F2ECCF85F2E7
:10538000ECCF86F2ECCF87F26F50300DF350896B83
:10539000886F1C0E8825016E000E8921036E015056
:1053A000B40FE96E010E0320EA6EEFCF8AF2ECCF64
:1053B0008BF2ECCF8CF2ECCF8DF28E6B8E51000124
:1053C000F9EC07F002018E2B006E00509EA8FED76C
:1053D000AD6E060E8E5DF2E10D0E8F6F200E9EA853
:1053E000FED7AD6E8F2FFAD7020EE96E87C294F208
:1053F00086C293F285C292F284C291F2956F000147
:1054000055EC1DF0100E0201906F200E9EA8FED7E5
:10541000AD6E902FFAD7020EE96E8DC294F28CC257
:1054200093F28BC292F28AC291F2956F000155EC11
:105430001DF00D0E9EA8FED7AD6E6F50300DF350CF
:105440000201836B826F200E8225016E000E832184
:10545000036E0150F40FE96E000E0320EA6EEFCFE9
:1054600084F2ECCF85F2ECCF86F2ECCF87F26F506E
:10547000300DF350896B886F200E8825016E000E69
:105480008921036E0150B40FE96E010E0320EA6E0C
:10549000EFCF8AF2ECCF8BF2ECCF8CF2ECCF8DF227
:1054A0008E6B8E5100010FEC08F002018E2B006E06
:1054B00000509EA8FED7AD6E0A0E8E5DF2E1090E79
:1054C0008F6F200E9EA8FED7AD6E8F2FFAD7020EDB
:1054D000E96E87C294F286C293F285C292F284C2C8
:1054E00091F2956F000155EC1DF0100E0201906FC6
:1054F000200E9EA8FED7AD6E902FFAD7020EE96E51
:105500008DC294F28CC293F28BC292F28AC291F253
:10551000956F000155EC1DF00D0E9EA8FED7AD6EE7
:105520006F50300DF3500201836B826F240E822581
:10553000016E000E8321036E0150F40FE96E000E20
:105540000320EA6EEFCF84F2ECCF85F2ECCF86F247
:10555000ECCF87F26F50300DF350896B886F240EBB
:105560008825016E000E8921036E0150B40FE96E8B
:10557000010E0320EA6EEFCF8AF2ECCF8BF2ECCF74
:105580008CF2ECCF8DF28E6B8E51000127EC08F07F
:1055900002018E2B006E00509EA8FED7AD6E070E46
:1055A0008E5DF2E10C0E8F6F200E9EA8FED7AD6EC1
:1055B0008F2FFAD7020EE96E87C294F286C293F259
:1055C00085C292F284C291F2956F000155EC1DF0F4
:1055D000100E0201906F200E9EA8FED7AD6E902F88
:1055E000FAD7020EE96E8DC294F28CC293F28BC28E
:1055F00092F28AC291F2956F000155EC1DF00D0EEA
:105600009EA8FED7AD6E6F50300DF3500201836B34
:10561000826F280E8225016E000E8321036E0150D9
:10562000F40FE96E000E0320EA6EEFCF84F2ECCFA8
:1056300085F2ECCF86F2ECCF87F26F50300DF3504D
:10564000896B886F280E8825016E000E8921036EF4
:105650000150B40FE96E010E0320EA6EEFCF8AF21B
:10566000ECCF8BF2ECCF8CF2ECCF8DF28E6B8E51B7
:1056700000013EEC08F002018E2B006E00509EA847
:10568000FED7AD6E090E8E5DF2E10A0E8F6F200E11
:105690009EA8FED7AD6E8F2FFAD7020EE96E87C295
:1056A00094F286C293F285C292F284C291F2956F0F
:1056B000000155EC1DF0100E0201906F200E9EA807
:1056C000FED7AD6E902FFAD7020EE96E8DC294F21E
:1056D0008CC293F28BC292F28AC291F2956F000152
:1056E00055EC1DF00D0E9EA8FED7AD6E6F50300D1F
:1056F000F3500201836B826F2C0E8225016E000E27
:105700008321036E0150F40FE96E000E0320EA6E50
:10571000EFCF84F2ECCF85F2ECCF86F2ECCF87F2BC
:105720006F50300DF350896B886F2C0E8825016EF9
:10573000000E8921036E0150B40FE96E010E0320A3
:10574000EA6EEFCF8AF2ECCF8BF2ECCF8CF2ECCF9B
:105750008DF28E6B8E51000156EC08F002018E2BFB
:10576000006E00509EA8FED7AD6E090E8E5DF2E170
:105770000A0E8F6F200E9EA8FED7AD6E8F2FFAD720
:10578000020EE96E87C294F286C293F285C292F24B
:1057900084C291F2956F000155EC1DF0100E0201CC
:1057A000906F200E9EA8FED7AD6E902FFAD7020EF6
:1057B000E96E8DC294F28CC293F28BC292F28AC2CD
:1057C00091F2956F000155EC1DF00D0E9EA8FED7CD
:1057D000AD6E0201826B825100010DEC07F00009F1
:1057E00007E00201822B9EA8FED7AD6EF4D7000120
:1057F0006F2A31EF26F00001E2EF24F000D0CBEF6A
:1058000033F0F2CF0EF0F29EE824270FF66E580E1A
:10581000F76ED8B0F72A0A00F550FA6E0800F55076
:105820000EBEF28EF96ECE4AF04AB24B604C786AE8
:10583000450E776E2EEC14F047C04EF046C04FF088
:1058400045C050F08380D9EF33F0786A450E776E0B
:105850002EEC14F047C06FF046C070F045C071F0F8
:105860004EC077F04FC078F050C079F06FC07AF03A
:1058700070C07BF071C07CF0DDEC15F0015051265A
:10588000025052228390E1EF33F001506FC085F255
:10589000640E0201866F0001C2EC18F000C06FF0C8
:1058A0000150300E07E170A20DD070B60BD070B869
:1058B000200E03D0709670987080012601C081F090
:1058C000FFEC08F06FC085F20A0E0201866F00013E
:1058D000C2EC18F000C06FF00150300E06E170B657
:1058E00009D070A007D070B8200E012601C081F049
:1058F000FFEC08F0300E6F266FC081F0FFEC08F06F
:10590000000C786A450E776E2EEC14F0C00EF21281
:10591000866B010E876FA9EC08F06F6A6F50E6EC9A
:1059200004F06F2A006E816FFFEC08F0070E6F5CC9
:10593000F5E1020EE96E2AC077F029C076F028C0A2
:1059400075F027C074F0010E786EA6EC19F0200EE9
:10595000816FFFEC08F0DF0E816FFFEC08F00F0E97
:10596000706E7050E6EC04F0702A006E816FFFECF0
:1059700008F0180E705CF5E1475009080BE36F6AF8
:105980006F503BEC02F0000905E06F2A816FFFECDD
:1059900008F0F6D747C06FF01B0E706E76DF3A0E38
:1059A000816FFFEC08F0465009080BE36F6A6F50F7
:1059B0003BEC02F0000905E06F2A816FFFEC08F074
:1059C000F6D746C06FF01B0E706E5FDFF3EF2CF062
:1059D00075EC10F003C02AF002C029F001C028F0D5
:1059E00000C027F08ED7CCEC10F0015232E01EA29E
:1059F0002CD01E92D89222C085F221C084F220C001
:105A000083F21FC082F22EC089F22DC088F22CC012
:105A100087F22BC086F222EC11F003C022F002C004
:105A200021F001C020F000C01FF07A6A796A7F0E71
:105A3000786E850E776E22C07EF021C07DF020C08A
:105A40007CF01FC07BF026EC0CF0010E016E32D012
:105A500031D01EB22CD01E82D88222C085F221C045
:105A600084F220C083F21FC082F22EC089F22DC0C2
:105A700088F22CC087F22BC086F222EC11F003C012
:105A800022F002C021F001C020F000C01FF07A6AAD
:105A9000796A7F0E786E850E776E22C07EF021C007
:105AA0007DF020C07CF01FC07BF026EC0CF0000ED7
:105AB000016E00D0E3EF33F0F86AD09E0D8EEA6AF3
:105AC000E96AB896190EAF6E220EAC6E900EAB6EF0
:105AD000C150C00B0F09C16E070EB46E186A196A67
