:020000040000FA
:040000009CEF03F07E
:08000800056ED8CF06F0E0CF31
:1000100007F00001E9CF0DF0EACF08F0E1CF09F0D9
:10002000E2CF0AF0D9CF0BF0DACF0CF0F3CF14F017
:10003000F4CF15F0FACF16F000C00FF001C010F0A9
:1000400002C011F003C012F004C013F0F2A82CEFAC
:1000500000F0F2B201EF01F00FC000F010C001F0AB
:1000600011C002F012C003F013C004F00DC0E9FF8C
:1000700008C0EAFF09C0E1FF0AC0E2FF0BC0D9FFD8
:100080000CC0DAFF14C0F3FF15C0F4FF16C0FAFF6E
:10009000055007C0E0FF06C0D8FF1000F2CF0EF0F9
:1000A000F29EF76AB60FF66E000EF7220900F550C1
:1000B0000EBEF28E1200444F4D0000000000000002
:1000C0004C554E000000000000004D415200000061
:1000D000000000004D4945000000000000004A55A6
:1000E00045000000000000005649450000000000E7
:1000F000000053414200000000000000F2CF0EF06B
:10010000F29EF76A160FF66E010EF7220900F550FF
:100110000EBEF28E12002C0F0106F2CF0EF0F29EF0
:10012000F76A340FF66E010EF7220900F5500EBE85
:10013000F28E120025732C202532752F2532752F53
:10014000253275200A486F72613A2025753A2532AA
:10015000753A25327500EA6A4A0EE96EEF5012E0F0
:10016000020E016EBF0E006E0400002EFDD7012EA0
:10017000F9D7960E006E002EFED700000000040096
:10018000EF2EEED7000C090E4B5E0BE3EA6A4B0E26
:10019000E96ED890EF32EF5004E001D00400EF2E6A
:1001A000FDD7000C4B38F00B006E0F0E81140010C1
:1001B000816E00008186040000000000000081962E
:1001C000000C81940400020E4A6EC5DF090E4A6ECF
:1001D0006D0E4B6ED8DF4A2EFBD748A0819448B0F5
:1001E000818400000000819649384A6E0F0E4A163D
:1001F0004AC04BF0D7DF49500F0B4A6E4B6ED2DF2F
:10020000000C837E486A080E496EDBDFF2922CEF09
:1002100000F0080E016E0000000000008B9694961E
:1002200000000000000044368B98D8B09488D8A015
:100230009498948682A6FED7012EEDD70000000088
:100240008B96949600009488000000000000000047
:1002500000000000948682A6FED7016A000000001C
:10026000000082B801808B9694968B989498000C2D
:10027000F29CF29EF2BEFDD79488000000009486A6
:100280000000000000008B989498000000008B96FE
:100290009496A00E446EBDDF42C044F0BADF43C066
:1002A00044F0B7DF94980000948682A6FED7000041
:1002B0000000000000000000948800000000C00E54
:1002C000F212000C426A436AD3DFC9EF03F0030E57
:1002D000936E81948196186AF2BE188EF29E320E49
:1002E0004A6E39DF18BEF28E186AF2BE188EF29E80
:1002F000020E4B6E57DF18BEF28E186AF2BE188ED1
:10030000F29E050E4A6E27DF18BEF28E396A39500A
:1003100003081DE3036A3950F2CF3AF0F29EEEDE95
:100320003ABEF28E3B6E186AF2BE188EF29E486A92
:10033000496E47DF18BEF28E186AF2BE188EF29E22
:10034000050E4A6E08DF18BEF28E392AE0D7CAEFD2
:1003500003F0080E456E00C046F0948800000000CF
:100360000000948682A6FED782B8D88082A8D89052
:1003700001360000000094968B96452EEED79488A7
:100380000000000000008B984650D8A4949800000C
:10039000948682A6FED7000000008B9694960000FB
:1003A000000000008B989498000C45C046F0D8904F
:1003B0004632780E46164630006E00323F0E00166A
:1003C00000504624476E45500F0B4724016E000C29
:1003D000F29CF29EF2BEFDD7948800000000948645
:1003E0000000000000008B989498000000008B969D
:1003F0009496A00E446E0DDF42C044F00ADF94884C
:1004000000000000948600000000000082A6FED7D5
:100410008B989498000000008B969496A10E446EE1
:10042000F8DE006A96DF01C043F0949800009486DD
:1004300082A6FED7000000000000000000009488A3
:1004400000000000C00EF21243C001F0EDEF02F018
:10045000F29CF29EF2BEFDD79488000000009486C4
:100460000000000000008B989498000000008B961C
:100470009496A00E446ECDDE020E446ECADE9488C1
:1004800000000000948600000000000082A6FED755
:100490008B989498000000008B969496A10E446E61
:1004A000B8DE010E006E55DF01C03DF0010E006E9A
:1004B00050DF01C03EF0010E006E4BDF01C03FF087
:1004C000010E006E46DF01C040F0006A42DF01C04D
:1004D00041F094980000948682A6FED700000000A8
:1004E000000000000000948800000000C00EF2121E
:1004F00039C001F03AC003F039C042F03AC043F0CD
:100500003DC045F052DF43C0EAFF42C0E9FF01C0F1
:10051000EFFF010E3924016E000E3A20036E01C078
:1005200042F0436E3EC045F040DF43C0EAFF42C0A8
:10053000E9FF01C0EFFF020E3924016E000E3A20E0
:10054000036E01C042F0436E3F503F0B446E456E58
:100550002CDF43C0EAFF42C0E9FF01C0EFFF030EFA
:100560003924016E000E3A20036E01C042F0436E42
:1005700040503F0B446E456E18DF43C0EAFF42C057
:10058000E9FF01C0EFFF040E3924016E000E3A208E
:10059000036E01C042F0436E41501F0B446E456E26
:1005A00004DF43C0EAFF42C0E9FF01C0EFFF060ECF
:1005B0003924E96E000E3A20EA6E4138006E0032AE
:1005C000070E001600C0EFFF40383B6E3B323B3257
:1005D000030E3B16100E426EFBD601C03CF03C50A1
:1005E000030B3B5C02E03C2AFAD7050E3924E96E86
:1005F000000E3A20EA6E3CC0EFFF100E426E3CC087
:1006000043F036DEEFEF03F0402C01D003D0400E74
:10061000416E01D0416A010E3F5C41264150800984
:10062000426E186AF2BE188EF29E486A496EC9DDA3
:1006300018BEF28E54EF03F03E500C0A05E0060A95
:1006400017E0020A1AE024D0186AF2BE188EF29E51
:10065000486A010E496EB5DD18BEF28E186AF2BE08
:10066000188EF29E020E4A6E76DD18BEF28E1CD0F7
:10067000010E3F6E020E406EC7D7186AF2BE188E8A
:10068000F29E486A100E496E9CDD18BEF28E0CD0A8
:10069000186AF2BE188EF29E010E486E3EC049F0F6
:1006A00090DD18BEF28E00D0000C3F50016A3E5C17
:1006B00003E23EC000F00CD0006A080E406E3E36E9
:1006C00000363F50005CD8B0006E0136402EF7D7A0
:1006D000000C01503CC03EF0640E3F6EE6DF00C0EF
:1006E0003CF00150300E07E13DA20CD03DB60AD0DF
:1006F0003DB8200E03D03D963D983D80012601C0B7
:100700003EF09ADF3CC03EF00A0E3F6ECEDF00C0E6
:100710003CF00150300E06E13DB608D03DA006D0B9
:100720003DB8200E012601C03EF086DF300E3C268B
:100730003CC03EF081DF000CF86AD09E0D8EEA6A64
:10074000E96AB896190EAF6E220EAC6E900EAB6EC3
:10075000C150C00B0F09C16E070EB46E1E6A700E39
:10076000316E3A0E326E5C0E336E030E346E2C0E0A
:10077000926E7F0E956E0C0E2E6E1F0E2D6E060E57
:100780002F6E170E2C6E3B0E2B6E320E2A6E306AB9
:1007900099D59DD5186AF2BE188EF29E486A010E50
:1007A000496E0FDD18BEF28E040E396E186AF2BE65
:1007B000188EF29EFA0E4A6ECEDC18BEF28E392EDC
:1007C000F5D7186AF2BE188EF29E486A020E496E7C
:1007D000F8DC18BEF28E3A6A2A0E396E39D63050DD
:1007E0000A0DF350036A396EEA6A200EE96EF2CF01
:1007F0003AF0F29E395052DC0A000900F550EE6ED4
:100800000009FBE13ABEF28EEA6A200EE96E000EA4
:10081000EF100FE0EACF3AF0E9CF39F0EFCF3EF03A
:100820000BDF3AC0EAFF39C0E9FFE92AD8B4EA2A67
:10083000EED72C0E3E6E00DF200E3E6EFDDE2DC08C
:100840003CF0110E3D6E45DF2F0E3E6EF5DE2EC0E4
:100850003CF0110E3D6E3DDF2F0E3E6EEDDE2FC0E3
:100860003CF0110E3D6E35DF0F0E3B6E3B5055DCFC
:100870003B2A006E3E6EE0DE170E3B5CF7E12CC0BB
:100880003CF01B0E3D6E25DF3A0E3E6ED5DE2BC0D2
:100890003CF0110E3D6E1DDF3A0E3E6ECDDE2AC0DD
:1008A0003CF0110E3D6E15DF070E3C6E200E3E6EC5
:0A08B000C3DE3C2EFBD778D703000F
:020000040030CA
:0E00000000021E1E008381000FC00FE00F40A3
:00000001FF
;PIC18F4520
