:020000040000FA
:0400000019EF04F000
:08000800056ED8CF06F0E0CF31
:1000100007F00001E9CF0DF0EACF08F0E1CF09F0D9
:10002000E2CF0AF0D9CF0BF0DACF0CF0F3CF14F017
:10003000F4CF15F0FACF16F000C00FF001C010F0A9
:1000400002C011F003C012F004C013F0F2A82CEFAC
:1000500000F0F2B28CEF01F00FC000F010C001F020
:1000600011C002F012C003F013C004F00DC0E9FF8C
:1000700008C0EAFF09C0E1FF0AC0E2FF0BC0D9FFD8
:100080000CC0DAFF14C0F3FF15C0F4FF16C0FAFF6E
:10009000055007C0E0FF06C0D8FF1000F2CF0EF0F9
:1000A000F29EF76AB60FF66E000EF7220900F550C1
:1000B0000EBEF28E12002C0F0106F76ACA0FF66E02
:1000C000000EF7220900F550120031323334353674
:1000D00037383953304EF76AE60FF66E000EF722C6
:1000E0000900F55012002020496E64697175652081
:1000F0006C61200A20206F7065726163696F6E0009
:10010000EA6A3F0EE96EEF5012E0020E016EBF0E7A
:10011000006E0400002EFDD7012EF9D7960E006E5A
:10012000002EFED7000000000400EF2EEED7000CDA
:10013000090E405E0BE3EA6A400EE96ED890EF329A
:10014000EF5004E001D00400EF2EFDD7000C403842
:10015000F00B006E0F0E81140010816E000081867E
:1001600004000000000000008196000C819404004F
:10017000020E3F6EC5DF090E3F6E6D0E406ED8DF7A
:100180003F2EFBD73DA081943DB08184000000004C
:1001900081963E383F6E0F0E3F163FC040F0D7DFCE
:1001A0003E500F0B3F6E406ED2DF000C3A2C01D058
:1001B00003D0400E3B6E01D03B6A010E395C3B26FA
:1001C0003B5080093C6E3D6A3E6ED0DF08EF01F087
:1001D00038500C0A05E0060A0BE0020A0EE012D0C5
:1001E0003D6A010E3E6EC2DF020E3F6E89DF10D007
:1001F000010E396E020E3A6ED9D73D6A100E3E6E70
:10020000B5DF06D0010E3D6E38C03EF0AFDF00D046
:100210009AEF01F03D6A386A38500308D8A06DD0D3
:10022000010E006E3850016E04E0D8900036012EA9
:10023000FCD70050FF0A3C6E3C50010B016EE8B049
:1002400002D0819801D081883C50020B006ED8907A
:10025000003200C001F000B002D0819A01D0818A42
:100260003C50040B006E003200323F0E001600C0FE
:1002700001F000B002D0819C01D0818C3C50080B71
:10028000006E0032003200321F0E001600C001F076
:1002900000B002D0819E01D0818E3B6A3B50630842
:1002A00002E33B2AFBD78350070B3A6E396A395079
:1002B000020821E3010E006E3950016E04E0D8906F
:1002C0000036012EFCD700503A1413E13850030DCC
:1002D000F3CF3FF0020ED88039543F243E6E036ABC
:1002E0003E50F2CF3FF0F29EE8DE3FBEF28E3D6E12
:1002F00004D0392ADCD7382A8FD73DC001F0000C52
:1003000089DF01C037F0375203E084DF0152FDE19D
:1003100037C001F09FEF01F0366AD1903D6A010EBF
:100320003E6E24DF376A3750D6DE000904E0372AF4
:10033000386E4ED7F8D73650630805E3E1D701C0D1
:100340001FF0362AF8D73D6A010E3E6E0FDFD180CE
:10035000F2922CEF00F0030E936E81948196186A4E
:10036000F2BE188EF29E320E3F6ECADE18BEF28EBC
:10037000186AF2BE188EF29E020E406EE8DE18BEBB
:10038000F28E186AF2BE188EF29E050E3F6EB8DE2F
:1003900018BEF28E276A275003081DE3036A275010
:1003A000F2CF28F0F29E7ADE28BEF28E296E186A0D
:1003B000F2BE188EF29E3D6A3E6ED8DE18BEF28EF8
:1003C000186AF2BE188EF29E050E3F6E99DE18BEB8
:1003D000F28E272AE0D737EF04F0080E016E0000F6
:1003E000000000008B96949600000000000032365A
:1003F0008B98D8B09488D8A09498948682A6FED77B
:10040000012EEDD7000000008B9694960000948892
:10041000000000000000000000000000948682A69A
:10042000FED7016A00000000000082B801808B96B0
:1004300094968B989498000C080E336E00C034F09C
:100440009488000000000000948682A6FED782B83F
:10045000D88082A8D89001360000000094968B9630
:10046000332EEED794880000000000008B983450A3
:10047000D8A494980000948682A6FED700000000BD
:100480008B9694960000000000008B989498000CC6
:1004900033C034F0D8903432780E34163430006ED5
:1004A00000323F0E001600503424356E33500F0BCF
:1004B0003524016E000CF29CF29EF2BEFDD79488AA
:1004C0000000000094860000000000008B989498C3
:1004D000000000008B969496A00E326E7EDF30C036
:1004E00032F07BDF9488000000009486000000005A
:1004F000000082A6FED78B989498000000008B968F
:100500009496A10E326E69DF006A96DF01C031F069
:1005100094980000948682A6FED700000000000098
:100520000000000094880000000031C001F085EF59
:1005300003F0F29CF29EF2BEFDD79488000000000A
:1005400094860000000000008B9894980000000042
:100550008B969496A00E326E40DF30C032F03DDFB5
:1005600031C032F03ADF94980000948682A6FED71C
:10057000000000000000000000009488000000005F
:100580009AEF03F0F29CF29EF2BEFDD79488000031
:10059000000094860000000000008B9894980000F2
:1005A00000008B969496A00E326E17DF020E326E0C
:1005B00014DF948800000000948600000000000012
:1005C00082A6FED78B989498000000008B96949694
:1005D000A10E326E02DF010E006E2EDF01C02BF085
:1005E000010E006E29DF01C02CF0010E006E24DF29
:1005F00001C02DF0010E006E1FDF01C02EF0006A59
:100600001BDF01C02FF094980000948682A6FED7CD
:1006100000000000000000000000948800000000BE
:1006200027C001F028C003F027C030F028C031F007
:100630002BC033F02DDF31C0EAFF30C0E9FF01C02D
:10064000EFFF010E2724016E000E2820036E01C06B
:1006500030F0316E2CC033F01BDF31C0EAFF30C008
:10066000E9FF01C0EFFF020E2724016E000E2820D3
:10067000036E01C030F0316E2D503F0B326E336E81
:1006800007DF31C0EAFF30C0E9FF01C0EFFF030E12
:100690002724016E000E2820036E01C030F0316E59
:1006A0002E503F0B326E336EF3DE31C0EAFF30C0A6
:1006B000E9FF01C0EFFF040E2724016E000E282081
:1006C000036E01C030F0316E2F501F0B326E336E4F
:1006D000DFDE31C0EAFF30C0E9FF01C0EFFF060EE8
:1006E0002724E96E000E2820EA6E2F38006E0032B3
:1006F000070E001600C0EFFF2E38296E293229326E
:10070000030E2916100E306ED6D601C02AF02A50DC
:10071000030B295C02E02A2AFAD7050E2724E96E8A
:10072000000E2820EA6E2AC0EFFF100E306E2AC09D
:1007300031F0FFD63BEF04F02E50016A2D5C03E24E
:100740002DC000F00CD0006A080E2F6E2D3600363A
:100750002E50005CD8B0006E01362F2EF7D7000C5B
:10076000200E28A8300E296E27C000F027AE07D033
:10077000001E002A00C027F02D0E296E288E015081
:1007800027C02DF0640E2E6ED7DF00C027F0300E8C
:1007900001242A6E27C02DF00A0E2E6ECDDF300EFA
:1007A00000242C6E300E01242B6E29C000F028A6E8
:1007B00002D028AE289428B80BD028AE22D028B476
:1007C00020D000C02AF028B21CD000C02BF019D0D5
:1007D000300E2A5C16E100C02AF0200E296E28A6F1
:1007E00004D02894288228AE2892300E2B5C09E190
:1007F00000C02BF0200E2A6E28A6F7D7289228AE2C
:10080000289028A404D029509EA8FED7AD6E28A217
:1008100004D02A509EA8FED7AD6E28A004D02B503D
:100820009EA8FED7AD6E2C509EA8FED7AD6E40EFB1
:1008300004F0F86AD09E0D8EEA6AE96AB896190E3D
:10084000AF6E220EAC6E900EAB6EC150C00B0F0996
:10085000C16E070EB46E196AF288C00EF212030E52
:10086000936E0F0E956E839A839C839E74D5286A2F
:10087000200E276E87D625C027F01F0E286E70D752
:0C088000200E9EA8FED7AD6EFFD703002F
:020000040030CA
:0E00000000021E17008381000FC00FE00F40AA
:00000001FF
;PIC18F4520
