:020000040000FA
:100000002BEF00F0EA6A060EE96EEF5012E0020EE6
:10001000016EBF0E006E0400002EFDD7012EF9D731
:10002000960E006E002EFED7000000000400EF2E9A
:10003000EED742EF00F0090E075E0BE3EA6A070E07
:10004000E96ED890EF32EF5004E001D00400EF2EBB
:10005000FDD747EF00F0F86AD09EEA6AE96AC1501E
:10006000C00B0F09C16E070EB46EC150C00B0F0953
:10007000C16E000E926E8988FF0E896E0400090E13
:10008000066EC0D7090E066E6D0E076ED4D7062E0B
:06009000FBD7FFD70300BF
:00000001FF
;PIC18F4520
