:020000040000FA
:0400000091EF2AF062
:08000800056ED8CF06F0E0CF31
:1000100007F00001E9CF0DF0EACF08F0E1CF09F0D9
:10002000E2CF0AF0D9CF0BF0DACF0CF0F3CF14F017
:10003000F4CF15F0FACF16F000C00FF001C010F0A9
:1000400002C011F003C012F004C013F0F2A82CEFAC
:1000500000F0F2B28EEF06F0F0A632EF00F0F0B052
:1000600093EF06F00FC000F010C001F011C002F0D5
:1000700012C003F013C004F00DC0E9FF08C0EAFF8E
:1000800009C0E1FF0AC0E2FF0BC0D9FF0CC0DAFFD4
:1000900014C0F3FF15C0F4FF16C0FAFF055007C0E7
:1000A000E0FF06C0D8FF1000F2CF0EF0F29EF76A14
:1000B000C20FF66E000EF7220900F5500EBEF28E4A
:1000C00012002C0F0106F2CF0EF0F29EF76AE00F3D
:1000D000F66E000EF7220900F5500EBEF28E1200E9
:1000E000496E696369616C697A616E646F2E2E2E48
:1000F0000000F2CF0EF0F29EF76A0C0FF66E010EC2
:10010000F7220900F5500EBEF28E12002020456E37
:1001100063656E6469656E646F0A20207369737429
:10012000656D612E2E2E0000F2CF0EF0F29EF76A62
:10013000420FF66E010EF7220900F5500EBEF28E48
:100140001200202041706167616E646F0A20207385
:10015000697374656D612E2E2E00F2CF0EF0F29E43
:10016000F76A740FF66E010EF7220900F5500EBE05
:10017000F28E12002020496E6469717565206C61F1
:10018000200A20206F7065726163696F6E202020E5
:100190003100F2CF0EF0F29EF76AAC0FF66E010E50
:1001A000F7220900F5500EBEF28E12002020416E9B
:1001B000756C616E646F0A20206F7065726163698F
:1001C0006F6E2E2E2E00F2CF0EF0F29EF76AE00F29
:1001D000F66E010EF7220900F5500EBEF28E1200E7
:1001E0004D6F646966696361720A7465726D6F73DD
:1001F0007461746F20252E30662563430000F2CFB2
:100200000EF0F29EF76A180FF66E020EF722090042
:10021000F5500EBEF28E12004E7565766F20766137
:100220006C6F723A0A2563430000F2CF0EF0F29E23
:10023000F76A440FF66E020EF7220900F5500EBE63
:10024000F28E1200202041706C6963616E646F0A47
:10025000202063616D62696F732E2E2E0000F2CF35
:100260000EF0F29EF76A780FF66E020EF722090082
:10027000F5500EBEF28E12002050726F6772616DE3
:1002800061720A2073697374656D6100F2CF0EF0BC
:10029000F29EF76AA60FF66E020EF7220900F550DD
:1002A0000EBEF28E120020494E54455256414C4F1C
:1002B0002025690A3A3A0000F2CF0EF0F29EF76A62
:1002C000D20FF66E020EF7220900F5500EBEF28E26
:1002D000120020202056616C6F7265730A20202066
:1002E000696E636F72726563746F7300F2CF0EF0A4
:1002F000F29EF76A060FF66E030EF7220900F5501C
:100300000EBEF28E1200496E74657276616C6F20BB
:100310006C696D6974650A6465203420686F726168
:100320007300F2CF0EF0F29EF76A3C0FF66E030EEA
:10033000F7220900F5500EBEF28E12005465726D60
:100340006F737461746F2025690A25634300F2CFCF
:100350000EF0F29EF76A680FF66E030EF7220900A0
:10036000F5500EBEF28E1200536F6C6170616D69B4
:10037000656E746F0A646520696E74657276616C6F
:100380006F732100F2CF0EF0F29EF76A9E0FF66EA9
:10039000030EF7220900F5500EBEF28E1200202047
:1003A000496E74726F64757A63610A2020636C61B0
:1003B00076650000F2CF0EF0F29EF76ACE0FF66E71
:1003C000030EF7220900F5500EBEF28E1200202017
:1003D0004D6F646F0A20207265766973696F6E00D5
:1003E000F2CF0EF0F29EF76AFA0FF66E030EF722C6
:1003F0000900F5500EBEF28E120044656D617369FE
:1004000061646F207469656D706F0A656E63656EF7
:100410006469646F2100F2CF0EF0F29EF76A300F2C
:10042000F66E040EF7220900F5500EBEF28E120091
:1004300054454D50202D2025332E31662025634311
:100440000A484F5241202D200000F2CF0EF0F29EBC
:10045000F76A640FF66E040EF7220900F5500EBE1F
:10046000F28E12003000F2CF0EF0F29EF76A800F8B
:10047000F66E040EF7220900F5500EBEF28E120041
:10048000524547495354524F204445204556454E06
:10049000544F530D0000F2CF0EF0F29EF76AB00FEA
:1004A000F66E040EF7220900F5500EBEF28E120011
:1004B0002A2A2A2A2A2A2A2A2A2A2A2A2A2A2A2A9C
:1004C0002A2A2A0D0000F2CF0EF0F29EF76AE00F02
:1004D000F66E040EF7220900F5500EBEF28E1200E1
:1004E0004D6F6D656E746F2064652061706167612A
:1004F000646F202020202054656D706572617475D2
:10050000726120202020202020205465726D6F739E
:100510007461746F20202020202020204D696E758A
:10052000746F7320656E63656E6469646F2020204C
:10053000202020204D696E75746F732063616C6498
:100540006572610D0000F2CF0EF0F29EF76A600F47
:10055000F66E050EF7220900F5500EBEF28E12005F
:100560003D3D3D3D3D3D3D3D3D3D3D3D3D3D3D3DBB
:100570003D3D3D3D3D3D3D3D3D3D3D3D3D3D3D3DAB
:100580003D3D3D3D3D3D3D3D3D3D3D3D3D3D3D3D9B
:100590003D3D3D3D3D3D3D3D3D3D3D3D3D3D3D3D8B
:1005A0003D3D3D3D3D3D3D3D3D3D3D3D3D3D3D3D7B
:1005B0003D3D3D3D3D3D3D3D3D3D3D3D3D3D3D3D6B
:1005C0003D3D3D3D3D3D0D00F2CF0EF0F29EF76A00
:1005D000E20FF66E050EF7220900F5500EBEF28E00
:1005E00012002000F2CF0EF0F29EF76AFE0FF66EB8
:1005F000050EF7220900F5500EBEF28E1200BF5113
:100600007565206F7065726163696F6E20646573D4
:100610006561207265616C697A61723F0D00F2CF8D
:100620000EF0F29EF76A380FF66E060EF7220900FA
:10063000F5500EBEF28E1200202D2E2053616C69F3
:10064000720D0000F2CF0EF0F29EF76A5E0FF66EAA
:10065000060EF7220900F5500EBEF28E1200202B76
:100660002E2045787472616572207469656D706FB3
:1006700073206D6564696F7320706F7220646961A7
:100680000D00F2CF0EF0F29EF76A9C0FF66E060E8A
:10069000F7220900F5500EBEF28E120053492E20AB
:1006A00045787472616572207469656D706F73202E
:1006B000746F74616C65730D0000F2CF0EF0F29EE2
:1006C000F76AD40FF66E060EF7220900F5500EBE3B
:1006D000F28E12004E4F2E204578747261657220A2
:1006E0006461746F73206D656E7375616C65730DF5
:1006F0000000F2CF0EF0F29EF76A0C0FF66E070EB6
:10070000F7220900F5500EBEF28E12002020536130
:100710006C69656E646F2E2E2E00F2CF0EF0F29E85
:10072000F76A340FF66E070EF7220900F5500EBE79
:10073000F28E12000D5469656D706F206D656469ED
:100740006F20646520656E63656E6469646F206404
:10075000656C2073697374656D6120706F722064BD
:1007600069613A2025332E3266206D696E75746F8B
:10077000730D0D00F2CF0EF0F29EF76A8E0FF66E3B
:10078000070EF7220900F5500EBEF28E12005469D2
:10079000656D706F206D6564696F20646520656E9E
:1007A00063656E6469646F206465206C61206361B9
:1007B0006C6465726120706F72206469613A2025F3
:1007C000332E3266206D696E75746F730D0D0000E7
:1007D000F2CF0EF0F29EF76AEA0FF66E070EF722DE
:1007E0000900F5500EBEF28E12000D5469656D7051
:1007F0006F20746F74616C20646520656E63656E34
:100800006469646F2064656C2073697374656D61DD
:100810003A20256C75206D696E75746F730D0D002F
:10082000F2CF0EF0F29EF76A3A0FF66E080EF7223C
:100830000900F5500EBEF28E12005469656D706F9E
:1008400020746F74616C20646520656E63656E64EE
:1008500069646F206465206C612063616C646572FB
:10086000613A20256C75206D696E75746F730D0D7E
:100870000000F2CF0EF0F29EF76A8C0FF66E080EB3
:10088000F7220900F5500EBEF28E12000D32300034
:10089000F2CF0EF0F29EF76AAA0FF66E080EF7225C
:1008A0000900F5500EBEF28E12002D2D2D2D2D2D8E
:1008B0002D2D2D2D2D2D2D2D2D2D2D2D2D2D2D2D68
:1008C0002D2D2D2D2D2D2D2D2D2D2D2D2D2D2D2D58
:1008D0002D2D2D2D2D2D2D2D2D2D2D2D2D2D2D2D48
:1008E0002D2D2D2D2D2D2D2D2D2D2D2D2D2D2D2D38
:1008F0002D2D2D2D2D2D2D2D2D2D2D2D2D2D2D2D28
:100900002D2D2D2D2D2D2D2D2D2D2D2D2D2D2D2D17
:100910002D2D2D2D2D2D2D2D2D2D2D2D2D2D0D0054
:10092000F2CF0EF0F29EF76A3A0FF66E090EF7223A
:100930000900F5500EBEF28E12002020202020204B
:1009400020202020202020205469656D706F206DAC
:100950006564696F20646520656E63656E646964B3
:100960006F2064656C2073697374656D6120286DF8
:10097000696E2F6469612920202020202054696538
:100980006D706F206D6564696F20646520656E63AE
:10099000656E6469646F206465206C612063616CBE
:1009A0006465726120286D696E2F646961290D008C
:1009B000F2CF0EF0F29EF76ACA0FF66E090EF7221A
:1009C0000900F5500EBEF28E1200454E45524F25DD
:1009D0006625660D0000F2CF0EF0F29EF76AF00F6A
:1009E000F66E090EF7220900F5500EBEF28E1200C7
:1009F0004645425245524F256625660D0000F2CF0E
:100A00000EF0F29EF76A180FF66E0A0EF722090032
:100A1000F5500EBEF28E12004D41525A4F256625FA
:100A2000660D0000F2CF0EF0F29EF76A3E0FF66EF2
:100A30000A0EF7220900F5500EBEF28E1200414256
:100A400052494C256625660D0000F2CF0EF0F29E4D
:100A5000F76A640FF66E0A0EF7220900F5500EBE13
:100A6000F28E12004D41594F256625660D00F2CFDA
:100A70000EF0F29EF76A880FF66E0A0EF722090052
:100A8000F5500EBEF28E12004A554E494F2566258E
:100A9000660D0000F2CF0EF0F29EF76AAE0FF66E12
:100AA0000A0EF7220900F5500EBEF28E12004A55CA
:100AB0004C494F256625660D0000F2CF0EF0F29EE0
:100AC000F76AD40FF66E0A0EF7220900F5500EBE33
:100AD000F28E120041474F53544F256625660D0094
:100AE000F2CF0EF0F29EF76AFA0FF66E0A0EF722B8
:100AF0000900F5500EBEF28E120053455054494580
:100B00004D425245256625660D00F2CF0EF0F29E4D
:100B1000F76A240FF66E0B0EF7220900F5500EBE91
:100B2000F28E12004F435455425245256625660DFC
:100B30000000F2CF0EF0F29EF76A4C0FF66E0B0E2D
:100B4000F7220900F5500EBEF28E12004E4F5649A4
:100B5000454D425245256625660D0000F2CF0EF048
:100B6000F29EF76A760FF66E0B0EF7220900F5502B
:100B70000EBEF28E120044494349454D425245256E
:100B80006625660D0000F2CF0EF0F29EF76AA00F08
:100B9000F66E0B0EF7220900F5500EBEF28E120013
:100BA0002046454348413A0A204C554E2030312FCB
:100BB00030312F3230303900F2CF0EF0F29EF76A2A
:100BC000D20FF66E0B0EF7220900F5500EBEF28E14
:100BD00012004C554E00F2CF0EF0F29EF76AF00F65
:100BE000F66E0B0EF7220900F5500EBEF28E1200C3
:100BF0004D415200F2CF0EF0F29EF76A0E0FF66EE4
:100C00000C0EF7220900F5500EBEF28E12004D496F
:100C10004500F2CF0EF0F29EF76A2C0FF66E0C0E26
:100C2000F7220900F5500EBEF28E12004A5545001B
:100C3000F2CF0EF0F29EF76A4A0FF66E0C0EF72214
:100C40000900F5500EBEF28E120056494500F2CF53
:100C50000EF0F29EF76A680FF66E0C0EF72209008E
:100C6000F5500EBEF28E120053414200F2CF0EF04C
:100C7000F29EF76A860FF66E0C0EF7220900F55009
:100C80000EBEF28E1200444F4D00F2CF0EF0F29ED7
:100C9000F76AA40FF66E0C0EF7220900F5500EBE8F
:100CA000F28E1200204572726F7220656E0A206CFF
:100CB0006120666563686100F2CF0EF0F29EF76A0C
:100CC000D20FF66E0C0EF7220900F5500EBEF28E12
:100CD000120020456C20616E6E6F206E6F0A2065D9
:100CE0007320626973696573746F0000F2CF0EF050
:100CF000F29EF76A060FF66E0D0EF7220900F55008
:100D00000EBEF28E12002020202020484F52410AB1
:100D1000202020202030303A30300000F2921E8A0D
:100D2000F29232EF00F0F0901E88F09032EF00F077
:100D3000020EEA6E870EE96EEF5012E0020E016EAF
:100D4000BF0E006E0400002EFDD7012EF9D7960EBF
:100D5000006E002EFED7000000000400EF2EEED73C
:100D6000000C02018839F00B006E0F0E8114001088
:100D7000816E000081860400000000000000819662
:100D80000001000C090E0201885F0CE3020EEA6EFE
:100D9000880EE96ED890EF32EF5004E001D00400E5
:100DA000EF2EFDD70001000C81940400020E020119
:100DB000876F0001BDDF090E0201876F6D0E886F1E
:100DC0000001E0DF0201872FF9D785A1819485B169
:100DD00081840000000081968639876F0F0E871787
:100DE00087C288F20001BDDF020186510F0B876FB9
:100DF000886F0001B6DF000C030E936E819481961C
:100E0000320E0201876F000193DF020E0201886F2C
:100E10000001A7DF050E0201876F000189DF6D6AFF
:100E20006D50030816E3036A6D50F2CF6EF0F29E28
:100E300054EC00F06EBEF28E6F6E0201856B866F11
:100E40000001B2DF050E0201876F000171DF6D2A1C
:100E5000E7D7C1EF2AF00201822D01D003D0400E66
:100E6000836F01D0836B010E815D832783518009DD
:100E7000846F856B866F000197DF000C0201805143
:100E80000C0A000105E0060A0FE0020A15E01BD07B
:100E90000201856B010E866F000186DF020E0201E2
:100EA000876F000145DF17D0010E0201816F020E2E
:100EB000826F0001D0DF0FD00201856B100E866FAC
:100EC000000172DF08D0010E0201856F80C286F238
:100ED00000016ADF00D0000C02018351016A825DCB
:100EE00003E282C200F00CD0006A080E846F8237E1
:100EF00000368351005CD8B0006E0136842FF7D7DE
:100F00000001000C200E7DA8300E7E6E7CC000F02B
:100F10007CAE07D0001E002A00C07CF02D0E7E6E35
:100F20007D8E01507CC082F2640E0201836F00014D
:100F3000D3DF00C07CF0300E01247F6E7CC082F2D3
:100F40000A0E0201836F0001C7DF300E0024816F9B
:100F5000300E0124806F7EC000F07DA602D07DAEF1
:100F60007D947DB80BD07DAE22D07DB420D000C062
:100F70007FF07DB21CD000C080F019D0300E7F5CB5
:100F800016E100C07FF0200E7E6E7DA604D07D9419
:100F90007D827DAE7D92300E805D09E100C080F0E3
:100FA000200E7F6E7DA6F7D77D927DAE7D907DA4CD
:100FB00003D07EC080F262DF7DA203D07FC080F2CA
:100FC0005DDF7DA003D080C080F258DF81C080F259
:100FD00055DF000C76C077F00201856B0E0E866F30
:100FE0000001E2DE73C081F2020E0201826F000195
:100FF00032DF77BE03D0775009080CE37C6A7C505F
:1010000025EC02F0000906E07C2A0201806F000155
:1010100035DFF5D777C07CF01F0E7D6E73DF73C0B0
:1010200081F2020E0201826F000115DF82B06DD0E5
:10103000772A77BE05D07750755C02E274C077F0EE
:1010400077BE03D0775009080CE37C6A7C5025EC0E
:1010500002F0000906E07C2A0201806F00010EDF29
:10106000F5D777C07CF01F0E7D6E4CDF73C081F228
:10107000020E0201826F0001EEDE7B6A7A6A796AF3
:10108000010E786E82B040D07B520AE17A5208E1BC
:1010900079509B0830E2FF0A03E1785040082BE2C8
:1010A000772A77BE05D07750755C02E274C077F07E
:1010B00077BE03D0775009080CE37C6A7C5025EC9E
:1010C00002F0000906E07C2A0201806F0001D6DEF2
:1010D000F5D777C07CF01F0E7D6E14DF73C081F2F0
:1010E000020E0201826F0001B6DEC80E0201876F98
:1010F00000011EDE08D0010E7826D8B0792AD8B4B7
:101100007A2AD8B47B2ABED791D782B26DD077061F
:1011100077BE03D07450775C02E275C077F077BE7B
:1011200003D0775009080CE37C6A7C5025EC02F070
:10113000000906E07C2A0201806F00019FDEF5D7DE
:1011400077C07CF01F0E7D6EDDDE73C081F2020E73
:101150000201826F00017FDE7B6A7A6A796A010E82
:10116000786E82B240D07B520AE17A5208E179501F
:101170009B0830E2FF0A03E1785040082BE2770633
:1011800077BE03D07450775C02E275C077F077BE0B
:1011900003D0775009080CE37C6A7C5025EC02F000
:1011A000000906E07C2A0201806F000167DEF5D7A6
:1011B00077C07CF01F0E7D6EA5DE73C081F2020E3B
:1011C0000201826F000147DEC80E0201876F000135
:1011D000AFDD08D0010E7826D8B0792AD8B47A2AA3
:1011E000D8B47B2ABED722D782B404D082B401D02F
:1011F000FDD709D082BA06D0640E776E82BA01D0CC
:10120000FDD701D013D70201856B0C0E866F00014C
:10121000CBDD77C001F0000C7C6A7B50090805E249
:101220000A0E7B5E100E7C2603D07B507C2601D0FC
:10123000F4D77CC001F0000C080E016E0000000025
:1012400000008B96949600000000000080378B9879
:10125000D8B09488D8A09498948682A6FED7012E00
:10126000EDD7000000008B96949600009488000053
:1012700000000000000000000000948682A6FED757
:10128000016A00000000000082B801808B969496ED
:101290008B989498000CF29CF29EF2BEFDD7948835
:1012A0000000000094860000000000008B989498D5
:1012B000000000008B969496A00E806FBDDF7EC06C
:1012C00080F0BADF7FC080F0B7DF9498000094868A
:1012D00082A6FED7000000000000000000009488F5
:1012E00000000000000C7350E96E74C0EAFFEFCFFD
:1012F0007AF07AC07BF090DF01C075F0010E7324A4
:10130000E96E000E7420EA6EEFCF7AF07AC07BF0BF
:1013100083DF01C076F0020E7324E96E000E7420A4
:10132000EA6EEFCF7AF07AC07BF076DF01C077F01B
:10133000030E7324E96E000E7420EA6EEFCF7AF08C
:101340007AC07BF069DF050E7324E96E000E74200D
:10135000EA6EEF38006E00360036C00E0016005000
:101360000110786E040E7324E96E000E7420EA6E8C
:10137000EFCF7AF07AC07BF04FDF060E7324E96E70
:10138000000E7420EA6EEF38006E0036E00E001694
:1013900000500110796E7E6A800E7F6E7CDFF29CB9
:1013A000F29EF2BEFDD794880000000094860000F3
:1013B000000000008B989498000000008B96949693
:1013C000A00E806F39DF010E806F36DF806B34DF57
:1013D00075C080F031DF76C080F02EDF77C080F0FE
:1013E0002BDF78C080F028DF79C080F025DF94986B
:1013F0000000948682A6FED70000000000000000D6
:101400000000948800000000050E7324E96E000EB1
:101410007420EA6EEFCF7AF0100E7E6E7AC07FF005
:101420003ADF7E6A7F6A37DFFEEF0CF08E0E006EC9
:101430008351005E84C002F085C001F0028E00522C
:1014400009E0D890025202E1015204E00232013276
:10145000002EF7D784AF05D0011E021E012AD8B492
:10146000022A0000000C929A899A0400020E836FEF
:10147000F70E0201886F000185DC832FF9D7928A6D
:101480000400020E836FF70E0201886F00017ADC00
:10149000832FF9D7928A000C856B855107081AE3D0
:1014A000929A899A0400000000000000D8908433CA
:1014B00002E2899A01D0898A929A0400270E006E6E
:1014C000002EFED70000928A0400000000000000F9
:1014D000852BE3D7000C02019B51D8B471D0006E6C
:1014E0009F51D8B46DD0002604E3810E002668E237
:1014F00004D07F0E005E64E363E09CC2A3F2A051BF
:10150000A31B9C8FA08F9E51A203F4CFA5F29D51E7
:10151000A103F4CF03F0F3CFA4F2A203F350A52765
:10152000F450A423000E03229E51A103F350A527DB
:10153000F450A423000E026A032202229C51A2034B
:10154000F350A427F4500322000E02229C51A10361
:10155000F3500326F4500222000E016A01229E512C
:10156000A003F350A427F4500322000E022201220C
:101570009D51A003F3500326F4500222000E0122D5
:101580009C51A003F3500226F4500122002A01BE10
:1015900005D0A4370336023601360006000EA4AF8C
:1015A0000AD0032A02220122015005E1025003E180
:1015B000035001E1002AA3BF018EA3AF019E04D016
:1015C000006A016A026A036A00000001000C4BDF36
:1015D000CC0E846F61DF4E0E846F5EDF02019E6B66
:1015E0009D6B9C6B800E9B6F76C0A2F275C0A1F2C2
:1015F00074C0A0F273C09FF200016DDF03C07EF0E3
:1016000002C07DF001C07CF000C07BF002019E6B47
:101610009D6B9C6B800E9B6F7AC0A2F279C0A1F289
:1016200078C0A0F277C09FF2000155DF03C082F0BE
:1016300002C081F001C080F000C07FF07EC086F063
:101640007DC085F07CC084F07BC083F0EFDE01C0FC
:1016500083F001C084F020DF82C086F081C085F075
:1016600080C084F07FC083F0E1DE01C083F001C060
:1016700084F012DFF8DECC0E846F0EDF480E846F2C
:101680000BDF04000A0E0201876F000198EC06F0E0
:101690000D0E836F2C0E0201886F0001C2EC06F064
:1016A000832FF8D7000C0201856B010E866F0001B5
:1016B000D4EC06F00201856B0E0E866F0001D4ECAF
:1016C00006F0736A7350C3EC05F0000907E0732A53
:1016D0000201806F00013EEC07F0F4D76D6A020E44
:1016E0000201816F826F00012BEC07F082A002D013
:1016F00082B283D082B008D06D2A6D50070801E114
:101700006D6A82B001D0FDD782B208D06D066D3C03
:1017100002D0060E6D6E82B201D0FDD76D50F90F6A
:10172000D8B064D0070F89EF0DF0736A7350DCEC0A
:1017300005F0000907E0732A0201806F00013EEC0A
:1017400007F0F4D753D0736A7350EBEC05F000093F
:1017500007E0732A0201806F00013EEC07F0F4D726
:1017600045D0736A7350FAEC05F0000907E0732A5C
:101770000201806F00013EEC07F0F4D737D0736AA6
:10178000735009EC06F0000907E0732A0201806F2C
:1017900000013EEC07F0F4D729D0736A735018ECBF
:1017A00006F0000907E0732A0201806F00013EEC99
:1017B00007F0F4D71BD0736A735027EC06F00009CA
:1017C00007E0732A0201806F00013EEC07F0F4D7B6
:1017D0000DD0736A735036EC06F0000907E0732AE7
:1017E0000201806F00013EEC07F0F4D7020E020107
:1017F000816F826F00012BEC07F082B403D082A4CA
:10180000FED701D073D7060E736E010E746E1F0ED5
:10181000756E010E766EEAEC07F001C06EF06E5048
:10182000640801E140D7090E736E010E746E0C0E50
:10183000756E010E766EEAEC07F001C06FF06F5026
:10184000640801E130D76E501D0803E26F500208B2
:101850000FE06E501F0832E16F50040809E06F502E
:10186000060806E06F50090803E06F500B0826E1F8
:101870000201856B010E866F0001D4EC06F00201B7
:10188000856B0C0E866F0001D4EC06F0736A735002
:1018900045EC06F0000907E0732A0201806F0001A1
:1018A0003EEC07F0F4D7020E736EFA0E0201876F5A
:1018B000000198EC06F0732EF8D7F5D60E0E736E75
:1018C000090E746E630E756E090E766EEAEC07F003
:1018D00001C070F07050640801E1E5D67050030B50
:1018E0002CE06F50020829E16E501D0826E102012C
:1018F000856B010E866F0001D4EC06F00201856B4A
:101900000C0E866F0001D4EC06F0736A73505CEC29
:1019100006F0000907E0732A0201806F00013EEC27
:1019200007F0F4D7020E736EFA0E0201876F000102
:1019300098EC06F0732EF8D7B6D67050030B02E180
:10194000556A14D0010E705C030B03E1010E556E55
:101950000DD0020E705C030B03E1020E556E06D033
:10196000030E705C030B02E1030E556E0201856BE2
:10197000010E866F0001D4EC06F00201856B0E0E9D
:10198000866F0001D4EC06F0736A735076EC06F0B3
:10199000000907E0732A0201806F00013EEC07F0A6
:1019A000F4D7060E736E746A170E756E766AEAECDB
:1019B00007F001C071F07150640801E174D6090E9E
:1019C000736E746A3B0E756E766AEAEC07F001C0BE
:1019D00072F07250640801E166D66FC049F06EC0C3
:1019E00048F055C04AF071C047F072C046F0456AF1
:1019F0006DC04BF0746A450E736E75D4226A216A0D
:101A0000200E206E830E1F6E436A536A70C054F01E
:101A100022C086F021C085F020C084F01FC083F072
:101A200005DD01C073F0A96A01C0A8FFA69CA69EAF
:101A3000A684F2CF00F0F29E0F01550EA76EAA0EFB
:101A4000A76EA682A6B2FED7A6940050F212010E8F
:101A5000A96E43C0A8FFA69CA69EA684F2CF00F064
:101A6000F29E550EA76EAA0EA76EA682A6B2FED74C
:101A7000A6940050F212020EA96E53C0A8FFA69CB5
:101A8000A69EA684F2CF00F0F29E550EA76EAA0E77
:101A9000A76EA682A6B2FED7A6940050F212030E3D
:101AA000A96E54C0A8FFA69CA69EA684F2CF00F003
:101AB000F29E550EA76EAA0EA76EA682A6B2FED7FC
:101AC000A6940050F212040EA96E55C0A8FFA69C61
:101AD000A69EA684F2CF00F0F29E550EA76EAA0E27
:101AE000A76EA682A6B2FED7A6940050F212766A1E
:101AF000756A7F0E746E850E736E22C07AF021C0F7
:101B000079F020C078F01FC077F0000160DDC3EFEE
:101B10002AF0F2CF0EF0F29EE824370FF66E1B0E7D
:101B2000F76ED8B0F72A0A00F550FA6E0800F550A3
:101B30000EBEF28EF96E2A17461762177E179A1795
:101B4000B617D2177E6A7E5007081DE3929A899ACB
:101B50000400000000000000928A0400040E006EE1
:101B6000002EFED700000000928A80BA02D0D890E2
:101B700001D0D8807F3204004F0E006E002EFED7B9
:101B800000007E2AE0D77FC001F0000C8E0E006EB0
:101B90007FC001F07EC002F0036A7FAE05D0011E57
:101BA000021E022A01E1012A015209E102C001F0EC
:101BB000026A080E005E015202E1006A0AD0D89063
:101BC00001BE04D0023601360006F9D77FBE01D02F
:101BD000019E0000C6EF0EF002018551D8B4A5D0D9
:101BE000916F8951D8B4A1D0915F05E37F0E912701
:101BF000D8B09BD006D0810E915FD8A096D0D8B433
:101C000094D091C200F0016A026A036A906B86C2A6
:101C10008FF28F8F87C28EF288C28DF2190E916F6C
:101C20008C518D5F0DE2010E8E5F0AE28F5F08E23C
:101C3000905F06E2902B8F2B8E2B8C518D2728D016
:101C40008B518E5F12E2010E8F5F0FE2905F0DE20B
:101C5000902B8F2B8B518E278C518D2719E38E2B38
:101C600017E18F2B15E1902B13D08A5180098F5FDC
:101C70000EE2010E905F0BE2902B8A5180098F27B4
:101C80008B518E27E9E38F2BE7E1902BE5D703807B
:101C9000912F01D00BD0D8908D378E378F3790375A
:101CA000D8900336023601369237BAD792A106D0C1
:101CB000D890013202320332923302D0000635E06E
:101CC00092BF1ED0D8908D378E378F3790378C517A
:101CD0008D5F07E2010E8E5F04E28F5F02E2905F8C
:101CE0001AE38B518E5F05E2010E8F5F02E2905F77
:101CF00012E38A5180098F5F03E2010E905F0BE3CC
:101D0000032A09E1022A07E1012A05E1002A0DE080
:101D100001320232033286C291F28A51911B91AF95
:101D200002D0018E06D0019E04D0006A016A026AC8
:101D3000036A00000001000C756A33EC0AF0CC0E57
:101D4000846F4CEC0AF0440E846F4CEC0AF0755230
:101D500004E1F8DE01C075F0FAD733EC0AF0CC0EDE
:101D6000846F4CEC0AF0BE0E846F4CEC0AF0EADE95
:101D700001C076F0E7DE01C077F077C079F076C079
:101D800078F079C07FF078C07EF000D700C07EF098
:101D900001C07FF002C080F003C081F003C088F270
:101DA00002C087F201C086F200C085F202018C6B8E
:101DB0008B6B8A6B800E896F00010EDF03C07DF094
:101DC00002C07CF001C07BF000C07AF0C80E0201B6
:101DD000876F000198EC06F07AC000F07BC001F03C
:101DE0007CC002F07DC003F0000C6D6A33EC0AF099
:101DF000CC0E846F4CEC0AF0440E846F4CEC0AF06D
:101E00006D5204E19FDE01C06DF0FAD733EC0AF0A9
:101E1000EC0E846F4CEC0AF0929A899A0400000050
:101E200000000000928A0400040E006E002EFED70F
:101E300000000000928A6E9080BA6E8004004F0EFF
:101E4000006E002EFED70000929A899A04000000CE
:101E500000000000928A0400040E006E002EFED7DF
:101E600000000000928A6E9280BA6E8204004F0ECB
:101E7000006E002EFED70000006A6EB200806E5029
:101E80000018010B04E0010E016E04D003D0000E17
:101E9000016E00D0000C800ED8A202D00201841B7B
:101EA0000201896B8A6B80C288F28451881B7F5142
:101EB000D8B4DFD0876F006E8351D8B4E3D0875F8A
:101EC000D8B483D03EE384C28DF28D8F85C28CF26C
:101ED00086C28BF28A6BD8908D338C338B338A33E6
:101EE000872FF8D788AF03D08981E0D08991879177
:101EF0008989020EEA6E820EE96EEBD0899988BF5D
:101F00000AD087A113D08D338C338B338A33002AC8
:101F1000D8B4C7D00BD08DBF0CD0D8908A378B37B0
:101F20008C378D370006D8B4BCD0F5D7898D6DD0ED
:101F3000899D80C288F280AF02D08D8FABD08D9FFB
:101F4000A9D083C287F283C200F07F51875F80C22D
:101F50008DF28D8F81C28CF282C28BF28A6BD89007
:101F60008D338C338B338A33872FF8D788AF03D0E8
:101F700089839CD089938791898B020EEA6E860EA5
:101F8000E96EA7D0899B88BF0AD087A113D08D3373
:101F90008C338B338A33002AD8B483D00BD08DBFD7
:101FA0000CD0D8908A378B378C378D370006D8B451
:101FB00078D0F5D7898F29D0899F84C288F284AFE1
:101FC00002D08D8F67D08D9F65D084C28DF28D8FAA
:101FD00085C28CF286C28BF288AF04D08D9F898532
:101FE00065D089958A6B8791020EEA6E820EE96E42
:101FF00070D088BF1CD080C288F287A106D08D33F4
:102000008C338B338A33002A4CE08AAF0BD08B2B76
:1020100009E18C2B07E18D2B05E18D338C338B335C
:10202000002A3FE089BD84D789BFC6D71CD0800E67
:102030008D1B8DAF04D03AD084C288F20AD080C202
:1020400088F28D5306E18C5304E18B5302E1006A60
:1020500021D08DBF08D0D8908A378B378C378D37F9
:10206000002EF7D71ED088AF02D08D8F13D08D9F52
:1020700011D083C200F084C28DF285C28CF286C278
:102080008BF208D07FC200F080C28DF281C28CF248
:1020900082C28BF28DC201F08CC202F08BC203F0BF
:1020A00034D0006A016A026A036A2FD08A6B8B1FE0
:1020B0008C1F8D1F8A1F8A2B05E18B2B03E18C2B34
:1020C00001E18D2B89B112D789B354D789B589D74E
:1020D000B3D7EF508B2705E38C2B03E18D2BD8B4BE
:1020E0008781ED52EF508C2703E38D2BD8B4878185
:1020F000ED52EF50EFBE01D0800A8D27D8B0878116
:1021000089B9FCD689BB3ED774D700000001000C0A
:102110008E0E006E86C201F085C202F0036A015283
:1021200009E102C001F0026A080E005E015202E1FC
:10213000006A08D0D89001BE04D0023601360006ED
:10214000F9D7019E0000000C76C07DF07A507D1A10
:102150007DAE05D0D894D89076BED8802FD076C0EA
:102160007DF079C07EF075507E5E06E07DAE26D0B3
:10217000D850010AD86E22D07AC07EF076507E5EAA
:1021800006E07DAE1BD0D850010AD86E17D07BC0B8
:102190007EF077507E5E06E07DAE10D0D850010A0A
:1021A000D86E0CD07CC07EF078507E5E06E07DAEAE
:1021B00005D0D850010AD86E01D0D890000C0C0E72
:1021C000016EC250C30B0110C26E0400060E006EF9
:1021D000002EFED7C282C2B2FED7C4500201866B67
:1021E000856F000195DF02019E6B9D6B480E9C6F11
:1021F000850E9B6F03C0A2F202C0A1F201C0A0F243
:1022000000C09FF200016BEC0AF000C075F001C045
:1022100076F002C077F003C078F003C088F202C005
:1022200087F201C086F200C085F202018C6B8B6BD5
:102230007F0E8A6F860E896F0001CEDCD892020174
:10224000826B816B806B7F6B03C086F202C085F26C
:1022500001C084F200C083F200011DDE03C070F0F3
:1022600002C06FF001C06EF000C06DF0080E016E8C
:10227000C250C30B0110C26E0400060E006E002E89
:10228000FED7C282C2B2FED7C4500201866B856FF0
:1022900000013EDF02019E6B9D6B480E9C6F850E18
:1022A0009B6F03C0A2F202C0A1F201C0A0F200C065
:1022B0009FF200016BEC0AF000C075F001C076F0EF
:1022C00002C077F003C078F003C088F202C087F242
:1022D00001C086F200C085F202018C6B8B6B7F0E11
:1022E0008A6F860E896F000177DCD8920201826BBB
:1022F000816B806B7F6B03C086F202C085F201C0E8
:1023000084F200C083F20001C6DD03C074F002C095
:1023100073F001C072F000C071F01EA02DD0D88201
:1023200070C082F26FC081F26EC080F26DC07FF229
:102330000201866B856B200E846F810E836F000116
:10234000AADD03C078F002C077F001C076F000C0CB
:1023500075F074C07CF073C07BF072C07AF071C00D
:1023600079F0F2DE01E204E1010E016E1FD003D02C
:10237000000E016E1BD01AD070C078F06FC077F0DD
:102380006EC076F06DC075F074C07CF073C07BF0E9
:1023900072C07AF071C079F0D7DE01E204E1010E7B
:1023A000016E04D003D0000E016E00D0000C080EA8
:1023B000816F00C082F094880000000000009486C5
:1023C00082A6FED782B8D88082A8D89001360000B5
:1023D000000094968B96812FEED794880000000021
:1023E00000008B988251D8A494980000948682A60D
:1023F000FED7000000008B969496000000000000BD
:102400008B989498000C81C082F0D8908233780E1B
:1024100082178231006E00323F0E00160050822576
:10242000836F81510F0B8325016E000CF29CF29E8D
:10243000F2BEFDD7948800000000948600000000E2
:1024400000008B989498000000008B969496A00E44
:10245000806F1CEC09F07EC080F01CEC09F09488C1
:1024600000000000948600000000000082A6FED755
:102470008B989498000000008B969496A10E806F24
:102480001CEC09F0006A93DF01C07FF09498000013
:10249000948682A6FED70000000000000000000025
:1024A0009488000000007FC001F01DEF13F0F29C43
:1024B000F29EF2BEFDD794880000000094860000D2
:1024C000000000008B989498000000008B96949672
:1024D000A00E806F1CEC09F0020E806F1CEC09F05E
:1024E000948800000000948600000000000082A68E
:1024F000FED78B989498000000008B969496A10EBE
:10250000806F1CEC09F0010E006E51DF01C079F004
:10251000010E006E4CDF01C07AF0010E006E47DF45
:1025200001C07BF0010E006E42DF01C07CF0006A4A
:102530003EDF01C07DF094980000948682A6FED70D
:10254000000000000000000000009488000000006F
:1025500075C001F076C003F075C07EF076C07FF0E4
:1025600079C081F050DF7FC0EAFF7EC0E9FF01C083
:10257000EFFF010E7524016E000E7620036E01C080
:102580007EF07F6E7AC081F03EDF7FC0EAFF7EC0C2
:10259000E9FF01C0EFFF020E7524016E000E7620E8
:1025A000036E01C07EF07F6E7B503F0B806F816FAA
:1025B0002ADF7FC0EAFF7EC0E9FF01C0EFFF030E04
:1025C0007524016E000E7620036E01C07EF07F6ED2
:1025D0007C503F0B806F816F16DF7FC0EAFF7EC0AB
:1025E000E9FF01C0EFFF040E7524016E000E762096
:1025F000036E01C07EF07F6E7D501F0B806F816F78
:1026000002DF7FC0EAFF7EC0E9FF01C0EFFF060ED8
:102610007524E96E000E7620EA6E7D38006E003279
:10262000070E001600C0EFFF7C38776E77327732E6
:10263000030E7716100E7E6EF9D601C078F0785032
:10264000030B775C02E0782AFAD7050E7524E96E51
:10265000000E7620EA6E78C0EFFF100E7E6E78C016
:102660007FF04BEC09F0000C766A450E756E1FDFAB
:1026700047C04CF046C04DF0526A516A83A006D064
:1026800047C04EF046C04FF045C050F08384000C68
:102690006FC07BF00CEC09F001C072F070C07BF0F1
:1026A0000CEC09F001C073F071C07BF00CEC09F088
:1026B00001C074F07E6A800E7F6E4BEC09F0080E4C
:1026C0007E6E900E7F6E4BEC09F0F29CF29EF2BE95
:1026D000FDD79488000000009486000000000000F0
:1026E0008B989498000000008B969496A00E806FB3
:1026F0001CEC09F0090E806F1CEC09F0806B1CECDF
:1027000009F074C080F01CEC09F073C080F01CEC80
:1027100009F072C080F01CEC09F0949800009486D7
:1027200082A6FED700000000000000000000948890
:10273000000000007E6A040E7F6E4BEC09F0000C76
:102740004450050DF350036A2F0F016E000E032253
:1027500001C06FF003C070F0EA6A3E0EE96E03C07C
:10276000E2FF01C0E1FF050E016EE6CFEEFF012E94
:10277000FCD73EC06DF03FC06EF06DC06FF06EC014
:1027800070F0716A85DF000C81517F5C03E2010EFD
:10279000016E13D07F50815D03E2000E016E0DD0FB
:1027A00081517F5C0AE18051825D04E3010E016E7C
:1027B00004D003D0000E016E00D0000C86518803B7
:1027C000F3CF01F0F4CF00F08903F35000268751D6
:1027D0008803F3500020026E000C75C07FF076C0B5
:1027E00080F077C081F078C082F0CEDF015230E017
:1027F0007C6A77C07BF07CC087F077C086F0896BFD
:102800003C0E886FDBDF02C07DF001C07CF0036A04
:10281000785001247E6E035002207F6E816B75C05C
:1028200080F081C087F075C086F0896B3C0E886FA0
:10283000C5DF01C081F0036A76500124016E0250A9
:10284000032201507E5C796E03507F587A6E36D039
:102850007C6A75C07BF07CC087F075C086F0896BA0
:102860003C0E886FABDF02C07DF001C07CF0036AD4
:1028700076500124016E025003220150FF0AA10F7D
:102880007E6E050E03547F6E816B77C080F081C031
:1028900087F077C086F0896B3C0E886F8FDF02C0AF
:1028A00003F001507E24816F02507F20826F036A03
:1028B00078508125796E035082217A6E79C001F0BB
:1028C0007AC002F0000C75C07FF076C080F078C04E
:1028D00081F079C082F058DF01524FE07850755C8A
:1028E00008E17950765C05E177507A5C7C6A7B6E12
:1028F00043D0806B78C07FF080C087F078C086F0CE
:10290000896B3C0E886F5ADF02C081F001C080F0F5
:10291000036A79500124826F03500220836F856B14
:1029200075C084F085C087F075C086F0896B3C0E59
:10293000886F44DF01C085F0036A76500124016E80
:10294000025003220150825D7D6E035083597E6EDA
:102950007EC087F07DC086F0896B3C0E886F2EDFCD
:102960007A500124816F000E0220826F7750815DC2
:102970007B6E000E82597C6E4AD0806B75C07FF0F2
:1029800080C087F075C086F0896B3C0E886F16DFBB
:1029900002C081F001C080F0036A76500124016E0C
:1029A000025003220150FF0AA10F826F050E03544B
:1029B000836F856B78C084F085C087F078C086F01F
:1029C000896B3C0E886FFADE02C003F0015082254D
:1029D000856F02508321866F036A795085257D6E4D
:1029E000035086217E6E7EC087F07DC086F0896BA5
:1029F0003C0E886FE3DE7A500124816F000E0220C6
:102A0000826F7750815D7B6E000E82597C6E7BC039
:102A100001F07CC002F0000C016A026A006A036ADD
:102A20007A5002E1795018E0100E7B6ED89077361C
:102A30007836003603367A50035C02E17950005C48
:102A400007E37950005ED8A003067A50035ED88071
:102A5000013602367B2EEAD70000B3EF16F0535052
:102A60001A0801E2536A766A450E756E20DD4CC085
:102A700075F04DC076F047C077F046C078F0ADDE17
:102A800002C06EF001C06DF09CEC0EF003C074F05B
:102A900002C073F001C072F000C071F074C086F023
:102AA00073C085F072C084F071C083F016EC0AF038
:102AB00001C06FF00201866B6FC085F2000188ECE7
:102AC00010F0D88274C082F273C081F272C080F2BA
:102AD00071C07FF203C086F202C085F201C084F2A9
:102AE00000C083F24BEC0FF000C075F001C076F02F
:102AF00002C077F003C078F003C09EF202C09DF2DE
:102B000001C09CF200C09BF20201A26BA16B480EB7
:102B1000A06F850E9F6F00016BEC0AF003C086F07A
:102B200002C085F001C084F000C083F016EC0AF00A
:102B300001C070F083A011D04EC075F04FC076F088
:102B400050C077F047C078F046C079F045C07AF0C1
:102B5000BADE01505126025052224A50555C2CE0F8
:102B6000542A552A030EA96E54C0A8FFA69CA69EFF
:102B7000A684F2CF00F0F29E0F01550EA76EAA0EAA
:102B8000A76EA682A6B2FED7A6940050F212040E3B
:102B9000A96E55C0A8FFA69CA69EA684F2CF00F001
:102BA000F29E550EA76EAA0EA76EA682A6B2FED7FB
:102BB000A6940050F212000153500A0DF350140F66
:102BC000756EA96E48C0A8FFA69CA69EA684F2CFEB
:102BD00000F0F29E0F01550EA76EAA0EA76EA682F8
:102BE000A6B2FED7A6940050F21253500A0DF3502D
:102BF000140F010F766EA96E49C0A8FFA69CA69E71
:102C0000A684F2CF00F0F29E550EA76EAA0EA76E14
:102C1000A682A6B2FED7A6940050F21253500A0D17
:102C2000F350140F020F766EA96E54C0A8FFA69C35
:102C3000A69EA684F2CF00F0F29E550EA76EAA0EB5
:102C4000A76EA682A6B2FED7A6940050F2125350E9
:102C50000A0DF350140F030F766EA96E47C0A8FF3C
:102C6000A69CA69EA684F2CF00F0F29E550EA76EFB
:102C7000AA0EA76EA682A6B2FED7A6940050F212A4
:102C800053500A0DF350140F040F766EA96E46C010
:102C9000A8FFA69CA69EA684F2CF00F0F29E550E39
:102CA000A76EAA0EA76EA682A6B2FED7A694005063
:102CB000F21253500A0DF350140F050F766EA96EE1
:102CC0006FC0A8FFA69CA69EA684F2CF00F0F29E3D
:102CD000550EA76EAA0EA76EA682A6B2FED7A69420
:102CE0000050F21253500A0DF350140F060F766E77
:102CF000A96E70C0A8FFA69CA69EA684F2CF00F085
:102D0000F29E550EA76EAA0EA76EA682A6B2FED799
:102D1000A6940050F21253500A0DF350140F070FEF
:102D2000766EA96E6DC0A8FFA69CA69EA684F2CF63
:102D300000F0F29E550EA76EAA0EA76EA682A6B24E
:102D4000FED7A6940050F21253500A0DF350140F00
:102D5000080F766E52C078F051C077F07A6A3C0E58
:102D6000796E000159D601C077F076C0A9FF01C085
:102D7000A8FFA69CA69EA684F2CF00F0F29E0F01AB
:102D8000550EA76EAA0EA76EA682A6B2FED7A6946F
:102D90000050F2121EA23CD053500A0DF350140FF3
:102DA000090F766ED89222C082F221C081F220C033
:102DB00080F21FC07FF22EC086F22DC085F22CC09B
:102DC00084F22BC083F200014BEC0FF003C086F0BD
:102DD00002C085F001C084F000C083F016EC0AF058
:102DE00001C077F076C0A9FF01C0A8FFA69CA69EEF
:102DF000A684F2CF00F0F29E0F01550EA76EAA0E28
:102E0000A76EA682A6B2FED7A6940050F21228D0D2
:102E100053500A0DF350140F090F766E22C086F03E
:102E200021C085F020C084F01FC083F0000116ECA3
:102E30000AF001C077F076C0A9FF01C0A8FFA69CE8
:102E4000A69EA684F2CF00F0F29E0F01550EA76E4B
:102E5000AA0EA76EA682A6B2FED7A6940050F212C2
:102E6000532A020EA96E53C0A8FFA69CA69EA68454
:102E7000F2CF00F0F29E550EA76EAA0EA76EA682A4
:102E8000A6B2FED7A6940050F21283940001000C63
:102E900002019B51B6089B6F036A9CC29FF29C8FF4
:102EA000D8909C339D339E3303320232013200327C
:102EB0009B2FF6D79FAF0BD0001E011E021E031ED4
:102EC000002AD8B4012AD8B4022AD8B4032A0001AF
:102ED000000C006A016A026A036A0201A36BA46B18
:102EE000A56BA66BA251A111A0119F112CE0200E81
:102EF000A76FD8909B379C379D379E37A337A43751
:102F0000A537A637A251A65D08E1A151A55D05E14F
:102F1000A051A45D02E19F51A35D0FE39F51A35F08
:102F2000A051D8A0A03DA45FA151D8A0A13DA55F0C
:102F3000A251D8A0A23DA65FD88000360136023645
:102F40000336A72FD6D70000020EEA6EA30EE96E55
:102F50000001000CE950776E7650796E1CE075C068
:102F60009EF274C09DF273C09CF272C09BF202018B
:102F7000A26BA16B200EA06F820E9F6F00016BEC05
:102F80000AF003C075F002C074F001C073F000C015
:102F900072F0792EE4D775C09EF274C09DF273C0B2
:102FA0009CF272C09BF274DF03C075F002C074F033
:102FB00001C073F000C072F075AE0DD07706778A4D
:102FC000721E731E741E751E722AD8B4732AD8B46A
:102FD000742AD8B4752A3B0E7E6E9A0E7D6ECA0E88
:102FE0007C6E7B6A0A0E796E7650D8B4772A75C0EB
:102FF0009EF274C09DF273C09CF272C09BF27EC0C0
:10300000A2F27DC0A1F27CC0A0F27BC09FF261DF82
:103010000150EFCF72F0ECCF73F0ECCF74F0ECCF47
:1030200075F000520FE17628795C0CE077500CE0E7
:103030000F0B795C01E041E277BE3FD077BC04D052
:10304000200E36D0200E771677AA0FD0779A7650BA
:10305000D8A477060050776E2D0E0201806F000114
:103060003EEC07F07750006E776A7650795C0DE1A0
:103070000050776E2E0E0201806F00013EEC07F0CB
:103080007750006E200E7716000E300E77AA10D003
:10309000779A7650D8A477060050776E2D0E0201ED
:1030A000806F00013EEC07F07750006E776A300EBB
:1030B000002600C080F23EEC07F07EC09EF27DC08C
:1030C0009DF27CC09CF27BC09BF20201A26BA16BC3
:1030D000A06B0A0E9F6F0001FCDE03C07EF002C0F1
:1030E0007DF001C07CF000C07BF0792E80D7000C11
:1030F0006E6A2F0E6D6E706A6F6E716A4350715CEE
:10310000D8B090D04350050DF3502F0F7C6E7D6AE0
:10311000D8B07D2A0A0E7C5C6D6E000E7D586E6EF6
:103120004350050DF3502F0F7C6E7D6AD8B07D2A79
:10313000050E7C5C6F6E000E7D58706E726A715069
:10314000435CFF0F725C6CE26DC0E9FF6EC0EAFF8A
:10315000EFCF73F0010E6D24E96E000E6E20EA6E63
:10316000EFCF74F06FC0E9FF70C0EAFFEFCF75F0EA
:10317000010E6F24E96E000E7020EA6EEFCF76F03C
:1031800075C07FF076C080F073C081F074C082F0AB
:10319000C4EC13F001523AE06EC003F06DC07CF055
:1031A0006EC07DF0EA6A770EE96E6EC0E2FF6DC018
:1031B000E1FF050E016EE6CFEEFF012EFCD76DC0DC
:1031C0007EF06EC07FF070C003F06FC080F070C002
:1031D00081F06EC0EAFF6DC0E9FF70C0E2FF6FC012
:1031E000E1FF050E016EE6CFEEFF012EFCD770C0A9
:1031F00003F06FC0E9FF03C0EAFFE26A770EE16EF9
:10320000050E016EE6CFEEFF012EFCD7FB0E6D26FC
:10321000D8A06E06FB0E6F26D8A07006722A8FD734
:10322000712A6CD7EEEF30F0446A766A450E756EFF
:1032300057EC12F047C06EF046C06FF06D6A435015
:103240006D5C31E26D50050DF350736A726E2F0E96
:103250007224E96E000E7320EA6EEFCF70F06D50AD
:10326000050DF350736A726E010E7224016E000E2A
:103270007320036E01502F0FE96E000E0320EA6EDB
:10328000EFCF71F070C07FF071C080F06EC081F040
:103290006FC082F0C4EC13F0015203E16DC044F042
:1032A00002D06D2ACCD7F0EF30F0776A4350775CCC
:1032B000D8B099D07750050DF350036A2F0F016EE7
:1032C000000E032201C078F003C079F0EA6A720EA2
:1032D000E96E03C0E2FF01C0E1FF050E016EE6CF1B
:1032E000EEFF012EFCD77750050DF350050F786ED9
:1032F000A96E72C0A8FFA69CA69EA684F2CF00F07D
:10330000F29E0F01550EA76EAA0EA76EA682A6B258
:10331000FED7A6940050F2127750050DF350050F1A
:10332000010F796EA96E73C0A8FFA69CA69EA68405
:10333000F2CF00F0F29E550EA76EAA0EA76EA682DF
:10334000A6B2FED7A6940050F2127750050DF350A6
:10335000050F020F796EA96E74C0A8FFA69CA69EE9
:10336000A684F2CF00F0F29E550EA76EAA0EA76EAD
:10337000A682A6B2FED7A6940050F2127750050D91
:10338000F350050F030F796EA96E75C0A8FFA69CB8
:10339000A69EA684F2CF00F0F29E550EA76EAA0E4E
:1033A000A76EA682A6B2FED7A6940050F21277505E
:1033B000050DF350050F040F796EA96E76C0A8FFB6
:1033C000A69CA69EA684F2CF00F0F29E550EA76E94
:1033D000AA0EA76EA682A6B2FED7A6940050F2123D
:1033E000772A000163D7010EA96E43C0A8FFA69CEF
:1033F000A69EA684F2CF00F0F29E0F01550EA76E96
:10340000AA0EA76EA682A6B2FED7A6940050F2120C
:10341000000146EF31F0015080C282F2640E0201D9
:10342000836F00016CEC07F000C080F20150300E99
:1034300008E1020181A30ED081B70CD081B9200E22
:1034400004D00201819781998181012601509EA8B3
:10345000FED7AD6E80C282F20A0E836F00016CEC63
:1034600007F000C080F20150300E08E1020181B780
:103470000BD081A109D081B9200E00010126015095
:103480009EA8FED7AD6E0201300E802780519EA807
:10349000FED7AD6E0001000CE9500201936F92510E
:1034A000956F1CE091C29EF290C29DF28FC29CF279
:1034B0008EC29BF2A26BA16B200EA06F820E9F6F3B
:1034C00000016BEC0AF003C091F202C090F201C05F
:1034D0008FF200C08EF20201952FE4D791C29EF2C6
:1034E00090C29DF28FC29CF28EC29BF20001D0DC92
:1034F00003C091F202C090F201C08FF200C08EF2C0
:10350000020191AF0DD09307938B8E1F8F1F901FD9
:10351000911F8E2BD8B48F2BD8B4902BD8B4912B6D
:103520003B0E9A6F9A0E996FCA0E986F976B0A0EA0
:10353000956F9251D8B4932B91C29EF290C29DF296
:103540008FC29CF28EC29BF29AC2A2F299C2A1F2E1
:1035500098C2A0F297C29FF20001BBDC0150EFCFEE
:103560008EF2ECCF8FF2ECCF90F2ECCF91F20052D2
:1035700013E102019229955DD8A402D000010CD07C
:1035800093510DE00F0B955D01E03CE293BF3AD003
:1035900093BD05D0200E31D0200E0201931793ABBE
:1035A0000DD0939B9251D8A493070050936F2D0E8A
:1035B0009EA8FED7AD6E9351006E936B9251955DB0
:1035C0000BE10050936F2E0E9EA8FED7AD6E935167
:1035D000006E200E9317000E300E93AB0ED0939B0F
:1035E0009251D8A493070050936F2D0E9EA8FED73A
:1035F000AD6E9351006E936B300E002600509EA866
:10360000FED7AD6E9AC29EF299C29DF298C29CF20C
:1036100097C29BF2A26BA16BA06B0A0E9F6F000179
:1036200058DC03C09AF202C099F201C098F200C0BF
:1036300097F20201952F80D70001000CEACF88F2A3
:10364000E9CF87F202018139F009836F8327E20F06
:10365000846F320F866F81510F0B84278427862752
:10366000E90F856F8527852780390F0B85278627EA
:1036700085378637861F863780510F0B862783371D
:10368000070E826F0A0E85078627FDE384078527CC
:10369000FDE383078427FDE382078327FDE3020E12
:1036A000EA6E820EE96E070E8715879DE926860E63
:1036B000E95CD8B4878DEF50006E08E187BD06D075
:1036C00087B90CD087B702D0200E03D0878787999F
:1036D000300E002600509EA8FED7AD6EEE5087AD8E
:1036E000E6D70001000C1F0EB46FB4C0B2F0B2C038
:1036F000B0F0B0C0AFF0AFC0ADF0ADC0ABF0ABC09C
:10370000A9F01C0EAA6F1E0EB36FB3C0B1F0B1C00A
:10371000AEF0AEC0ACF06D6A6D500B080FE36D50AB
:10372000040DF350036A790FE96E000E0320EA6E70
:10373000EF6AEC6AEC6AEC6A6D2AEED76D6A6D503E
:103740000B080FE36D50040DF350036ABD0FE96ED3
:10375000000E0320EA6EEF6AEC6AEC6AEC6A6D2AEE
:10376000EED76D6A6D50030821E36E6A6E500B0848
:103770001BE36D50300DF3500201806B7F6F6E5074
:10378000040DF350036A7F25016E8051032201501E
:10379000F10FE96E000E0320EA6EEF6AEC6AEC6A44
:1037A000EC6A6E2A0001E2D76D2ADCD76D6A6D5093
:1037B000030821E36E6A6E500B081BE36D50300D59
:1037C000F3500201806B7F6F6E50040DF350036A5B
:1037D0007F25016E805103220150B10FE96E010E69
:1037E0000320EA6EEF6AEC6AEC6AEC6A6E2A00016A
:1037F000E2D76D2ADCD702017C6B7CC27BF27BC2F4
:103800007AF27E6B7D6B716B0001B86BB76BB66B38
:10381000B56BBC6BBB6BBA6BB96BEE6BED6BF06BE6
:10382000EF6B02017F6B7F51000133EC02F0000966
:1038300007E002017F2B9EA8FED7AD6EF4D70001F2
:1038400002017F6B7F5100014BEC02F0000907E0A1
:1038500002017F2B9EA8FED7AD6EF4D700010201B6
:103860007F6B7F51000163EC02F0000907E0020169
:103870007F2B9EA8FED7AD6EF4D7000102017F6BAF
:103880007F510001A3EC02F0000907E002017F2B49
:103890009EA8FED7AD6EF4D700016D6A53506D5CE3
:1038A000D8B020EF20F06D500A0DF350140F020134
:1038B000F2CF80F2F29EA96EA69CA69EA680A8508A
:1038C00080BFF28E6F6E6D500A0DF350140F010F12
:1038D000F2CF81F2F29EA96EA69CA69EA680A85069
:1038E00081BFF28E706E6D500A0DF350140F020FEF
:1038F000F2CF81F2F29EA96EA69CA69EA680A85049
:1039000081BFF28E716E6D500A0DF350140F030FCC
:10391000F2CF81F2F29EA96EA69CA69EA680A85028
:1039200081BFF28E726E6D500A0DF350140F040FAA
:10393000F2CF81F2F29EA96EA69CA69EA680A85008
:1039400081BFF28E736E6D500A0DF350140F050F88
:10395000F2CF81F2F29EA96EA69CA69EA680A850E8
:1039600081BFF28E746E6D500A0DF350140F060F66
:10397000F2CF81F2F29EA96EA69CA69EA680A850C8
:1039800081BFF28E756E6D500A0DF350140F070F44
:10399000F2CF81F2F29EA96EA69CA69EA680A850A8
:1039A00081BFF28E766E6D500A0DF350140F080F22
:1039B000F2CF81F2F29EA96EA69CA69EA680A85088
:1039C00081BFF28E776E6D500A0DF350140F090F00
:1039D000F2CF81F2F29EA96EA69CA69EA680A85068
:1039E00081BFF28E786E6F507A5D07E170507B5D1B
:1039F00004E171507C5DD8B4AED17A536AE077C2ED
:103A000086F276C285F2000188EC10F0D892BCC034
:103A100082F2BBC081F2BAC080F2B9C07FF203C0AB
:103A200086F202C085F201C084F200C083F24BEC42
:103A30000FF003C0BCF002C0BBF001C0BAF000C080
:103A4000B9F0010E02017B5D040DF350036A790F9A
:103A5000E96E000E0320EA6EB9C0EFFFBAC0ECFFBA
:103A6000BBC0ECFFBCC0ECFF79C286F278C285F225
:103A7000000188EC10F0D892B8C082F2B7C081F291
:103A8000B6C080F2B5C07FF203C086F202C085F2F4
:103A900001C084F200C083F24BEC0FF003C0B8F019
:103AA00002C0B7F001C0B6F000C0B5F0010E0201CF
:103AB0007B5D040DF350036ABD0FE96E000E032019
:103AC000EA6EB5C0EFFFB6C0ECFFB7C0ECFFB8C000
:103AD000ECFF71507C5DD8B431D17C53D8B423D184
:103AE0006E6A6E500B08D8A014D16E50040DF350BE
:103AF000036A790F016E000E032201C07FF203C03A
:103B000080F26E50040DF350036A790FE96E000ED7
:103B10000320EA6EEFCF81F2ECCF82F2ECCF83F29A
:103B2000ECCF84F2036A6E50A90FE96E000E0320F9
:103B3000EA6EEF50866B856F000188EC10F084C24E
:103B400088F283C287F282C286F281C285F203C004
:103B50008CF202C08BF201C08AF200C089F2ECEC58
:103B60000DF080C2EAFF7FC2E9FF00C0EFFF01C095
:103B7000ECFF02C0ECFF03C0ECFF6E50040DF350ED
:103B8000036ABD0F016E000E032201C07FF2020125
:103B900003C080F26E50040DF350036ABD0FE96E4E
:103BA000000E0320EA6EEFCF81F2ECCF82F2ECCF71
:103BB00083F2ECCF84F2036A6E50A90FE96E000E17
:103BC0000320EA6EEF50866B856F000188EC10F0E1
:103BD00084C288F283C287F282C286F281C285F2F1
:103BE00003C08CF202C08BF201C08AF200C089F2DD
:103BF000ECEC0DF080C2EAFF7FC2E9FF00C0EFFFEE
:103C000001C0ECFF02C0ECFF03C0ECFF02017151E8
:103C1000300DF350806B7F6F6E50040DF350036ACC
:103C20007F25016E805103220150F10F016E000EBD
:103C3000032201C081F203C082F26E50040DF350E2
:103C4000036A790FE96E000E0320EA6EEFCF00F0F1
:103C5000ECCF01F0ECCF02F0ECCF03F082C2EAFF30
:103C600081C2E9FF00C0EFFF01C0ECFF02C0ECFF22
:103C700003C0ECFF7151300DF350806B7F6F6E50BD
:103C8000040DF350036A7F25016E80510322015019
:103C9000B10F016E010E032201C081F203C082F256
:103CA0006E50040DF350036ABD0FE96E000E032041
:103CB000EA6EEFCF00F0ECCF01F0ECCF02F0ECCFEA
:103CC00003F082C2EAFF81C2E9FF00C0EFFF01C03A
:103CD000ECFF02C0ECFF03C0ECFF6E50040DF3508C
:103CE000036A790FE96E000E0320EA6EEF6AEC6A50
:103CF000EC6AEC6A6E50040DF350036ABD0FE96E76
:103D0000000E0320EA6EEF6AEC6AEC6AEC6A6E2A37
:103D1000E8D6036A7151720FE96E020E0320EA6E53
:103D20007CC2EFFF712B7150030B04E11D0E0001EB
:103D3000AA6F03D01C0E0001AA6F02016FC07AF2B5
:103D400070C07BF271C07CF27D2BD8B47E2B776B78
:103D5000766B796B786B76507627000E77237750E9
:103D60007827000E792376500001ED27000EEE2310
:103D70007750EF27000EF0236F5009080FE3020180
:103D80007F6B7F510001E4EC02F0000907E00201C3
:103D90007F2B9EA8FED7AD6EF4D700016FC080F2D6
:103DA0001B0E0201816F00010BEC1AF02F0E9EA872
:103DB000FED7AD6E705009080FE302017F6B7F5193
:103DC000000125EC02F0000907E002017F2B9EA80C
:103DD000FED7AD6EF4D7000170C080F21B0E020159
:103DE000816F00010BEC1AF02F0E9EA8FED7AD6E6E
:103DF000715009080FE302017F6B7F51000125EC30
:103E000002F0000907E002017F2B9EA8FED7AD6EED
:103E1000F4D7000171C080F21B0E0201816F000116
:103E20000BEC1AF0200E9EA8FED7AD6E200E9EA8B9
:103E3000FED7AD6E725009080FE302017F6B7F5110
:103E4000000125EC02F0000907E002017F2B9EA88B
:103E5000FED7AD6EF4D7000172C080F21B0E0201D6
:103E6000816F00010BEC1AF03A0E9EA8FED7AD6EE2
:103E7000735009080FE302017F6B7F51000125ECAD
:103E800002F0000907E002017F2B9EA8FED7AD6E6D
:103E9000F4D7000173C080F21B0E0201816F000194
:103EA0000BEC1AF00A0E02017F6F200E9EA8FED7BF
:103EB000AD6E7F2FFAD7745009080DE37F6B7F51E9
:103EC0000001E4EC02F0000907E002017F2B9EA84C
:103ED000FED7AD6EF4D7000174C080F21B0E020154
:103EE000816F00010BEC1AF02E0E9EA8FED7AD6E6E
:103EF000755009080FE302017F6B7F51000125EC2B
:103F000002F0000907E002017F2B9EA8FED7AD6EEC
:103F1000F4D7000175C080F21B0E0201816F000111
:103F20000BEC1AF0DF0E9EA8FED7AD6E430E9EA8D6
:103F3000FED7AD6E0E0E02017F6F200E9EA8FED73B
:103F4000AD6E7F2FFAD778C080F21B0E816F000113
:103F50000BEC1AF0DF0E9EA8FED7AD6E430E9EA8A6
:103F6000FED7AD6E110E0201806F200E9EA8FED707
:103F7000AD6E802FFAD7765063080DE37F6B7F51CB
:103F80000001E4EC02F0000907E002017F2B9EA88B
:103F9000FED7AD6EF4D70001765009080FE3020199
:103FA0007F6B7F510001E4EC02F0000907E00201A1
:103FB0007F2B9EA8FED7AD6EF4D7000176C080F2AD
:103FC0001B0E0201816F00010BEC1AF0130E0201AF
:103FD0007F6F200E9EA8FED7AD6E7F2FFAD7775049
:103FE00063080DE37F6B7F510001E4EC02F00009F0
:103FF00007E002017F2B9EA8FED7AD6EF4D700012B
:10400000775009080FE302017F6B7F510001E4EC58
:1040100002F0000907E002017F2B9EA8FED7AD6EDB
:10402000F4D7000177C080F21B0E0201816F0001FE
:104030000BEC1AF00D0E9EA8FED7AD6E6D2A2ED495
:1040400002017A536AE077C286F276C285F20001F5
:1040500088EC10F0D892BCC082F2BBC081F2BAC02A
:1040600080F2B9C07FF203C086F202C085F201C0BF
:1040700084F200C083F24BEC0FF003C0BCF002C02E
:10408000BBF001C0BAF000C0B9F0010E02017B5DC7
:10409000040DF350036A790FE96E000E0320EA6EF7
:1040A000B9C0EFFFBAC0ECFFBBC0ECFFBCC0ECFF77
:1040B00079C286F278C285F2000188EC10F0D892BD
:1040C000B8C082F2B7C081F2B6C080F2B5C07FF24C
:1040D00003C086F202C085F201C084F200C083F200
:1040E0004BEC0FF003C0B8F002C0B7F001C0B6F05F
:1040F00000C0B5F0010E02017B5D040DF350036AB0
:10410000BD0FE96E000E0320EA6EB5C0EFFFB6C02A
:10411000ECFFB7C0ECFFB8C0ECFF7C53D8B409D1BA
:104120006E6A6E500B08D8A0FAD06E50040DF35092
:10413000036A790F016E000E032201C07FF203C0F3
:1041400080F26E50040DF350036A790FE96E000E91
:104150000320EA6EEFCF81F2ECCF82F2ECCF83F254
:10416000ECCF84F2036A6E50A90FE96E000E0320B3
:10417000EA6EEF50866B856F000188EC10F084C208
:1041800088F283C287F282C286F281C285F203C0BE
:104190008CF202C08BF201C08AF200C089F2ECEC12
:1041A0000DF080C2EAFF7FC2E9FF00C0EFFF01C04F
:1041B000ECFF02C0ECFF03C0ECFF6E50040DF350A7
:1041C000036ABD0F016E000E032201C07FF20201DF
:1041D00003C080F26E50040DF350036ABD0FE96E08
:1041E000000E0320EA6EEFCF81F2ECCF82F2ECCF2B
:1041F00083F2ECCF84F2036A6E50A90FE96E000ED1
:104200000320EA6EEF50866B856F000188EC10F09A
:1042100084C288F283C287F282C286F281C285F2AA
:1042200003C08CF202C08BF201C08AF200C089F296
:10423000ECEC0DF080C2EAFF7FC2E9FF00C0EFFFA7
:1042400001C0ECFF02C0ECFF03C0ECFF02017151A2
:10425000300DF350806B7F6F6E50040DF350036A86
:104260007F25016E805103220150F10F016E000E77
:10427000032201C081F203C082F26E50040DF3509C
:10428000036A790FE96E000E0320EA6EEFCF00F0AB
:10429000ECCF01F0ECCF02F0ECCF03F082C2EAFFEA
:1042A00081C2E9FF00C0EFFF01C0ECFF02C0ECFFDC
:1042B00003C0ECFF7151300DF350806B7F6F6E5077
:1042C000040DF350036A7F25016E805103220150D3
:1042D000B10F016E010E032201C081F203C082F210
:1042E0006E50040DF350036ABD0FE96E000E0320FB
:1042F000EA6EEFCF00F0ECCF01F0ECCF02F0ECCFA4
:1043000003F082C2EAFF81C2E9FF00C0EFFF01C0F3
:10431000ECFF02C0ECFF03C0ECFF6E2A02D7036A79
:104320007151720FE96E020E0320EA6E7CC2EFFF3C
:10433000712B7EC286F27DC285F2000188EC10F0FE
:10434000BCC088F2BBC087F2BAC086F2B9C085F2A1
:1043500003C08CF202C08BF201C08AF200C089F265
:10436000ECEC0DF003C0BCF002C0BBF001C0BAF031
:1043700000C0B9F07EC286F27DC285F288EC10F0F2
:10438000B8C088F2B7C087F2B6C086F2B5C085F271
:1043900003C08CF202C08BF201C08AF200C089F225
:1043A000ECEC0DF003C0B8F002C0B7F001C0B6F0FD
:1043B00000C0B5F002017F6B7F510001A3EC02F059
:1043C000000907E002017F2B9EA8FED7AD6EF4D74F
:1043D000000102017F6B7F510001F2EC02F0000945
:1043E00007E002017F2B9EA8FED7AD6EF4D7000137
:1043F00002017F6B7F5100010FEC03F0000907E021
:1044000002017F2B9EA8FED7AD6EF4D700010201FA
:104410007F6B7F51000122EC03F0000907E00201ED
:104420007F2B9EA8FED7AD6EF4D7000102017F6BF3
:104430007F51000141EC03F0000907E002017F2BEE
:104440009EA8FED7AD6EF4D7000102017F6B7F51AD
:1044500000015DEC03F0000907E002017F2B9EA83C
:10446000FED7AD6EF4D7000102017F6B7F510001D2
:10447000A3EC02F0000907E002017F2B9EA8FED703
:10448000AD6EF4D7000182B205D06E6A82B201D05F
:10449000FDD719D082B006D0010E6E6E82B001D069
:1044A000FDD711D082B406D0020E6E6E82B401D058
:1044B000FDD709D082BA06D0030E6E6E82BA01D043
:1044C000FDD701D0E0D76E50FC0FD8B026EF29F011
:1044D000040F28EF29F0030E956E0201856B010E83
:1044E000866F0001D4EC06F002017F6B7F51000162
:1044F00079EC03F0000909E002017F2B806F0001D5
:104500003EEC07F00201F2D7000126EF29F002018C
:104510007F6B7F5100018DEC03F002017F2B006E59
:1045200000509EA8FED7AD6E300E7F5DF2E1020E08
:10453000E96EBCC091F2BBC090F2BAC08FF2B9C0B4
:104540008EF2926F00014CEC1AF0350E0201806F72
:10455000805100018DEC03F00201802B006E0050B1
:104560009EA8FED7AD6E3F0E805DF2E17F6B7F515E
:104570000001BAEC03F002017F2B006E00509EA8F0
:10458000FED7AD6E310E7F5DF2E1020EE96EB8C06E
:1045900091F2B7C090F2B6C08FF2B5C08EF2926FB2
:1045A00000014CEC1AF0360E0201806F80510001C0
:1045B000BAEC03F00201802B006E00509EA8FED7DB
:1045C000AD6E400E805DF2E10001F4D626EF29F0D9
:1045D00002017F6B7F510001E8EC03F002017F2BA9
:1045E000006E00509EA8FED7AD6E280E7F5DF2E1F2
:1045F000100EE96EEEC081F2EDC080F200011EECFB
:104600001BF02B0E0201806F80510001E8EC03F0DB
:104610000201802B006E00509EA8FED7AD6E350EB5
:10462000805DF2E17F6B7F51000110EC04F002012C
:104630007F2B006E00509EA8FED7AD6E290E7F5DC9
:10464000F2E1100EE96EF0C081F2EFC080F20001DD
:104650001EEC1BF02C0E0201806F8051000110EC4B
:1046600004F00201802B006E00509EA8FED7AD6EB4
:10467000360E805DF2E100019DD626EF29F06D6ACD
:10468000020171516D5CD8B022EF29F07F6B7F5130
:10469000000139EC04F0000907E002017F2B9EA81D
:1046A000FED7AD6EF4D70001036A6D50720FE96E4C
:1046B000020E0320EA6EEF5009080FE302017F6B40
:1046C0007F51000125EC02F0000907E002017F2B79
:1046D0009EA8FED7AD6EF4D70001036A6D50720F2D
:1046E000E96E020E0320EA6EEFCF7FF27FC280F206
:1046F0001B0E0201816F00010BEC1AF00D0E9EA83B
:10470000FED7AD6E02017F6B7F51000148EC04F0D3
:10471000000907E002017F2B9EA8FED7AD6EF4D7FB
:10472000000102017F6B7F51000190EC04F0000951
:1047300007E002017F2B9EA8FED7AD6EF4D70001E3
:104740006D50300DF3500201806B7F6FF10E7F25AD
:10475000E96E000E8021EA6EEFCF81F2ECCF82F29B
:10476000ECCF83F2ECCF84F26D50300DF350866BBA
:10477000856FB10E8525E96E010E8621EA6EEFCFB9
:1047800087F2ECCF88F2ECCF89F2ECCF8AF28B6B18
:104790008B510001D8EC04F002018B2B006E00500D
:1047A0009EA8FED7AD6E050E8B5DF2E11E0E8C6FDE
:1047B000200E9EA8FED7AD6E8C2FFAD7890EE96E1B
:1047C00084C291F283C290F282C28FF281C28EF2D1
:1047D000060E926F00014CEC1AF0350E02018D6F3F
:1047E000200E9EA8FED7AD6E8D2FFAD7890EE96EEA
:1047F0008AC291F289C290F288C28FF287C28EF289
:10480000060E926F00014CEC1AF00D0E9EA8FED71A
:10481000AD6E6D50300DF3500201806B7F6F040E52
:104820007F25016E000E8021036E0150F10FE96EAD
:10483000000E0320EA6EEFCF81F2ECCF82F2ECCFD4
:1048400083F2ECCF84F26D50300DF350866B856FA0
:10485000040E8525016E000E8621036E0150B10FF6
:10486000E96E010E0320EA6EEFCF87F2ECCF88F2FB
:10487000ECCF89F2ECCF8AF28B6B8B510001EBEC21
:1048800004F002018B2B006E00509EA8FED7AD6E87
:10489000070E8B5DF2E11C0E8C6F200E9EA8FED7DA
:1048A000AD6E8C2FFAD7890EE96E84C291F283C265
:1048B00090F282C28FF281C28EF2060E926F0001D8
:1048C0004CEC1AF0350E02018D6F200E9EA8FED71B
:1048D000AD6E8D2FFAD7890EE96E8AC291F289C228
:1048E00090F288C28FF287C28EF2060E926F00019C
:1048F0004CEC1AF00D0E9EA8FED7AD6E6D50300D2B
:10490000F3500201806B7F6F080E7F25016E000E51
:104910008021036E0150F10FE96E000E0320EA6E54
:10492000EFCF81F2ECCF82F2ECCF83F2ECCF84F2C6
:104930006D50300DF350866B856F080E8525016E26
:10494000000E8621036E0150B10FE96E010E0320A7
:10495000EA6EEFCF87F2ECCF88F2ECCF89F2ECCFA2
:104960008AF28B6B8B510001FFEC04F002018B2B60
:10497000006E00509EA8FED7AD6E050E8B5DF2E175
:104980001E0E8C6F200E9EA8FED7AD6E8C2FFAD710
:10499000890EE96E84C291F283C290F282C28FF2D4
:1049A00081C28EF2060E926F00014CEC1AF0350EA9
:1049B00002018D6F200E9EA8FED7AD6E8D2FFAD707
:1049C000890EE96E8AC291F289C290F288C28FF292
:1049D00087C28EF2060E926F00014CEC1AF00D0E9B
:1049E0009EA8FED7AD6E6D50300DF3500201806B66
:1049F0007F6F0C0E7F25016E000E8021036E01502B
:104A0000F10FE96E000E0320EA6EEFCF81F2ECCFDA
:104A100082F2ECCF83F2ECCF84F26D50300DF35084
:104A2000866B856F0C0E8525016E000E8621036E48
:104A30000150B10FE96E010E0320EA6EEFCF87F24D
:104A4000ECCF88F2ECCF89F2ECCF8AF28B6B8B51F2
:104A5000000112EC05F002018B2B006E00509EA8A5
:104A6000FED7AD6E050E8B5DF2E11E0E8C6F200E33
:104A70009EA8FED7AD6E8C2FFAD7890EE96E84C240
:104A800091F283C290F282C28FF281C28EF2060E40
:104A9000926F00014CEC1AF0350E02018D6F200E62
:104AA0009EA8FED7AD6E8D2FFAD7890EE96E8AC209
:104AB00091F289C290F288C28FF287C28EF2060EFE
:104AC000926F00014CEC1AF00D0E9EA8FED7AD6E51
:104AD0006D50300DF3500201806B7F6F100E7F25FB
:104AE000016E000E8021036E0150F10FE96E000E81
:104AF0000320EA6EEFCF81F2ECCF82F2ECCF83F2AB
:104B0000ECCF84F26D50300DF350866B856F100E34
:104B10008525016E000E8621036E0150B10FE96EEE
:104B2000010E0320EA6EEFCF87F2ECCF88F2ECCFD4
:104B300089F2ECCF8AF28B6B8B51000125EC05F0EA
:104B400002018B2B006E00509EA8FED7AD6E040EA6
:104B50008B5DF2E11F0E8C6F200E9EA8FED7AD6E0E
:104B60008C2FFAD7890EE96E84C291F283C290F23B
:104B700082C28FF281C28EF2060E926F00014CEC5F
:104B80001AF0350E02018D6F200E9EA8FED7AD6E75
:104B90008D2FFAD7890EE96E8AC291F289C290F2FE
:104BA00088C28FF287C28EF2060E926F00014CEC23
:104BB0001AF00D0E9EA8FED7AD6E6D50300DF3505D
:104BC0000201806B7F6F140E7F25016E000E802125
:104BD000036E0150F10FE96E000E0320EA6EEFCF75
:104BE00081F2ECCF82F2ECCF83F2ECCF84F26D5005
:104BF000300DF350866B856F140E8525016E000E07
:104C00008621036E0150B10FE96E010E0320EA6E9A
:104C1000EFCF87F2ECCF88F2ECCF89F2ECCF8AF2BB
:104C20008B6B8B51000137EC05F002018B2B006E72
:104C300000509EA8FED7AD6E050E8B5DF2E11E0EF4
:104C40008C6F200E9EA8FED7AD6E8C2FFAD7890EE2
:104C5000E96E84C291F283C290F282C28FF281C265
:104C60008EF2060E926F00014CEC1AF0350E020126
:104C70008D6F200E9EA8FED7AD6E8D2FFAD7890EB0
:104C8000E96E8AC291F289C290F288C28FF287C21D
:104C90008EF2060E926F00014CEC1AF00D0E9EA8DB
:104CA000FED7AD6E6D50300DF3500201806B7F6FFB
:104CB000180E7F25016E000E8021036E0150F10F4A
:104CC000E96E000E0320EA6EEFCF81F2ECCF82F2A4
:104CD000ECCF83F2ECCF84F26D50300DF350866B45
:104CE000856F180E8525016E000E8621036E01501A
:104CF000B10FE96E010E0320EA6EEFCF87F2ECCF21
:104D000088F2ECCF89F2ECCF8AF28B6B8B510001E9
:104D10004AEC05F002018B2B006E00509EA8FED7D6
:104D2000AD6E050E8B5DF2E11E0E8C6F200E9EA8FF
:104D3000FED7AD6E8C2FFAD7890EE96E84C291F240
:104D400083C290F282C28FF281C28EF2060E926FFF
:104D500000014CEC1AF0350E02018D6F200E9EA85A
:104D6000FED7AD6E8D2FFAD7890EE96E8AC291F209
:104D700089C290F288C28FF287C28EF2060E926FBD
:104D800000014CEC1AF00D0E9EA8FED7AD6E6D50D2
:104D9000300DF3500201806B7F6F1C0E7F25016E7A
:104DA000000E8021036E0150F10FE96E000E03200A
:104DB000EA6EEFCF81F2ECCF82F2ECCF83F2ECCF50
:104DC00084F26D50300DF350866B856F1C0E852577
:104DD000016E000E8621036E0150B10FE96E010EC7
:104DE0000320EA6EEFCF87F2ECCF88F2ECCF89F2A6
:104DF000ECCF8AF28B6B8B5100015DEC05F0020168
:104E00008B2B006E00509EA8FED7AD6E060E8B5DFC
:104E1000F2E11D0E8C6F200E9EA8FED7AD6E8C2F7A
:104E2000FAD7890EE96E84C291F283C290F282C2EF
:104E30008FF281C28EF2060E926F00014CEC1AF0D6
:104E4000350E02018D6F200E9EA8FED7AD6E8D2F00
:104E5000FAD7890EE96E8AC291F289C290F288C2AD
:104E60008FF287C28EF2060E926F00014CEC1AF0A0
:104E70000D0E9EA8FED7AD6E6D50300DF3500201A1
:104E8000806B7F6F200E7F25016E000E8021036EE8
:104E90000150F10FE96E000E0320EA6EEFCF81F2B0
:104EA000ECCF82F2ECCF83F2ECCF84F26D50300D78
:104EB000F350866B856F200E8525016E000E8621CE
:104EC000036E0150B10FE96E010E0320EA6EEFCFC1
:104ED00087F2ECCF88F2ECCF89F2ECCF8AF28B6BC1
:104EE0008B51000170EC05F002018B2B006E00501D
:104EF0009EA8FED7AD6E0A0E8B5DF2E1190E8C6F87
:104F0000200E9EA8FED7AD6E8C2FFAD7890EE96EC3
:104F100084C291F283C290F282C28FF281C28EF279
:104F2000060E926F00014CEC1AF0350E02018D6FE7
:104F3000200E9EA8FED7AD6E8D2FFAD7890EE96E92
:104F40008AC291F289C290F288C28FF287C28EF231
:104F5000060E926F00014CEC1AF00D0E9EA8FED7C3
:104F6000AD6E6D50300DF3500201806B7F6F240EDB
:104F70007F25016E000E8021036E0150F10FE96E56
:104F8000000E0320EA6EEFCF81F2ECCF82F2ECCF7D
:104F900083F2ECCF84F26D50300DF350866B856F49
:104FA000240E8525016E000E8621036E0150B10F7F
:104FB000E96E010E0320EA6EEFCF87F2ECCF88F2A4
:104FC000ECCF89F2ECCF8AF28B6B8B51000185EC30
:104FD00005F002018B2B006E00509EA8FED7AD6E2F
:104FE000070E8B5DF2E11C0E8C6F200E9EA8FED783
:104FF000AD6E8C2FFAD7890EE96E84C291F283C20E
:1050000090F282C28FF281C28EF2060E926F000180
:105010004CEC1AF0350E02018D6F200E9EA8FED7C3
:10502000AD6E8D2FFAD7890EE96E8AC291F289C2D0
:1050300090F288C28FF287C28EF2060E926F000144
:105040004CEC1AF00D0E9EA8FED7AD6E6D50300DD3
:10505000F3500201806B7F6F280E7F25016E000EDA
:105060008021036E0150F10FE96E000E0320EA6EFD
:10507000EFCF81F2ECCF82F2ECCF83F2ECCF84F26F
:105080006D50300DF350866B856F280E8525016EAF
:10509000000E8621036E0150B10FE96E010E032050
:1050A000EA6EEFCF87F2ECCF88F2ECCF89F2ECCF4B
:1050B0008AF28B6B8B51000199EC05F002018B2B6E
:1050C000006E00509EA8FED7AD6E090E8B5DF2E11A
:1050D0001A0E8C6F200E9EA8FED7AD6E8C2FFAD7BD
:1050E000890EE96E84C291F283C290F282C28FF27D
:1050F00081C28EF2060E926F00014CEC1AF0350E52
:1051000002018D6F200E9EA8FED7AD6E8D2FFAD7AF
:10511000890EE96E8AC291F289C290F288C28FF23A
:1051200087C28EF2060E926F00014CEC1AF00D0E43
:105130009EA8FED7AD6E6D50300DF3500201806B0E
:105140007F6F2C0E7F25016E000E8021036E0150B3
:10515000F10FE96E000E0320EA6EEFCF81F2ECCF83
:1051600082F2ECCF83F2ECCF84F26D50300DF3502D
:10517000866B856F2C0E8525016E000E8621036ED1
:105180000150B10FE96E010E0320EA6EEFCF87F2F6
:10519000ECCF88F2ECCF89F2ECCF8AF28B6B8B519B
:1051A0000001AEEC05F002018B2B006E00509EA8B2
:1051B000FED7AD6E090E8B5DF2E11A0E8C6F200EDC
:1051C0009EA8FED7AD6E8C2FFAD7890EE96E84C2E9
:1051D00091F283C290F282C28FF281C28EF2060EE9
:1051E000926F00014CEC1AF0350E02018D6F200E0B
:1051F0009EA8FED7AD6E8D2FFAD7890EE96E8AC2B2
:1052000091F289C290F288C28FF287C28EF2060EA6
:10521000926F00014CEC1AF00D0E9EA8FED7AD6EF9
:1052200002017F6B7F51000148EC04F0000907E0A8
:1052300002017F2B9EA8FED7AD6EF4D700016D2A28
:1052400040EF23F00001DAEF21F000D046EF31F01B
:10525000F2CF0EF0F29EE824750FF66E520EF76E46
:10526000D8B0F72A0A00F550FA6E0800F5500EBEC5
:10527000F28EF96ED6440E45D0457E46766A450ECE
:10528000756E57EC12F047C04EF046C04FF045C067
:1052900050F0838054EF31F0766A450E756E57EC0E
:1052A00012F047C06DF046C06EF045C06FF04EC0C2
:1052B00075F04FC076F050C077F06DC078F06EC0DA
:1052C00079F06FC07AF063EC14F00150512602506F
:1052D000522283905CEF31F001506DC082F2640E77
:1052E0000201836F00016CEC07F000C06DF001500B
:1052F000300E07E16EA20DD06EB60BD06EB8200E48
:1053000003D06E966E986E80012601C080F23EEC4E
:1053100007F06DC082F20A0E0201836F00016CEC8F
:1053200007F000C06DF00150300E06E16EB609D0F6
:105330006EA007D06EB8200E012601C080F23EECB0
:1053400007F0300E6D266DC080F23EEC07F0000CC9
:10535000766A450E756E57EC12F0C00EF21202011D
:10536000856B010E866F0001D4EC06F06D6A6D50FE
:105370000BEC02F06D2A006EE8CF80F23EEC07F0F5
:10538000070E6D5CF4E1020EE96E2AC075F029C0CB
:1053900074F028C073F027C072F0010E766EAAEC8C
:1053A00017F0200E0201806F00013EEC07F0DF0EC7
:1053B0000201806F00013EEC07F00F0E6E6E6E5022
:1053C0000BEC02F06E2A006EE8CF80F23EEC07F0A4
:1053D000180E6E5CF4E1475009080DE36D6A6D50DC
:1053E00025EC02F0000907E06D2A0201806F000140
:1053F0003EEC07F0F4D747C06DF01B0E6E6E6CDF0D
:105400003A0E0201806F00013EEC07F04650090899
:105410000DE36D6A6D5025EC02F0000907E06D2A7E
:105420000201806F00013EEC07F0F4D746C06DF03A
:105430001B0E6E6E51DF28EF2AF09CEC0EF003C0BD
:105440002AF002C029F001C028F000C027F080D760
:10545000F5EC0EF0015232E01EA22CD01E92D89232
:1054600022C082F221C081F220C080F21FC07FF2F0
:105470002EC086F22DC085F22CC084F22BC083F2A0
:105480004BEC0FF003C022F002C021F001C020F06D
:1054900000C01FF0766A756A7F0E746E850E736E9B
:1054A00022C07AF021C079F020C078F01FC077F0D8
:1054B000E7EC0AF0010E016E32D031D01EB22CD0D2
:1054C0001E82D88222C082F221C081F220C080F2E6
:1054D0001FC07FF22EC086F22DC085F22CC084F250
:1054E0002BC083F24BEC0FF003C022F002C021F07E
:1054F00001C020F000C01FF0766A756A7F0E746EDE
:10550000850E736E22C07AF021C079F020C078F049
:105510001FC077F0E7EC0AF0000E016E00D05EEFDE
:1055200031F0F86AD09E0D8EEA6AE96AB896190ED3
:10553000AF6E220EAC6E900EAB6EC150C00B0F0959
:10554000C16E070EB46E186A196A010E1A6E1B6AD4
:105550001C6A1D6A7E0E2B6E2C6A2D6A2E6AF19CC7
:10556000F19AF292F0908394839283901E94526AFF
:10557000516A030E936E000E956E270E946EFCEF2B
:1055800006F053EF0BF00201856B010E866F0001F0
:10559000D4EC06F00201856B0C0E866F0001D4EC92
:1055A00006F06D6A6D5063EC00F0000907E06D2AAB
:1055B0000201806F00013EEC07F0F4D7C150C00B30
:1055C0000B09C16EC050C00B0209C06EC09EC280E4
:1055D0009CEC0EF003C02AF002C029F001C028F0B4
:1055E00000C027F0F5EC0EF001522DE11E82D882AA
:1055F00022C082F221C081F220C080F21FC07FF25F
:105600002EC086F22DC085F22CC084F22BC083F20E
:105610004BEC0FF003C022F002C021F001C020F0DB
:1056200000C01FF0766A756A7F0E746E850E736E09
:1056300022C07AF021C079F020C078F01FC077F046
:10564000E7EC0AF001D01E921E90DFEC10F0015240
:1056500001E01E801E981E9AF288F086C00EF2129B
:10566000D190F292F0901EAAD9D0F29CF29EF2BE96
:10567000FDD7F2927E6A7F6A4BEC09F01EA685D0B8
:1056800083B474D01EA21CD0D89222C082F221C052
:1056900081F220C080F21FC07FF22EC086F22DC0A2
:1056A00085F22CC084F22BC083F24BEC0FF003C0C8
:1056B00026F002C025F001C024F000C023F008D07D
:1056C00022C026F021C025F020C024F01FC023F006
:1056D0000201866B42C085F2000188EC10F003C025
:1056E00022F002C021F001C020F000C01FF0766A55
:1056F000756A7F0E746E850E736E22C07AF021C0BB
:1057000079F020C078F01FC077F0E7EC0AF0F5ECF4
:105710000EF0015201E01E921E961E840201856B5E
:10572000010E866F0001D4EC06F06D6A6D5079ECC5
:1057300000F0000907E06D2A0201806F00013EECD5
:1057400007F0F4D734EC13F040C057F041C058F0E4
:10575000FA0E0201876F000198EC06F057C06FF057
:1057600058C070F0716A48EC13F00ED0FA0E0201C6
:10577000876F000198EC06F0442A4350445C01E135
:10578000446AA0EC13F01E8641D0FA0E0201876F26
:10579000000198EC06F083A431D01EA42FD026C0BF
:1057A00022F025C021F024C020F023C01FF0766A2B
:1057B000756A7F0E746E850E736E22C07AF021C0FA
:1057C00079F020C078F01FC077F0E7EC0AF01E9463
:1057D0000201856B010E866F0001D4EC06F06D6A44
:1057E0006D5094EC00F0000907E06D2A0201806F13
:1057F00000013EEC07F0F4D72FEC15F0442A43509B
:10580000445C01E1446AA0EC13F01E867E6A040E3B
:105810007F6E4BEC09F01E9AC00EF2121EA849EFE3
:1058200031F0F29CF29EF2BEFDD70201856B010EB3
:10583000866F0001D4EC06F06D6A6D50ADEC00F09F
:10584000000907E06D2A0201806F00013EEC07F0BD
:10585000F4D70F0E0201816F020E826F00012BEC54
:1058600007F00201856B0E0E866F0001D4EC06F086
:10587000010E5C6E82B018D05C2A5C50040802E213
:10588000010E5C6E5CC07CF01F0E7D6E82EC07F03A
:105890000F0E0201816F020E826F00012BEC07F0E8
:1058A00082B001D0FDD7E6D782B217D05C065C5239
:1058B00002E1040E5C6E5CC07CF01F0E7D6E82EC1B
:1058C00007F00F0E0201816F020E826F00012BECB8
:1058D00007F082B201D0FDD7CDD782B404D082B414
:1058E00001D0FDD72DD082BA2AD082BA01D0FDD7FF
:1058F0000201856B010E866F0001D4EC06F00201F7
:10590000856B0C0E866F0001D4EC06F06D6A6D504D
:10591000C9EC00F0000907E06D2A0201806F000168
:105920003EEC07F0F4D7020E6D6EFA0E0201876F9F
:10593000000198EC06F06D2EF8D71E9891D69AD7F4
:105940000201856B0C0E866F0001D4EC06F05C50F2
:10595000010A0BE0030A58E0010AD8B4E5D1070AAE
:10596000D8B4F5EF30F021EF31F083B417D0020155
:10597000856B010E866F0001D4EC06F06D6A6D50E8
:1059800079EC00F0000907E06D2A0201806F000148
:105990003EEC07F0F4D734EC13F034D00201856B01
:1059A000010E866F0001D4EC06F06D6A6D5094EC28
:1059B00000F0000907E06D2A0201806F00013EEC53
:1059C00007F0F4D72FEC15F083A201D083921EA428
:1059D00019D026C022F025C021F024C020F023C019
:1059E0001FF0766A756A7F0E746E850E736E22C024
:1059F0007AF021C079F020C078F01FC077F0E7EC92
:105A00000AF01E9446EF31F00201856B010E866F9D
:105A10000001D4EC06F01EA261D0D89222C082F21E
:105A200021C081F220C080F21FC07FF22EC086F21A
:105A30002DC085F22CC084F22BC083F24BEC0FF00A
:105A400003C086F002C085F001C084F000C083F07E
:105A500016EC0AF001C05BF0D89222C082F221C09D
:105A600081F220C080F21FC07FF22EC086F22DC0CE
:105A700085F22CC084F22BC083F24BEC0FF000C0F7
:105A80006DF001C06EF002C06FF003C070F0716A7B
:105A90007150E3EC00F0712A006EE8CF80F23EEC2A
:105AA00007F0150E715CF4E1890EE96E70C075F0B7
:105AB0006FC074F06EC073F06DC072F0766AAAECBD
:105AC00017F0DF0E0201806F00013EEC07F0430E7D
:105AD0000201806F00013EEC07F032D022C086F058
