:1000000018308A00452A0000FF00030E8301A1007A
:100010000A08A0008A010408A2007708A300780853
:10002000A4007908A5007A08A6007B08A70083131E
:1000300083120B1E1D288B183028220884002308E9
:10004000F7002408F8002508F9002608FA00270818
:10005000FB0020088A00210E8300FF0E7F0E09009E
:100060008A110A129E290A108A100A1182072C345A
:100070000F34013406340A108A100A118207313411
:1000800000340A108A100A1182075434653472341D
:100090006D343A340A3425346334433400340A105E
:1000A0008A100A11820748344F3452344134533491
:1000B0000A343A343A3400340A108A100A1182079A
:1000C0005434653472346D342E340A342534633438
:1000D000433400340A108A100A1182070D3449345F
:1000E0006E3469346334693461346C3469347A341D
:1000F0006134633469346F346E340D3400340A1063
:100100008A100A1182070D34473475346134723411
:10011000643461346E3464346F3400340A108A10ED
:100120000A118207543445344D3450342D3425346B
:1001300033342E343134663420342534633443343C
:100140000A3448344F34523441342D342534753414
:100150003A342534753400340A108A100A118207A3
:100160000D345234453447344934533454345234C2
:100170004F342034443445342034453456344534E7
:100180004E3454344F3453340D340D3400340A108B
:100190008A100A1182074634653463346834613446
:1001A000543465346D3470342E344D3469346E34C7
:1001B0002E3453342E34203420344D3469346E348C
:1001C0002E3443342E340D3400340A108A100A11B0
:1001D000820730342E34533461346C3469347234D1
:1001E0000D3400340A108A100A11F93E03188A0AE5
:1001F000820031342E345434693465346D347034B3
:100200006F34733420346D346534643469346F343E
:100210007334203470346F3472342034643469346D
:1002200061340D3400340A148A100A118207323402
:100230002E345434693465346D3470346F3473340F
:10024000203474346F34743461346C3465347334F2
:100250000D3400340A148A100A1182070D34543404
:100260002E3420346D34653464342E343A342034E2
:10027000253433342E343234663420346D346934CA
:100280006E340D340D3400340A148A100A118207BA
:1002900054342E3420346D34653464342E34203498
:1002A000633461346C3464346534723461343A34A8
:1002B0002034253433342E343234663420346D34D3
:1002C00069346E340D340D3400340A148A100A1166
:1002D00082070D3454342E34203474346F34743423
:1002E00061346C343A34203425346C347534203421
:1002F0006D3469346E340D340D3400340A148A10B0
:100300000A11820754342E34203474346F34743418
:1003100061346C342034633461346C346434653457
:10032000723461343A34203425346C3475342034DA
:100330006D3469346E340D340D3400342F168B1047
:100340008A110A121D28AC30840083130008031997
:10035000BA290230F800BF30F7006400F70BAD296E
:10036000F80BAB299630F700F70BB429B7296400D6
:10037000800BA92900348316240EF039F7000F30C2
:100380008312060577048600000086156400C829DC
:1003900000008611003408308316AD02031CDC29EE
:1003A000AD30840083130310800C00080319DC298E
:1003B000DA296400800BD929831200340611640005
:1003C00002308316AC008312A32109308316A300E8
:1003D0006D30AD008312CB218316A30BE8292118C1
:1003E000F429831206118316211CF929831206159C
:1003F000831600000000831286118316220EA300CC
:100400000F30A3052308A4008312BB218316220802
:100410000F39A300A4008312BB21003403308316DC
:10042000860083120611861132308316AC008312C7
:10043000A32102308316A4008312BB21053083164A
:10044000AC008312A321E8016808033C031C3A2A8C
:1004500068083320E9008316A10183126908831616
:10046000A2008312DE2105308316AC008312A32183
:10047000E80A242A8A150A16AE2AF701F80183161B
:10048000200803102118F707F70CF80CA118F7073C
:10049000F70CF80C2119F707F70CF80CA119F7075E
:1004A000F70CF80C211AF707F70CF80CA11AF7074C
:1004B000F70CF80C211BF707F70CF80CA11BF7073A
:1004C000F70CF80C83128A110A12D72AFD01F601E3
:1004D0000A30FC00F50173087404031D722A003011
:1004E000F8004A2B7D08FD0A7307840083137418F3
:1004F00083170008FE007E082D3C031D8B2A013067
:10050000F6007D08FD0A73078400831374188317AF
:100510000008FE00982A7E082B3C031D982A7D08BF
:10052000FD0A730784008313741883170008FE0004
:100530007E082F3C0318402B7E08393C031C402BBF
:100540007E08303C031DC42A7D0873078400831392
:10055000741883170008783C0319B82A7D087307BC
:1005600084008313741883170008583C031DC42AA1
:100570001030FC00FD0A7D08FD0A73078400831318
:10058000741883170008FE007C080A3C031DEA2A41
:100590007E082F3C0318E92A7E08393C031CE92A0F
:1005A0000A308316A0007508A10083123D2A78083E
:1005B0008316A00030307E022007F5007D08FD0A7A
:1005C000730784008313741883170008FE008312D6
:1005D000C82A402B7C08103C031D402B7E08603C41
:1005E0000318F92A7E087A3C031CF92A7E08DF39B1
:1005F000FA2A7E08FE007E082F3C0318032B7E0893
:10060000393C03180B2B7E08403C0318402B7E0816
:10061000463C031C402B7E082F3C03181E2B7E08F3
:10062000393C031C1E2B750E8316A000F030A0056C
:1006300030307E022007F500282B8312750E8316BA
:10064000A000F030A00541307E020A3E2007F500F0
:100650007D08FD0A7307840083137418831700084C
:10066000FE007E08603C03183C2B7E087A3C031C8D
:100670003C2B7E08DF393D2B7E08FE008312FB2ACF
:10068000760B482B7C080A3C031D482BF509F50A1C
:100690007508F8000034F2017208F100F0007008EB
:1006A0002F3C0318572B7008393C03185D2B64004E
:1006B0008C1E572B1A08F0004F2B700864000C1E7C
:1006C0005E2B990071082F3C03186A2B7108393C86
:1006D0000318702B64008C1E6A2B1A08F100622B21
:1006E000710864000C1E712B9900F4017030F30046
:1006F000662278080034FE017D08093C0318852B2A
:100700000A30FD021030FE07882B7D08FE07892B7A
:100710007C2B7E08F800003494138C11831631086A
:10072000831293000230941B9C2B8C1D952B003060
:100730008316111B01308312F80000340B138B1346
:100740008B1B9F2B831611141118A42BA030B10002
:1007500083128C237D088316B10083128C237E08BC
:100760008316B10083128C23831611151119B62B31
:1007700083120034831611141118BC2BAE30B10053
:1007800083128C2378087818C72B7510C82B751422
:100790007518BA2B7108FC00FD0171088316B100B1
:1007A00083128C237008FC00FD0170088316B100D1
:1007B00083128C23F601720876020318F12B740859
:1007C000FA00730884008313741883170008FC0070
:1007D0008316B10083128C23F30A0319F40AF60A74
:1007E000DB2B831611151119F32B8312003483169A
:1007F000851283128512640002308316AC00F73034
:10080000AD008312CB218316AC0BFF2B8516640041
:100810000230AC00F730AD008312CB218316AC0B55
:100820000A2C8516831200348316AE012E08073C6D
:10083000031C392C85128312851264001F2C0000C2
:1008400003108316AD0C0318292C831285122B2C50
:100850008316831285168316851264002730F700ED
:10086000F70B302C000085166400362C0000AE0A11
:10087000162C83120034831635080319AC2CBD00E6
:1008800039080319AC2CBD0703184D2C7F30BD026D
:10089000031CAC2C0319AC2C512C8130BD07031860
:1008A000AC2C3D08F700F801F901FA013608C10047
:1008B000C1173708C0003808BF001830BD00BE019E
:1008C0003F1C7A2C3C08FA07031C6C2CF90A031D08
:1008D0006C2CF80A0319BE173B08F907031C732C8C
:1008E000F80A0319BE173A08B700B7173708F80710
:1008F0000318BE17BE0DF80CF90CFA0CC10CC00C95
:10090000BF0C0310BD0B5F2C0130F7070318AC2C94
:10091000F81B912CC10DFA0DF90DF80DF703031911
:10092000AC2CC11FA22CFA0A031DA22CF90A031D2C
:10093000A22CF80A031DA22CF80CF90CFA0CF70AE9
:100940000319AC2C3608BE003A08BE06BE1FAA2CFE
:10095000F817B02CF813B02CF701F801F901FA01DF
:10096000831200348E30F70083162C08F7022D080E
:10097000F9002E08F800F917F7080319CA2C03101C
:10098000F908031DC62CF8080319CA2CF90CF80C39
:10099000F70BBF2CAD1FD12CF809F909F80A031980
:1009A000F90A83120034F723CC308316AD0083128A
:1009B00014244E308316AD00831214248316B8011C
:1009C000B701B6018030B5007308BC007208BB00E7
:1009D0007108BA007008B90083123B247A088316A4
:1009E000A7007908A6007808A5007708A400B80138
:1009F000B701B6018030B5002308BC002208BB0057
:100A00002108BA002008B90083123B247A08831613
:100A1000AB007908AA007808A9007708A800270881
:100A2000AF002608AE002508AD002408AC008312F4
:100A3000B2247808F4008316AD00831214248316C0
:100A40002B08AF002A08AE002908AD002808AC002A
:100A50008312B2247808F4008316AD0083121424A4
:100A6000F723CC308316AD0083121424483083164C
:100A7000AD008312142464000A308316AC00831284
:100A8000A3210D30F4002C308316AD008312CB214E
:100A9000F40B432D0034F00170086A20F00AF700CF
:100AA00064000C1E502D990010307002031D4C2D57
:100AB0000D3064000C1E592D99004C3064000C1E42
:100AC0005E2D9900553064000C1E632D99004E3048
:100AD00064000C1E682D9900E801EF016F08EE001C
:100AE0006E080D3C0319352E64008C1E742D1A08F7
:100AF000EE00F4016E30F300662201307802E80067
:100B00006808F93E0318342E073EB92F0330F00071
:100B1000083064000C1E892D9900F00B882D4C3094
:100B200064000C1E902D9900553064000C1E952D0C
:100B300099004E3064000C1E9A2D9900342E03301B
:100B4000F000083064000C1EA22D9900F00BA12DBE
:100B50004D3064000C1EA92D9900413064000C1E1C
:100B6000AE2D9900523064000C1EB32D9900342E26
:100B70000330F000083064000C1EBB2D9900F00B10
:100B8000BA2D4D3064000C1EC22D9900493064000E
:100B90000C1EC72D9900453064000C1ECC2D990009
:100BA000342E0330F000083064000C1ED42D990060
:100BB000F00BD32D4A3064000C1EDB2D990055300C
:100BC00064000C1EE02D9900453064000C1EE52DDC
:100BD0009900342E0330F000083064000C1EED2D17
:100BE0009900F00BEC2D563064000C1EF42D99008A
:100BF000493064000C1EF92D9900453064000C1E2C
:100C0000FE2D9900342E0330F000083064000C1ED5
:100C1000062E9900F00B052E533064000C1E0D2E8D
:100C20009900413064000C1E122E9900423064007D
:100C30000C1E172E9900342E0330F000083064008B
:100C40000C1E1F2E9900F00B1E2E443064000C1E4B
:100C5000262E99004F3064000C1E2B2E99004D302B
:100C600064000C1E302E9900702D203064000C1E84
:100C7000362E99004B237808E90069081F3C031CB5
:100C8000442EE908031D452E4B2D2F3064000C1E09
:100C9000462E99004B237808EA006A080C3C031C96
:100CA000702EEA080319702E69081D3C03185C2E8B
:100CB0006A08023C0319702E69081F3C031D712E3F
:100CC0006A08043C0319702E6A08063C0319702E4A
:100CD0006A08093C0319702E6A080B3C031D712E2B
:100CE0004B2D2F3064000C1E722E99004B23780878
:100CF000EB006B08633C031C8D2E6B08083C03184B
:100D00008D2E6B08033903198E2E6A08023C031DD1
:100D10008E2E69081D3C031D8E2E4B2D6B0803394A
:100D2000031D942EDE01AB2E01306B020339031D2F
:100D30009C2E0130DE00AB2E02306B020339031D06
:100D4000A42E0230DE00AB2E03306B020339031DEC
:100D5000AB2E0330DE00203064000C1EAC2E990058
:100D60004B237808EC006C08173C0318B82E4B2D69
:100D70003A3064000C1EB92E99004B237808ED0020
:100D80006D083B3C0318C52E4B2DF00170087F20E9
:100D9000F00AF70064000C1ECA2E99000A30700297
:100DA000031DC62E0330F1002E3064000C1ED52E1C
:100DB0009900F10BD42E6A08D1006908D0005E08B2
:100DC000D2006C08CF006D08CE006808D300F10196
:100DD0004D30F000700884008313711883170008E9
:100DE000FC00FD007B237808F200013070078400CE
:100DF0008313711883170008FC00FD007B2378081B
:100E0000F300023070078400831371188317000801
:100E1000FC00FD007B237808F40003307007840099
:100E20008313711883170008FC00FD007B23053035
:100E300070078400831371188317000EF700F70DF5
:100E4000F70DC030F70577087804F5000430700717
:100E500084008313711883170008FC00FD007B23B6
:100E6000063070078400831371188317000EF70093
:100E7000F70DE030F70577087804F600FD018030C3
:100E8000FE009E230B138B138B1B432F8316111411
:100E90001118482FA030B10083128C230130831623
:100EA000B10083128C238316B10183128C23720844
:100EB0008316B10083128C2373088316B10083124A
:100EC0008C2374088316B10083128C237508831653
:100ED000B10083128C2376088316B10083128C2311
:100EE000831611151119722F0530700784008313B2
:100EF000711883170008FC001030FD007C08FE000C
:100F000083129E23FD01FE019E23B301B201203016
:100F1000B1008330B000DC01DB016B08DD00143070
:100F2000C500C601C7016B08C8005E08C900F10111
:100F3000F0010530F200F4014530F300BA23F3016B
:100F4000F2017F30F1008530F00033088316A300F2
:100F5000831232088316A200831231088316A1007F
:100F6000831230088316A0008312D3248A150A1630
:100F7000B32A0A148A140A158207862D9F2DB82DCC
:100F8000D12DEA2D032E1C2EF1017108073C031C04
:100F9000E82F83168512831285126400CF2F00007C
:100FA0008316851664000430F700F70BD52FD82F71
:100FB00085168312851ADE2F0310DF2F0314F20C1F
:100FC00064004F30F700F70BE32F0000F10AC52F44
:100FD0007208F8000034831691159119ED2F7718D7
:100FE0009112771C91161116111AF42F83121308FF
:040FF000F8000034D1
:101000008E30F7007208F8007108F900FA01F21F3B
:101010000E28F809F909F90A0319F80AF808031D56
:101020001B287908F800F9010830F702F808031DB9
:101030001B28F70124280310F81B2228F90DF80DAE
:10104000F7031B28F21FF8138A150A123229831698
:1010500027080319ED28B3002B080319ED28B30264
:10106000031C37287F30B3070318ED283D28813053
:10107000B302031CED280319ED283308F700F8012B
:10108000F901FA01B2012808B100B1172908B0002E
:101090002A08AF001930B3002E08AF0203186028E9
:1010A0000130B00203186028B10203186028B202B0
:1010B00003186028B20AB10AB00A2E08AF079228B6
:1010C0002D08B00203187B280130B10203187B28D9
:1010D000B20203187B28B20AB10A2D08B0072E0805
:1010E000AF07031C9228B00A031D9228B10A031D02
:1010F0009228B20A92282C088038B102031891284D
:101100000130B20203189128B20A2C088038B107C6
:101110002D08B007031C6F28B10A031D6F28B20AFF
:101120006F287A14B30B9528A0280310AF0DB00DCB
:10113000B10DB20D0310FA0DF90DF80DB40D4C28D8
:10114000341CA8280310F80CF90CFA0CB40CAB28CA
:10115000F7030319ED28B41BD4280310AF0DB00D0D
:10116000B10DB20D2E08AF020318C0280130B00235
:101170000318C028B1020318C028B202031CE328D8
:101180002D08B0020318CB280130B1020318CB2878
:10119000B202031CE3282C088038B1020318D428BB
:1011A0000130B202031CE328FA0A031DE328F90AFE
:1011B000031DE328F80A031DE328F70A0319ED28A5
:1011C000F80CF90CFA0C2808B3002C08B306B31F6E
:1011D000EB28F817F128F813F128F701F801F901C5
:1011E000FA0183120034E8018A11F7238A15CC3002
:1011F0008316AD008A11831214248A154430831695
:10120000AD008A11831214248A15E808031D0E29E3
:101210008A11C4278A157808E80005298A11F7235E
:101220008A15CC308316AD008A11831214248A15D6
:10123000BE308316AD008A11831214248A158A11D8
:10124000C4278A157808E9008A11C4278A15780806
:10125000EA006A08EC006908EB006C08F2006B0811
:10126000F10000287708F1007808F2007908F3000F
:101270007A08F4008316AA007908A9007808A80063
:101280007708A700AE01AD01AC018030AB0083123E
:1012900027207A08F0007908EF007808EE00770838
:1012A000ED00C8308316AC008A118312A3218A1581
:1012B0006D08F7006E08F8006F08F9007008FA0072
:1012C0000034E8018A11F7238A15CC308316AD006B
:1012D0008A11831214248A1544308316AD008A11B2
:1012E000831214248A15E808031D7C298A11C42757
:1012F0008A157808E80073298A11F7238A15EC30DB
:101300008316AD008A11831214248A158316851260
:101310008312851264008C290000831685166400F0
:101320000430F700F70B922995298516831269106E
:10133000851A691464004F30F700F70B9D290000EF
:1013400083168512831285126400A6290000831675
:10135000851664000430F700F70BAC29AF29851619
:101360008312E910851AE91464004F30F700F70B77
:10137000B7290000F701E9187714690877060139E1
:101380000319C6290130F800C929C9290030F8001D
:10139000C92900348030831CD0298316AC068312FF
:1013A0008316B101B2012808B0002C08B006270846
:1013B0000319BE2AAF00F7002B080319C72AAF0292
:1013C0000319632A031C212A2C08B500B5172D0820
:1013D000B4002E08B300B2010310B50CB40CB30C6A
:1013E000B20CAF0BEB29B01FF8293114DB2A3110F6
:1013F0002F103116AA3084008313F02A3112B01B4B
:101400000B2A2F1C162AB50CB40CB30CB20CF70A1D
:101410000319D62A162AB51B192A0310B20DB30DCB
:10142000B40DB50DF7030319D62A0B2A3117832AF9
:1014300031132808B000B01F1F2AB517CF2AB513E3
:10144000CF2A2B08AF00F7002708AF022808B50005
:10145000B5172908B4002A08B300B2010310B50C6F
:10146000B40CB30CB20CAF0B2D2AB01F3A2AB11436
:10147000DB2AB1102F10B116AE3084008313F02A8E
:10148000B112B01B4D2A2F1C582AB50CB40CB30C4A
:10149000B20CF70A0319D62A582AB51B5B2A031087
:1014A000B20DB30DB40DB50DF7030319D62A4D2AAD
:1014B000B117832AB1132C08B000B01F612AB517E9
:1014C000CF2AB513CF2A2C08B500B5172D08B400C4
:1014D0002E08B300B01F702AB5133115DB2A311165
:1014E000B2012F10AA3084008313F02AB01B992A6E
:1014F0002808B0002F1C832AB50CB40CB30CB20C16
:10150000F70A0319D62AB21F942AB30A031D942A94
:10151000B40A031D942AB50A031D942AB50CB40C11
:10152000B30CF70A0319D62A311B182AB11B5A2A01
:10153000B82A8030B506B51FA12ADB2A2C08B000D6
:10154000AE2A2808B000B508031DAE2AB408031D52
:10155000AE2AB308031DAE2AF701CF2AB51BB82A5D
:101560000310B20DB30DB40DB50DF70BAE2AD62A8C
:10157000B01FBC2AB517CF2AB513CF2A2B08F70006
:101580002C08B5002D08B4002E08B300CF2A270878
:10159000F7002808B5002908B4002A08B300350868
:1015A000F8003408F9003308FA000E2BF701F801AF
:1015B000F901FA010E2BB201B309B409B509B20958
:1015C000B20A031DE92AB30A031DE92AB40A031962
:1015D000B50A3118F729B118392A31196F2A9E2A0C
:1015E0000008B307031CFA2AB40A031DFA2AB50A35
:1015F00003192F1484030008B407031C022BB50A37
:1016000003192F1484030008801F803AB5070318BC
:101610002F14311AFE29B11A402A762A8312003477
:101620008E30F70083162808F8002708F900FA0121
:10163000F808031D252B7908F800F9010830F70296
:10164000F808031D252BF7012D2B0310F81B2C2B5D
:10165000F90DF80DF703252BF813831200347108E8
:10166000F40083162108F406F41F3B2B031103102A
:10167000F11B03146E2B7108F4002008F5007008AC
:10168000F5020319492BF41F6E2B0308013A83005E
:101690006E2B2108F5007108F5020319552BF41F74
:1016A0006E2B0308013A83006E2B2208F5007208A6
:1016B000F5020319612BF41F6E2B0308013A830016
:1016C0006E2B2308F5007308F50203196D2BF41F28
:1016D0006E2B0308013A83006E2B03108312003433
:1016E0000C30F8001F08C33978049F0064000630EE
:1016F000F700F70B792B9F149F187C2B1E0883167D
:10170000A801A700831210238316B801B70148303F
:10171000B6008530B5007A08BC007908BB007808AF
:10172000BA007708B9008A1183123B248A1577081A
:10173000F0007808F1007908F2007A08F3008316C7
:10174000AA007908A9007808A8007708A700AE01C8
:10175000AD017F30AC008630AB00831227208310B0
:101760008316AA01A901A801A7017A08AE00790889
:10177000AD007808AC007708AB008312CA217A0864
:10178000EB007908EA007808E9007708E8000830FB
:10179000F8001F08C33978049F0064000630F70082
:1017A000F70BD02B9F149F18D32B1E088316A8016C
:1017B000A700831210238316B801B7014830B60082
:1017C0008530B5007A08BC007908BB007808BA00FB
:1017D0007708B9008A1183123B248A157708F00034
:1017E0007808F1007908F2007A08F3008316AA005D
:1017F0007908A9007808A8007708A700AE01AD0114
:101800007F30AC008630AB00831227208310831614
:10181000AA01A901A801A7017A08AE007908AD00C4
:101820007808AC007708AB008312CA217A08EF0071
:101830007908EE007808ED007708EC002F1C5D2C8D
:1018400083146B088316AA0083126A088316A90002
:10185000831269088316A800831268088316A700FC
:10186000AE01AD012030AC008130AB008312CA2143
:101870007A08F3007908F2007808F1007708F000A0
:101880006F088316A30083126E088316A2008312CA
:101890006D088316A10083126C088316A0008312C2
:1018A0002F230318552C031D592C0130F800812CCF
:1018B0005C2C0030F800812C812C6B08F3006A0846
:1018C000F2006908F1006808F0006F088316A300B1
:1018D00083126E088316A20083126D088316A1007E
:1018E00083126C088316A00083122F2303187A2C0E
:1018F000031D7E2C0130F800812C812C0030F80073
:10190000812C00347C08FD000310FD0C7830FD05AF
:101910007D0CF700F70C3F30F70577087D07FE00D8
:101920007C080F397E07F80000340B138B138B1BD8
:10193000962C8316111411189B2CA030B1008A111B
:1019400083128C238A1502308316B1008A11831208
:101950008C238A15831691149118AC2CA130B100F8
:101960008A1183128C238A150130F7008A11EB2724
:101970008A157808EF000130F7008A11EB278A15E5
:101980007808F0000130F7008A11EB278A157808F3
:10199000F1000130F7008A11EB278A157808F20070
:1019A000F7018A11EB278A157808F30083161115C1
:1019B0001119D82C83126B08F8006C08FA006B0818
:1019C000F4006C08F5006F08FC00822474088400A1
:1019D0008313751883177808800001306B07F800AF
:1019E0006C08FA000318FA0A7808F4007A08F5007F
:1019F0007008FC0082247408840083137518831710
:101A00007808800002306B07F8006C08FA000318B1
:101A1000FA0A7808F4007A08F50071083F39F600F0
:101A2000FC008224740884008313751883177808D7
:101A3000800003306B07F8006C08FA000318FA0AFC
:101A40007808F4007A08F50072083F39F600FC00C7
:101A50008224740884008313751883177808800023
:101A600004306B07F8006C08FA000318FA0A7808CB
:101A7000F4007A08F50073081F39F600FC00822490
:101A80007408840083137518831778088000063063
:101A90006B07840083136C188317730EF700F70C21
:101AA0000730F70577088000720EED00ED0CED0CA5
:101AB0000330ED051030F4000B138B138B1B5D2DE1
:101AC000831611141118622DA030B1008A118312EF
:101AD0008C238A1574088316B1008A1183128C2313
:101AE0008A15831691149118732DA130B1008A11B3
:101AF00083128C238A15F7018A11EB278A1578083F
:101B0000F500831611151119832D7508F800780852
:101B10008312EE006E0803396D020319912DEE0A4F
:101B20008A2D05306B07840083136C1883176E08A9
:101B300080001030FD006E08FE008A119E238A1579
:101B40000034EC014D30EB0095244F08D4004E08D2
:101B5000D500DA01D9010317081CB62D03134F086D
:101B6000D6004E08D7004D08D800031708150313F8
:101B7000003410308316AB00F701FA01A80CA70C53
:101B8000031CC82D2908F7070318FA0A2A08FA07C0
:101B9000FA0CF70CF90CF80CAB0BBE2D83120034C9
:101BA0006E086B02031DE12D6F086C02031DE12D11
:101BB0006D0870028316A000F2012008F100472E84
:101BC00083128316A10183126E088316A0002108D8
:101BD000A8002008A700AA013C30A9008312B9255B
:101BE00079088316A2007808A100FA0183126F0811
:101BF00083162107A3002208A4007A0803187A0F8D
:101C0000A407A60183126B088316A5002608A80066
:101C10002508A700AA013C30A9008312B92579083C
:101C20008316A7007808A600FA0183126C088316B1
:101C30002607F80027080318270FFA077808230259
:101C4000F3002408F4007A08031C7A0FF4027408E5
:101C5000A8007308A700AA013C30A9008312B92587
:101C600079088316A1007808A00070082007A20058
:101C70002108A3000318A30A83126D088316220209
:101C8000F1002308F2000030031C0130F202710859
:101C9000F8007208F90083120034F801F901F70125
:101CA000FA017008031D572E6F080319712E1030AA
:101CB000F1000310ED0DEE0DF70DFA0D70087A022C
:101CC000031D642E6F087702031C6D2E6F08F70248
:101CD000031CFA037008FA020314F80DF90DF10B56
:101CE000592E0034DC08031D792E5B081A3C0318BA
:101CF0007B2EDC01DB01EC014D30EB009524540818
:101D0000EB005508EC00ED014F08EE004E08EF0027
:101D1000F001D0257908EC007808EB007908EE0096
:101D20007808ED00F0013C30EF004D267908E9001D
:101D30007808E800AF1CC42E831033088316AA006D
:101D4000831232088316A900831231088316A80073
:101D5000831230088316A700AE01AD012030AC001D
:101D60008130AB008312CA217A088316AF0079084C
:101D7000AE007808AD007708AC008A118312B22457
:101D80008A157808EA00D92E33088316AF0083122B
:101D900032088316AE00831231088316AD00831219
:101DA00030088316AC008A118312B2248A15780891
:101DB000EA000317081CF12E03135608EB0057081E
:101DC000EC005808ED004F08EE004E08EF004D08FB
:101DD000F000D0257808D90779080318790FDA07B9
:101DE0000317031352085E020319072FDD0ADE0AE8
:101DF0005D08C5005E08C600F1010330F000023046
:101E0000F200F4014530F3008A11BA238A15500814
:101E1000C5005108C6005D08C7004F08C8004E083D
:101E2000C9006A08CA006808CB005A08EE005908C1
:101E3000ED00F0013C30EF004D267808CC005B0D42
:101E4000F9005C0DFA00F90DFA0DF90DFA0DF830F4
:101E5000F9057908103EEB007A08EC000318EC0A4B
:101E60006C08F1006B08F0000830F200F401453016
:101E7000F3008A11BA238A15DB0A0319DC0A5C080D
:101E8000FA01C5004508FA0000305B02F70045087A
:101E9000031C450F4D2F5C084E2F5C02FA0077089B
:101EA000C600F1010130F0000230F200F4014530CB
:101EB000F3008A11BA238A1503170811031300349B
:101EC0007D0B632F662F4030FE00672FFE0101302F
:101ED0007C02FE077E0880388316A000A10120083E
:101EE000A2008A118312DE218A15003476080C3A8A
:101EF0000319812F063A0319912F023A0319972FDC
:101F0000A02F8316A1010130A2008A118312DE21C5
:101F10008A1502308316AC008A118312A3218A1518
:101F2000AA2F0130FC000230FD006027AA2F831683
:101F3000A1011030A2008A118312DE218A15AA2F76
:101F400001308316A1007608A2008A118312DE21D7
:101F50008A15AA2F003483162A08F80129020318CB
:101F6000B42F2908F700C02FF7010830AB00A90DE6
:101F7000F70D2A0877020318F700F80DAB0BB72FFF
:101F80008312003483163508B63CB500FA013608D2
:101F9000B900B6170310B60CB70CB80CFA0CF90C54
:101FA000F80CF70CB50BCA2FB91FE12FF709F80988
:101FB000F909FA09F70A0319F80A0319F90A0319C2
:101FC000FA0A83120034EC014D30EB0095244F08DF
:101FD000D6004E08D7004D08D80003170814031385
:061FE0008A150A16212FEC
:1020000020306E1E3030EF006D08F700ED1F0F28F6
:10201000F709F70A7708ED002D30EF00EE176D088D
:102020008316A9006430AA000A128A158312AB270E
:102030000A168A117708ED0030307807F0006D0835
:102040008316A9000A30AA000A128A158312AB2748
:102050000A168A1130307707F20030307807F10025
:102060006F08F700EE1D3628EE1F6E116E1A43281A
:10207000EE1F5E286E195E287708F000EE185E28C5
:102080007708F1005E2830307002031D5E28770863
:10209000F0002030EF00EE1D51286E11EE14EE1FFF
:1020A000EE1030307102031D5E287708F1002030F9
:1020B000F000EE1D5128EE10EE1F6E106E1D672809
:1020C0006F08F6000A128A1576270A168A11EE1C86
:1020D00070287008F6000A128A1576270A168A11E7
:1020E0006E1C79287108F6000A128A1576270A16DE
:1020F0008A117208F6000A128A1576270A168A11C2
:1021000000346B08EC008316A1010E30A2000A1205
:102110008312DE210A166808FC000230FD000A1254
:102120008A1560270A168A11EC1B9A286C08093C4C
:10213000031CA1283030F6000A128A1576270A16E9
:102140008A116C08ED001F30EE0000206808FC00CA
:102150000230FD000A128A1560270A168A11031739
:102160000718E0280313EC0AEC1BBC286C086A0271
:102170000318BC286908EC00EC1BC2286C08093C59
:10218000031CC9283030F6000A128A1576270A1671
:102190008A116C08ED001F30EE0000206808FC007A
:1021A0000230FD000A128A1560270A168A110317E9
:1021B0000718DD280313D72803170313AF280317C5
:1021C000871810290313EC03EC1BEA2869086C023A
:1021D0000318EC286A08EC00EC1BF2286C08093C98
:1021E000031CF9283030F6000A128A1576270A16E1
:1021F0008A116C08ED001F30EE0000206808FC001A
:102200000230FD000A128A1560270A168A11031788
:1022100087180D290313072903170313AF28031782
:1022200007191529071D122918290313AF280317A9
:1022300083160313A1010C30A2000A128312DE21BF
:102240000A166C08F8000034780883162708A900DD
:102250006430AA000A128A158312AB270A168A1163
:1022600077088316A70078083030031D3E29A81C84
:102270004B29A8194B29281A20304129A8112812C6
:102280002814F8077808640083120C1A4929831669
:102290004329990083162708A9000A30AA000A12C8
:1022A0008A158312AB270A168A1177088316A700AE
:1022B00078083030031D6229A8196C29281C6C2964
:1022C000281A2030F8077808640083120C1A6A294B
:1022D00083166429990083163030A7072708640005
:1022E00083120C1A752983166F2999000034F7019F
:1022F000F801F901FA018316BD01BE01BF01C00159
:102300003C083B043A0439040319B6292030C100C3
:102310000310B50DB60DB70DB80DBD0DBE0DBF0D3B
:10232000C00D3C084002031D9F293B083F02031DCE
:102330009F293A083E02031D9F2939083D02031CCC
:10234000B0293908BD023A08031C3A0FBE023B0807
:10235000031C3B0FBF023C08031C3C0FC0020314CC
:10236000F70DF80DF90DFA0DC10B8829BD30840069
:1023700083138312003404088316AD002C08AF00C9
:102380000319DF292B08B8002A08B7002908B6006E
:102390002808B500BC01BB012030BA008230B9006A
:1023A0000A1283123B240A167A088316AB007908B6
:1023B000AA007808A9007708A800AF0BC2292B084B
:1023C000B8002A08B7002908B6002808B5000A1284
:1023D0008A158312C2270A168A117A088316AB005F
:1023E0007908AA007808A9007708A800AB1F052A79
:1023F000AD03AD16A809A909AA09AB09A80A0319D2
:10240000A90A0319AA0A0319AB0A3B30B4009A308F
:10241000B300CA30B200B1010A30AF002C08031972
:10242000AD0A2B08B8002A08B7002908B60028080A
:10243000B5003408BC003308BB003208BA003108CC
:10244000B9008312772100088316A800840A0008C7
:10245000A900840A0008AA00840A0008AB00FD3025
:102460008407F708031D472A2C0A2F020319472A5D
:102470002D080319492A0F392F020319412A03187D
:10248000912AAD1B912A2D1B492A2030872A203002
:10249000AD05AD1E5D2AAD122C08031DAD037708F6
:1024A000AD002D30640083120C1A582A8316522A6C
:1024B000990083162D08F700AD012C082F02031D8B
:1024C000712A7708AD002E30640083120C1A6A2A34
:1024D0008316642A990083162D08F7002030AD0575
:1024E00000303030AD1E872AAD122C08031DAD031D
:1024F0007708AD002D30640083120C1A812A8316F0
:102500007B2A990083162D08F700AD013030F707BC
:102510007708640083120C1A8F2A8316892A99007F
:1025200083163408B8003308B7003208B600310803
:10253000B500BC01BB01BA010A30B9008312772192
:102540007A088316B4007908B3007808B2007708D7
:10255000B100AF0B112A831200348316B0010408B6
:10256000AF003010831B3014290EF038AB00AB07DE
:10257000E23EAC00323EAE0029080F39AC07AC0792
:10258000AE07E93EAD00AD07AD07280E0F39AD0728
:10259000AE07AD0DAE0DAE09AE0D28080F39AE0772
:1025A000AB0D0730AA000A30AE07AD03031CD42AD6
:1025B000AD07AC03031CD82AAC07AB03031CDC2A11
:1025C000AB07AA03031CE02AAA3084008313073058
:1025D0002F052F138407AE30040203192F170008AC
:1025E000F700031DFB2A2F1BFB2A2F1A082BAF19FC
:1025F000FB2A2030FE2AAF152F123030F70777085C
:10260000640083120C1A062B8316002B9900831684
:10261000840A2F1FEB2A831200348316A401240896
:10262000A300A200A601A5018312ED01EC01EB01BC
:10263000EA01F101F001EF01EE01F301F201F50110
:10264000F4018316A70127080A128312AC200A1688
:102650008316A70AF700640083120C1A312B831625
:102660002B2B9900163083162702031D232BA7015D
:1026700027080A128312C7200A168316A70AF70032
:10268000640083120C1A462B8316402B99000530E8
:1026900083162702031D382B0B30A800203064005E
:1026A00083120C1A552B83164F2B99008316A80BF7
:1026B0004E2B0530A90029080A128312C7200A16DA
:1026C0008316A90AF700640083120C1A692B83167B
:1026D000632B99000A3083162902031D5B2B0430FB
:1026E000AA002030640083120C1A782B8316722BF8
:1026F00099008316AA0B712B0A30AB002B080A1223
:102700008312C7200A168316AB0AF70064008312EF
:102710000C1A8C2B8316862B9900193083162B02EA
:10272000031D7E2B2730A7003D30640083120C1A56
:102730009B2B8316952B99008316A70B942B0D309A
:10274000640083120C1AA62B8316A02B9900E801B3
:10275000DC08031DAF2B5B0868020318902D680D81
:10276000F700F70DF70DF830F7057708103E8316E0
:10277000A700A9012708A8000830AA00AC0145302D
:10278000AB0011141118C22BAE30B1000A12831223
:102790008C230A1678087818D12B83162D10D32B8A
:1027A000831283162D142D18C12B2908AF00B001F8
:1027B0002908B1000A1283128C230A1683162808EE
:1027C000AF00B0012808B1000A1283128C230A1648
:1027D000831691149118EA2BAF30B1000A128312BC
:1027E0008C230A168316AE0101302A022E0203182A
:1027F0000E2C2C08FA002B08840083132C18831746
:102800000130F7000A128312EB270A1678088000BD
:102810008316AB0A0319AC0AAE0AF42B2C08FA0093
:102820002B08840083132C188317F7010A128312D4
:10283000EB270A16780880008316111511191E2C33
:102840008312450883162202031D322C8312460888
:1028500083162302031D322C831247088316240299
:102860000319A82CA2080319952C7D08A8007C0840
:10287000A7000A128A15831210230A168A118310E0
:1028800071088316AA007008A90083126F088316C6
:10289000A80083126E088316A7007A08AE00790894
:1028A000AD007808AC007708AB000A128A158312D5
:1028B000CA210A168A117A08F1007908F00078080E
:1028C000EF007708EE0083162108A8002008A70073
:1028D0000A128A15831210230A168A1183106D08B2
:1028E0008316AA0083126C088316A90083126B0852
:1028F0008316A80083126A088316A7007A08AE0020
:102900007908AD007808AC007708AB000A128A1588
:102910008312CA210A168A117A08ED007908EC00A0
:102920007808EB007708EA008316831245088316BF
:10293000A200831246088316A30083124708831659
:10294000A400A50A0319A60AFD01FC01A101A0012A
:1029500083124B08FC070318FD0A4C088316A007D6
:102960000318A10A83124B08F2070318F30A4C0854
:10297000F4070318F50A4508093C031CC42C203051
:1029800064000C1EC02C990045088316A7001B305C
:10299000A800831224212F3064000C1ECC2C990037
:1029A0004608093C031CD92C303064000C1ED52C81
:1029B000990046088316A7001B30A8008312242123
:1029C0002F3064000C1EE12C99004708093C031CC1
:1029D000EE2C303064000C1EEA2C99004708831658
:1029E000A7001B30A80083122421203064000C1E95
:1029F000F62C9900203064000C1EFB2C990048082E
:102A0000093C031C082D303064000C1E042D990075
:102A100048088316A7001B30A800831224213A30EF
:102A200064000C1E102D99004908093C031C1D2D43
:102A3000303064000C1E192D990049088316A70038
:102A40001B30A80083122421203064000C1E252D89
:102A500099004A08093C031C322D203064000C1EEA
:102A60002E2D99004A088316A7001B30A800831258
:102A7000242106308316A7002030640083120C1A2C
:102A8000432D83163D2D99008316A70B3C2D8312F1
:102A90004B08633C031C512D203064000C1E4D2D4F
:102AA00099004B08093C031C5A2D203064000C1E71
:102AB000562D99004B088316A7001B30A8008312DF
:102AC000242105308316A7002030640083120C1ADD
:102AD0006B2D8316652D99008316A70B642D831229
:102AE0004C08633C031C792D203064000C1E752DAE
:102AF00099004C08093C031C822D203064000C1EF8
:102B00007E2D99004C088316A7001B30A800831265
:102B100024210D3064000C1E8A2D9900E80AA82B90
:102B20008316A2080319F42D7D08A8007C08A700CD
:102B30000A128A15831210230A168A11831071084B
:102B40008316AA007008A90083126F088316A800D4
:102B500083126E088316A7007A08AE007908AD00CC
:102B60007808AC007708AB000A128A158312CA21D4
:102B70000A168A117A08F1007908F0007808EF0047
:102B80007708EE0083162108A8002008A7000A1283
:102B90008A15831210230A168A1183106D08831672
:102BA000AA0083126C088316A90083126B0883168F
:102BB000A80083126A088316A7007A08AE00790875
:102BC000AD007808AC007708AB000A128A158312B2
:102BD000CA210A168A117A08ED007908EC007808F3
:102BE000EB007708EA0083162608A8002508A7004E
:102BF0000A128A15831210230A168A117108831685
:102C0000AA007008A90083126F088316A800831217
:102C10006E088316A7007A08AE007908AD00780820
:102C2000AC007708AB000A128A15831227200A1617
:102C30008A117A08F1007908F0007808EF00770827
:102C4000EE0083162608A8002508A7000A128A1598
:102C5000831210230A168A116D088316AA008312A4
:102C60006C088316A90083126B088316A8008312D0
:102C70006A088316A7007A08AE007908AD007808C4
:102C8000AC007708AB000A128A15831227200A16B7
:102C90008A117A08ED007908EC007808EB007708D3
:102CA000EA000D3064000C1E522E99008316A70115
:102CB00027080A128312E5200A168316A70AF700CE
:102CC000640083120C1A662E8316602E9900083059
:102CD00083162702031D582EA70127080A12831204
:102CE000F2200A168316A70AF700640083120C1A52
:102CF0007B2E8316752E9900193083162702031D2B
:102D00006D2EA70127080A12831213210A168316B3
:102D1000A70AF700640083120C1A902E83168A2EDD
:102D20009900123083162702031D822E0D30640095
:102D300083120C1A9D2E8316972E99004A30E900B3
:102D40006908303C0319B22E6908313C0319B22ED0
:102D50006908323C0319B22E64008C1EAC2E1A088E
:102D6000E900A02E6908303A0319BD2E013A031973
:102D7000BE2E033A0319422FAE2FAE2F8316A701A2
:102D800027080A1283122A210A168316A70AF700B7
:102D9000640083120C1ACE2E8316C82E99000A30B6
:102DA00083162702031DC02E023084007108AB0079
:102DB0007008AA0083126F088316A90083126E0898
:102DC0008316A8000230AC008312BB210F3083169B
:102DD000A80028080A1283122A210A168316A80AB4
:102DE000F700640083120C1AF72E8316F12E990057
:102DF000153083162802031DE92EA70127080A12A1
:102E0000831244210A168316A70AF700640083126E
:102E10000C1A0C2F8316062F9900113083162702E7
:102E2000031DFE2E0230840083126D088316AB0052
:102E300083126C088316AA0083126B088316A900FC
:102E400083126A088316A8000230AC008312BB21EB
:102E500016308316A80028080A12831244210A1685
:102E60008316A80AF700640083120C1A392F831600
:102E7000332F99001C3083162802031D2B2F831239
:102E8000512EAE2F8316A70127080A12831265213F
:102E90000A168316A70AF700640083120C1A522F31
:102EA00083164C2F99000B3083162702031D442FE5
:102EB000103084007308A9007208A8008312AD22A4
:102EC0000E308316A80028080A12831265210A16FC
:102ED0008316A80AF700640083120C1A712F831658
:102EE0006B2F9900143083162802031D632FA7014E
:102EF00027080A1283127E210A168316A70AF700F2
:102F0000640083120C1A862F8316802F99001230CA
:102F100083162702031D782F103084007508A9003E
:102F20007408A8008312AD2215308316A800280863
:102F30000A1283127E210A168316A80AF70064007B
:102F400083120C1AA52F83169F2F99001B3083160E
:102F50002802031D972F8312512EAE2F8A150A16B1
:102F6000102FEC014D30EB000A128A1595240A1639
:102F70008A114F08E8004E08E9004D08EA0056089B
:102F8000EB005708EC005808ED006808EE006908EF
:102F9000EF006A08F0000A128A15D0250A168A1175
:102FA0007808D90779080318790FDA07031708108A
:082FB00003138A150A162D2FE8
:103000000408EE006D08F00003192B286C088316E5
:10301000B80083126B088316B70083126A08831600
:10302000B600831269088316B500BC01BB012030CD
:10303000BA008230B9000A128A1183123B240A16A0
:103040008A157A08EC007908EB007808EA0077081E
:10305000E900F00B06286C088316B80083126B0891
:103060008316B70083126A088316B60083126908B4
:103070008316B5000A128312C2270A167A08EC00DA
:103080007908EB007808EA007708E900EC1F55287A
:10309000EE03EE16E909EA09EB09EC09E90A03195E
:1030A000EA0A0319EB0A0319EC0A3B30F5009A30DF
:1030B000F400CA30F300F2010A30F0006D08031981
:1030C000EE0A6C088316B80083126B088316B700EB
:1030D00083126A088316B600831269088316B50046
:1030E0007508BC007408BB007308BA007208B90008
:1030F0008A11831277218A150008E900840A0008E2
:10310000EA00840A0008EB00840A0008EC00FD30A5
:103110008407F708031D9F286D0A700203199F2872
:103120006E080319A1280F39700203199928031892
:10313000D928EE1BD9286E1BA1282030D328203097
:10314000EE05EE1EB128EE126D08031DEE037708A2
:10315000EE002D30F6000A1276270A166E08F700E8
:10316000EE016D087002031DC1287708EE002E30B5
:10317000F6000A1276270A166E08F7002030EE05D0
:1031800000303030EE1ED328EE126D08031DEE0322
:103190007708EE002D30F6000A1276270A166E0820
:1031A000F700EE013030F7077708F6000A127627AD
:1031B0000A1675088316B8007408B7007308B600BD
:1031C0007208B500BC01BB01BA010A30B9008A110E
:1031D000831277218A157A08F5007908F4007808B7
:1031E000F3007708F200F00B61288A150A16762999
:1031F00078086A088316A9006430AA000A128312AC
:10320000AB270A167708EA0078083030031D0F292B
:10321000EB1C1829EB1918296B1A20301229EB1115
:103220006B126B14F8077808F6000A1276270A1654
:103230006A088316A9000A30AA000A128312AB2773
:103240000A167708EA0078083030031D2D29EB199B
:1032500033296B1C33296B1A2030F8077808F600E5
:103260000A1276270A163030EA076A08F6000A12B0
:1032700076270A1600340A12F3200A167A08BB00D1
:103280007908BA007808B9007708B800EC014D3029
:10329000EB000A1295240A16C0308B048316A10194
:1032A0000130A2000A128A118312DE210A168A1541
:1032B000E80168080A128A118E200A168A15E80A9F
:1032C000F700F6000A1276270A1605306802031D79
:1032D0005929023084003B08EC003A08EB00390819
:1032E000EA003808E9000130ED0000282030F6003F
:1032F0000A1276270A16DF30F6000A1276270A1617
:103300000D30E90069080A128A118E200A168A1502
:10331000E90AF700F6000A1276270A161430690245
:10332000031D82294F08EA001B30EB00F8203A30D9
:10333000F6000A1276270A164E08EA001B30EB0048
:10334000F8200A1261210A16F8080319F529AF1CA2
:10335000F129AF10831033088316AA0083123208B4
:103360008316A900831231088316A800831230083F
:103370008316A70083123F088316AE0083123E080F
:103380008316AD0083123D088316AC0083123C08FF
:103390008316AB000A128312CA210A167A08B300F8
:1033A0007908B2007808B1007708B000F301F201A3
:1033B0007F30F1008530F00033088316A3008312BC
:1033C00032088316A200831231088316A1008312EB
:1033D00030088316A0000A128A118312D3240A1619
:1033E0008A150130F800422A422AAF183F2AAF144A
:1033F000831433088316AA00831232088316A900A7
:10340000831231088316A800831230088316A700A0
:1034100083123F088316AE0083123E088316AD0068
:1034200083123D088316AC0083123C088316AB0060
:103430000A128312CA210A167A08B3007908B20068
:103440007808B1007708B000F301F2017F30F10095
:103450008530F00033088316A300831232088316E8
:10346000A200831231088316A1008312300883164C
:10347000A0000A128A118312D3240A168A1500307A
:10348000F800422A8A150A16312F840183131F304F
:103490008305831603178715A030031399000130A5
:1034A0009A00A6309800903083129800A81528083A
:1034B0008316870083122816280883168700133086
:1034C0009300283083129400831694171413031763
:1034D0000908C039890003131F129F120030031717
:1034E0008800073083128700FF3088008901831627
:1034F000031397010317850183120313A800A90181
:10350000AA017E30BC00BD01BE01BF010B30031714
:103510008500F70107300313810181308400831394
:103520000008F0390738800064000008F739F719FF
:10353000F03977048000031708118810081003136E
:103540002F11DA01D901033083168600003088007C
:10355000E73087000A128A1183120E2A0A168A158A
:103560000A128A114B2D0A168A15831603170908A9
:10357000C039890003131F129F1200300C38031743
:103580008800831203131F139F1783169F13831240
:103590001F140A12F3200A167A08BB007908BA0031
:1035A0007808B9007708B8000A1261210A16F808ED
:1035B000031D232BAF14831433088316AA00831230
:1035C00032088316A900831231088316A8008312DB
:1035D00030088316A70083123F088316AE008312BB
:1035E0003E088316AD0083123D088316AC0083129B
:1035F0003C088316AB000A128312CA210A167A0805
:10360000B3007908B2007808B1007708B000F30180
:10361000F2017F30F1008530F00033088316A300FB
:10362000831232088316A200831231088316A10088
:10363000831230088316A0000A128A118312D32441
:103640000A168A15242BAF102F100A1270230A169F
:10365000F808031D2F142F12AF120B16C0308B0465
:1036600003178501F70107300313810181308400BE
:1036700083130008F0390738800064000008F73928
:10368000F719F03977048000AF1E182C0B138B1339
:103690008B1B472BAF1DD52B03170819C52B031305
:1036A000AF1C7F2B831033088316AA0083123208C5
:1036B0008316A900831231088316A80083123008EC
:1036C0008316A70083123F088316AE0083123E08BC
:1036D0008316AD0083123D088316AC0083123C08AC
:1036E0008316AB000A128312CA210A167A08B700A1
:1036F0007908B6007808B5007708B400872B33083E
:10370000B7003208B6003108B5003008B40083169F
:10371000A801831244088316A7000A1283121023FB
:103720000A167A08B3007908B2007808B100770861
:10373000B000F301F2017F30F1008530F000330872
:103740008316A300831232088316A2008312310865
:103750008316A100831230088316A0000A128A1172
:103760008312D3240A168A150A1261210A16F80850
:10377000031DAF10AF112F150A12A1250A1642081A
:10378000DF004308E000D42B0317FA30831603133D
:10379000AC000A128A118312A3210A168A15400866
:1037A000DF004108E000AF15142CFA308316AC009E
:1037B0000A128A118312A3210A168A150317081DFB
:1037C0000E2C03132F19E62B03170E2C3708B3000A
:1037D0003608B2003508B1003408B000F301F20138
:1037E0007F30F1008530F00033088316A300831288
:1037F00032088316A200831231088316A1008312B7
:1038000030088316A0000A128A118312D3240A16E4
:103810008A152F110A1272260A160317031340087D
:10382000DF004108E000AF152F17AF12C0308B0446
:103830002F1E132F0B138B138B1B1B2C8316A10115
:103840000130A2000A128A118312DE210A168A159B
:103850000830FC000230FD000A1260270A16E80159
:1038600068080A128A113B200A168A1500380319C3
:103870003F2CE80AF6000A1276270A16302C083088
:10388000FC000230FD000A1260270A168316A1010F
:103890000E30A2000A128A118312DE210A168A153E
:1038A0000130E30003170718742C0313E30A6308BD
:1038B000043C03185D2C0130E3006308ED001F3069
:1038C000EE008A1100208A150830FC000230FD004D
:1038D0000A1260270A1603170718712C03136B2CA2
:1038E00003170313522C03178718922C0313E30BAF
:1038F0007B2C0430E3006308ED001F30EE008A11DA
:1039000000208A150830FC000230FD000A126027F2
:103910000A16031787188F2C0313892C0317031318
:10392000522C03170719972C071D942CA22C871AC9
:103930009F2C871E992C03132F12302B0317031370
:10394000522C0317013003136302FC3E0318102F9F
:10395000043ED92F03170819B32C0A120313A1250B
:103960000A16E12C03170A12031372260A1603170C
:103970008818881003132F1DE12C3708B300360870
:10398000B2003508B1003408B000F301F2017F3015
:10399000F1008530F00033088316A300831232084B
:1039A0008316A200831231088316A1008312300807
:1039B0008316A0000A128A118312D3240A168A15CC
:1039C0002F11102FAF1C462D831033088316AA0029
:1039D000831232088316A900831231088316A800C7
:1039E000831230088316A70083123F088316AE00A7
:1039F00083123E088316AD0083123D088316AC0087
:103A000083123C088316AB000A128312CA210A16DD
:103A10007A088316AF007908AE007808AD00770801
:103A2000AC000A128A118312B2240A168A15780889
:103A3000E200831033088316AA008312320883162B
:103A4000A900831231088316A80083123008831658
:103A5000A70083123F088316AE0083123E08831628
:103A6000AD0083123D088316AC0083123C08831618
:103A7000AB000A128312CA210A167A08E7007908F5
:103A8000E6007808E5007708E400652D3308831622
:103A9000AF00831232088316AE00831231088316FA
:103AA000AD00831230088316AC000A128A1183120B
:103AB000B2240A168A157808E2003308E7003208B3
:103AC000E6003108E5003008E4008316A10101306A
:103AD000A2000A128A118312DE210A168A15E80151
:103AE00068080A128A1141200A168A15E80AF700A6
:103AF000F6000A1276270A1606306802031D702D9A
:103B00000730E9002030F6000A1276270A16E90B82
:103B1000822DDF30F6000A1276270A164330F600AF
:103B20000A1276270A160630E8001030E900203025
:103B3000EA006208EB008A1181208A158316A80129
:103B40007808A7000A12831210230A167A08E700E1
:103B50007908E6007808E5007708E4000A12F32007
:103B60000A167A08BB007908BA007808B900770805
:103B7000B8006708F3006608F2006508F100640801
:103B8000F0003B088316A30083123A088316A200B4
:103B9000831239088316A100831238088316A00007
:103BA0000A1283122F230A160318D82D031D062E7E
:103BB000AF14831467088316AA008312660883165D
:103BC000A900831265088316A8008312640883166F
:103BD000A70083123F088316AE0083123E088316A7
:103BE000AD0083123D088316AC0083123C08831697
:103BF000AB000A128312CA210A167A08B3007908A8
:103C0000B2007808B1007708B0000F2EAF10670837
:103C1000B3006608B2006508B1006408B000F301A3
:103C2000F2017F30F1008530F00033088316A300E5
:103C3000831232088316A200831231088316A10072
:103C4000831230088316A0000A128A118312D3242B
:103C50000A168A15F101F0010130F200F401623018
:103C6000F3000A128A11BA230A168A15102F831636
:103C7000A1010130A2000A128A118312DE210A1664
:103C80008A15E80168080A128A114F200A168A1557
:103C9000E80AF700F6000A1276270A1606306802CC
:103CA000031D422E0330E9002030F6000A12762769
:103CB0000A16E90B542E3A30F6000A1276270A1635
:103CC0000630EA002030F6000A1276270A16EA0BC0
:103CD000622E3A30F6000A1276270A160230E80001
:103CE000E9011730EA00EB018A1181208A15780872
:103CF000C0000530E800E9013B30EA00EB018A1121
:103D000081208A157808C1004008E20041083B3C48
:103D1000031D8C2E0130E2070930E8006208E9003B
:103D20001730EA006208EB008A1181208A157808B2
:103D3000C20042084002031DA12E01304107E200EB
:103D4000A22EE2010C30E8006208E9003B30EA00F4
:103D50006208EB008A1181208A157808C300831657
:103D6000A1010130A2000A128A118312DE210A1673
:103D70008A15E80168080A128A115C200A168A1559
:103D8000E80AF700F6000A1276270A1606306802DB
:103D9000031DBA2E0630E9002030F6000A127627FD
:103DA0000A16E90BCC2EDF30F6000A1276270A1627
:103DB0004330F6000A1276270A160430E800103065
:103DC000E9002030EA001430EB008A1181208A15C6
:103DD0007808C4002F174008DF004108E0002F17C3
:103DE000AF154008C5004108C6004208C700430897
:103DF000C8004408C900F1010830F0000530F200A5
:103E0000F4014530F3000A128A11BA230A168A1502
:103E1000102FFF30831688008A1183120D2B8A150C
:103E20002F12C0308B040A1270230A16F808031DE3
:103E3000252F2F182F1003170818232F0A120313EA
:103E4000E32F0A1603172F2F03132F1C2F1403170A
:103E5000081C2F2F8A110313B12F8A150317031380
:103E60003B297808E1000317081D8E2F031354081F
:103E7000EB005508EC00ED014F08EE004E08EF0096
:103E8000F0010A12D0250A167908E9007808E8003E
:103E90006908EE006808ED00F0013C30EF000A12FE
:103EA0004D260A167908EA007808E900EA08031D99
:103EB0005F2F6908F03C031C5F2F03178E2F0A1237
:103EC00072260A1603178818881003132F1D8C2FCB
:103ED0003708B3003608B2003508B1003408B00026
:103EE000F301F2017F30F1008530F00033088316D2
:103EF000A300831232088316A200831231088316AE
:103F0000A100831230088316A0000A128A118312BE
:103F1000D3240A168A152F11302B03170313E10837
:103F200003199F2F03170819972F03139F2F0313AC
:103F30002F1C9F2F0317881C8814A22F031303170D
:103F40008818881003132F1FBE2F5F08EB0060082E
:103F5000EC00ED014F08EE004E08EF00F0010A12F0
:103F6000D0250A167908E9007808E800E908031D59
:103F7000BE2F68083A3C031CBE2FAF160130031752
:103F80008500F7010730031381018130840083131A
:103F90000008F0390738800064000008F739F71985
:103FA000F03977048000AF1AD72F2F1E6300302B13
:103FB00063000A148A140A158207AA2CE22C372EF1
:023FC000092FC7
:04400E00E22FFF3F5F
:00000001FF
;PIC16F887
