:020000040000FA
:040000005DEF2EF092
:08000800056ED8CF06F0E0CF31
:1000100007F00001E9CF0DF0EACF08F0E1CF09F0D9
:10002000E2CF0AF0D9CF0BF0DACF0CF0F3CF14F017
:10003000F4CF15F0FACF16F000C00FF001C010F0A9
:1000400002C011F003C012F004C013F09DA02CEF09
:1000500000F09EB04CEF09F0F2A832EF00F0F2B2DF
:1000600044EF09F0F0A638EF00F0F0B048EF09F0E7
:100070000FC000F010C001F011C002F012C003F078
:1000800013C004F00DC0E9FF08C0EAFF09C0E1FF9A
:100090000AC0E2FF0BC0D9FF0CC0DAFF14C0F3FFA7
:1000A00015C0F4FF16C0FAFF055007C0E0FF06C0F8
:1000B000D8FF1000F2CF0EF0F29EF76ACE0FF66E68
:1000C000000EF7220900F5500EBEF28E12002C0F22
:1000D0000106F2CF0EF0F29EF76AEC0FF66E000EFC
:1000E000F7220900F5500EBEF28E12003132333481
:1000F000353637383953304EF2CF0EF0F29EF76A6C
:10010000120FF66E010EF7220900F5500EBEF28EA8
:100110001200496E696369616C697A616E646F2E61
:100120002E2E0000F2CF0EF0F29EF76A3E0FF66E12
:10013000010EF7220900F5500EBEF28E120053692F
:100140007374656D6120696E696369616C697A6158
:10015000646F20636F6E20657869746F210D0000F5
:10016000F2CF0EF0F29EF76A7A0FF66E010EF722CA
:100170000900F5500EBEF28E12002020456E636518
:100180006E6469656E646F0A202073697374656DAF
:10019000612E2E2E0000F2CF0EF0F29EF76AB00F05
:1001A000F66E010EF7220900F5500EBEF28E120017
:1001B000202041706167616E646F0A20207369734B
:1001C00074656D612E2E2E00F2CF0EF0F29EF76A4E
:1001D000E20FF66E010EF7220900F5500EBEF28E08
:1001E00012002020496E6469717565206C61200AD7
:1001F00020206F7065726163696F6E00F2CF0EF040
:10020000F29EF76A160FF66E020EF7220900F550FD
:100210000EBEF28E12004D6F646966696361720AE8
:100220007465726D6F737461746F20252E3066254E
:1002300063430000F2CF0EF0F29EF76A4E0FF66EA7
:10024000020EF7220900F5500EBEF28E12004E7516
:1002500065766F2076616C6F723A0A256343000001
:10026000F2CF0EF0F29EF76A7A0FF66E020EF722C8
:100270000900F5500EBEF28E1200202041706C690C
:1002800063616E646F0A202063616D62696F732E13
:100290002E2E0000F2CF0EF0F29EF76AAE0FF66E31
:1002A000020EF7220900F5500EBEF28E1200202039
:1002B0002056616C6F720A202020696E636F727223
:1002C0006563746F0000F2CF0EF0F29EF76AE00FE4
:1002D000F66E020EF7220900F5500EBEF28E1200E5
:1002E0002050726F6772616D61720A207369737456
:1002F000656D6100F2CF0EF0F29EF76A0E0FF66E9A
:10030000030EF7220900F5500EBEF28E12002049AE
:100310004E54455256414C4F2025690A3A3A000046
:10032000F2CF0EF0F29EF76A3A0FF66E030EF72246
:100330000900F5500EBEF28E120020202056616C8E
:100340006F7265730A202020696E636F7272656335
:10035000746F7300F2CF0EF0F29EF76A6E0FF66EB6
:10036000030EF7220900F5500EBEF28E1200496E00
:1003700074657276616C6F206C696D6974650A646E
:1003800065203420686F72617300F2CF0EF0F29E28
:10039000F76AA40FF66E030EF7220900F5500EBEA1
:1003A000F28E12005465726D6F737461746F202544
:1003B000690A25634300F2CF0EF0F29EF76AD00F70
:1003C000F66E030EF7220900F5500EBEF28E1200F3
:1003D000536F6C6170616D69656E746F0A6465203E
:1003E000696E74657276616C6F732100F2CF0EF0E6
:1003F000F29EF76A060FF66E040EF7220900F5501A
:100400000EBEF28E12002020434C4156453A0A207F
:100410002000F2CF0EF0F29EF76A2C0FF66E040E5B
:10042000F7220900F5500EBEF28E120020204D6F0B
:10043000646F0A20207265766973696F6E00F2CF6F
:100440000EF0F29EF76A580FF66E040EF7220900BE
:10045000F5500EBEF28E12002020436C6176650AC4
:100460002020696E636F7272656374610000F2CF61
:100470000EF0F29EF76A880FF66E040EF72209005E
:10048000F5500EBEF28E12002020416E756C616E2A
:10049000646F0A20206F7065726163696F6E2E2E23
:1004A0002E00F2CF0EF0F29EF76ABC0FF66E040E2D
:1004B000F7220900F5500EBEF28E120044656D6100
:1004C000736961646F207469656D706F0A656E632E
:1004D000656E6469646F2100F2CF0EF0F29EF76AD8
:1004E000F20FF66E040EF7220900F5500EBEF28EE2
:1004F00012000D496E696369616C697A6163696FA5
:100500006E2064656C2073697374656D610D000005
:10051000F2CF0EF0F29EF76A2A0FF66E050EF72262
:100520000900F5500EBEF28E12002A2A2A2A2A2A23
:100530002A2A2A2A2A2A2A2A2A2A2A2A2A2A2A2A1B
:100540002A2A2A2A0D00F2CF0EF0F29EF76A600FD7
:10055000F66E050EF7220900F5500EBEF28E12005F
:10056000446961206465206C612073656D616E6112
:100570002028312D3E4C756E65732C20322D3E4D5A
:1005800061727465732C202E2E2E293A204C554E04
:100590004553202020200000F2CF0EF0F29EF76A93
:1005A000B20FF66E050EF7220900F5500EBEF28E60
:1005B00012000808080808080808084C554E45535A
:1005C000202020200000F2CF0EF0F29EF76AE00F0C
:1005D000F66E050EF7220900F5500EBEF28E1200DF
:1005E0000808080808080808084D415254455320D7
:1005F00020200000F2CF0EF0F29EF76A0E0FF66E8A
:10060000060EF7220900F5500EBEF28E1200080801
:10061000080808080808084D494552434F4C4553FF
:100620000000F2CF0EF0F29EF76A3C0FF66E060E57
:10063000F7220900F5500EBEF28E120008080808D5
:1006400008080808084A5545564553202020000050
:10065000F2CF0EF0F29EF76A6A0FF66E060EF722E0
:100660000900F5500EBEF28E1200080808080808AE
:10067000080808564945524E455320200000F2CF45
:100680000EF0F29EF76A980FF66E060EF72209003A
:10069000F5500EBEF28E1200080808080808080877
:1006A0000853414241444F2020200000F2CF0EF079
:1006B000F29EF76AC60FF66E060EF7220900F55095
:1006C0000EBEF28E12000808080808080808084440
:1006D0004F4D494E474F20200000F2CF0EF0F29EC2
:1006E000F76AF40FF66E060EF7220900F5500EBEFB
:1006F000F28E12000D46454348413A200000F2CFE9
:100700000EF0F29EF76A180FF66E070EF722090038
:10071000F5500EBEF28E12000D5265736574656160
:100720006E646F20696E696369616C697A6163697F
:100730006F6E2E2E2E0D0000F2CF0EF0F29EF76A95
:10074000520FF66E070EF7220900F5500EBEF28E1C
:1007500012000D44696120696E636F727265637483
:100760006F2E20526573657465616E646F20696ECB
:10077000696369616C697A6163696F6E2E2E2E0DF3
:100780000000F2CF0EF0F29EF76A9C0FF66E070E95
:10079000F7220900F5500EBEF28E12002F00F2CFA4
:1007A0000EF0F29EF76AB80FF66E070EF7220900F8
:1007B000F5500EBEF28E12000D4D657320696E630A
:1007C0006F72726563746F2E205265736574656114
:1007D0006E646F20696E696369616C697A616369CF
:1007E0006F6E2E2E2E0D0000F2CF0EF0F29EF76AE5
:1007F000020FF66E080EF7220900F5500EBEF28EBB
:1008000012000D4572726F7220656E206C61206659
:10081000656368612E20526573657465616E646FEF
:1008200020696E696369616C697A6163696F6E2EB4
:100830002E2E0D00F2CF0EF0F29EF76A4E0FF66EDE
:10084000080EF7220900F5500EBEF28E12000D417F
:100850006E6E6F20696E636F72726563746F2E20A7
:10086000526573657465616E646F20696E69636952
:10087000616C697A6163696F6E2E2E2E0D00F2CF66
:100880000EF0F29EF76A980FF66E080EF722090036
:10089000F5500EBEF28E12000D456C20616E6E6F2B
:1008A000206E6F20657320626973696573746F2EA3
:1008B00020526573657465616E646F20696E69634B
:1008C00069616C697A6163696F6E2E2E2E0D00006E
:1008D000F2CF0EF0F29EF76AEA0FF66E080EF722DC
:1008E0000900F5500EBEF28E12000D484F52413AEB
:1008F0002000F2CF0EF0F29EF76A0C0FF66E090E92
:10090000F7220900F5500EBEF28E12000D526573EB
:10091000657465616E646F206C6120696E696369DE
:10092000616C697A6163696F6E2E2E2E0D00F2CFB5
:100930000EF0F29EF76A480FF66E090EF7220900D4
:10094000F5500EBEF28E12002020486F72612069B1
:100950006E636F727265637461210000F2CF0EF0F6
:10096000F29EF76A760FF66E090EF7220900F5502F
:100970000EBEF28E12003A00F2CF0EF0F29EF76A2F
:10098000920FF66E090EF7220900F5500EBEF28E98
:10099000120020204D696E75746F7320696E636F4D
:1009A00072726563746F73210000F2CF0EF0F29ED5
:1009B000F76AC40FF66E090EF7220900F5500EBE55
:1009C000F28E12000D4775617264616E646F206370
:1009D0006F6E66696775726163696F6E2E2E2E0089
:1009E000F2CF0EF0F29EF76AFA0FF66E090EF722BA
:1009F0000900F5500EBEF28E12000D496E69636952
:100A0000616E646F2073697374656D612E2E2E0D97
:100A10000000F2CF0EF0F29EF76A2C0FF66E0A0E6F
:100A2000F7220900F5500EBEF28E120025332E314A
:100A300066256343202025332E31662563430A480B
:100A40004F5241202D200000F2CF0EF0F29EF76AA7
:100A5000620FF66E0A0EF7220900F5500EBEF28EF6
:100A600012003000F2CF0EF0F29EF76A7E0FF66EA3
:100A70000A0EF7220900F5500EBEF28E12000D523A
:100A80004547495354524F204445204556454E54FE
:100A90004F530D00F2CF0EF0F29EF76AAE0FF66ED6
:100AA0000A0EF7220900F5500EBEF28E12002A2A15
:100AB0002A2A2A2A2A2A2A2A2A2A2A2A2A2A2A2A96
:100AC0002A0D0000F2CF0EF0F29EF76ADE0FF66EEE
:100AD0000A0EF7220900F5500EBEF28E12004D6F7D
:100AE0006D656E746F206465206170616761646F0D
:100AF000202020202054656D7065726174757261CC
:100B0000312020202020202054656D706572617492
:100B10007572613220202020202020202054657210
:100B20006D6F737461746F20202020202020204D71
:100B3000696E75746F7320656E63656E6469646F4A
:100B4000202020202020204D696E75746F73206353
:100B5000616C646572610D00F2CF0EF0F29EF76A6F
:100B6000720FF66E0B0EF7220900F5500EBEF28ED4
:100B700012003D3D3D3D3D3D3D3D3D3D3D3D3D3D0D
:100B80003D3D3D3D3D3D3D3D3D3D3D3D3D3D3D3D95
:100B90003D3D3D3D3D3D3D3D3D3D3D3D3D3D3D3D85
:100BA0003D3D3D3D3D3D3D3D3D3D3D3D3D3D3D3D75
:100BB0003D3D3D3D3D3D3D3D3D3D3D3D3D3D3D3D65
:100BC0003D3D3D3D3D3D3D3D3D3D3D3D3D3D3D3D55
:100BD0003D3D3D3D3D3D3D3D3D3D3D3D3D3D3D3D45
:100BE0003D3D3D3D3D3D3D3D3D3D3D3D3D0D0000DF
:100BF000F2CF0EF0F29EF76A0A0FF66E0C0EF72295
:100C00000900F5500EBEF28E12002000F2CF0EF059
:100C1000F29EF76A260FF66E0C0EF7220900F550C9
:100C20000EBEF28E12000D3D3D3D3D3D3D3D3D3D34
:100C30003D3D3D3D3D3D3D3D3D3D3D3D3D3D3D3DE4
:100C40003D3D3D3D3D3D3D3D3D3D3D3D3D3D3D3DD4
:100C50003D3D3D3D3D3D3D3D3D3D3D3D3D3D3D3DC4
:100C60003D3D3D3D3D3D3D3D3D3D3D3D3D3D3D3DB4
:100C70003D3D3D3D3D3D3D3D3D3D3D3D3D3D3D3DA4
:100C80003D3D3D3D3D3D3D3D3D3D3D3D3D3D3D3D94
:100C90003D3D3D3D3D3D3D3D3D3D3D3D3D3D3D3D84
:100CA0003D3D0D00F2CF0EF0F29EF76ABE0FF66EDC
:100CB0000C0EF7220900F5500EBEF28E1200BF5145
:100CC0007565206F7065726163696F6E206465730E
:100CD0006561207265616C697A61723F0D00F2CFC7
:100CE0000EF0F29EF76AF80FF66E0C0EF72209006E
:100CF000F5500EBEF28E1200302E2053616C6972D8
:100D00000D00F2CF0EF0F29EF76A1C0FF66E0D0E7C
:100D1000F7220900F5500EBEF28E1200312E20454A
:100D2000787472616572207469656D706F73206D7F
:100D30006564696F7320706F72206469610D0000D3
:100D4000F2CF0EF0F29EF76A5A0FF66E0D0EF722F2
:100D50000900F5500EBEF28E1200322E2045787436
:100D600072616572207469656D706F7320746F7441
:100D7000616C65730D00F2CF0EF0F29EF76A900F72
:100D8000F66E0D0EF7220900F5500EBEF28E12001F
:100D9000332E2045787472616572206461746F73BC
:100DA000206D656E7375616C65730D00F2CF0EF08A
:100DB000F29EF76AC60FF66E0D0EF7220900F55087
:100DC0000EBEF28E12000D53616C69656E646F2E5B
:100DD0002E2E0D00F2CF0EF0F29EF76AEE0FF66E99
:100DE0000D0EF7220900F5500EBEF28E12000D54C2
:100DF00069656D706F206D6564696F20646520653D
:100E00006E63656E6469646F2064656C20736973DA
:100E100074656D6120706F72206469613A202533BA
:100E20002E3266206D696E75746F730D0D00F2CFF2
:100E30000EF0F29EF76A480FF66E0E0EF7220900CA
:100E4000F5500EBEF28E12005469656D706F206D04
:100E50006564696F20646520656E63656E646964AE
:100E60006F206465206C612063616C646572612031
:100E7000706F72206469613A2025332E3266206DCE
:100E8000696E75746F730D0D0000F2CF0EF0F29E57
:100E9000F76AA40FF66E0E0EF7220900F5500EBE8B
:100EA000F28E12000D5469656D706F20746F74615D
:100EB0006C20646520656E63656E6469646F206490
:100EC000656C2073697374656D613A20256C7520BB
:100ED0006D696E75746F730D0D00F2CF0EF0F29E9A
:100EE000F76AF40FF66E0E0EF7220900F5500EBEEB
:100EF000F28E12005469656D706F20746F74616CAE
:100F000020646520656E63656E6469646F20646546
:100F1000206C612063616C646572613A20256C7598
:100F2000206D696E75746F730D0D0000F2CF0EF0B9
:100F3000F29EF76A460FF66E0F0EF7220900F55083
:100F40000EBEF28E12000D323000F2CF0EF0F29E85
:100F5000F76A640FF66E0F0EF7220900F5500EBE09
:100F6000F28E12002D2D2D2D2D2D2D2D2D2D2D2DD3
:100F70002D2D2D2D2D2D2D2D2D2D2D2D2D2D2D2DA1
:100F80002D2D2D2D2D2D2D2D2D2D2D2D2D2D2D2D91
:100F90002D2D2D2D2D2D2D2D2D2D2D2D2D2D2D2D81
:100FA0002D2D2D2D2D2D2D2D2D2D2D2D2D2D2D2D71
:100FB0002D2D2D2D2D2D2D2D2D2D2D2D2D2D2D2D61
:100FC0002D2D2D2D2D2D2D2D2D2D2D2D2D2D2D2D51
:100FD0002D2D2D2D2D2D2D2D0D00F2CF0EF0F29E4D
:100FE000F76AF40FF66E0F0EF7220900F5500EBEE9
:100FF000F28E1200202020202020202020202020DF
:1010000020205469656D706F206D6564696F206480
:101010006520656E63656E6469646F2064656C202D
:1010200073697374656D6120286D696E2F646961E1
:10103000292020202020205469656D706F206D6567
:1010400064696F20646520656E63656E6469646FB2
:10105000206465206C612063616C64657261202886
:101060006D696E2F646961290D00F2CF0EF0F29E5A
:10107000F76A840FF66E100EF7220900F5500EBEC7
:10108000F28E1200454E45524F25332E32662533DF
:101090002E32660D0000F2CF0EF0F29EF76AB00F0E
:1010A000F66E100EF7220900F5500EBEF28E1200F9
:1010B0004645425245524F25332E326625332E3255
:1010C000660D0000F2CF0EF0F29EF76ADE0FF66EAC
:1010D000100EF7220900F5500EBEF28E12004D419F
:1010E000525A4F25332E326625332E32660D0000BC
:1010F000F2CF0EF0F29EF76A0A0FF66E110EF7228B
:101100000900F5500EBEF28E1200414252494C25A4
:10111000332E326625332E32660D0000F2CF0EF0EC
:10112000F29EF76A360FF66E110EF7220900F5509F
:101130000EBEF28E12004D41594F25332E326625D8
:10114000332E32660D00F2CF0EF0F29EF76A600F7A
:10115000F66E110EF7220900F5500EBEF28E120047
:101160004A554E494F25332E326625332E32660DB1
:101170000000F2CF0EF0F29EF76A8C0FF66E110EA1
:10118000F7220900F5500EBEF28E12004A554C4966
:101190004F25332E326625332E32660D0000F2CFF6
:1011A0000EF0F29EF76AB80FF66E110EF7220900E4
:1011B000F5500EBEF28E120041474F53544F253367
:1011C0002E326625332E32660D00F2CF0EF0F29EDF
:1011D000F76AE40FF66E110EF7220900F5500EBE05
:1011E000F28E12005345505449454D425245253325
:1011F0002E326625332E32660D00F2CF0EF0F29EAF
:10120000F76A140FF66E120EF7220900F5500EBEA3
:10121000F28E12004F43545542524525332E32660A
:1012200025332E32660D0000F2CF0EF0F29EF76AE3
:10123000420FF66E120EF7220900F5500EBEF28E26
:1012400012004E4F5649454D42524525332E3266C7
:1012500025332E32660D0000F2CF0EF0F29EF76AB3
:10126000720FF66E120EF7220900F5500EBEF28EC6
:10127000120044494349454D42524525332E3266BA
:1012800025332E32660D00001F8CF29238EF00F0ED
:101290001F8AF09038EF00F07D2A7D504B0801E264
:1012A0001F8E9E9038EF00F0EA6AAE0EE96EEF50A6
:1012B00012E0020E016EBF0E006E0400002EFDD77C
:1012C000012EF9D7960E006E002EFED7000000000A
:1012D0000400EF2EEED7000CAF39F00B006E0F0EAE
:1012E00081140010816E000081860400000000005F
:1012F00000008196000C090EAF5F0BE3EA6AAF0EA7
:10130000E96ED890EF32EF5004E001D00400EF2EE8
:10131000FDD7000C81940400020EAE6FC5DF090EEC
:10132000AE6F6D0EAF6FE7DFAE2FFBD7ACA1819430
:10133000ACB18184000000008196AD39AE6F0F0E14
:10134000AE17AEC0AFF0C8DFAD510F0BAE6FAF6FD1
:10135000C3DF000C030E936E81948196320EAE6F44
:10136000A3DF020EAF6FB8DF050EAE6F9DDF956B8A
:101370009551030812E3036A9551F2CF96F0F29E5D
:101380005AEC00F096BFF28E976FAC6BAD6FC2DF78
:10139000050EAE6F89DF952BEBD791EF2EF0A92DBF
:1013A00001D003D0400EAA6F01D0AA6B010EA85D38
:1013B000AA27AA518009AB6FAC6BAD6FABDF000CF5
:1013C000A7510C0A05E0060A0BE0020A0FE013D051
:1013D000AC6B010EAD6F9EDF020EAE6F65DF11D0FC
:1013E000010EA86F020EA96FDADF0BD0AC6B100EE6
:1013F000AD6F90DF06D0010EAC6FA7C0ADF08ADFF5
:1014000000D0000C006A016AAF51D890B0B100263C
:1014100000320132B0B3002600320132B0B50026EE
:1014200000320132B0B7002600320132B0B90026D6
:1014300000320132B0BB002600320132B0BD0026BE
:1014400000320132B0BF00260032013294EF0AF0C0
:10145000AD6BAB6B0A0EAC6FAA6BA851A91103E17F
:10146000000E016EC1D0AD51AD2B036AA825E96E07
:10147000A9510320EA6EEFCFAEF0AE512D080DE179
:10148000010EAB6FAD51AD2B036AA825E96EA951D2
:101490000320EA6EEFCFAEF00DD0AE512B080AE17B
:1014A000AD51AD2B036AA825E96EA9510320EA6E60
:1014B000EFCFAEF0AE512F08D8B08ED0AE51390874
:1014C000D8A08AD0AE51300821E1036AAD51A825D9
:1014D000E96EA9510320EA6EEF5078080AE0036A2A
:1014E000AD51A825E96EA9510320EA6EEF505808C6
:1014F0000DE1100EAC6FAD2BAD51AD2B036AA825DD
:10150000E96EA9510320EA6EEFCFAEF0AC510A08A4
:101510001BE1AE512F0817E2AE51390814E30A0E51
:10152000AF6FAAC0B0F06ED7300EAE5D0124AA6FC7
:10153000AD51AD2B036AA825E96EA9510320EA6ECF
:10154000EFCFAEF0E6D748D0AC51100845E1AE5130
:10155000600806E2AE517A0803E3AE51DF0B01D01A
:10156000AE51AE6FAE512F0803E2AE51390806E21C
:10157000AE51400831E2AE5146082EE3AE512F087D
:101580000CE2AE51390809E3AA39AF6FF00EAF177C
:10159000300EAE5DAF25AA6F09D0AA39AF6FF00E3D
:1015A000AF17410EAE5D0A0FAF25AA6FAD51AD2B3F
:1015B000036AA825E96EA9510320EA6EEFCFAEF0C9
:1015C000AE51600806E2AE517A0803E3AE51DF0B7C
:1015D00001D0AE51AE6FC6D7AB2D04D0AC510A08C6
:1015E00001E1AA6DAAC001F0000CA76BA7C0A6F08C
:1015F000A6C0A5F0A5512F0803E2A551390808E2BD
:10160000A551080805E09EAAFED7AECFA5F0F2D7F7
:10161000A551080803E1640E016E21D0A5519EA8D2
:10162000FED7AD6EA6512F0803E2A651390808E295
:10163000A651080805E09EAAFED7AECFA6F0F2D7C5
:10164000A651080803E1640E016E09D0A6519EA8B8
:10165000FED7AD6EA96BA50EA86FFADE0150000C87
:10166000AE6BAD51090805E20A0EAD5F100EAE2754
:1016700003D0AD51AE2701D0F4D7AEC001F0000CBD
:10168000C69E9E96BAC2C9FF020EC6BE05D09EA6D1
:10169000FED7000EC5BC010E016E000CF29CF29E3E
:1016A000F2BEFDD7C580C5B0FED7A00E0201BA6F4D
:1016B0000001E6DFADC0BAF2E3DFAEC0BAF2E0DFB0
:1016C000C584C5B4FED7000CA551E96EA6C0EAFFDB
:1016D000EFCFACF0ACC0ADF0C3DF01C0A7F0010E9E
:1016E000A525E96E000EA621EA6EEFCFACF0ACC0E6
:1016F000ADF0B6DF01C0A8F0020EA525E96E000E20
:10170000A621EA6EEFCFACF0ACC0ADF0A9DF01C00E
:10171000A9F0030EA525E96E000EA621EA6EEFCF13
:10172000ACF0ACC0ADF09CDF050EA525E96E000E57
:10173000A621EA6EEF38006E00360036C00E0016A5
:1017400000500110AA6F040EA525E96E000EA62117
:10175000EA6EEFCFACF0ACC0ADF082DF060EA5258F
:10176000E96E000EA621EA6EEF38006E0036E00E3C
:10177000001600500110AB6FAD6B800EAE6F8EDFA8
:10178000F29CF29EF2BEFDD7C580C5B0FED7A00E7A
:101790000201BA6F000174DF010E0201BA6F00018D
:1017A0006FDF0201BA6B00016BDFA7C0BAF268DF1E
:1017B000A8C0BAF265DFA9C0BAF262DFAAC0BAF265
:1017C0005FDFABC0BAF25CDFC584C5B4FED7050EDF
:1017D000A525E96E000EA621EA6EEFCFACF0100E43
:1017E000AD6FACC0AEF05ADFAD6BAE6B57DF93EFB1
:1017F0000EF08E0E006EA551005EA6C002F0A7C0CE
:1018000001F0028E005209E0D890025202E101522A
:1018100004E002320132002EF7D7A6AF05D0011E38
:10182000021E012AD8B4022A0000000CB251B403EF
:10183000F3CF01F0F4CF00F0B503F3500026B3511D
:10184000B403F3500020026E000CC580C5B0FED773
:10185000AE0E0201BA6F000113DF015001B002D0D9
:10186000AC9101D0AC81ACB1F0D7A8C0AEF0AF6BF9
:10187000A8C0BAF205DFA7C0AEF0AF6BA7C0BAF23E
:10188000FFDEAD6BA951AD5D10E2ABC003F0AAC0A5
:10189000E9FFABC0EAFFEFCFAEF0AEC0BAF2F0DEC8
:1018A000AA2BD8B4AB2BAD2BEDD7C584C5B4FED7CE
:1018B000000CA56BA5516CEC02F0000905E0A52B0E
:1018C0009EA8FED7AD6EF6D7A56BA55188EC02F0A9
:1018D000000905E0A52B9EA8FED7AD6EF6D7A56B37
:1018E000A551A3EC02F0000905E0A52B9EA8FED7A8
:1018F000AD6EF6D7956BA46BA4C0A3F0A3510D08F1
:10190000D8B465D09EAAFED7AECFA3F0A96BA30E24
:10191000A86F9EDD010E015C956F9551F90F56E29F
:10192000070FDDEF0EF0A56BA551CCEC02F000091E
:1019300005E0A52B9EA8FED7AD6EF6D747D0A56BC8
:10194000A551E3EC02F0000905E0A52B9EA8FED707
:10195000AD6EF6D73BD0A56BA551FAEC02F00009AD
:1019600005E0A52B9EA8FED7AD6EF6D72FD0A56BB0
:10197000A55111EC03F0000905E0A52B9EA8FED7A8
:10198000AD6EF6D723D0A56BA55128EC03F0000966
:1019900005E0A52B9EA8FED7AD6EF6D717D0A56B98
:1019A000A5513FEC03F0000905E0A52B9EA8FED74A
:1019B000AD6EF6D70BD0A56BA55156EC03F0000920
:1019C00005E0A52B9EA8FED7AD6EF6D797D7A56BE1
:1019D000A5516DEC03F0000905E0A52B9EA8FED7EC
:1019E000AD6EF6D702DE01C096F0965164080CE1A8
:1019F000A56BA5517FEC03F0000905E0A52B9EA87F
:101A0000FED7AD6EF6D755D796511F0802E3965311
:101A100013E1A56BA5519CEC03F0000905E0A52B93
:101A20009EA8FED7AD6EF6D7020EA56FFA0EAE6F6A
:101A30003BDCA52FFBD73DD7A56BA551C1EC03F02F
:101A4000000905E0A52B9EA8FED7AD6EF6D7CDDD2B
:101A500001C097F0975164080CE1A56BA5517FEC8C
:101A600003F0000905E0A52B9EA8FED7AD6EF6D7C2
:101A700020D797510C0802E3975313E1A56BA551AA
:101A8000CFEC03F0000905E0A52B9EA8FED7AD6EB4
:101A9000F6D7020EA56FFA0EAE6F06DCA52FFBD7A8
:101AA00008D796511D0803E2975102080FE096519E
:101AB0001F0820E19751040809E09751060806E045
:101AC0009751090803E097510B0814E1A56BA55144
:101AD000F4EC03F0000905E0A52B9EA8FED7AD6E3F
:101AE000F6D7020EA56FFA0EAE6F54EC09F0A52FD3
:101AF000FAD7DFD6A56BA551C1EC03F0000905E0CC
:101B0000A52B9EA8FED7AD6EF6D76FDD01C098F06D
:101B10009851640814E1A56BA5517FEC03F000090E
:101B200005E0A52B9EA8FED7AD6EF6D7020EA56FD9
:101B3000FA0EAE6F54EC09F0A52FFAD7BAD6985129
:101B4000630803E39851080814E3A56BA5511AEC48
:101B500004F0000905E0A52B9EA8FED7AD6EF6D7D0
:101B6000020EA56FFA0EAE6F54EC09F0A52FFAD74E
:101B7000A0D69851030B1AE09751020817E196512D
:101B80001D0814E1A56BA5513FEC04F0000905E028
:101B9000A52B9EA8FED7AD6EF6D7020EA56FFA0E46
:101BA000AE6F54EC09F0A52FFAD783D6020EA56FBD
:101BB000FA0EAE6F54EC09F0A52FFAD79851030B2B
:101BC00002E16C6A14D0010E985D030B03E1010E73
:101BD0006C6E0DD0020E985D030B03E1020E6C6E6D
:101BE00006D0030E985D030B02E1030E6C6EA56B2D
:101BF000A55168EC04F0000905E0A52B9EA8FED7CE
:101C0000AD6EF6D7F2DC01C099F09951640814E189
:101C1000A56BA55179EC04F0000905E0A52B9EA861
:101C2000FED7AD6EF6D7020EA56FFA0EAE6F54EC6E
:101C300009F0A52FFAD73DD69951170814E2A56BE4
:101C4000A55197EC04F0000905E0A52B9EA8FED74E
:101C5000AD6EF6D7020EA56FFA0EAE6F54EC09F01A
:101C6000A52FFAD7C4D7A56BA551AEEC04F0000997
:101C700005E0A52B9EA8FED7AD6EF6D7B6DC01C059
:101C80009AF09A51640814E1A56BA55179EC04F01F
:101C9000000905E0A52B9EA8FED7AD6EF6D7020E73
:101CA000A56FFA0EAE6F54EC09F0A52FFAD701D646
:101CB0009A513B0814E2A56BA551BCEC04F0000955
:101CC00005E0A52B9EA8FED7AD6EF6D7020EA56F38
:101CD000FA0EAE6F54EC09F0A52FFAD788D7020E92
:101CE000A56FFA0EAE6F54EC09F0A52FFAD7A56BCD
:101CF000A551D5EC04F0000905E0A52B9EA8FED760
:101D0000AD6EF6D797C05FF096C05EF06CC060F025
:101D100099C05DF09AC05CF05B6A95C061F0A66BFB
:101D20005B0EA56FD1D4276A266A200E256E830E1E
:101D3000246E27C023F026C022F025C021F024C045
:101D400020F0596A6A6A696A98C06BF023C0A8F0EB
:101D500022C0A7F021C0A6F020C0A5F04ADD01C036
:101D60009BF059C09CF06A509D6FB36B9BC0B2F062
:101D7000010EB56FB46B5ADD0150695C006E025004
:101D80006A5800C09EF06BC09FF06CC0A0F0A86BBA
:101D9000100EA76F060EA96FAB6B9B0EAA6F55DDD9
:101DA000A56BA551F0EC04F0000905E0A52B9EA859
:101DB000FED7AD6EF6D7A8EF2EF0F2CF0EF0F29E62
:101DC000E824DF0FF66E1D0EF76ED8B0F72A0A0072
:101DD000F550FA6E0800F5500EBEF28EF96E261917
:101DE0003E1956196E1986199E19B619929A899A32
:101DF0000400020EAC6FF70EAF6F7BEC09F0AC2F56
:101E0000FAD7928A0400020EAC6FF70EAF6F7BEC2C
:101E100009F0AC2FFAD7928A000CAE6BAE510708CE
:101E20001AE3929A899A0400000000000000D890FA
:101E3000AD3302E2899A01D0898A929A0400270E72
:101E4000006E002EFED70000928A04000000000001
:101E50000000AE2BE3D7000C929A899A0400000090
:101E600000000000928A0400040E006E002EFED7CF
:101E700000000000928A9D9180BA9D8104004F0E5F
:101E8000006E002EFED70000000E9DB1010E016E07
:101E9000000C929A899A04000000000000009D53F3
:101EA00002E1899A01D0898A929A0400270E006E75
:101EB000002EFED70000928A0400000000000000FF
:101EC000000C94DFF00EAD6FA8DF996B99510708F5
:101ED00038E39A6B9A51070832E3BEDF01C09BF0EA
:101EE000BBDF01C09CF09C519B5D15E0036A9951DA
:101EF00095259D6F965103209E6F9B5302E1D890CC
:101F000001D0D8809EC0EAFF9DC0E9FFED329BC0A2
:101F10009DF0BFDF12D0036A995195259D6F9651B0
:101F200003209E6F9EC0EAFF9DC0E9FF000EE926D8
:101F3000D880ED32010E9D6FACDF9A2BCBD7992B59
:101F4000C5D754DFF00EAD6F68DF996B9951070864
:101F500037E39A6B9A51070831E37EDF01C09BF0AB
:101F60007BDF01C09CF09C519B5D15E0036A995199
:101F700097259D6F985103209E6F9B5302E1D89047
:101F800001D0D8809EC0EAFF9DC0E9FFED329BC022
:101F90009DF07FDF11D0036A995197259D6F98516D
:101FA00003209E6F9EC0EAFF9DC0E9FF000EE92658
:101FB000D890ED329D6B6DDF9A2BCCD7992BC6D77D
:101FC000B4EF2EF0AC6BAC5107081DE3929A899ADE
:101FD0000400000000000000928A0400040E006E5D
:101FE000002EFED700000000928A80BA02D0D8905E
:101FF00001D0D880AD3304004F0E006E002EFED706
:102000000000AC2BE0D7ADC001F0000C8E0E006ECE
:10201000ADC001F0ACC002F0036AADAF05D0011E47
:10202000021E022A01E1012A015209E102C001F067
:10203000026A080E005E015202E1006A0AD0D890DE
:1020400001BE04D0023601360006F9D7ADBF01D07B
:10205000019E0000ACEF11F00201AF51D8B4A5D041
:10206000BB6FB351D8B4A1D0BB5F05E37F0EBB27D4
:10207000D8B09BD006D0810EBB5FD8A096D0D8B484
:1020800094D0BBC200F0016A026A036ABA6BB0C2A4
:10209000B9F2B98FB1C2B8F2B2C2B7F2190EBB6FC2
:1020A000B651B75F0DE2010EB85F0AE2B95F08E210
:1020B000BA5F06E2BA2BB92BB82BB651B72728D096
:1020C000B551B85F12E2010EB95F0FE2BA5F0DE2DF
:1020D000BA2BB92BB551B827B651B72719E3B82B8E
:1020E00017E1B92B15E1BA2B13D0B4518009B95FB0
:1020F0000EE2010EBA5F0BE2BA2BB4518009B92788
:10210000B551B827E9E3B92BE7E1BA2BE5D703804E
:10211000BB2F01D00BD0D890B737B837B937BA3703
:10212000D890033602360136BC37BAD7BCA106D0E8
:10213000D890013202320332BC3302D0000635E0BF
:10214000BCBF1ED0D890B737B837B937BA37B651F9
:10215000B75F07E2010EB85F04E2B95F02E2BA5F5F
:102160001AE3B551B85F05E2010EB95F02E2BA5F4A
:1021700012E3B4518009B95F03E2010EBA5F0BE3C9
:10218000032A09E1022A07E1012A05E1002A0DE0FC
:10219000013202320332B0C2BBF2B451BB1BBBAF3F
:1021A00002D0018E06D0019E04D0006A016A026A44
:1021B000036A00000001000CA36B18DE550EAD6F22
:1021C0002CDEA1C0E9FFA2C0EAFFEFCFACF0ACC0AB
:1021D000ADF023DE010EA125E96E000EA221EA6E0C
:1021E000EFCFACF0ACC0ADF018DE020EA125E96E69
:1021F000000EA221EA6EEFCFACF0ACC0ADF00DDE68
:10220000030EA125E96E000EA221EA6EEFCFACF01D
:10221000ACC0ADF002DE040EA125E96E000EA221D5
:10222000EA6EEFCFACF0ACC0ADF0F7DD050EA12546
:10223000E96E000EA221EA6EEFCFACF0ACC0ADF0BB
:10224000ECDD060EA125E96E000EA221EA6EEFCFAD
:10225000ACF0ACC0ADF0E1DD070EA125E96E000EDB
:10226000A221EA6EEFCFACF0ACC0ADF0D6DD440EEB
:10227000AD6FD3DDA35304E1A5DE01C0A3F0FAD70F
:10228000B5DD550EAD6FC9DDA1C0E9FFA2C0EAFF03
:10229000EFCFACF0ACC0ADF0C0DD010EA125E96E12
:1022A000000EA221EA6EEFCFACF0ACC0ADF0B5DD10
:1022B000020EA125E96E000EA221EA6EEFCFACF06E
:1022C000ACC0ADF0AADD030EA125E96E000EA2217F
:1022D000EA6EEFCFACF0ACC0ADF09FDD040EA125EF
:1022E000E96E000EA221EA6EEFCFACF0ACC0ADF00B
:1022F00094DD050EA125E96E000EA221EA6EEFCF56
:10230000ACF0ACC0ADF089DD060EA125E96E000E83
:10231000A221EA6EEFCFACF0ACC0ADF07EDD070ECF
:10232000A125E96E000EA221EA6EEFCFACF0ACC0A1
:10233000ADF073DDBE0EAD6F70DD44DE01C0A4F004
:1023400041DE01C0A5F0A5C0A7F0A4C0A6F0A7C0BB
:10235000ADF0A6C0ACF05AD600C0ACF001C0ADF0F4
:1023600002C0AEF003C0AFF003C0B2F202C0B1F2DF
:1023700001C0B0F200C0AFF20201B66BB56BB46B36
:10238000800EB36F000168DE03C0ABF002C0AAF09C
:1023900001C0A9F000C0A8F0C80EAE6F54EC09F05F
:1023A000A8C000F0A9C001F0AAC002F0ABC003F0C1
:1023B000000C9EC0A5F0A251A51BA5AF05D0D894D6
:1023C000D8909EBFD8802FD09EC0A5F0A1C0A6F007
:1023D0009D51A65F06E0A5AF26D0D850010AD86E61
:1023E00022D0A2C0A6F09E51A65F06E0A5AF1BD0EA
:1023F000D850010AD86E17D0A3C0A6F09F51A65F8F
:1024000006E0A5AF10D0D850010AD86E0CD0A4C0F9
:10241000A6F0A051A65F06E0A5AF05D0D850010AEE
:10242000D86E01D0D890000C800ED8A202D0020144
:10243000AE1B0201B36BB46BAAC2B2F2AE51B21BB7
:10244000A951D8B4DFD0B16F006EAD51D8B4E3D08C
:10245000B15FD8B483D03EE3AEC2B7F2B78FAFC29C
:10246000B6F2B0C2B5F2B46BD890B733B633B53369
:10247000B433B12FF8D7B2AF03D0B381E0D0B3916A
:10248000B191B389020EEA6EAC0EE96EEBD0B3994E
:10249000B2BF0AD0B1A113D0B733B633B533B4331A
:1024A000002AD8B4C7D00BD0B7BF0CD0D890B4375F
:1024B000B537B637B7370006D8B4BCD0F5D7B38D2B
:1024C0006DD0B39DAAC2B2F2AAAF02D0B78FABD083
:1024D000B79FA9D0ADC2B1F2ADC200F0A951B15FB2
:1024E000AAC2B7F2B78FABC2B6F2ACC2B5F2B46B48
:1024F000D890B733B633B533B433B12FF8D7B2AFC2
:1025000003D0B3839CD0B393B191B38B020EEA6E28
:10251000B00EE96EA7D0B39BB2BF0AD0B1A113D061
:10252000B733B633B533B433002AD8B483D00BD025
:10253000B7BF0CD0D890B437B537B637B737000629
:10254000D8B478D0F5D7B38F29D0B39FAEC2B2F24A
:10255000AEAF02D0B78F67D0B79F65D0AEC2B7F22B
:10256000B78FAFC2B6F2B0C2B5F2B2AF04D0B79F68
:10257000B38565D0B395B46BB191020EEA6EAC0E23
:10258000E96E70D0B2BF1CD0AAC2B2F2B1A106D01F
:10259000B733B633B533B433002A4CE0B4AF0BD005
:1025A000B52B09E1B62B07E1B72B05E1B733B633FD
:1025B000B533002A3FE0B3BD84D7B3BFC6D71CD024
:1025C000800EB71BB7AF04D03AD0AEC2B2F20AD079
:1025D000AAC2B2F2B75306E1B65304E1B55302E121
:1025E000006A21D0B7BF08D0D890B437B537B63716
:1025F000B737002EF7D71ED0B2AF02D0B78F13D0A7
:10260000B79F11D0ADC200F0AEC2B7F2AFC2B6F202
:10261000B0C2B5F208D0A9C200F0AAC2B7F2ABC2EC
:10262000B6F2ACC2B5F2B7C201F0B6C202F0B5C2A2
:1026300003F034D0006A016A026A036A2FD0B46BD7
:10264000B51FB61FB71FB41FB42B05E1B52B03E1AF
:10265000B62B01E1B72BB3B112D7B3B354D7B3B58F
:1026600089D7B3D7EF50B52705E3B62B03E1B72BD6
:10267000D8B4B181ED52EF50B62703E3B72BD8B4ED
:10268000B181ED52EF50EFBE01D0800AB727D8B02C
:10269000B181B3B9FCD6B3BB3ED774D700000001FB
:1026A000000C8E0E006EB0C201F0AFC202F0036AE1
:1026B000015209E102C001F0026A080E005E0152F7
:1026C00002E1006A08D0D89001BE04D0023601367B
:1026D0000006F9D7019E0000000CC586C5B6FED7DE
:1026E00000B0C59A00A0C58AC588C5B8FED7C9CFB5
:1026F00001F0000CADC0AEF0D890AE33780EAE173E
:10270000AE31006E00323F0E00160050AE25AF6FA6
:10271000AD510F0BAF25016E000CF29CF29EF2BE84
:10272000FDD7C580C5B0FED7A00E0201BA6F00016B
:1027300040EC0BF0AAC0BAF240EC0BF0C582C5B277
:10274000FED7A10E0201BA6F000140EC0BF0006A47
:10275000C4DF01C0ABF0C584C5B4FED7ABC001F087
:102760005EEF14F0F29CF29EF2BEFDD7C580C5B0BC
:10277000FED7A00E0201BA6F000140EC0BF0020E72
:102780000201BA6F000140EC0BF0C582C5B2FED762
:10279000A10E0201BA6F000140EC0BF0010E006EB9
:1027A0009CDF01C0A5F0010E006E97DF01C0A6F00E
:1027B000010E006E92DF01C0A7F0010E006E8DDFEA
:1027C00001C0A8F0006A89DF01C0A9F0C584C5B4C2
:1027D000FED7A1C001F0A2C003F0A1C0AAF0A2C020
:1027E000ABF0A5C0ADF086DFABC0EAFFAAC0E9FF41
:1027F00001C0EFFF010EA125016E000EA221036EA4
:1028000001C0AAF0AB6FA6C0ADF074DFABC0EAFFA9
:10281000AAC0E9FF01C0EFFF020EA125016E000E64
:10282000A221036E01C0AAF0AB6FA7513F0BAC6FA2
:10283000AD6F60DFABC0EAFFAAC0E9FF01C0EFFFE8
:10284000030EA125016E000EA221036E01C0AAF0A5
:10285000AB6FA8513F0BAC6FAD6F4CDFABC0EAFF65
:10286000AAC0E9FF01C0EFFF040EA125016E000E12
:10287000A221036E01C0AAF0AB6FA9511F0BAC6F70
:10288000AD6F38DFABC0EAFFAAC0E9FF01C0EFFFC0
:10289000060EA125E96E000EA221EA6EA939006E8E
:1028A0000032070E001600C0EFFFA839A36FA33354
:1028B000A333030EA317100EAA6F2FD701C0A4F0E5
:1028C000A451030BA35D02E0A42BFAD7050EA125AA
:1028D000E96E000EA221EA6EA4C0EFFF100EAD6FEC
:1028E000A4C0AEF04EEC0BF0000CA26B5B0EA16F1F
:1028F00039DF5DC062F05CC063F0686A676A83AA12
:1029000006D05DC064F05CC065F05BC066F0838893
:10291000000C97C0ADF030EC0BF001C09AF098C0FD
:10292000ADF030EC0BF001C09BF099C0ADF030EC95
:102930000BF001C09CF0AD6B800EAE6F4EEC0BF057
:10294000080EAD6F900EAE6F4EEC0BF0F29CF29E47
:10295000F2BEFDD7C580C5B0FED7A00E0201BA6F8A
:10296000000140EC0BF0090E0201BA6F000140ECCF
:102970000BF00201BA6B000140EC0BF09CC0BAF204
:1029800040EC0BF09BC0BAF240EC0BF09AC0BAF2EC
:1029900040EC0BF0C584C5B4FED7AD6B040EAE6F32
:1029A0004EEC0BF0010E1E6E000C5A50050DF3504C
:1029B000036A3B0F016E000E032201C097F003C0B3
:1029C00098F0EA6A540EE96E03C0E2FF01C0E1FF2D
:1029D000050E016EE6CFEEFF012EFCD754C095F038
:1029E00055C096F095C097F096C098F0996B91DF1E
:1029F000000C0201C551D8B471D0006EC951D8B4D1
:102A00006DD0002604E3810E002668E204D07F0E1C
:102A1000005E64E363E0C6C2CDF2CA51CD1BC68F2F
:102A2000CA8FC851CC03F4CFCFF2C751CB03F4CF38
:102A300003F0F3CFCEF2CC03F350CF27F450CE23E4
:102A4000000E0322C851CB03F350CF27F450CE23FE
:102A5000000E026A03220222C651CC03F350CE2795
:102A6000F4500322000E0222C651CB03F35003267A
:102A7000F4500222000E016A0122C851CA03F35029
:102A8000CE27F4500322000E02220122C751CA03AE
:102A9000F3500326F4500222000E0122C651CA034D
:102AA000F3500226F4500122002A01BE05D0CE3791
:102AB0000336023601360006000ECEAF0AD0032AD6
:102AC00002220122015005E1025003E1035001E11D
:102AD000002ACDBF018ECDAF019E04D0006A016AED
:102AE000026A036A00000001000CAD51AB5D03E215
:102AF000010E016E13D0AB51AD5D03E2000E016E0D
:102B00000DD0AD51AB5D0AE1AC51AE5D04E3010EF9
:102B1000016E04D003D0000E016E00D0000CA1C0E5
:102B2000ABF0A2C0ACF0A3C0ADF0A4C0AEF0DDDF4E
:102B3000015232E0A86BA3C0A7F0A8C0B3F0A3C0B5
:102B4000B2F0B56B3C0EB46F16EC0CF002C0A9F0FD
:102B500001C0A8F0036AA4510124AA6F0350022007
:102B6000AB6FAD6BA1C0ACF0ADC0B3F0A1C0B2F023
:102B7000B56B3C0EB46F16EC0CF001C0ADF0036AFF
:102B8000A2510124016E025003220150AA5DA56FDB
:102B90000350AB59A66F38D0A86BA1C0A7F0A8C04E
:102BA000B3F0A1C0B2F0B56B3C0EB46F16EC0CF0F4
:102BB00002C0A9F001C0A8F0036AA2510124016E6D
:102BC000025003220150FF0AA10FAA6F050E035401
:102BD000AB6FAD6BA3C0ACF0ADC0B3F0A3C0B2F0AF
:102BE000B56B3C0EB46F16EC0CF002C003F0015054
:102BF000AA25AD6F0250AB21AE6F036AA451AD257B
:102C0000A56F0350AE21A66FA5C001F0A6C002F0CB
:102C1000000CA1C0ABF0A2C0ACF0A4C0ADF0A5C048
:102C2000AEF063DF015252E0A451A15D08E1A5516D
:102C3000A25D05E1A351A65DA86BA76F46D0AC6B62
:102C4000A4C0ABF0ACC0B3F0A4C0B2F0B56B3C0E06
:102C5000B46F16EC0CF002C0ADF001C0ACF0036A2A
:102C6000A5510124AE6F03500220AF6FB16BA1C01C
:102C7000B0F0B1C0B3F0A1C0B2F0B56B3C0EB46F10
:102C800016EC0CF001C0B1F0036AA2510124016EF0
:102C9000025003220150AE5DA96F0350AF59AA6FD5
:102CA000AAC0B3F0A9C0B2F0B56B3C0EB46F16EC7D
:102CB0000CF0A6510124AD6F000E0220AE6FA3519F
:102CC000AD5DA76F000EAE59A86F4DD0AC6BA1C023
:102CD000ABF0ACC0B3F0A1C0B2F0B56B3C0EB46FBA
:102CE00016EC0CF002C0ADF001C0ACF0036AA251CA
:102CF0000124016E025003220150FF0AA10FAE6FA2
:102D0000050E0354AF6FB16BA4C0B0F0B1C0B3F007
:102D1000A4C0B2F0B56B3C0EB46F16EC0CF002C060
:102D200003F00150AE25B16F0250AF21B26F036ABC
:102D3000A551B125A96F0350B221AA6FAAC0B3F063
:102D4000A9C0B2F0B56B3C0EB46F16EC0CF0A651F6
:102D50000124AD6F000E0220AE6FA351AD5DA76FD1
:102D6000000EAE59A86FA7C001F0A8C002F0000C79
:102D7000016A026A006A036AA45102E1A35118E0E1
:102D8000100EA56FD890A137A23700360336A45194
:102D9000035C02E1A351005C07E3A351005ED8A0ED
:102DA0000306A451035ED88001360236A52FEAD768
:102DB000000018EF18F08398839C839ED8906934A4
:102DC000A16F6A34A26FA135026EA235036E02367E
:102DD000033602360336F80E02160250500FA36F68
:102DE000000E0320A46F0F0802E26A6A696AA26BF0
:102DF0005B0EA16FB7DC5EC099F05FC09AF05DC05A
:102E00009BF05CC09CF0A26B6D0EA16FDCEC10F02F
:102E100003C02FF002C02EF001C02DF000C02CF036
:102E20002FC0A8F02EC0A7F02DC0A6F02CC0A5F092
:102E3000F9EC0BF001C097F00201B06B97C0AFF254
:102E400000012FDCD8822FC0ACF22EC0ABF22DC017
:102E5000AAF22CC0A9F203C0B0F202C0AFF201C0C6
:102E6000AEF200C0ADF214EC12F000C0A1F001C04F
:102E7000A2F002C0A3F003C0A4F003C0C8F202C0D5
:102E8000C7F201C0C6F200C0C5F20201CC6BCB6B29
:102E9000480ECA6F850EC96F0001ABDD03C0A8F0F4
:102EA00002C0A7F001C0A6F000C0A5F0F9EC0BF03D
:102EB00001C098F097C09DF098C09EF0A26B750E6F
:102EC000A16FDCEC10F003C033F002C032F001C09F
:102ED00031F000C030F033C0A8F032C0A7F031C0EC
:102EE000A6F030C0A5F0F9EC0BF001C097F002019C
:102EF000B06B97C0AFF2000151EC13F0D88233C031
:102F0000ACF232C0ABF231C0AAF230C0A9F203C0B9
:102F1000B0F202C0AFF201C0AEF200C0ADF214ECEC
:102F200012F000C0A1F001C0A2F002C0A3F003C0E3
:102F3000A4F003C0C8F202C0C7F201C0C6F200C0CC
:102F4000C5F20201CC6BCB6B480ECA6F850EC96F00
:102F500000014FDD03C0A8F002C0A7F001C0A6F039
:102F600000C0A5F0F9EC0BF001C098F097C09FF0FD
:102F700098C0A0F0D8906934A16F6A34A26FA135CF
:102F8000026EA235036E0236033602360336F80EA1
:102F900002160250500FA36F000E0320A46FA86FFB
:102FA000A3C0A7F0080EA96FAB6B990EAA6F25EC12
:102FB0000CF060506C5C10E06B2A6C2A6BC099F0CE
:102FC0006CC09AF0A86B140EA76F020EA96FAB6BC2
:102FD000990EAA6F25EC0CF06BC099F062C0A1F0BD
:102FE00063C0A2F05DC0A3F05CC0A4F098DD02C095
:102FF00096F001C095F083AA11D064C0A1F065C01D
:10300000A2F066C0A3F05DC0A4F05CC0A5F05BC0F8
:10301000A6F0FFDD015067260250682295C09AF0A5
:1030200068C0A2F067C0A1F0A46B3C0EA36FA0D64D
:1030300001C09BF01FA220D0D89223C0ACF222C0C6
:10304000ABF221C0AAF220C0A9F237C0B0F236C05C
:10305000AFF235C0AEF234C0ADF214EC12F003C0E2
:10306000A8F002C0A7F001C0A6F000C0A5F0F9ECDE
:103070000BF001C09CF00CD023C0A8F022C0A7F038
:1030800021C0A6F020C0A5F0F9EC0BF001C09CF027
:10309000D8906934A16F6A34A26FA135026EA2354F
:1030A000036E0236033602360336F80E021602505D
:1030B000500FA36F000E0320A46F080EA325A56F69
:1030C000000EA421A66FA86FA5C0A7F0040EA96FDB
:1030D000AB6B990EAA6F25EC0CF0692AD8B46A2A5A
:1030E0006A50996FB36B99C0B2F0010EB56FB46BB3
:1030F00016EC0CF00150695C006E02506A5800C07A
:103100009AF0A86B120EA76F020EA96FAB6B990E07
:10311000AA6F25EC0CF0000C9D6B986B985103087E
:10312000D8A06ED0010E006E9851016E04E0D890C8
:103130000036012EFCD70050FF0A9C6F9C51010BFA
:10314000016EE8B002D0819801D081889C51020BB9
:10315000006ED890003200C001F000B002D0819A19
:1031600001D0818A9C51040B006E003200323F0E68
:10317000001600C001F000B002D0819C01D0818C0B
:103180009C51080B006E0032003200321F0E0016F8
:1031900000C001F000B002D0819E01D0818E9B6BF7
:1031A0009B51630802E39B2BFBD78350070B9A6F5D
:1031B000996B9951020822E3010E006E9951016E3C
:1031C00004E0D8900036012EFCD700509A1514E187
:1031D0009851030DF3CF9FF0020ED88099559F258B
:1031E0009E6F036A9E51F2CF9FF0F29E69EC00F051
:1031F0009FBFF28E9D6F04D0992BDBD7982B8ED773
:103200009DC001F0000C88DF01C097F0975303E0E8
:1032100083DF0152FDE197C001F0000C0201C551AE
:10322000B608C56F036AC6C2C9F2C68FD890C63346
:10323000C733C8330332023201320032C52FF6D70A
:10324000C9AF0BD0001E011E021E031E002AD8B4F7
:10325000012AD8B4022AD8B4032A0001000C006A5B
:10326000016A026A036A0201CD6BCE6BCF6BD06B31
:10327000CC51CB11CA11C9112CE0200ED16FD890BE
:10328000C537C637C737C837CD37CE37CF37D03732
:10329000CC51D05D08E1CB51CF5D05E1CA51CE5D87
:1032A00002E1C951CD5D0FE3C951CD5FCA51D8A02C
:1032B000CA3DCE5FCB51D8A0CB3DCF5FCC51D8A07B
:1032C000CC3DD05FD8800036013602360336D12F90
:1032D000D6D70000020EEA6ECD0EE96E0001000C9A
:1032E000E9509F6F9E51A16F1CE09DC0C8F29CC029
:1032F000C7F29BC0C6F29AC0C5F20201CC6BCB6B81
:10330000200ECA6F820EC96F0001F9EC14F003C0E1
:103310009DF002C09CF001C09BF000C09AF0A12F6C
:10332000E4D79DC0C8F29CC0C7F29BC0C6F29AC049
:10333000C5F274DF03C09DF002C09CF001C09BF099
:1033400000C09AF09DAF0DD09F079F8B9A1F9B1FC7
:103350009C1F9D1F9A2BD8B49B2BD8B49C2BD8B400
:103360009D2B3B0EA66F9A0EA56FCA0EA46FA36B82
:103370000A0EA16F9E51D8B49F2B9DC0C8F29CC06D
:10338000C7F29BC0C6F29AC0C5F2A6C0CCF2A5C0D7
:10339000CBF2A4C0CAF2A3C0C9F261DF0150EFCFE3
:1033A0009AF0ECCF9BF0ECCF9CF0ECCF9DF000526C
:1033B0000FE19E29A15D0CE09F510CE00F0BA15D78
:1033C00001E03BE29FBF39D09FBD04D0200E30D03A
:1033D000200E9F179FAB0DD09F9B9E51D8A49F0797
:1033E00000509F6F2D0EA76FE0EC09F09F51006E0B
:1033F0009F6B9E51A15D0BE100509F6F2E0EA76F3A
:10340000E0EC09F09F51006E200E9F17000E300E69
:103410009FAB0ED09F9B9E51D8A49F0700509F6FDB
:103420002D0EA76FE0EC09F09F51006E9F6B300EE0
:10343000002600C0A7F0E0EC09F0A6C0C8F2A5C0C5
:10344000C7F2A4C0C6F2A3C0C5F20201CC6BCB6B1D
:10345000CA6B0A0EC96F000102DF03C0A6F002C0EA
:10346000A5F001C0A4F000C0A3F0A12F86D7000CE6
:10347000956B4A0E386E7D6A9D8038504E0826E066
:103480003850530823E09551020820E0BCDE01C00B
:1034900038F038502F0814E23850390811E37D6AAB
:1034A00038C0A7F0E0EC09F0036A9551390FE96ED6
:1034B000000E0320EA6E38C0EFFF4A0E386E952BDF
:1034C0001FAE03D04E0E386E1F9ED7D79D9038503A
:1034D0004E0803E1640E016E0FD03850530803E12B
:1034E000650E016E09D0A96B390EA86F28EC0AF0A1
:1034F00001C096F096C001F0000C0201AD51016AC6
:10350000AC5D03E2ACC200F00CD0006A080EAE6FF6
:10351000AC370036AD51005CD8B0006E0136AE2F2E
:10352000F7D70001000C200E98A9300E996F97C0B4
:1035300000F097AF07D0001E002A00C097F02D0EB4
:10354000996F988F015097C0ACF2640E0201AD6F75
:103550000001D3DF00C097F0300E01249A6F97C0AE
:10356000ACF20A0E0201AD6F0001C7DF300E00247D
:103570009C6F300E01249B6F99C000F098A702D079
:1035800098AF989598B90BD098AF22D098B520D025
:1035900000C09AF098B31CD000C09BF019D0300E38
:1035A0009A5D16E100C09AF0200E996F98A704D09A
:1035B0009895988398AF9893300E9B5D09E100C071
:1035C0009BF0200E9A6F98A7F7D7989398AF989191
:1035D00098A504D099C0A7F0E0EC09F098A304D016
:1035E0009AC0A7F0E0EC09F098A104D09BC0A7F026
:1035F000E0EC09F09CC0A7F0E0EC09F0000C966B41
:103600003B0E956F986B976F996B5950995DD8B039
:1036100090D05950050DF3503B0FA46FA56BD8B057
:10362000A52B0A0EA45D956F000EA559966F5950F3
:10363000050DF3503B0FA46FA56BD8B0A52B050E5D
:10364000A45D976F000EA559986F9A6B9951595CBC
:10365000FF0F9A5D6CE295C0E9FF96C0EAFFEFCFDD
:103660009BF0010E9525E96E000E9621EA6EEFCFD4
:103670009CF097C0E9FF98C0EAFFEFCF9DF0010EE4
:103680009725E96E000E9821EA6EEFCF9EF09DC05F
:10369000ABF09EC0ACF09BC0ADF09CC0AEF075EC42
:1036A00015F001523AE096C003F095C0A4F096C020
:1036B000A5F0EA6A9F0EE96E96C0E2FF95C0E1FFB1
:1036C000050E016EE6CFEEFF012EFCD795C0A6F0E9
:1036D00096C0A7F098C003F097C0A8F098C0A9F0D2
:1036E00096C0EAFF95C0E9FF98C0E2FF97C0E1FFEE
:1036F000050E016EE6CFEEFF012EFCD798C003F059
:1037000097C0E9FF03C0EAFFE26A9F0EE16E050E73
:10371000016EE6CFEEFF012EFCD7FB0E9527D8A059
:103720009607FB0E9727D8A098079A2B8FD7992B2F
:103730006CD7F6EF34F05A6AA26B5B0EA16FB2EC55
:1037400013F05DC096F05CC097F0956B5950955D95
:1037500031E29551050DF3509B6B9A6F3B0E9A2504
:10376000E96E000E9B21EA6EEFCF98F09551050DA2
:10377000F3509B6B9A6F010E9A25016E000E9B21F0
:10378000036E01503B0FE96E000E0320EA6EEFCF8F
:1037900099F098C0ABF099C0ACF096C0ADF097C06E
:1037A000AEF075EC15F0015203E195C05AF002D06D
:1037B000952BCCD7F8EF34F09F6B59509F5D34E2D6
:1037C0009F51050DF350036A3B0F016E000E03225B
:1037D00001C0A0F003C0A1F0EA6A9A0EE96E03C02E
:1037E000E2FF01C0E1FF050E016EE6CFEEFF012E04
:1037F000FCD79AC095F09BC096F09CC097F09DC0F6
:1038000098F09EC099F0010E9F25080DF350180FF7
:10381000A16FA86BA76F050EA96FAB6B950EAA6F72
:1038200025EC0CF09F2BC9D7A86B110EA76F010ECA
:10383000A96FAB6B590EAA6F25EC0CF0EAEF35F0CF
:10384000C580C5B0FED7AE0E0201BA6F000140ECD4
:103850000BF0015001B003D00201B69102D0020179
:10386000B681B6A102D00001EBD7B2C2B8F2B96BF3
:10387000B2C2BAF2000140EC0BF00201B1C2B8F2E0
:10388000B96BB1C2BAF2000140EC0BF0C582C5B20F
:10389000FED7AF0E0201BA6F000140EC0BF002013F
:1038A000B76B010EB35DB75D13E2B5C203F0B4C2EE
:1038B000E9FFB5C2EAFF010E006E00016DEC13F0E6
:1038C00001C0EFFF0201B42BD8B4B52BB72BE9D759
:1038D000B5C203F0B4C2E9FFB5C2EAFF006A000155
:1038E0006DEC13F001C0EFFFC584C5B4FED7000C2A
:1038F0000150AAC2ACF2640E0201AD6F0001FDDD01
:1039000000C0AAF20150300E08E10201ABA30ED0B4
:10391000ABB70CD0ABB9200E04D00201AB97AB997A
:10392000AB81012601509EA8FED7AD6EAAC2ACF2B3
:103930000A0EAD6F0001E1DD00C0AAF20150300EA9
:1039400008E10201ABB70BD0ABA109D0ABB9200E97
:103950000001012601509EA8FED7AD6E0201300E77
:10396000AA27AA519EA8FED7AD6E0001000CE9500F
:103970000201BD6FBC51BF6F1CE0BBC2C8F2BAC22E
:10398000C7F2B9C2C6F2B8C2C5F2CC6BCB6B200E7F
:10399000CA6F820EC96F0001F9EC14F003C0BBF2CC
:1039A00002C0BAF201C0B9F200C0B8F20201BF2FE2
:1039B000E4D7BBC2C8F2BAC2C7F2B9C2C6F2B8C233
:1039C000C5F200012BDC03C0BBF202C0BAF201C099
:1039D000B9F200C0B8F20201BBAF0DD0BD07BD8B7C
:1039E000B81FB91FBA1FBB1FB82BD8B4B92BD8B496
:1039F000BA2BD8B4BB2B3B0EC46F9A0EC36FCA0E42
:103A0000C26FC16B0A0EBF6FBC51D8B4BD2BBBC215
:103A1000C8F2BAC2C7F2B9C2C6F2B8C2C5F2C4C2CD
:103A2000CCF2C3C2CBF2C2C2CAF2C1C2C9F2000117
:103A300016DC0150EFCFB8F2ECCFB9F2ECCFBAF20E
:103A4000ECCFBBF2005213E10201BC29BF5DD8A448
:103A500002D000010CD0BD510DE00F0BBF5D01E0A5
:103A60003CE2BDBF3AD0BDBD05D0200E31D0200E06
:103A70000201BD17BDAB0DD0BD9BBC51D8A4BD0785
:103A80000050BD6F2D0E9EA8FED7AD6EBD51006ECD
:103A9000BD6BBC51BF5D0BE10050BD6F2E0E9EA8EB
:103AA000FED7AD6EBD51006E200EBD17000E300E5C
:103AB000BDAB0ED0BD9BBC51D8A4BD070050BD6F9F
:103AC0002D0E9EA8FED7AD6EBD51006EBD6B300EA3
:103AD000002600509EA8FED7AD6EC4C2C8F2C3C275
:103AE000C7F2C2C2C6F2C1C2C5F2CC6BCB6BCA6B05
:103AF0000A0EC96F00012FEC19F003C0C4F202C016
:103B0000C3F201C0C2F200C0C1F20201BF2F7FD7D1
:103B10000001000CEACFB2F2E9CFB1F20201AB39F9
:103B2000F009AD6FAD27E20FAE6F320FB06FAB5142
:103B30000F0BAE27AE27B027E90FAF6FAF27AF2728
:103B4000AA390F0BAF27B027AF37B037B01FB03748
:103B5000AA510F0BB027AD37070EAC6F0A0EAF0797
:103B6000B027FDE3AE07AF27FDE3AD07AE27FDE3CA
:103B7000AC07AD27FDE3020EEA6EAC0EE96E070E50
:103B8000B115B19DE926B00EE95CD8B4B18DEF5006
:103B9000006E08E1B1BD06D0B1B90CD0B1B702D00A
:103BA000200E03D0B187B199300E002600509EA898
:103BB000FED7AD6EEE50B1ADE6D70001000C1F0E82
:103BC000DE6FDEC0DCF0DCC0DAF0DAC0D9F0D9C0DC
:103BD000D7F0D7C0D5F0D5C0D3F01C0ED46F1E0ED1
:103BE000DD6FDDC0DBF0DBC0D8F0D8C0D6F0956B60
:103BF00095510B080FE39551040DF350036AA30F81
:103C0000E96E000E0320EA6EEF6AEC6AEC6AEC6A79
:103C1000952BEED7956B95510B080FE39551040D3D
:103C2000F350036AE70FE96E000E0320EA6EEF6AB5
:103C3000EC6AEC6AEC6A952BEED7956B955103080C
:103C400023E3966B96510B081DE39551300DF3500D
:103C50000201AA6BA96F00019651040DF350036A8B
:103C60000201A925016EAA51032201501B0FE96E22
:103C7000010E0320EA6EEF6AEC6AEC6AEC6A00015E
:103C8000962BE0D7952BDAD7956B9551030823E354
:103C9000966B96510B081DE39551300DF3500201C0
:103CA000AA6BA96F00019651040DF350036A02013B
:103CB000A925016EAA5103220150DB0FE96E010E06
:103CC0000320EA6EEF6AEC6AEC6AEC6A0001962B5C
:103CD000E0D7952BDAD70201A66BA6C2A5F2A5C242
:103CE000A4F2A86BA76B9B6B0001E26BE16BE06B2E
:103CF000DF6BE66BE56BE46BE36B0101186B176B35
:103D00001A6B196B0201A96BA951000132EC05F085
:103D1000000907E00201A92B9EA8FED7AD6EF4D7DB
:103D200000010201A96BA95100014AEC05F000094C
:103D300007E00201A92B9EA8FED7AD6EF4D70001C3
:103D40000201A96BA951000162EC05F0000907E02E
:103D50000201A92B9EA8FED7AD6EF4D70001020187
:103D6000A96BA9510001ACEC05F0000907E00201C4
:103D7000A92B9EA8FED7AD6EF4D70001956B6A52B1
:103D800005E16950955DD8B0A9EF22F00201AA6B58
:103D900095C0A9F2D890A935AB6FAA35AC6FAB35F9
:103DA000026EAC35036E0236033602360336F80E69
:103DB00002160250500FAD6F000E0320AE6FB26FAF
:103DC000ADC2B1F2080EB36FB56B970EB46F0001C0
:103DD00037DD0201AA6B95C0A9F2D890A935AB6F67
:103DE000AA35AC6FAB35026EAC35036E02360336C6
:103DF00002360336F80E02160250500FAD6F000E59
:103E00000320AE6F080EAD25AF6F000EAE21B06F70
:103E1000B26FAFC2B1F2040EB36FB56B9F0EB46F49
:103E200000010EDD97510201A45D0BE100019851E4
:103E30000201A55D06E100019F510201A65DD8B413
:103E4000BBD1A4536AE0A1C2B0F2A0C2AFF200019C
:103E500051EC13F0D892E6C0ACF2E5C0ABF2E4C08E
:103E6000AAF2E3C0A9F203C0B0F202C0AFF201C0EF
:103E7000AEF200C0ADF214EC12F003C0E6F002C0E6
:103E8000E5F001C0E4F000C0E3F0010E0201A55D21
:103E9000040DF350036AA30FE96E000E0320EA6ECF
:103EA000E3C0EFFFE4C0ECFFE5C0ECFFE6C0ECFFD1
:103EB000A3C2B0F2A2C2AFF2000151EC13F0D8924B
:103EC000E2C0ACF2E1C0ABF2E0C0AAF2DFC0A9F2FE
:103ED00003C0B0F202C0AFF201C0AEF200C0ADF25A
:103EE00014EC12F003C0E2F002C0E1F001C0E0F017
:103EF00000C0DFF0010E0201A55D040DF350036A5E
:103F0000E70FE96E000E0320EA6EDFC0EFFFE0C0AE
:103F1000ECFFE1C0ECFFE2C0ECFF00019F510201A9
:103F2000A65DD8B43CD1A653D8B42FD10001966B6E
:103F300096510B08D8A01ED19651040DF350036A78
:103F4000A30F016E000E032201C0A9F203C0AAF262
:103F500000019651040DF350036AA30FE96E000EA1
:103F60000320EA6EEFCFABF2ECCFACF2ECCFADF2C8
:103F7000ECCFAEF2036A9651D30FE96E000E032028
:103F8000EA6EEF500201B06BAF6F000151EC13F01D
:103F9000AEC2B2F2ADC2B1F2ACC2B0F2ABC2AFF2DD
:103FA00003C0B6F202C0B5F201C0B4F200C0B3F271
:103FB0002CEC10F0AAC2EAFFA9C2E9FF00C0EFFF93
:103FC00001C0ECFF02C0ECFF03C0ECFF9651040DF2
:103FD000F350036AE70F016E000E032201C0A9F23D
:103FE00003C0AAF200019651040DF350036AE70FD3
:103FF000E96E000E0320EA6EEFCFABF2ECCFACF22D
:10400000ECCFADF2ECCFAEF2036A9651D30FE96E6E
:10401000000E0320EA6EEF500201B06BAF6F00019B
:1040200051EC13F0AEC2B2F2ADC2B1F2ACC2B0F21A
:10403000ABC2AFF203C0B6F202C0B5F201C0B4F237
:1040400000C0B3F22CEC10F0AAC2EAFFA9C2E9FF4B
:1040500000C0EFFF01C0ECFF02C0ECFF03C0ECFFAB
:1040600002019B51300DF350AA6BA96F00019651CC
:10407000040DF350036A0201A925016EAA5103221F
:1040800001501B0F016E010E032201C0ABF203C0F1
:10409000ACF200019651040DF350036AA30FE96ED0
:1040A000000E0320EA6EEFCF00F0ECCF01F0ECCF72
:1040B00002F0ECCF03F0ACC2EAFFABC2E9FF00C0F4
:1040C000EFFF01C0ECFF02C0ECFF03C0ECFF0201F8
:1040D0009B51300DF350AA6BA96F00019651040D4E
:1040E000F350036A0201A925016EAA51032201506F
:1040F000DB0F016E010E032201C0ABF203C0ACF274
:1041000000019651040DF350036AE70FE96E000EAB
:104110000320EA6EEFCF00F0ECCF01F0ECCF02F01D
:10412000ECCF03F0ACC2EAFFABC2E9FF00C0EFFF87
:1041300001C0ECFF02C0ECFF03C0ECFF9651040D80
:10414000F350036AA30FE96E000E0320EA6EEF6AD4
:10415000EC6AEC6AEC6A9651040DF350036AE70FBF
:10416000E96E000E0320EA6EEF6AEC6AEC6AEC6A14
:10417000962BDED6036A02019B519C0FE96E020E5C
:104180000320EA6EA6C2EFFF9B2B00019F51030B99
:1041900003E11D0ED46F02D01C0ED46F020197C034
:1041A000A4F298C0A5F29FC0A6F2A72BD8B4A82B62
:1041B000A16BA06BA36BA26B0001A0510201A02711
:1041C000000EA1230001A1510201A227000EA3238A
:1041D0000001A05101011727000E18230001A15171
:1041E00001011927000E1A230001975109080FE356
:1041F0000201A96BA9510001F8EC05F0000907E0E4
:104200000201A92B9EA8FED7AD6EF4D7000197C07E
:10421000AAF21B0E0201AB6F000178EC1CF02F0E0E
:104220009EA8FED7AD6E985109080FE30201A96B55
:10423000A951000124EC05F0000907E00201A92BB7
:104240009EA8FED7AD6EF4D7000198C0AAF21B0E4F
:104250000201AB6F000178EC1CF02F0E9EA8FED778
:10426000AD6E9F5109080FE30201A96BA95100012E
:1042700024EC05F0000907E00201A92B9EA8FED757
:10428000AD6EF4D700019FC0AAF21B0E0201AB6F06
:10429000000178EC1CF0200E9EA8FED7AD6E200E1B
:1042A0009EA8FED7AD6E995109080FE30201A96BD4
:1042B000A951000124EC05F0000907E00201A92B37
:1042C0009EA8FED7AD6EF4D7000199C0AAF21B0ECE
:1042D0000201AB6F000178EC1CF03A0E9EA8FED7ED
:1042E000AD6E9A5109080FE30201A96BA9510001B3
:1042F00024EC05F0000907E00201A92B9EA8FED7D7
:10430000AD6EF4D700019AC0AAF21B0E0201AB6F8A
:10431000000178EC1CF00A0E0201A96F200E9EA885
:10432000FED7AD6EA92FFAD700019B5109080FE304
:104330000201A96BA9510001F8EC05F0000907E0A2
:104340000201A92B9EA8FED7AD6EF4D700019BC039
:10435000AAF21B0E0201AB6F000178EC1CF02E0ECE
:104360009EA8FED7AD6E9C5109080FE30201A96B10
:10437000A951000124EC05F0000907E00201A92B76
:104380009EA8FED7AD6EF4D700019CC0AAF21B0E0A
:104390000201AB6F000178EC1CF0DF0E9EA8FED787
:1043A000AD6E430E9EA8FED7AD6E0D0E0201A96F35
:1043B000200E9EA8FED7AD6EA92FFAD700019D5101
:1043C00009080FE30201A96BA9510001F8EC05F0FF
:1043D000000907E00201A92B9EA8FED7AD6EF4D715
:1043E00000019DC0AAF21B0E0201AB6F000178EC28
:1043F0001CF02E0E9EA8FED7AD6E9E5109080FE34D
:104400000201A96BA951000124EC05F0000907E0A5
:104410000201A92B9EA8FED7AD6EF4D700019EC065
:10442000AAF21B0E0201AB6F000178EC1CF0DF0E4C
:104430009EA8FED7AD6E430E9EA8FED7AD6E0E0EA3
:104440000201A96F200E9EA8FED7AD6EA92FFAD744
:10445000A2C0AAF21B0EAB6F000178EC1CF0DF0EBD
:104460009EA8FED7AD6E430E9EA8FED7AD6E120E6F
:104470000201AA6F200E9EA8FED7AD6EAA2FFAD712
:104480000001A05163080FE30201A96BA9510001CB
:10449000F8EC05F0000907E00201A92B9EA8FED761
:1044A000AD6EF4D70001A05109080FE30201A96B1A
:1044B000A9510001F8EC05F0000907E00201A92B61
:1044C0009EA8FED7AD6EF4D70001A0C0AAF21B0EC5
:1044D0000201AB6F000178EC1CF0140E0201A96F11
:1044E000200E9EA8FED7AD6EA92FFAD70001A151CC
:1044F00063080FE30201A96BA9510001F8EC05F074
:10450000000907E00201A92B9EA8FED7AD6EF4D7E3
:104510000001A15109080FE30201A96BA951000193
:10452000F8EC05F0000907E00201A92B9EA8FED7D0
:10453000AD6EF4D70001A1C0AAF21B0E0201AB6F51
:10454000000178EC1CF00D0E9EA8FED7AD6E952BE9
:1045500016D40201A4536AE0A1C2B0F2A0C2AFF225
:10456000000151EC13F0D892E6C0ACF2E5C0ABF21A
:10457000E4C0AAF2E3C0A9F203C0B0F202C0AFF2F5
:1045800001C0AEF200C0ADF214EC12F003C0E6F0D0
:1045900002C0E5F001C0E4F000C0E3F0010E02014A
:1045A000A55D040DF350036AA30FE96E000E03200E
:1045B000EA6EE3C0EFFFE4C0ECFFE5C0ECFFE6C04D
:1045C000ECFFA3C2B0F2A2C2AFF2000151EC13F0B3
:1045D000D892E2C0ACF2E1C0ABF2E0C0AAF2DFC018
:1045E000A9F203C0B0F202C0AFF201C0AEF200C047
:1045F000ADF214EC12F003C0E2F002C0E1F001C031
:10460000E0F000C0DFF0010E0201A55D040DF350E3
:10461000036AE70FE96E000E0320EA6EDFC0EFFFCA
:10462000E0C0ECFFE1C0ECFFE2C0ECFFA653D8B461
:1046300015D10001966B96510B08D8A004D1965164
:10464000040DF350036AA30F016E000E032201C094
:10465000A9F203C0AAF200019651040DF350036AB7
:10466000A30FE96E000E0320EA6EEFCFABF2ECCFA2
:10467000ACF2ECCFADF2ECCFAEF2036A9651D30FB1
:10468000E96E000E0320EA6EEF500201B06BAF6FCF
:10469000000151EC13F0AEC2B2F2ADC2B1F2ACC245
:1046A000B0F2ABC2AFF203C0B6F202C0B5F201C0C5
:1046B000B4F200C0B3F22CEC10F0AAC2EAFFA9C217
:1046C000E9FF00C0EFFF01C0ECFF02C0ECFF03C038
:1046D000ECFF9651040DF350036AE70F016E000ED4
:1046E000032201C0A9F203C0AAF200019651040DF1
:1046F000F350036AE70FE96E000E0320EA6EEFCF76
:10470000ABF2ECCFACF2ECCFADF2ECCFAEF2036A91
:104710009651D30FE96E000E0320EA6EEF500201AE
:10472000B06BAF6F000151EC13F0AEC2B2F2ADC28C
:10473000B1F2ACC2B0F2ABC2AFF203C0B6F202C08B
:10474000B5F201C0B4F200C0B3F22CEC10F0AAC272
:10475000EAFFA9C2E9FF00C0EFFF01C0ECFF02C001
:10476000ECFF03C0ECFF02019B51300DF350AA6B2C
:10477000A96F00019651040DF350036A0201A925A7
:10478000016EAA51032201501B0F016E010E03227C
:1047900001C0ABF203C0ACF200019651040DF3501E
:1047A000036AA30FE96E000E0320EA6EEFCF00F05C
:1047B000ECCF01F0ECCF02F0ECCF03F0ACC2EAFF9B
:1047C000ABC2E9FF00C0EFFF01C0ECFF02C0ECFF8D
:1047D00003C0ECFF02019B51300DF350AA6BA96F8F
:1047E00000019651040DF350036A0201A925016EE0
:1047F000AA5103220150DB0F016E010E032201C0FA
:10480000ABF203C0ACF200019651040DF350036A01
:10481000E70FE96E000E0320EA6EEFCF00F0ECCF59
:1048200001F0ECCF02F0ECCF03F0ACC2EAFFABC278
:10483000E9FF00C0EFFF01C0ECFF02C0ECFF03C0C6
:10484000ECFF962BF8D6036A02019B519C0FE96E90
:10485000020E0320EA6EA6C2EFFF9B2BA8C2B0F2A5
:10486000A7C2AFF2000151EC13F0E6C0B2F2E5C00E
:10487000B1F2E4C0B0F2E3C0AFF203C0B6F202C0DE
:10488000B5F201C0B4F200C0B3F22CEC10F003C0DA
:10489000E6F002C0E5F001C0E4F000C0E3F0A8C219
:1048A000B0F2A7C2AFF251EC13F0E2C0B2F2E1C035
:1048B000B1F2E0C0B0F2DFC0AFF203C0B6F202C0A6
:1048C000B5F201C0B4F200C0B3F22CEC10F003C09A
:1048D000E2F002C0E1F001C0E0F000C0DFF0020150
:1048E000A96BA951000106EC06F0000907E00201DE
:1048F000A92B9EA8FED7AD6EF4D700010201A96BCB
:10490000A951000152EC06F0000907E00201A92BB1
:104910009EA8FED7AD6EF4D700010201A96BA95184
:1049200000016FEC06F0000907E00201A92B9EA828
:10493000FED7AD6EF4D700010201A96BA9510001A9
:1049400081EC06F0000907E00201A92B9EA8FED722
:10495000AD6EF4D700010201A96BA9510001A0ECD2
:1049600006F0000907E00201A92B9EA8FED7AD6E54
:10497000F4D700010201A96BA9510001BBEC06F0BC
:10498000000907E00201A92B9EA8FED7AD6EF4D75F
:1049900000010201A96BA9510001ACEC05F000096E
:1049A00007E00201A92B9EA8FED7AD6EF4D7000147
:1049B000385031080EE0385032080BE038503308D8
:1049C00008E03850300805E09EAAFED7AECF38F098
:1049D000EFD7300E385CFC0FD8B0A9EF2BF0040FE6
:1049E000ABEF2BF00201A96BA9510001D6EC06F048
:1049F000000907E00201A92B9EA8FED7AD6EF4D7EF
:104A00000001A9EF2BF04A0E386E0201A96BA951E3
:104A10000001EAEC06F00201A92B006E00509EA8EE
:104A2000FED7AD6E300EA95DF2E1020EE96EE6C072
:104A3000BBF2E5C0BAF2E4C0B9F2E3C0B8F2BC6FB1
:104A40000001B7EC1CF0350E0201AA6FAA5100015B
:104A5000EAEC06F00201AA2B006E00509EA8FED7D9
:104A6000AD6E3F0EAA5DF2E1A96BA951000117ECF2
:104A700007F00201A92B006E00509EA8FED7AD6E74
:104A8000310EA95DF2E1020EE96EE2C0BBF2E1C0B7
:104A9000BAF2E0C0B9F2DFC0B8F2BC6F0001B7EC07
:104AA0001CF0360E0201AA6FAA51000117EC07F0A4
:104AB0000201AA2B006E00509EA8FED7AD6E400EDC
:104AC000AA5DF2E100010BD7A9EF2BF04A0E386E78
:104AD0000201A96BA951000145EC07F00201A92BC5
:104AE000006E00509EA8FED7AD6E280EA95DF2E1C3
:104AF000100EE96E18C1ABF217C1AAF200018AECE0
:104B00001DF02B0E0201AA6FAA51000145EC07F01F
:104B10000201AA2B006E00509EA8FED7AD6E350E86
:104B2000AA5DF2E1A96BA95100016DEC07F0020149
:104B3000A92B006E00509EA8FED7AD6E290EA95D70
:104B4000F2E1100EE96E1AC1ABF219C1AAF200012E
:104B50008AEC1DF02C0E0201AA6FAA5100016DEC27
:104B600007F00201AA2B006E00509EA8FED7AD6E82
:104B7000360EAA5DF2E10001B2D6A9EF2BF04A0E83
:104B8000386E956B02019B510001955DD8B0A6EF80
:104B90002BF00201A96BA951000196EC07F0000966
:104BA00007E00201A92B9EA8FED7AD6EF4D7000145
:104BB000036A95519C0FE96E020E0320EA6EEF50D6
:104BC00009080FE30201A96BA951000124EC05F0CB
:104BD000000907E00201A92B9EA8FED7AD6EF4D70D
:104BE0000001036A95519C0FE96E020E0320EA6EE4
:104BF000EFCFA9F2A9C2AAF21B0E0201AB6F00010E
:104C000078EC1CF00D0E9EA8FED7AD6E0201A96BCC
:104C1000A9510001A5EC07F0000907E00201A92B4A
:104C20009EA8FED7AD6EF4D700010201A96BA95171
:104C30000001EDEC07F0000907E00201A92B9EA896
:104C4000FED7AD6EF4D700019551300DF35002013F
:104C5000AA6BA96F1B0EA925E96E010EAA21EA6EA7
:104C6000EFCFABF2ECCFACF2ECCFADF2ECCFAEF2DB
:104C700000019551300DF3500201B06BAF6FDB0EA8
:104C8000AF25E96E010EB021EA6EEFCFB1F2ECCFA5
:104C9000B2F2ECCFB3F2ECCFB4F2B56BB551000188
:104CA00035EC08F00201B52B006E00509EA8FED72F
:104CB000AD6E050EB55DF2E11E0EB66F200E9EA81C
:104CC000FED7AD6EB62FFAD7020EE96EAEC2BBF2BA
:104CD000ADC2BAF2ACC2B9F2ABC2B8F2BC6F00015D
:104CE000B7EC1CF0350E0201B76F200E9EA8FED760
:104CF000AD6EB72FFAD7020EE96EB4C2BBF2B3C2E3
:104D0000BAF2B2C2B9F2B1C2B8F2BC6F0001B7ECEC
:104D10001CF00D0E9EA8FED7AD6E9551300DF350D0
:104D20000201AA6BA96F040EA925016E000EAA212B
:104D3000036E01501B0FE96E010E0320EA6EEFCFE8
:104D4000ABF2ECCFACF2ECCFADF2ECCFAEF20001B7
:104D50009551300DF3500201B06BAF6F040EAF25CB
:104D6000016E000EB021036E0150DB0FE96E010EE3
:104D70000320EA6EEFCFB1F2ECCFB2F2ECCFB3F298
:104D8000ECCFB4F2B56BB55100014BEC08F0020169
:104D9000B52B006E00509EA8FED7AD6E070EB55D18
:104DA000F2E11C0EB66F200E9EA8FED7AD6EB62F98
:104DB000FAD7020EE96EAEC2BBF2ADC2BAF2ACC215
:104DC000B9F2ABC2B8F2BC6F0001B7EC1CF0350E03
:104DD0000201B76F200E9EA8FED7AD6EB72FFAD78F
:104DE000020EE96EB4C2BBF2B3C2BAF2B2C2B9F2F9
:104DF000B1C2B8F2BC6F0001B7EC1CF00D0E9EA85A
:104E0000FED7AD6E9551300DF3500201AA6BA96F1C
:104E1000080EA925016E000EAA21036E01501B0F7A
:104E2000E96E010E0320EA6EEFCFABF2ECCFACF2ED
:104E3000ECCFADF2ECCFAEF200019551300DF35056
:104E40000201B06BAF6F080EAF25016E000EB021EE
:104E5000036E0150DB0FE96E010E0320EA6EEFCF07
:104E6000B1F2ECCFB2F2ECCFB3F2ECCFB4F2B56B5F
:104E7000B551000162EC08F00201B52B006E005044
:104E80009EA8FED7AD6E050EB55DF2E11E0EB66FA3
:104E9000200E9EA8FED7AD6EB62FFAD7020EE96E91
:104EA000AEC2BBF2ADC2BAF2ACC2B9F2ABC2B8F29A
:104EB000BC6F0001B7EC1CF0350E0201B76F200E7D
:104EC0009EA8FED7AD6EB72FFAD7020EE96EB4C218
:104ED000BBF2B3C2BAF2B2C2B9F2B1C2B8F2BC6F9D
:104EE0000001B7EC1CF00D0E9EA8FED7AD6E9551DB
:104EF000300DF3500201AA6BA96F0C0EA925016EAB
:104F0000000EAA21036E01501B0FE96E010E032053
:104F1000EA6EEFCFABF2ECCFACF2ECCFADF2ECCF70
:104F2000AEF200019551300DF3500201B06BAF6F3E
:104F30000C0EAF25016E000EB021036E0150DB0F89
:104F4000E96E010E0320EA6EEFCFB1F2ECCFB2F2C0
:104F5000ECCFB3F2ECCFB4F2B56BB551000178EC05
:104F600008F00201B52B006E00509EA8FED7AD6E72
:104F7000050EB55DF2E11E0EB66F200E9EA8FED79F
:104F8000AD6EB62FFAD7020EE96EAEC2BBF2ADC25D
:104F9000BAF2ACC2B9F2ABC2B8F2BC6F0001B7EC66
:104FA0001CF0350E0201B76F200E9EA8FED7AD6E25
:104FB000B72FFAD7020EE96EB4C2BBF2B3C2BAF28F
:104FC000B2C2B9F2B1C2B8F2BC6F0001B7EC1CF0CA
:104FD0000D0E9EA8FED7AD6E9551300DF350020117
:104FE000AA6BA96F100EA925016E000EAA21036EEF
:104FF00001501B0FE96E010E0320EA6EEFCFABF2FA
:10500000ECCFACF2ECCFADF2ECCFAEF200019551AB
:10501000300DF3500201B06BAF6F100EAF25016E73
:10502000000EB021036E0150DB0FE96E010E03206C
:10503000EA6EEFCFB1F2ECCFB2F2ECCFB3F2ECCF3D
:10504000B4F2B56BB55100018EEC08F00201B52B3E
:10505000006E00509EA8FED7AD6E040EB55DF2E165
:105060001F0EB66F200E9EA8FED7AD6EB62FFAD7D4
:10507000020EE96EAEC2BBF2ADC2BAF2ACC2B9F278
:10508000ABC2B8F2BC6F0001B7EC1CF0350E0201E8
:10509000B76F200E9EA8FED7AD6EB72FFAD7020EBF
:1050A000E96EB4C2BBF2B3C2BAF2B2C2B9F2B1C2D3
:1050B000B8F2BC6F0001B7EC1CF00D0E9EA8FED735
:1050C000AD6E9551300DF3500201AA6BA96F140E0D
:1050D000A925016E000EAA21036E01501B0FE96E77
:1050E000010E0320EA6EEFCFABF2ECCFACF2ECCFC7
:1050F000ADF2ECCFAEF200019551300DF35002014C
:10510000B06BAF6F140EAF25016E000EB021036EB1
:105110000150DB0FE96E010E0320EA6EEFCFB1F212
:10512000ECCFB2F2ECCFB3F2ECCFB4F2B56BB55139
:105130000001A3EC08F00201B52B006E00509EA800
:10514000FED7AD6E050EB55DF2E11E0EB66F200EF8
:105150009EA8FED7AD6EB62FFAD7020EE96EAEC28C
:10516000BBF2ADC2BAF2ACC2B9F2ABC2B8F2BC6F1C
:105170000001B7EC1CF0350E0201B76F200E9EA89F
:10518000FED7AD6EB72FFAD7020EE96EB4C2BBF2EE
:10519000B3C2BAF2B2C2B9F2B1C2B8F2BC6F000186
:1051A000B7EC1CF00D0E9EA8FED7AD6E9551300DDC
:1051B000F3500201AA6BA96F180EA925016E000E0B
:1051C000AA21036E01501B0FE96E010E0320EA6E47
:1051D000EFCFABF2ECCFACF2ECCFADF2ECCFAEF266
:1051E00000019551300DF3500201B06BAF6F180EF6
:1051F000AF25016E000EB021036E0150DB0FE96E8A
:10520000010E0320EA6EEFCFB1F2ECCFB2F2ECCF99
:10521000B3F2ECCFB4F2B56BB5510001B9EC08F0C4
:105220000201B52B006E00509EA8FED7AD6E050E94
:10523000B55DF2E11E0EB66F200E9EA8FED7AD6ED4
:10524000B62FFAD7020EE96EAEC2BBF2ADC2BAF209
:10525000ACC2B9F2ABC2B8F2BC6F0001B7EC1CF043
:10526000350E0201B76F200E9EA8FED7AD6EB72F88
:10527000FAD7020EE96EB4C2BBF2B3C2BAF2B2C23E
:10528000B9F2B1C2B8F2BC6F0001B7EC1CF00D0E60
:105290009EA8FED7AD6E9551300DF3500201AA6B5A
:1052A000A96F1C0EA925016E000EAA21036E0150E4
:1052B0001B0FE96E010E0320EA6EEFCFABF2ECCFCD
:1052C000ACF2ECCFADF2ECCFAEF200019551300D67
:1052D000F3500201B06BAF6F1C0EAF25016E000ED4
:1052E000B021036E0150DB0FE96E010E0320EA6E60
:1052F000EFCFB1F2ECCFB2F2ECCFB3F2ECCFB4F22D
:10530000B56BB5510001CFEC08F00201B52B006E72
:1053100000509EA8FED7AD6E060EB55DF2E11D0EE3
:10532000B66F200E9EA8FED7AD6EB62FFAD7020E2E
:10533000E96EAEC2BBF2ADC2BAF2ACC2B9F2ABC258
:10534000B8F2BC6F0001B7EC1CF0350E0201B76F6C
:10535000200E9EA8FED7AD6EB72FFAD7020EE96ECB
:10536000B4C2BBF2B3C2BAF2B2C2B9F2B1C2B8F2BD
:10537000BC6F0001B7EC1CF00D0E9EA8FED7AD6E01
:105380009551300DF3500201AA6BA96F200EA9258B
:10539000016E000EAA21036E01501B0FE96E010E73
:1053A0000320EA6EEFCFABF2ECCFACF2ECCFADF274
:1053B000ECCFAEF200019551300DF3500201B06B0D
:1053C000AF6F200EAF25016E000EB021036E0150AD
:1053D000DB0FE96E010E0320EA6EEFCFB1F2ECCFE6
:1053E000B2F2ECCFB3F2ECCFB4F2B56BB551000131
:1053F000E5EC08F00201B52B006E00509EA8FED728
:10540000AD6E0A0EB55DF2E1190EB66F200E9EA8C4
:10541000FED7AD6EB62FFAD7020EE96EAEC2BBF262
:10542000ADC2BAF2ACC2B9F2ABC2B8F2BC6F000105
:10543000B7EC1CF0350E0201B76F200E9EA8FED708
:10544000AD6EB72FFAD7020EE96EB4C2BBF2B3C28B
:10545000BAF2B2C2B9F2B1C2B8F2BC6F0001B7EC95
:105460001CF00D0E9EA8FED7AD6E9551300DF35079
:105470000201AA6BA96F240EA925016E000EAA21B4
:10548000036E01501B0FE96E010E0320EA6EEFCF91
:10549000ABF2ECCFACF2ECCFADF2ECCFAEF2000160
:1054A0009551300DF3500201B06BAF6F240EAF2554
:1054B000016E000EB021036E0150DB0FE96E010E8C
:1054C0000320EA6EEFCFB1F2ECCFB2F2ECCFB3F241
:1054D000ECCFB4F2B56BB5510001FDEC08F0020160
:1054E000B52B006E00509EA8FED7AD6E070EB55DC1
:1054F000F2E11C0EB66F200E9EA8FED7AD6EB62F41
:10550000FAD7020EE96EAEC2BBF2ADC2BAF2ACC2BD
:10551000B9F2ABC2B8F2BC6F0001B7EC1CF0350EAB
:105520000201B76F200E9EA8FED7AD6EB72FFAD737
:10553000020EE96EB4C2BBF2B3C2BAF2B2C2B9F2A1
:10554000B1C2B8F2BC6F0001B7EC1CF00D0E9EA802
:10555000FED7AD6E9551300DF3500201AA6BA96FC5
:10556000280EA925016E000EAA21036E01501B0F03
:10557000E96E010E0320EA6EEFCFABF2ECCFACF296
:10558000ECCFADF2ECCFAEF200019551300DF350FF
:105590000201B06BAF6F280EAF25016E000EB02177
:1055A000036E0150DB0FE96E010E0320EA6EEFCFB0
:1055B000B1F2ECCFB2F2ECCFB3F2ECCFB4F2B56B08
:1055C000B551000114EC09F00201B52B006E00503A
:1055D0009EA8FED7AD6E090EB55DF2E11A0EB66F4C
:1055E000200E9EA8FED7AD6EB62FFAD7020EE96E3A
:1055F000AEC2BBF2ADC2BAF2ACC2B9F2ABC2B8F243
:10560000BC6F0001B7EC1CF0350E0201B76F200E25
:105610009EA8FED7AD6EB72FFAD7020EE96EB4C2C0
:10562000BBF2B3C2BAF2B2C2B9F2B1C2B8F2BC6F45
:105630000001B7EC1CF00D0E9EA8FED7AD6E955183
:10564000300DF3500201AA6BA96F2C0EA925016E33
:10565000000EAA21036E01501B0FE96E010E0320FC
:10566000EA6EEFCFABF2ECCFACF2ECCFADF2ECCF19
:10567000AEF200019551300DF3500201B06BAF6FE7
:105680002C0EAF25016E000EB021036E0150DB0F12
:10569000E96E010E0320EA6EEFCFB1F2ECCFB2F269
:1056A000ECCFB3F2ECCFB4F2B56BB55100012CECFA
:1056B00009F00201B52B006E00509EA8FED7AD6E1A
:1056C000090EB55DF2E11A0EB66F200E9EA8FED748
:1056D000AD6EB62FFAD7020EE96EAEC2BBF2ADC206
:1056E000BAF2ACC2B9F2ABC2B8F2BC6F0001B7EC0F
:1056F0001CF0350E0201B76F200E9EA8FED7AD6ECE
:10570000B72FFAD7020EE96EB4C2BBF2B3C2BAF237
:10571000B2C2B9F2B1C2B8F2BC6F0001B7EC1CF072
:105720000D0E9EA8FED7AD6E0201A96BA951000116
:10573000A5EC07F0000907E00201A92B9EA8FED7FF
:10574000AD6EF4D70001952BC2EF25F06FEF24F07A
:1057500000D0ACEF35F0F2CF0EF0F29EE8247B0FD4
:10576000F66E570EF76ED8B0F72A0A00F550FA6EAB
:105770000800F5500EBEF28EF96EE449064ACC4A96
:105780007E4B0C0E016EC250C30B0110C26E0400A2
:10579000060E006E002EFED7C282C2B2FED7C450E3
:1057A0000201B06BAF6F000151EC13F00201C86B46
:1057B000C76B480EC66F850EC56F03C0CCF202C022
:1057C000CBF201C0CAF200C0C9F20001F9EC14F03A
:1057D00000C09DF001C09EF002C09FF003C0A0F089
:1057E00003C0B2F202C0B1F201C0B0F200C0AFF229
:1057F0000201B66BB56B7F0EB46F860EB36F0001FE
:105800002CEC10F0D8920201AC6BAB6BAA6BA96BBD
:1058100003C0B0F202C0AFF201C0AEF200C0ADF200
:10582000000114EC12F003C098F002C097F001C020
:1058300096F000C095F0000E016EC250C30B01102F
:10584000C26E0400060E006E002EFED7C282C2B2E7
:10585000FED7C4500201B06BAF6F000151EC13F0E2
:105860000201C86BC76B480EC66F850EC56F03C0BB
:10587000CCF202C0CBF201C0CAF200C0C9F20001F2
:10588000F9EC14F000C09DF001C09EF002C09FF042
:1058900003C0A0F003C0B2F202C0B1F201C0B0F286
:1058A00000C0AFF20201B66BB56B7F0EB46F860E0F
:1058B000B36F00012CEC10F0D8920201AC6BAB6B13
:1058C000AA6BA96B03C0B0F202C0AFF201C0AEF286
:1058D00000C0ADF2000114EC12F003C09CF002C055
:1058E0009BF001C09AF000C099F0D88298C0ACF249
:1058F00097C0ABF296C0AAF295C0A9F20201B06BB4
:10590000AF6B200EAE6F820EAD6F000114EC12F083
:1059100003C0A0F002C09FF001C09EF000C09DF047
:105920009CC0A4F09BC0A3F09AC0A2F099C0A1F0C3
:10593000D9EC11F004E3010E016E04D003D0000E87
:10594000016E00D0F3EF35F0A26B5B0EA16FB2ECED
:1059500013F05DC064F05CC065F05BC066F0838AE4
:10596000000CA26B5B0EA16FB2EC13F05DC095F062
:105970005CC096F05BC097F064C0A1F065C0A2F077
:1059800066C0A3F095C0A4F096C0A5F097C0A6F09D
:1059900009EC16F00150672602506822839A05EF41
:1059A00036F0015096C0ACF2640E0201AD6F0001FA
:1059B0007DEC1AF000C096F00150300E07E197A37D
:1059C0000DD097B70BD097B9200E03D09797979922
:1059D0009781012601C0A7F0E0EC09F096C0ACF277
:1059E0000A0E0201AD6F00017DEC1AF000C096F0C6
:1059F0000150300E06E197B709D097A107D097B9AB
:105A0000200E012601C0A7F0E0EC09F0300E962729
:105A100096C0A7F0E0EC09F0000CA26B5B0EA16F42
:105A2000B2EC13F0AC6B010EAD6F8AEC09F0020E14
:105A3000E96E2FC09DF02EC09CF02DC09BF02CC0B5
:105A40009AF0010E9E6F70EC19F0DF0EA76FE0EC7C
:105A500009F0430EA76FE0EC09F0200EA76FE0EC11
:105A600009F0200EA76FE0EC09F0020EE96E33C0DA
:105A70009DF032C09CF031C09BF030C09AF0010E16
:105A80009E6F70EC19F0DF0EA76FE0EC09F0110EBD
:105A9000966F965109EC05F0962B006EA76FE0EC1F
:105AA00009F01A0E965DF5E15D5009080BE3966B5F
:105AB000965124EC05F0000905E0962BA76FE0EC69
:105AC00009F0F6D75DC096F01B0E976F6ADF3A0EAD
:105AD000A76FE0EC09F05C5009080BE3966B965158
