:020000040000FA
:1000000088EF00F019501B02F3CF01F0F4CF00F09D
:100010001C02F35000261A501B02F3500020026EFF
:10002000B7EF00F0080E016E0000000000008B9694
:10003000949600000000000022368B98D8B0948877
:10004000D8A09498948682A6FED7012EEDD7000002
:1000500000008B9694960000948800000000000039
:10006000000000000000948682A6FED7016A00000E
:100070000000000082B801808B9694968B9894982B
:10008000000C94880000000094860000000000002E
:100090008B989498000000008B969496AE0E226E7A
:1000A000C1DF015001B002D01E9001D01E801EB0F1
:1000B000E8D71AC020F0216A1AC022F0B3DF19C0B5
:1000C00020F0216A19C022F0ADDF1F6A1B501F5CAF
:1000D00010E21DC003F01CC0E9FF1DC0EAFFEFCF16
:1000E00020F020C022F09EDF1C2AD8B41D2A1F2A2F
:1000F000EDD794980000948682A6FED700000000F9
:10010000000000000000948800000000CBEF00F029
:10011000F86AD09EEA6AE96AB896190EAF6E220EA6
:10012000AC6E900EAB6EC150C00B0F09C16E070EC6
:10013000B46E056A030E936E0F0E956E839A839CC0
:10014000839E140E0D6E0E6A106A0F6A090E116EF0
:10015000010E126E0DC013F00EC014F01050156E8B
:100160001A6A13C019F0010E1C6E1B6A4BD701509E
:100170000F5C006E0250105800C016F011C017F04E
:1001800012C018F01A6A100E196E060E1B6E1D6A48
:08019000130E1C6E76D703006C
:020000040030CA
:0E00000000021E17008381000FC00FE00F40AA
:00000001FF
;PIC18F4520
