:020000040000FA
:04000000E1EF25F017
:08000800056ED8CF06F0E0CF31
:1000100007F00001E9CF0DF0EACF08F0E1CF09F0D9
:10002000E2CF0AF0D9CF0BF0DACF0CF0F3CF14F017
:10003000F4CF15F0FACF16F000C00FF001C010F0A9
:1000400002C011F003C012F004C013F0F2A82CEFAC
:1000500000F0F2B2EAEF05F0F0A632EF00F0F0B0F7
:10006000EFEF05F00FC000F010C001F011C002F07A
:1000700012C003F013C004F00DC0E9FF08C0EAFF8E
:1000800009C0E1FF0AC0E2FF0BC0D9FF0CC0DAFFD4
:1000900014C0F3FF15C0F4FF16C0FAFF055007C0E7
:1000A000E0FF06C0D8FF1000F2CF0EF0F29EF76A14
:1000B000C20FF66E000EF7220900F5500EBEF28E4A
:1000C00012002C0F0106F2CF0EF0F29EF76AE00F3D
:1000D000F66E000EF7220900F5500EBEF28E1200E9
:1000E00031323334353637383953304EF2CF0EF0A3
:1000F000F29EF76A060FF66E010EF7220900F55020
:100100000EBEF28E1200496E696369616C697A6194
:100110006E646F2E2E2E0000F2CF0EF0F29EF76A64
:10012000320FF66E010EF7220900F5500EBEF28E68
:1001300012002020496E6469717565206C61200A87
:1001400020206F7065726163696F6E00F2CF0EF0F0
:10015000F29EF76A660FF66E010EF7220900F5505F
:100160000EBEF28E12002020456E63656E646965D6
:100170006E646F0A202073697374656D612E2E2E74
:100180000000F2CF0EF0F29EF76A9C0FF66E010EA1
:10019000F7220900F5500EBEF28E120020204170A9
:1001A0006167616E646F0A202073697374656D61A5
:1001B0002E2E2E00F2CF0EF0F29EF76ACE0FF66EC4
:1001C000010EF7220900F5500EBEF28E12004D6F9F
:1001D000646966696361720A7465726D6F737461D4
:1001E000746F20252E30662563430000F2CF0EF099
:1001F000F29EF76A060FF66E020EF7220900F5501E
:100200000EBEF28E12004E7565766F2076616C6FB1
:10021000723A0A2563430000F2CF0EF0F29EF76AAD
:10022000320FF66E020EF7220900F5500EBEF28E66
:100230001200202041706C6963616E646F0A202097
:1002400063616D62696F732E2E2E0000F2CF0EF087
:10025000F29EF76A660FF66E020EF7220900F5505D
:100260000EBEF28E120020202056616C6F720A20A2
:100270002020696E636F72726563746F0000F2CF45
:100280000EF0F29EF76A980FF66E020EF722090042
:10029000F5500EBEF28E12002050726F6772616DC3
:1002A00061720A2073697374656D6100F2CF0EF09C
:1002B000F29EF76AC60FF66E020EF7220900F5509D
:1002C0000EBEF28E120020494E54455256414C4FFC
:1002D0002025690A3A3A0000F2CF0EF0F29EF76A42
:1002E000F20FF66E020EF7220900F5500EBEF28EE6
:1002F000120020202056616C6F7265730A20202046
:10030000696E636F72726563746F7300F2CF0EF083
:10031000F29EF76A260FF66E030EF7220900F550DB
:100320000EBEF28E1200496E74657276616C6F209B
:100330006C696D6974650A6465203420686F726148
:100340007300F2CF0EF0F29EF76A5C0FF66E030EAA
:10035000F7220900F5500EBEF28E12005465726D40
:100360006F737461746F2025690A25634300F2CFAF
:100370000EF0F29EF76A880FF66E030EF722090060
:10038000F5500EBEF28E1200536F6C6170616D6994
:10039000656E746F0A646520696E74657276616C4F
:1003A0006F732100F2CF0EF0F29EF76ABE0FF66E69
:1003B000030EF7220900F5500EBEF28E1200202027
:1003C000434C4156453A0A202000F2CF0EF0F29EEF
:1003D000F76AE40FF66E030EF7220900F5500EBE21
:1003E000F28E120020204D6F646F0A202072657615
:1003F0006973696F6E00F2CF0EF0F29EF76A100F0C
:10040000F66E040EF7220900F5500EBEF28E1200B1
:100410002020436C6176650A2020696E636F7272DA
:10042000656374610000F2CF0EF0F29EF76A400F30
:10043000F66E040EF7220900F5500EBEF28E120081
:100440002020416E756C616E646F0A20206F7065AC
:10045000726163696F6E2E2E2E00F2CF0EF0F29E47
:10046000F76A740FF66E040EF7220900F5500EBEFF
:10047000F28E120044656D61736961646F20746966
:10048000656D706F0A656E63656E6469646F2100E7
:10049000F2CF0EF0F29EF76AAA0FF66E040EF72264
:1004A0000900F5500EBEF28E120054454D50202D1D
:1004B0002025332E3166202563430A484F524120C0
:1004C0002D200000F2CF0EF0F29EF76ADE0FF66EDE
:1004D000040EF7220900F5500EBEF28E1200300015
:1004E000F2CF0EF0F29EF76AFA0FF66E040EF722C4
:1004F0000900F5500EBEF28E120052454749535482
:10050000524F204445204556454E544F530D000050
:10051000F2CF0EF0F29EF76A2A0FF66E050EF72262
:100520000900F5500EBEF28E12002A2A2A2A2A2A23
:100530002A2A2A2A2A2A2A2A2A2A2A2A2A0D00008C
:10054000F2CF0EF0F29EF76A5A0FF66E050EF72202
:100550000900F5500EBEF28E12004D6F6D656E747F
:100560006F206465206170616761646F20202020C6
:100570002054656D70657261747572612020202051
:10058000202020204D696E75746F7320656E636541
:100590006E6469646F202020202020204D696E75D4
:1005A000746F732063616C646572610D0000F2CF3B
:1005B0000EF0F29EF76AC80FF66E050EF7220900DC
:1005C000F5500EBEF28E12003D3D3D3D3D3D3D3DA0
:1005D0003D3D3D3D3D3D3D3D3D3D3D3D3D3D3D3D4B
:1005E0003D3D3D3D3D3D3D3D3D3D3D3D3D3D3D3D3B
:1005F0003D3D3D3D3D3D3D3D3D3D3D3D3D3D3D3D2B
:100600003D3D3D3D3D3D3D3D3D3D3D3D3D3D3D3D1A
:100610003D3D3D3D3D3D3D3D3D0D0000F2CF0EF0E9
:10062000F29EF76A360FF66E060EF7220900F550B5
:100630000EBEF28E12002000F2CF0EF0F29EF76A8C
:10064000520FF66E060EF7220900F5500EBEF28E1E
:100650001200BF517565206F7065726163696F6EBE
:10066000206465736561207265616C697A61723FAF
:100670000D00F2CF0EF0F29EF76A8C0FF66E060EAA
:10068000F7220900F5500EBEF28E1200302E2053D4
:10069000616C69720D00F2CF0EF0F29EF76AB00F36
:1006A000F66E060EF7220900F5500EBEF28E12000D
:1006B000312E2045787472616572207469656D70A1
:1006C0006F73206D6564696F7320706F7220646949
:1006D000610D0000F2CF0EF0F29EF76AEE0FF66E9B
:1006E000060EF7220900F5500EBEF28E1200322ED1
:1006F0002045787472616572207469656D706F73DE
:1007000020746F74616C65730D00F2CF0EF0F29E71
:10071000F76A240FF66E070EF7220900F5500EBE99
:10072000F28E1200332E2045787472616572206457
:1007300061746F73206D656E7375616C65730D0008
:10074000F2CF0EF0F29EF76A5A0FF66E070EF722FE
:100750000900F5500EBEF28E1200202053616C6924
:10076000656E646F2E2E2E00F2CF0EF0F29EF76AA9
:10077000820FF66E070EF7220900F5500EBEF28EBC
:1007800012000D5469656D706F206D6564696F208E
:10079000646520656E63656E6469646F2064656C72
:1007A0002073697374656D6120706F722064696174
:1007B0003A2025332E3266206D696E75746F730D85
:1007C0000D00F2CF0EF0F29EF76ADC0FF66E070E08
:1007D000F7220900F5500EBEF28E12005469656DC5
:1007E000706F206D6564696F20646520656E636558
:1007F0006E6469646F206465206C612063616C6461
:1008000065726120706F72206469613A2025332E11
:100810003266206D696E75746F730D0D0000F2CF36
:100820000EF0F29EF76A380FF66E080EF7220900F6
:10083000F5500EBEF28E12000D5469656D706F207A
:10084000746F74616C20646520656E63656E6469A5
:10085000646F2064656C2073697374656D613A2000
:10086000256C75206D696E75746F730D0D00F2CF78
:100870000EF0F29EF76A880FF66E080EF722090056
:10088000F5500EBEF28E12005469656D706F2074C3
:100890006F74616C20646520656E63656E64696465
:1008A0006F206465206C612063616C646572613ADD
:1008B00020256C75206D696E75746F730D0D0000C9
:1008C000F2CF0EF0F29EF76ADA0FF66E080EF722FC
:1008D0000900F5500EBEF28E12000D323000F2CF3C
:1008E0000EF0F29EF76AF80FF66E080EF722090076
:1008F000F5500EBEF28E12002D2D2D2D2D2D2D2DED
:100900002D2D2D2D2D2D2D2D2D2D2D2D2D2D2D2D17
:100910002D2D2D2D2D2D2D2D2D2D2D2D2D2D2D2D07
:100920002D2D2D2D2D2D2D2D2D2D2D2D2D2D2D2DF7
:100930002D2D2D2D2D2D2D2D2D2D2D2D2D2D2D2DE7
:100940002D2D2D2D2D2D2D2D2D2D2D2D2D2D2D2DD7
:100950002D2D2D2D2D2D2D2D2D2D2D2D2D2D2D2DC7
:100960002D2D2D2D2D2D2D2D2D2D2D2D0D00F2CF9D
:100970000EF0F29EF76A880FF66E090EF722090054
:10098000F5500EBEF28E12002020202020202020C4
:100990002020202020205469656D706F206D6564D3
:1009A000696F20646520656E63656E6469646F209D
:1009B00064656C2073697374656D6120286D696E60
:1009C0002F646961292020202020205469656D70E2
:1009D0006F206D6564696F20646520656E63656E68
:1009E0006469646F206465206C612063616C646578
:1009F000726120286D696E2F646961290D00F2CF44
:100A00000EF0F29EF76A180FF66E0A0EF722090032
:100A1000F5500EBEF28E1200454E45524F2566250A
:100A2000660D0000F2CF0EF0F29EF76A3E0FF66EF2
:100A30000A0EF7220900F5500EBEF28E120046454E
:100A4000425245524F256625660D0000F2CF0EF04A
:100A5000F29EF76A660FF66E0A0EF7220900F5504D
:100A60000EBEF28E12004D41525A4F256625660D7C
:100A70000000F2CF0EF0F29EF76A8C0FF66E0A0EAF
:100A8000F7220900F5500EBEF28E12004142524983
:100A90004C256625660D0000F2CF0EF0F29EF76A37
:100AA000B20FF66E0A0EF7220900F5500EBEF28E56
:100AB00012004D41594F256625660D00F2CF0EF00C
:100AC000F29EF76AD60FF66E0A0EF7220900F5506D
:100AD0000EBEF28E12004A554E494F256625660D10
:100AE0000000F2CF0EF0F29EF76AFC0FF66E0A0ECF
:100AF000F7220900F5500EBEF28E12004A554C49FD
:100B00004F256625660D0000F2CF0EF0F29EF76AC3
:100B1000220FF66E0B0EF7220900F5500EBEF28E74
:100B2000120041474F53544F256625660D00F2CF02
:100B30000EF0F29EF76A480FF66E0B0EF7220900D0
:100B4000F5500EBEF28E12005345505449454D42A9
:100B50005245256625660D00F2CF0EF0F29EF76A2B
:100B6000720FF66E0B0EF7220900F5500EBEF28ED4
:100B700012004F435455425245256625660D00002C
:100B8000F2CF0EF0F29EF76A9A0FF66E0B0EF72276
:100B90000900F5500EBEF28E12004E4F5649454DDB
:100BA000425245256625660D0000F2CF0EF0F29EFA
:100BB000F76AC40FF66E0B0EF7220900F5500EBE51
:100BC000F28E120044494349454D4252452566255F
:100BD000660D0000010E686EF29232EF00F0010E19
:100BE000696EF09032EF00F0020EEA6E9A0EE96E36
:100BF000EF5012E0020E016EBF0E006E0400002ED8
:100C0000FDD7012EF9D7960E006E002EFED70000FC
:100C100000000400EF2EEED7000C02019B39F00B10
:100C2000006E0F0E81140010816E0000818604009A
:100C300000000000000081960001000C090E020176
:100C40009B5F0CE3020EEA6E9B0EE96ED890EF32CA
:100C5000EF5004E001D00400EF2EFDD70001000C9E
:100C600081940400020E02019A6F0001BDDF090E9B
:100C700002019A6F6D0E9B6F0001E0DF02019A2F57
:100C8000F9D798A1819498B18184000000008196E1
:100C900099399A6F0F0E9A179AC29BF20001BDDF25
:100CA000020199510F0B9A6F9B6F0001B6DF000C88
:100CB000030E936E81948196320E02019A6F0001A9
:100CC00093DF020E02019B6F0001A7DF050E0201F8
:100CD0009A6F000189DF816B8151030816E3036A73
:100CE0008151F2CF82F0F29E54EC00F082BFF28E7E
:100CF000836F0201986B996F0001B2DF050E02014C
:100D00009A6F000171DF812BE7D706EF26F0020111
:100D1000952D01D003D0400E966F01D0966B010E39
:100D2000945D962796518009976F986B996F000193
:100D300097DF000C020193510C0A000105E0060A3E
:100D40000FE0020A15E01BD00201986B010E996FAB
:100D5000000186DF020E02019A6F000145DF17D005
:100D6000010E0201946F020E956F0001D0DF0FD0CB
:100D70000201986B100E996F000172DF08D0010E0E
:100D80000201986F93C299F200016ADF00D0000C53
:100D9000080E016E0000000000008B969496000083
:100DA0000000000002019E378B98D8B09488D8A02C
:100DB0009498948682A6FED7012E01D002D000011D
:100DC000E9D7000000008B969496000094880000FC
:100DD00000000000000000000000948682A6FED7FC
:100DE000016A00000000000082B801808B96949692
:100DF0008B9894980001000C080E02019F6F00C0B0
:100E0000A0F29488000000000000948682A6FED71D
:100E100082B8D88082A8D89001360000000094964D
:100E20008B969F2FEED794880000000000008B98CF
:100E3000A051D8A494980000948682A6FED7000002
:100E400000008B9694960000000000008B98949808
:100E50000001000C9488000000009486000000004F
:100E600000008B989498000000008B969496AE0E2C
:100E700002019E6F00018CDF015001B003D002011E
:100E80009A9102D002019A819AA102D00001E2D780
:100E900096C29CF29D6B96C29EF2000179DF020120
:100EA00095C29CF29D6B95C29EF2000171DF948801
:100EB00000000000948600000000000082A6FED71B
:100EC0008B989498000000008B969496AF0E0201C8
:100ED0009E6F00015DDF02019B6B010E975D9B5DC4
:100EE00012E299C203F098C2E9FF99C2EAFF010E2B
:100EF000006E000181DF01C0EFFF0201982BD8B422
:100F0000992B9B2BEAD799C203F098C2E9FF99C2AB
:100F1000EAFF006A000170DF01C0EFFF9498000053
:100F2000948682A6FED700000000000000000000AA
:100F3000948800000000000C8E0E006E99C201F033
:100F400098C202F0036A015209E102C001F0026A8C
:100F5000080E005E015202E1006A08D0D89001BE7E
:100F600004D0023601360006F9D7019E0000000CBD
:100F70008B6B54508B5D2EE2010E8B25080DF350C8
:100F8000180F8D6F0201966B956F050E976F996B19
:100F9000810E986F00015EDF81C086F082C087F00D
:100FA00083C088F084C089F085C08AF08B51050D1C
:100FB000F350036A360FE96E000E0320EA6EE26A10
:100FC000860EE16E050E016EE6CFEEFF012EFCD718
:100FD0008B2BCFD762EF26F09DC09EF0D8909E332A
:100FE000780E9E179E31006E00323F0E00160050A4
:100FF0009E259F6F9D510F0B9F25016E000CF29C4B
:10100000F29EF2BEFDD79488000000009486000096
:10101000000000008B989498000000008B96949636
:10102000A00E02019E6F0001B3DE9AC09EF2B0DEF8
:10103000948800000000948600000000000082A652
:10104000FED78B989498000000008B969496A10E82
:1010500002019E6F00019CDE006ACEDE01C09BF0A3
:1010600094980000948682A6FED70000000000003D
:10107000000000009488000000009BC001F034EFE5
:1010800009F0F29CF29EF2BEFDD7948800000000A9
:1010900094860000000000008B98949800000000E7
:1010A0008B969496A00E02019E6F000171DE9AC08D
:1010B0009EF26EDE9BC09EF26BDE949800009486DA
:1010C00082A6FED700000000000000000000948807
:1010D00000000000000CF29CF29EF2BEFDD7948846
:1010E0000000000094860000000000008B98949897
:1010F000000000008B969496A00E02019E6F0001E6
:1011000047DE020E02019E6F000142DE948800005D
:101110000000948600000000000082A6FED78B9895
:101120009498000000008B969496A10E02019E6F89
:1011300000012EDE010E006E5FDE01C095F0010E93
:10114000006E5ADE01C096F0010E006E55DE01C041
:1011500097F0010E006E50DE01C098F0006A4CDE80
:1011600001C099F094980000948682A6FED70000F2
:10117000000000000000000094880000000091C002
:1011800001F092C003F091C09AF092C09BF095C01C
:101190009DF022DF9BC0EAFF9AC0E9FF01C0EFFF8C
:1011A000010E9125016E000E9221036E01C09AF08E
:1011B0009B6F96C09DF010DF9BC0EAFF9AC0E9FFCD
:1011C00001C0EFFF020E9125016E000E9221036E09
:1011D00001C09AF09B6F97513F0B9C6F9D6FFCDE97
:1011E0009BC0EAFF9AC0E9FF01C0EFFF030E912503
:1011F000016E000E9221036E01C09AF09B6F985110
:101200003F0B9C6F9D6FE8DE9BC0EAFF9AC0E9FF31
:1012100001C0EFFF040E9125016E000E9221036EB6
:1012200001C09AF09B6F99511F0B9C6F9D6FD4DE8C
:101230009BC0EAFF9AC0E9FF01C0EFFF060E9125AF
:10124000E96E000E9221EA6E9939006E0032070EA7
:10125000001600C0EFFF9839936F93339333030E5A
:101260009317100E9A6FCBD601C094F09451030BD4
:10127000935D02E0942BFAD7050E9125E96E000EDE
:101280009221EA6E94C0EFFF100E9A6F94C09BF00B
:10129000F8DE000C9D519B5D03E2010E016E13D040
:1012A0009B519D5D03E2000E016E0DD09D519B5D33
:1012B0000AE19C519E5D04E3010E016E04D003D04F
:1012C000000E016E00D0000C556A926B560E916FA5
:1012D00002DF58C082F057C083F0816B5450815DAB
:1012E00030E28151050DF350876B866F360E8625EF
:1012F000E96E000E8721EA6EEFCF84F08151050D73
:10130000F350876B866F010E8625016E000E8721D4
:10131000036E0150360FE96E000E0320EA6EEFCF28
:1013200085F084C09BF085C09CF082C09DF083C096
:101330009EF0B0DF015203E181C055F002D0812B55
:10134000CDD7000C8A6B8951090805E20A0E895F26
:10135000100E8A2703D089518A2701D0F4D78AC07A
:1013600001F0000C83C089F0EDDF01C086F084C07D
:1013700089F0E8DF01C087F085C089F0E3DF01C0B4
:1013800088F09A6B800E9B6F7CDE080E9A6F900E31
:101390009B6F77DEF29CF29EF2BEFDD79488000030
:1013A000000094860000000000008B9894980000D4
:1013B00000008B969496A00E02019E6F0001E8DC5F
:1013C000090E02019E6F0001E3DC02019E6B000129
:1013D000DFDC88C09EF2DCDC87C09EF2D9DC86C0F0
:1013E0009EF2D6DC94980000948682A6FED7000078
:1013F00000000000000000009488000000009A6BCC
:10140000040E9B6F3EDE010E1E6E000C5550050D46
:10141000F350036A360F016E000E032201C083F001
:1014200003C084F0EA6A4F0EE96E03C0E2FF01C018
:10143000E1FF050E016EE6CFEEFF012EFCD74FC097
:1014400081F050C082F081C083F082C084F0856B4F
:1014500089DF000C929A899A0400020E9A6FF70EA7
:1014600002019B6F00011EEC06F09A2FF8D7928ABA
:101470000400020E9A6FF70E02019B6F00011EEC32
:1014800006F09A2FF8D7928A000C9B6B9B510708A5
:101490001AE3929A899A0400000000000000D89094
:1014A0009A3302E2899A01D0898A929A0400270E1F
:1014B000006E002EFED70000928A0400000000009B
:1014C00000009B2BE3D7000C9A6B9A5107081DE391
:1014D000929A899A0400000000000000928A040099
:1014E000040E006E002EFED700000000928A80BA23
:1014F00002D0D89001D0D8809B3304004F0E006EEC
:10150000002EFED700009A2BE0D79BC001F0000C04
:101510008E0E006E9BC001F09AC002F0036A9BAF72
:1015200005D0011E021E022A01E1012A015209E131
:1015300002C001F0026A080E005E015202E1006A78
:101540000AD0D89001BE04D0023601360006F9D781
:101550009BBF01D0019E000082EF0BF00201985169
:10156000D8B4A5D0A46F9C51D8B4A1D0A45F05E392
:101570007F0EA427D8B09BD006D0810EA45FD8A040
:1015800096D0D8B494D0A4C200F0016A026A036A6B
:10159000A36B99C2A2F2A28F9AC2A1F29BC2A0F23F
:1015A000190EA46F9F51A05F0DE2010EA15F0AE228
:1015B000A25F08E2A35F06E2A32BA22BA12B9F51FF
:1015C000A02728D09E51A15F12E2010EA25F0FE278
:1015D000A35F0DE2A32BA22B9E51A1279F51A02711
:1015E00019E3A12B17E1A22B15E1A32B13D09D51D9
:1015F0008009A25F0EE2010EA35F0BE2A32B9D51B7
:101600008009A2279E51A127E9E3A22BE7E1A32BA2
:10161000E5D70380A42F01D00BD0D890A037A137F5
:10162000A237A337D890033602360136A537BAD78A
:10163000A5A106D0D890013202320332A53302D0E0
:10164000000635E0A5BF1ED0D890A037A137A2373D
:10165000A3379F51A05F07E2010EA15F04E2A25FE2
:1016600002E2A35F1AE39E51A15F05E2010EA25FB1
:1016700002E2A35F12E39D518009A25F03E2010E23
:10168000A35F0BE3032A09E1022A07E1012A05E12E
:10169000002A0DE001320232033299C2A4F29D51B8
:1016A000A41BA4AF02D0018E06D0019E04D0006A14
:1016B000016A026A036A00000001000C916BCADE35
:1016C000CC0E9A6FE2DE440E9A6FDFDE915304E196
:1016D000FBDE01C091F0FAD7BDDECC0E9A6FD5DEED
:1016E000BE0E9A6FD2DEF0DE01C092F0EDDE01C0D8
:1016F00093F093C095F092C094F095C09BF094C085
:101700009AF006D700C09AF001C09BF002C09CF08E
:1017100003C09DF003C09BF202C09AF201C099F28F
:1017200000C098F202019F6B9E6B9D6B800E9C6FB8
:10173000000114DF03C099F002C098F001C097F0D7
:1017400000C096F0C80E02019A6F0001F4EC05F09B
:1017500096C000F097C001F098C002F099C003F065
:10176000000C8AC091F08E51911B91AF05D0D89496
:10177000D8908ABFD8802FD08AC091F08DC092F0C7
:101780008951925F06E091AF26D0D850010AD86EF9
:1017900022D08EC092F08A51925F06E091AF1BD0AA
:1017A000D850010AD86E17D08FC092F08B51925F3B
:1017B00006E091AF10D0D850010AD86E0CD090C07E
:1017C00092F08C51925F06E091AF05D0D850010A9B
:1017D000D86E01D0D890000C800ED8A202D00201A1
:1017E000971B02019C6B9D6B93C29BF297519B1BB5
:1017F0009251D8B4DFD09A6F006E9651D8B4E3D02E
:101800009A5FD8B483D03EE397C2A0F2A08F98C26B
:101810009FF299C29EF29D6BD890A0339F339E3366
:101820009D339A2FF8D79BAF03D09C81E0D09C9139
:101830009A919C89020EEA6E950EE96EEBD09C9906
:101840009BBF0AD09AA113D0A0339F339E339D3300
:10185000002AD8B4C7D00BD0A0BF0CD0D8909D37E9
:101860009E379F37A0370006D8B4BCD0F5D79C8DE3
:101870006DD09C9D93C29BF293AF02D0A08FABD052
:10188000A09FA9D096C29AF296C200F092519A5F98
:1018900093C2A0F2A08F94C29FF295C29EF29D6B5C
:1018A000D890A0339F339E339D339A2FF8D79BAFA8
:1018B00003D09C839CD09C939A919C8B020EEA6EE1
:1018C000990EE96EA7D09C9B9BBF0AD09AA113D01A
:1018D000A0339F339E339D33002AD8B483D00BD0DE
:1018E000A0BF0CD0D8909D379E379F37A0370006F9
:1018F000D8B478D0F5D79C8F29D09C9F97C29BF203
:1019000097AF02D0A08F67D0A09F65D097C2A0F2FA
:10191000A08F98C29FF299C29EF29BAF04D0A09F65
:101920009C8565D09C959D6B9A91020EEA6E950EF2
:10193000E96E70D09BBF1CD093C29BF29AA106D0D7
:10194000A0339F339E339D33002A4CE09DAF0BD0D4
:101950009E2B09E19F2B07E1A02B05E1A0339F33CC
:101960009E33002A3FE09CBD84D79CBFC6D71CD0C5
:10197000800EA01BA0AF04D03AD097C29BF20AD031
:1019800093C29BF2A05306E19F5304E19E5302E1F0
:10199000006A21D0A0BF08D0D8909D379E379F37CE
:1019A000A037002EF7D71ED09BAF02D0A08F13D048
:1019B000A09F11D096C200F097C2A0F298C29FF2E9
:1019C00099C29EF208D092C200F093C2A0F294C2D3
:1019D0009FF295C29EF2A0C201F09FC202F09EC289
:1019E00003F034D0006A016A026A036A2FD09D6B4B
:1019F0009E1F9F1FA01F9D1F9D2B05E19E2B03E196
:101A00009F2B01E1A02B9CB112D79CB354D79CB55E
:101A100089D7B3D7EF509E2705E39F2B03E1A02B77
:101A2000D8B49A81ED52EF509F2703E3A02BD8B48E
:101A30009A81ED52EF50EFBE01D0800AA027D8B0B6
:101A40009A819CB9FCD69CBB3ED774D7000000019C
:101A5000000C926B560E916F6BEC08F058C05DF065
:101A600057C05EF0636A626A83AE06D058C05FF00A
:101A700057C060F056C061F0838A000CA251A403E5
:101A8000F3CF01F0F4CF00F0A503F3500026A351EB
:101A9000A403F3500020026E000C91C09BF092C092
:101AA0009CF093C09DF094C09EF04AEC09F0015266
:101AB00030E0986B93C097F098C0A3F093C0A2F069
:101AC000A56B3C0EA46FDADF02C099F001C098F05C
:101AD000036A945101249A6F035002209B6F9D6BFF
:101AE00091C09CF09DC0A3F091C0A2F0A56B3C0EEC
:101AF000A46FC4DF01C09DF0036A92510124016EFE
:101B00000250032201509A5D956F03509B59966FC6
:101B100036D0986B91C097F098C0A3F091C0A2F016
:101B2000A56B3C0EA46FAADF02C099F001C098F02B
:101B3000036A92510124016E025003220150FF0AF0
:101B4000A10F9A6F050E03549B6F9D6B93C09CF081
:101B50009DC0A3F093C0A2F0A56B3C0EA46F8EDFD6
:101B600002C003F001509A259D6F02509B219E6F89
:101B7000036A94519D25956F03509E21966F95C0E1
:101B800001F096C002F0000C8E0E006E9551005EC2
:101B900096C002F097C001F0028E005209E0D89082
:101BA000025202E1015204E002320132002EF7D764
:101BB00096AF05D0011E021E012AD8B4022A0000E9
:101BC000000C0201AE51D8B471D0006EB251D8B43D
:101BD0006DD0002604E3810E002668E204D07F0E5B
:101BE000005E64E363E0AFC2B6F2B351B61BAF8FE1
:101BF000B38FB151B503F4CFB8F2B051B403F4CF01
:101C000003F0F3CFB7F2B503F350B827F450B7237E
:101C1000000E0322B151B403F350B827F450B72398
:101C2000000E026A03220222AF51B503F350B72718
:101C3000F4500322000E0222AF51B403F3500326E6
:101C4000F4500222000E016A0122B151B303F35095
:101C5000B727F4500322000E02220122B051B30331
:101C6000F3500326F4500222000E0122AF51B303B9
:101C7000F3500226F4500122002A01BE05D0B737E6
:101C80000336023601360006000EB7AF0AD0032A2B
:101C900002220122015005E1025003E1035001E15B
:101CA000002AB6BF018EB6AF019E04D0006A016A59
:101CB000026A036A00000001000C91C09BF092C010
:101CC0009CF094C09DF095C09EF04AEC09F0015242
:101CD0004FE09451915D08E19551925D05E193517A
:101CE000965D986B976F43D09C6B94C09BF09CC0A3
:101CF000A3F094C0A2F0A56B3C0EA46FBFDE02C09F
:101D00009DF001C09CF0036A955101249E6F035021
:101D100002209F6FA16B91C0A0F0A1C0A3F091C061
:101D2000A2F0A56B3C0EA46FA9DE01C0A1F0036A6E
:101D300092510124016E0250032201509E5D996F61
:101D400003509F599A6F9AC0A3F099C0A2F0A56B57
:101D50003C0EA46F93DE965101249D6F000E02206D
:101D60009E6F93519D5D976F000E9E59986F4AD05C
:101D70009C6B91C09BF09CC0A3F091C0A2F0A56B9E
:101D80003C0EA46F7BDE02C09DF001C09CF0036A94
:101D900092510124016E025003220150FF0AA10F4B
:101DA0009E6F050E03549F6FA16B94C0A0F0A1C05D
:101DB000A3F094C0A2F0A56B3C0EA46F5FDE02C03E
:101DC00003F001509E25A16F02509F21A26F036A6C
:101DD0009551A125996F0350A2219A6F9AC0A3F043
:101DE00099C0A2F0A56B3C0EA46F48DE9651012469
:101DF0009D6F000E02209E6F93519D5D976F000EA8
:101E00009E59986F97C001F098C002F0000C016ACB
:101E1000026A006A036A945102E1935118E0100EBD
:101E2000956FD89091379237003603369451035C02
:101E300002E19351005C07E39351005ED8A00306D2
:101E40009451035ED88001360236952FEAD7000000
:101E50001CEF10F094880000000094860000000041
:101E600000008B989498000000008B969496AE0E1C
:101E700002019E6F0001C8EC06F0015001B002D0D3
:101E80009C9101D09C819CB1E5D798C09EF09F6B3E
:101E900098C09EF2C8EC06F097C09EF09F6B97C06A
:101EA0009EF2C8EC06F09D6B99519D5D11E29BC0BE
:101EB00003F09AC0E9FF9BC0EAFFEFCF9EF09EC0FF
:101EC0009EF2C8EC06F09A2BD8B49B2B9D2BECD736
:101ED00094980000948682A6FED7000000000000BF
:101EE00000000000948800000000000CD8906434CA
:101EF000916F6534926F9135026E9235036E0236A2
:101F0000033602360336F80E02160250500F936F56
:101F1000000E0320946F0F0802E2656A646A926BF8
:101F2000560E916F6BEC08F05DC091F05EC092F0C0
:101F300058C093F057C094F0B0DD02C082F001C0E9
:101F400081F05EEC0BF003C088F002C087F001C0A6
:101F500086F000C085F088C098F087C097F086C0F2
:101F600096F085C095F010DE01C083F00201996BF8
:101F700083C098F200019CEC07F0D88288C095F2EB
:101F800087C094F286C093F285C092F203C099F2A2
:101F900002C098F201C097F200C096F21DDC00C0AA
:101FA00091F001C092F002C093F003C094F003C01E
:101FB000B1F202C0B0F201C0AFF200C0AEF2020155
:101FC000B56BB46B480EB36F850EB26F0001F9DDCF
:101FD00003C098F002C097F001C096F000C095F0E1
:101FE000D3DD01C084F083AE11D05FC091F060C03A
:101FF00092F061C093F058C094F057C095F056C06D
:1020000096F05BDE015062260250632259C089F0CF
:102010005AC08AF058C08BF057C08CF083C08DF046
:1020200084C08EF081C08FF063C092F062C091F0E6
:10203000946B3C0E936FEBD601C090F0D890643453
:10204000916F6534926F9135026E9235036E023650
:10205000033602360336F80E02160250500F936F05
:10206000000E0320946F986F93C097F0080E996F3D
:102070009B6B890E9A6FEEDE5B50675C0FE0662A01
:10208000672A66C089F067C08AF0986B140E976F54
:10209000020E996F9B6B890E9A6FDCDED8906434C8
:1020A000916F6534926F9135026E9235036E0236F0
:1020B000033602360336F80E02160250500F936FA5
:1020C000000E0320946F080E9325956F000E942147
:1020D000966F986F95C097F0010E996F9B6B660E87
:1020E0009A6FB8DE642AD8B4652A6550896FA36BED
:1020F00089C0A2F0010EA56FA46BC0DC0150645C26
:10210000006E0250655800C08AF0986B120E976FEF
:10211000020E996F9B6B890E9A6F9CDE839A000C5E
:102120000201986B936B93510308D8A070D0010EF5
:10213000006E9351016E04E0D8900036012EFCD75A
:102140000050FF0A976F9751010B016EE8B002D063
:10215000819801D081889751020B006ED89000328F
:1021600000C001F000B002D0819A01D0818A97515D
:10217000040B006E003200323F0E001600C001F06A
:1021800000B002D0819C01D0818C9751080B006E69
:102190000032003200321F0E001600C001F000B005
:1021A00002D0819E01D0818E966B9651630802E326
:1021B000962BFBD78350070B956F946B94510208B5
:1021C00024E3010E006E9451016E04E0D8900036B5
:1021D000012EFCD70050951516E19351030DF3CF56
:1021E0009AF2020ED88094559A25996F036A9951F4
:1021F000F2CF9AF2F29E000163EC00F002019ABF66
:10220000F28E986F04D0942BD9D7932B8CD798C289
:1022100001F00001000C84DF01C092F20201925330
:1022200008E000017DDF0152D8B402D00201F9D7E5
:10223000020192C201F00001000C0201AE51B60889
:10224000AE6F036AAFC2B2F2AF8FD890AF33B03384
:10225000B1330332023201320032AE2FF6D7B2AFC1
:102260000BD0001E011E021E031E002AD8B4012A34
:10227000D8B4022AD8B4032A0001000C006A016A0B
:10228000026A036A0201B66BB76BB86BB96BB551E2
:10229000B411B311B2112CE0200EBA6FD890AE3742
:1022A000AF37B037B137B637B737B837B937B551B9
:1022B000B95D08E1B451B85D05E1B351B75D02E124
:1022C000B251B65D0FE3B251B65FB351D8A0B33D82
:1022D000B75FB451D8A0B43DB85FB551D8A0B53DF3
:1022E000B95FD8800036013602360336BA2FD6D70A
:1022F0000000020EEA6EB60EE96E0001000CE95015
:102300008B6F8A518D6F1BE089C0B1F288C0B0F22B
:1023100087C0AFF286C0AEF20201B56BB46B200E7F
:10232000B36F820EB26F00014CDC03C089F002C0B3
:1023300088F001C087F000C086F08D2FE5D789C0F6
:10234000B1F288C0B0F287C0AFF286C0AEF275DFDE
:1023500003C089F002C088F001C087F000C086F099
:1023600089AF0DD08B078B8B861F871F881F891F16
:10237000862BD8B4872BD8B4882BD8B4892B3B0EA6
:10238000926F9A0E916FCA0E906F8F6B0A0E8D6FBF
:102390008A51D8B48B2B89C0B1F288C0B0F287C003
:1023A000AFF286C0AEF292C0B5F291C0B4F290C066
:1023B000B3F28FC0B2F262DF0150EFCF86F0ECCF04
:1023C00087F0ECCF88F0ECCF89F000520FE18A293A
:1023D0008D5D0CE08B510CE00F0B8D5D01E041E257
:1023E0008BBF3FD08BBD04D0200E36D0200E8B1774
:1023F0008BAB0FD08B9B8A51D8A48B0700508B6F6F
:102400002D0E0201936F00019AEC06F08B51006EC5
:102410008B6B8A518D5D0DE100508B6F2E0E02018A
:10242000936F00019AEC06F08B51006E200E8B1713
:10243000000E300E8BAB10D08B9B8A51D8A48B072B
:1024400000508B6F2D0E0201936F00019AEC06F085
:102450008B51006E8B6B300E002600C093F29AEC0D
:1024600006F092C0B1F291C0B0F290C0AFF28FC04E
:10247000AEF20201B56BB46BB36B0A0EB26F000122
:10248000FDDE03C092F002C091F001C090F000C0E8
:102490008FF08D2F80D7000C006A016A8A51D89086
:1024A0008BB10026003201328BB30026003201329C
:1024B0008BB50026003201328BB700260032013284
:1024C0008BB90026003201328BBB0026003201326C
:1024D0008BBD0026003201328BBF00260032013254
:1024E000DEEF12F0886B866B0A0E876F856B835167
:1024F000841103E1000E016EC1D08851882B036A5C
:102500008325E96E84510320EA6EEFCF89F089516B
:102510002D080DE1010E866F8851882B036A8325F3
:10252000E96E84510320EA6EEFCF89F00DD0895116
:102530002B080AE18851882B036A8325E96E8451B0
:102540000320EA6EEFCF89F089512F08D8B08ED0E2
:1025500089513908D8A08AD08951300821E1036A0D
:1025600088518325E96E84510320EA6EEF50780884
:102570000AE0036A88518325E96E84510320EA6EDC
:10258000EF5058080DE1100E876F882B8851882B6B
:10259000036A8325E96E84510320EA6EEFCF89F048
:1025A00087510A081BE189512F0817E28951390820
:1025B00014E30A0E8A6F85C08BF06ED7300E895DEA
:1025C0000124856F8851882B036A8325E96E845125
:1025D0000320EA6EEFCF89F0E6D748D08751100884
:1025E00045E18951600806E289517A0803E389517F
:1025F000DF0B01D08951896F89512F0803E289517E
:10260000390806E28951400831E2895146082EE333
:1026100089512F080CE28951390809E385398A6FFD
:10262000F00E8A17300E895D8A25856F09D08539AD
:102630008A6FF00E8A17410E895D0A0F8A25856F11
:102640008851882B036A8325E96E84510320EA6E42
:10265000EFCF89F08951600806E289517A0803E3D7
:102660008951DF0B01D08951896FC6D7862D04D0DF
:1026700087510A0801E1856D85C001F0000C816B6E
:1026800033504E0820E0335053081DE081510208BA
:102690001AE0C1DD01C033F033502F0813E233508C
:1026A000390810E333C093F29AEC06F0036A8151C3
:1026B000340FE96E000E0320EA6E33C0EFFF4A0EBE
:1026C000336E812BDDD733504E0803E1640E016E6B
:1026D0000ED03350530803E1650E016E08D0846BB1
:1026E000340E836FFFDE01C082F082C001F0000C67
:1026F00002019651016A955D03E295C200F00CD08B
:10270000006A080E976F953700369651005CD8B076
:10271000006E0136972FF7D70001000C200E84A918
:10272000300E856F83C000F083AF07D0001E002AF3
:1027300000C083F02D0E856F848F015083C095F209
:10274000640E0201966F0001D3DF00C083F0300EEB
:102750000124866F83C095F20A0E0201966F000174
:10276000C7DF300E0024886F300E0124876F85C0CC
:1027700000F084A702D084AF849584B90BD084AFD5
:1027800022D084B520D000C086F084B31CD000C015
:1027900087F019D0300E865D16E100C086F0200E5D
:1027A000856F84A704D08495848384AF8493300E8E
:1027B000875D09E100C087F0200E866F84A7F7D7F8
:1027C000849384AF849184A504D085C093F29AEC5D
:1027D00006F084A304D086C093F29AEC06F084A19C
:1027E00004D087C093F29AEC06F088C093F29AEC7A
:1027F00006F0000C826B360E816F846B836F856BE5
:102800005450855DD8B090D05450050DF350360F1C
:10281000906F916BD8B0912B0A0E905D816F000E76
:102820009159826F5450050DF350360F906F916B94
:10283000D8B0912B050E905D836F000E9159846F77
:10284000866B8551545CFF0F865D6CE281C0E9FFA9
:1028500082C0EAFFEFCF87F0010E8125E96E000EFE
:102860008221EA6EEFCF88F083C0E9FF84C0EAFFDF
:10287000EFCF89F0010E8325E96E000E8421EA6E08
:10288000EFCF8AF089C09BF08AC09CF087C09DF092
:1028900088C09EF04AEC09F001523AE082C003F091
:1028A00081C090F082C091F0EA6A8B0EE96E82C01E
:1028B000E2FF81C0E1FF050E016EE6CFEEFF012EC3
:1028C000FCD781C092F082C093F084C003F083C033
:1028D00094F084C095F082C0EAFF81C0E9FF84C013
:1028E000E2FF83C0E1FF050E016EE6CFEEFF012E91
:1028F000FCD784C003F083C0E9FF03C0EAFFE26AAB
:102900008B0EE16E050E016EE6CFEEFF012EFCD7B9
:10291000FB0E8127D8A08207FB0E8327D8A084074F
:10292000862B8FD7852B6CD7C1EF2BF08B6B545038
:102930008B5D34E28B51050DF350036A360F016E47
:10294000000E032201C08CF003C08DF0EA6A860EEF
:10295000E96E03C0E2FF01C0E1FF050E016EE6CFA4
:10296000EEFF012EFCD786C081F087C082F088C0C0
:1029700083F089C084F08AC085F0010E8B25080D94
:10298000F350180F8D6F986B976F050E996F9B6BB7
:10299000810E9A6F2AEC0FF08B2BC9D7986B110E12
:1029A000976F010E996F9B6B540E9A6F2AEC0FF084
:1029B000CBEF2CF0015093C295F2640E0201966F9A
:1029C000000196DE00C093F20150300E08E10201D2
:1029D00094A30ED094B70CD094B9200E04D0020169
:1029E000949794999481012601509EA8FED7AD6ECC
:1029F00093C295F20A0E966F00017ADE00C093F240
:102A00000150300E08E1020194B70BD094A109D017
:102A100094B9200E0001012601509EA8FED7AD6E8C
:102A20000201300E932793519EA8FED7AD6E000190
:102A3000000CE9500201A66FA551A86F1CE0A4C2CA
:102A4000B1F2A3C2B0F2A2C2AFF2A1C2AEF2B56BB4
:102A5000B46B200EB36F820EB26F0001E1EC0DF08B
:102A600003C0A4F202C0A3F201C0A2F200C0A1F20E
:102A70000201A82FE4D7A4C2B1F2A3C2B0F2A2C24D
:102A8000AFF2A1C2AEF200011DEC11F003C0A4F23E
:102A900002C0A3F201C0A2F200C0A1F20201A4AFE1
:102AA0000DD0A607A68BA11FA21FA31FA41FA12B99
:102AB000D8B4A22BD8B4A32BD8B4A42B3B0EAD6FA3
:102AC0009A0EAC6FCA0EAB6FAA6B0A0EA86FA55117
:102AD000D8B4A62BA4C2B1F2A3C2B0F2A2C2AFF284
:102AE000A1C2AEF2ADC2B5F2ACC2B4F2ABC2B3F2A7
:102AF000AAC2B2F200013EEC11F00150EFCFA1F2F8
:102B0000ECCFA2F2ECCFA3F2ECCFA4F2005213E18F
:102B10000201A529A85DD8A402D000010CD0A651BD
:102B20000DE00F0BA85D01E03CE2A6BF3AD0A6BDC8
:102B300005D0200E31D0200E0201A617A6AB0DD075
:102B4000A69BA551D8A4A6070050A66F2D0E9EA83F
:102B5000FED7AD6EA651006EA66BA551A85D0BE128
:102B60000050A66F2E0E9EA8FED7AD6EA651006E29
:102B7000200EA617000E300EA6AB0ED0A69BA551B8
:102B8000D8A4A6070050A66F2D0E9EA8FED7AD6E46
:102B9000A651006EA66B300E002600509EA8FED7F0
:102BA000AD6EADC2B1F2ACC2B0F2ABC2AFF2AAC26E
:102BB000AEF2B56BB46BB36B0A0EB26F00013EECB4
:102BC00011F003C0ADF202C0ACF201C0ABF200C024
:102BD000AAF20201A82F7ED70001000CEACF9BF2D7
:102BE000E9CF9AF202019439F009966F9627E20F25
:102BF000976F320F996F94510F0B9727972799274B
:102C0000E90F986F9827982793390F0B98279927E2
:102C100098379937991F993793510F0B9927963702
:102C2000070E956F0A0E98079927FDE397079827D7
:102C3000FDE396079727FDE395079627FDE3020E30
:102C4000EA6E950EE96E070E9A159A9DE926990E81
:102C5000E95CD8B49A8DEF50006E08E19ABD06D0B9
:102C60009AB90CD09AB702D0200E03D09A879A99BD
:102C7000300E002600509EA8FED7AD6EEE509AADE5
:102C8000E6D70001000C1F0EC76FC7C0C5F0C5C056
:102C9000C3F0C3C0C2F0C2C0C0F0C0C0BEF0BEC06E
:102CA000BCF01C0EBD6F1E0EC66FC6C0C4F0C4C003
:102CB000C1F0C1C0BFF0816B81510B080FE381519E
:102CC000040DF350036A8C0FE96E000E0320EA6EC8
:102CD000EF6AEC6AEC6AEC6A812BEED7816B81516A
:102CE0000B080FE38151040DF350036AD00FE96E16
:102CF000000E0320EA6EEF6AEC6AEC6AEC6A812B44
:102D0000EED7816B8151030823E3826B82510B085C
:102D10001DE38151300DF3500201936B926F00015E
:102D20008251040DF350036A02019225016E935102
:102D300003220150040FE96E010E0320EA6EEF6AD0
:102D4000EC6AEC6AEC6A0001822BE0D7812BDAD7BF
:102D5000816B8151030823E3826B82510B081DE3D1
:102D60008151300DF3500201936B926F000182513B
:102D7000040DF350036A02019225016E9351032260
:102D80000150C40FE96E010E0320EA6EEF6AEC6A8F
:102D9000EC6AEC6A0001822BE0D7812BDAD70201C2
:102DA0008F6B8FC28EF28EC28DF2916B906B846BA3
:102DB0000001CB6BCA6BC96BC86BCF6BCE6BCD6B95
:102DC000CC6B0101016B006B036B026B0201926B18
:102DD0009251000170EC02F0000907E00201922B11
:102DE0009EA8FED7AD6EF4D700010201926B9251FE
:102DF000000188EC02F0000907E00201922B9EA876
:102E0000FED7AD6EF4D700010201926B9251000122
:102E1000A0EC02F0000907E00201922B9EA8FED769
:102E2000AD6EF4D700010201926B92510001D7EC14
:102E300002F0000907E00201922B9EA8FED7AD6EBA
:102E4000F4D70001816B655204E16450815DD8B014
:102E500058D3D8908135080DF350500F0201936F6D
:102E6000966B956F080E976F996B830E986F0001A4
:102E70002AEC07F0D8908135080DF350500F080F59
:102E80000201946F966B956F080E976F996B8B0E7E
:102E9000986F00012AEC07F0835102018D5D0BE170
:102EA0000001845102018E5D06E100018B51020197
:102EB0008F5DD8B4BBD18D536AE08AC299F289C2C2
:102EC00098F200019CEC07F0D892CFC095F2CEC0EA
:102ED00094F2CDC093F2CCC092F203C099F202C03A
:102EE00098F201C097F200C096F2ECEC0BF003C030
:102EF000CFF002C0CEF001C0CDF000C0CCF0010E8A
:102F000002018E5D040DF350036A8C0FE96E000E12
:102F10000320EA6ECCC0EFFFCDC0ECFFCEC0ECFFCB
:102F2000CFC0ECFF8CC299F28BC298F200019CECEE
:102F300007F0D892CBC095F2CAC094F2C9C093F200
:102F4000C8C092F203C099F202C098F201C097F291
:102F500000C096F2ECEC0BF003C0CBF002C0CAF05C
:102F600001C0C9F000C0C8F0010E02018E5D040D61
:102F7000F350036AD00FE96E000E0320EA6EC8C05A
:102F8000EFFFC9C0ECFFCAC0ECFFCBC0ECFF0001F3
:102F90008B5102018F5DD8B43CD18F53D8B42FD15F
:102FA0000001826B82510B08D8A01ED18251040D02
:102FB000F350036A8C0F016E000E032201C092F2DF
:102FC00003C093F200018251040DF350036A8C0F89
:102FD000E96E000E0320EA6EEFCF94F2ECCF95F28B
:102FE000ECCF96F2ECCF97F2036A8251BC0FE96EF8
:102FF000000E0320EA6EEF500201996B986F0001FA
:103000009CEC07F097C29BF296C29AF295C299F295
:1030100094C298F203C09FF202C09EF201C09DF2DA
:1030200000C09CF2AEEC0AF093C2EAFF92C2E9FF44
:1030300000C0EFFF01C0ECFF02C0ECFF03C0ECFFDB
:103040008251040DF350036AD00F016E000E03226B
:1030500001C092F203C093F200018251040DF350BB
:10306000036AD00FE96E000E0320EA6EEFCF94F2F0
:10307000ECCF95F2ECCF96F2ECCF97F2036A825147
:10308000BC0FE96E000E0320EA6EEF500201996B4F
:10309000986F00019CEC07F097C29BF296C29AF2DF
:1030A00095C299F294C298F203C09FF202C09EF2B8
:1030B00001C09DF200C09CF2AEEC0AF093C2EAFFA0
:1030C00092C2E9FF00C0EFFF01C0ECFF02C0ECFFBD
:1030D00003C0ECFF02018451300DF350936B926FEB
:1030E00000018251040DF350036A02019225016E22
:1030F000935103220150040F016E010E032201C0FF
:1031000094F203C095F200018251040DF350036A5A
:103110008C0FE96E000E0320EA6EEFCF00F0ECCFCB
:1031200001F0ECCF02F0ECCF03F095C2EAFF94C2BD
:10313000E9FF00C0EFFF01C0ECFF02C0ECFF03C0DD
:10314000ECFF02018451300DF350936B926F00013C
:103150008251040DF350036A02019225016E9351CE
:1031600003220150C40F016E010E032201C094F22C
:1031700003C095F200018251040DF350036AD00F91
:10318000E96E000E0320EA6EEFCF00F0ECCF01F005
:10319000ECCF02F0ECCF03F095C2EAFF94C2E9FF56
:1031A00000C0EFFF01C0ECFF02C0ECFF03C0ECFF6A
:1031B0008251040DF350036A8C0FE96E000E032058
:1031C000EA6EEF6AEC6AEC6AEC6A8251040DF35025
:1031D000036AD00FE96E000E0320EA6EEF6AEC6A14
:1031E000EC6AEC6A822BDED6036A02018451850FF9
:1031F000E96E020E0320EA6E8FC2EFFF842B0001FE
:103200008B51030B03E11D0EBD6F02D01C0EBD6F71
:10321000020183C08DF284C08EF28BC08FF2902B9E
:10322000D8B4912B8A6B896B8C6B8B6B00018951A5
:1032300002018927000E8A2300018A5102018B278F
:10324000000E8C230001895101010027000E01238B
:1032500000018A5101010227000E0323000183515E
:1032600009080FE30201926B925100010EEC03F08A
:10327000000907E00201922B9EA8FED7AD6EF4D79D
:10328000000183C093F21B0E0201946F0001DAEC7F
:1032900014F02F0E9EA8FED7AD6E845109080FE3DF
:1032A0000201926B9251000162EC02F0000907E00A
:1032B0000201922B9EA8FED7AD6EF4D7000184C008
:1032C00093F21B0E0201946F0001DAEC14F02F0E42
:1032D0009EA8FED7AD6E8B5109080FE30201926BD9
:1032E0009251000162EC02F0000907E00201922B0A
:1032F0009EA8FED7AD6EF4D700018BC093F21B0ED3
:103300000201946F0001DAEC14F0200E9EA8FED7A3
:10331000AD6E200E9EA8FED7AD6E855109080FE355
:103320000201926B9251000162EC02F0000907E089
:103330000201922B9EA8FED7AD6EF4D7000185C086
:1033400093F21B0E0201946F0001DAEC14F03A0EB6
:103350009EA8FED7AD6E865109080FE30201926B5D
:103360009251000162EC02F0000907E00201922B89
:103370009EA8FED7AD6EF4D7000186C093F21B0E57
:103380000201946F0001DAEC14F00A0E0201926F50
:10339000200E9EA8FED7AD6E922FFAD7000187515E
:1033A00009080FE30201926B925100010EEC03F049
:1033B000000907E00201922B9EA8FED7AD6EF4D75C
:1033C000000187C093F21B0E0201946F0001DAEC3A
:1033D00014F02E0E9EA8FED7AD6E885109080FE39B
:1033E0000201926B9251000162EC02F0000907E0C9
:1033F0000201922B9EA8FED7AD6EF4D7000188C0C3
:1034000093F21B0E0201946F0001DAEC14F0DF0E50
:103410009EA8FED7AD6E430E9EA8FED7AD6E100ED1
:103420000201926F200E9EA8FED7AD6E922FFAD7A2
:103430000001895163080FE30201926B9251000170
:103440000EEC03F0000907E00201922B9EA8FED7C4
:10345000AD6EF4D70001895109080FE30201926BA8
:10346000925100010EEC03F0000907E00201922BDB
:103470009EA8FED7AD6EF4D7000189C093F21B0E53
:103480000201946F0001DAEC14F0130E0201926F46
:10349000200E9EA8FED7AD6E922FFAD700018A515A
:1034A00063080FE30201926B925100010EEC03F0EE
:1034B000000907E00201922B9EA8FED7AD6EF4D75B
:1034C00000018A5109080FE30201926B9251000139
:1034D0000EEC03F0000907E00201922B9EA8FED734
:1034E000AD6EF4D700018AC093F21B0E0201946FF7
:1034F0000001DAEC14F00D0E9EA8FED7AD6E812B04
:10350000A2D402018D536AE08AC299F289C298F26C
:1035100000019CEC07F0D892CFC095F2CEC094F297
:10352000CDC093F2CCC092F203C099F202C098F2DF
:1035300001C097F200C096F2ECEC0BF003C0CFF0A4
:1035400002C0CEF001C0CDF000C0CCF0010E0201EF
:103550008E5D040DF350036A8C0FE96E000E03209C
:10356000EA6ECCC0EFFFCDC0ECFFCEC0ECFFCFC009
:10357000ECFF8CC299F28BC298F200019CEC07F030
:10358000D892CBC095F2CAC094F2C9C093F2C8C019
:1035900092F203C099F202C098F201C097F200C003
:1035A00096F2ECEC0BF003C0CBF002C0CAF001C005
:1035B000C9F000C0C8F0010E02018E5D040DF35089
:1035C000036AD00FE96E000E0320EA6EC8C0EFFF59
:1035D000C9C0ECFFCAC0ECFFCBC0ECFF8F53D8B41E
:1035E00015D10001826B82510B08D8A004D1825101
:1035F000040DF350036A8C0F016E000E032201C00C
:1036000092F203C093F200018251040DF350036A59
:103610008C0FE96E000E0320EA6EEFCF94F2ECCF30
:1036200095F2ECCF96F2ECCF97F2036A8251BC0F81
:10363000E96E000E0320EA6EEF500201996B986F5D
:1036400000019CEC07F097C29BF296C29AF295C2D9
:1036500099F294C298F203C09FF202C09EF201C098
:103660009DF200C09CF2AEEC0AF093C2EAFF92C257
:10367000E9FF00C0EFFF01C0ECFF02C0ECFF03C098
:10368000ECFF8251040DF350036AD00F016E000E5F
:10369000032201C092F203C093F200018251040D93
:1036A000F350036AD00FE96E000E0320EA6EEFCFED
:1036B00094F2ECCF95F2ECCF96F2ECCF97F2036A4E
:1036C0008251BC0FE96E000E0320EA6EEF5002013A
:1036D000996B986F00019CEC07F097C29BF296C221
:1036E0009AF295C299F294C298F203C09FF202C076
:1036F0009EF201C09DF200C09CF2AEEC0AF093C2B3
:10370000EAFF92C2E9FF00C0EFFF01C0ECFF02C078
:10371000ECFF03C0ECFF02018451300DF350936BBA
:10372000926F00018251040DF350036A0201922549
:10373000016E935103220150040F016E010E03220A
:1037400001C094F203C095F200018251040DF350C0
:10375000036A8C0FE96E000E0320EA6EEFCF00F0D3
:10376000ECCF01F0ECCF02F0ECCF03F095C2EAFF12
:1037700094C2E9FF00C0EFFF01C0ECFF02C0ECFF04
:1037800003C0ECFF02018451300DF350936B926F34
:1037900000018251040DF350036A02019225016E6B
:1037A000935103220150C40F016E010E032201C088
:1037B00094F203C095F200018251040DF350036AA4
:1037C000D00FE96E000E0320EA6EEFCF00F0ECCFD1
:1037D00001F0ECCF02F0ECCF03F095C2EAFF94C207
:1037E000E9FF00C0EFFF01C0ECFF02C0ECFF03C027
:1037F000ECFF822BF8D6036A02018451850FE96E33
:10380000020E0320EA6E8FC2EFFF842B91C299F261
:1038100090C298F200019CEC07F0CFC09BF2CEC0A2
:103820009AF2CDC099F2CCC098F203C09FF202C0C8
:103830009EF201C09DF200C09CF2AEEC0AF003C003
:10384000CFF002C0CEF001C0CDF000C0CCF091C2EC
:1038500099F290C298F29CEC07F0CBC09BF2CAC0E0
:103860009AF2C9C099F2C8C098F203C09FF202C090
:103870009EF201C09DF200C09CF2AEEC0AF003C0C3
:10388000CBF002C0CAF001C0C9F000C0C8F002010C
:10389000926B92510001D7EC02F0000907E002019F
:1038A000922B9EA8FED7AD6EF4D700010201926B59
:1038B000925100011CEC03F0000907E00201922B79
:1038C0009EA8FED7AD6EF4D700010201926B925113
:1038D000000139EC03F0000907E00201922B9EA8D9
:1038E000FED7AD6EF4D700010201926B9251000138
:1038F0004BEC03F0000907E00201922B9EA8FED7D3
:10390000AD6EF4D700010201926B925100016AEC96
:1039100003F0000907E00201922B9EA8FED7AD6ECE
:10392000F4D700010201926B9251000185EC03F083
:10393000000907E00201922B9EA8FED7AD6EF4D7D6
:1039400000010201926B92510001D7EC02F00009D4
:1039500007E00201922B9EA8FED7AD6EF4D70001BE
:10396000335031080EE0335032080BE03350330847
:1039700008E03350300805E00BEC11F001C033F0E3
:10398000EFD7300E335CFC0FD8B0A2EF23F0040F5A
:10399000A4EF23F00201986B010E996F000130EC47
:1039A00006F00201926B92510001A0EC03F00009B5
:1039B00009E00201922B936F00019AEC06F00201DC
:1039C000F2D70001A2EF23F04A0E336E0201926B90
:1039D00092510001B4EC03F00201922B006E0050F2
:1039E0009EA8FED7AD6E300E925DF2E1020EE96E3A
:1039F000CFC0A4F2CEC0A3F2CDC0A2F2CCC0A1F23F
:103A0000A56F000119EC15F0350E0201936F93516B
:103A10000001B4EC03F00201932B006E00509EA84D
:103A2000FED7AD6E3F0E935DF2E1926B92510001B5
:103A3000E1EC03F00201922B006E00509EA8FED72D
:103A4000AD6E310E925DF2E1020EE96ECBC0A4F2D2
:103A5000CAC0A3F2C9C0A2F2C8C0A1F2A56F0001FA
:103A600019EC15F0360E0201936F93510001E1EC51
:103A700003F00201932B006E00509EA8FED7AD6E9E
:103A8000400E935DF2E1000102D7A2EF23F04A0E4F
:103A9000336E0201926B925100010FEC04F00201AF
:103AA000922B006E00509EA8FED7AD6E280E925D40
:103AB000F2E1100EE96E01C194F200C193F200012F
:103AC000EEEC15F02B0E0201936F935100010FECF9
:103AD00004F00201932B006E00509EA8FED7AD6E3D
:103AE000350E935DF2E1926B9251000137EC04F0D8
:103AF0000201922B006E00509EA8FED7AD6E290EDB
:103B0000925DF2E1100EE96E03C194F202C193F2EC
:103B10000001EEEC15F02C0E0201936F93510001A1
:103B200037EC04F00201932B006E00509EA8FED7E4
:103B3000AD6E360E935DF2E10001A9D6A2EF23F03F
:103B40004A0E336E816B020184510001815DD8B051
:103B50009FEF23F00201926B9251000160EC04F0A0
:103B6000000907E00201922B9EA8FED7AD6EF4D7A4
:103B70000001036A8151850FE96E020E0320EA6E8F
:103B8000EF5009080FE30201926B9251000162ECC1
:103B900002F0000907E00201922B9EA8FED7AD6E4D
:103BA000F4D70001036A8151850FE96E020E0320EC
:103BB000EA6EEFCF92F292C293F21B0E0201946F63
:103BC0000001DAEC14F00D0E9EA8FED7AD6E0201D6
:103BD000926B925100016FEC04F0000907E00201C2
:103BE000922B9EA8FED7AD6EF4D700010201926B16
:103BF00092510001B7EC04F0000907E00201922B9A
:103C00009EA8FED7AD6EF4D700018151300DF35060
:103C10000201936B926F040E9225E96E010E9321BF
:103C2000EA6EEFCF94F2ECCF95F2ECCF96F2ECCFB8
:103C300097F200018151300DF3500201996B986F9A
:103C4000C40E9825E96E010E9921EA6EEFCF9AF223
:103C5000ECCF9BF2ECCF9CF2ECCF9DF29E6B9E5191
:103C60000001FFEC04F002019E2B006E00509EA8A4
:103C7000FED7AD6E050E9E5DF2E11E0E9F6F200E0B
:103C80009EA8FED7AD6E9F2FFAD7890EE96E97C218
:103C9000A4F296C2A3F295C2A2F294C2A1F2060EB9
:103CA000A56F000119EC15F0350E0201A06F200E72
:103CB0009EA8FED7AD6EA02FFAD7890EE96E9DC2E1
:103CC000A4F29CC2A3F29BC2A2F29AC2A1F2060E77
:103CD000A56F000119EC15F00D0E9EA8FED7AD6E74
:103CE0008151300DF3500201936B926F040E9225B7
:103CF000016E000E9321036E0150040FE96E010E58
:103D00000320EA6EEFCF94F2ECCF95F2ECCF96F26F
:103D1000ECCF97F200018151300DF3500201996B05
:103D2000986F040E9825016E000E9921036E0150C4
:103D3000C40FE96E010E0320EA6EEFCF9AF2ECCFCA
:103D40009BF2ECCF9CF2ECCF9DF29E6B9E5100015A
:103D500012EC05F002019E2B006E00509EA8FED7CB
:103D6000AD6E070E9E5DF2E11C0E9F6F200E9EA8A9
:103D7000FED7AD6E9F2FFAD7890EE96E97C2A4F2D7
:103D800096C2A3F295C2A2F294C2A1F2060EA56F4A
:103D9000000119EC15F0350E0201A06F200E9EA84F
:103DA000FED7AD6EA02FFAD7890EE96E9DC2A4F2A0
:103DB0009CC2A3F29BC2A2F29AC2A1F2060EA56F08
:103DC000000119EC15F00D0E9EA8FED7AD6E8151C5
:103DD000300DF3500201936B926F080E9225016E25
:103DE000000E9321036E0150040FE96E010E0320B3
:103DF000EA6EEFCF94F2ECCF95F2ECCF96F2ECCFE7
:103E000097F200018151300DF3500201996B986FC8
:103E1000080E9825016E000E9921036E0150C40F03
:103E2000E96E010E0320EA6EEFCF9AF2ECCF9BF21F
:103E3000ECCF9CF2ECCF9DF29E6B9E51000126ECE4
:103E400005F002019E2B006E00509EA8FED7AD6EBD
:103E5000050E9E5DF2E11E0E9F6F200E9EA8FED7FE
:103E6000AD6E9F2FFAD7890EE96E97C2A4F296C263
:103E7000A3F295C2A2F294C2A1F2060EA56F0001B0
:103E800019EC15F0350E0201A06F200E9EA8FED78A
:103E9000AD6EA02FFAD7890EE96E9DC2A4F29CC226
:103EA000A3F29BC2A2F29AC2A1F2060EA56F000174
:103EB00019EC15F00D0E9EA8FED7AD6E8151300D98
:103EC000F3500201936B926F0C0E9225016E000E5F
:103ED0009321036E0150040FE96E010E0320EA6E78
:103EE000EFCF94F2ECCF95F2ECCF96F2ECCF97F2C5
:103EF00000018151300DF3500201996B986F0C0E47
:103F00009825016E000E9921036E0150C40FE96ED1
:103F1000010E0320EA6EEFCF9AF2ECCF9BF2ECCFCA
:103F20009CF2ECCF9DF29E6B9E51000139EC05F0A6
:103F300002019E2B006E00509EA8FED7AD6E050EAE
:103F40009E5DF2E11E0E9F6F200E9EA8FED7AD6E05
:103F50009F2FFAD7890EE96E97C2A4F296C2A3F2F8
:103F600095C2A2F294C2A1F2060EA56F000119EC4F
:103F700015F0350E0201A06F200E9EA8FED7AD6E83
:103F8000A02FFAD7890EE96E9DC2A4F29CC2A3F2BB
:103F90009BC2A2F29AC2A1F2060EA56F000119EC13
:103FA00015F00D0E9EA8FED7AD6E8151300DF35069
:103FB0000201936B926F100E9225016E000E9321F9
:103FC000036E0150040FE96E010E0320EA6EEFCF7D
:103FD00094F2ECCF95F2ECCF96F2ECCF97F2000191
:103FE0008151300DF3500201996B986F100E982596
:103FF000016E000E9921036E0150C40FE96E010E8F
:104000000320EA6EEFCF9AF2ECCF9BF2ECCF9CF25A
:10401000ECCF9DF29E6B9E5100014CEC05F002012D
:104020009E2B006E00509EA8FED7AD6E040E9E5DC6
:10403000F2E11F0E9F6F200E9EA8FED7AD6E9F2F40
:10404000FAD7890EE96E97C2A4F296C2A3F295C27E
:10405000A2F294C2A1F2060EA56F000119EC15F0B0
:10406000350E0201A06F200E9EA8FED7AD6EA02FC8
:10407000FAD7890EE96E9DC2A4F29CC2A3F29BC23C
:10408000A2F29AC2A1F2060EA56F000119EC15F07A
:104090000D0E9EA8FED7AD6E8151300DF35002017A
:1040A000936B926F140E9225016E000E9321036E96
:1040B0000150040FE96E010E0320EA6EEFCF94F277
:1040C000ECCF95F2ECCF96F2ECCF97F20001815154
:1040D000300DF3500201996B986F140E9825016E04
:1040E000000E9921036E0150C40FE96E010E0320EA
:1040F000EA6EEFCF9AF2ECCF9BF2ECCF9CF2ECCFD2
:104100009DF29E6B9E5100015EEC05F002019E2B1C
:10411000006E00509EA8FED7AD6E050E9E5DF2E1CA
:104120001E0E9F6F200E9EA8FED7AD6E9F2FFAD752
:10413000890EE96E97C2A4F296C2A3F295C2A2F2CA
:1041400094C2A1F2060EA56F000119EC15F0350E10
:104150000201A06F200E9EA8FED7AD6EA02FFAD749
:10416000890EE96E9DC2A4F29CC2A3F29BC2A2F288
:104170009AC2A1F2060EA56F000119EC15F00D0E02
:104180009EA8FED7AD6E8151300DF3500201936BA6
:10419000926F180E9225016E000E9321036E01504E
:1041A000040FE96E010E0320EA6EEFCF94F2ECCF1C
:1041B00095F2ECCF96F2ECCF97F200018151300DE1
:1041C000F3500201996B986F180E9825016E000E3E
:1041D0009921036E0150C40FE96E010E0320EA6EAF
:1041E000EFCF9AF2ECCF9BF2ECCF9CF2ECCF9DF2AA
:1041F0009E6B9E51000171EC05F002019E2B006E3A
:1042000000509EA8FED7AD6E050E9E5DF2E11E0E1B
:104210009F6F200E9EA8FED7AD6E9F2FFAD7890EF6
:10422000E96E97C2A4F296C2A3F295C2A2F294C21A
:10423000A1F2060EA56F000119EC15F0350E020172
:10424000A06F200E9EA8FED7AD6EA02FFAD7890EC4
:10425000E96E9DC2A4F29CC2A3F29BC2A2F29AC2D2
:10426000A1F2060EA56F000119EC15F00D0E9EA827
:10427000FED7AD6E8151300DF3500201936B926FFA
:104280001C0E9225016E000E9321036E0150040F47
:10429000E96E010E0320EA6EEFCF94F2ECCF95F2B7
:1042A000ECCF96F2ECCF97F200018151300DF35034
:1042B0000201996B986F1C0E9825016E000E9921D2
:1042C000036E0150C40FE96E010E0320EA6EEFCFBA
:1042D0009AF2ECCF9BF2ECCF9CF2ECCF9DF29E6B6E
:1042E0009E51000184EC05F002019E2B006E0050EF
:1042F0009EA8FED7AD6E060E9E5DF2E11D0E9F6F6D
:10430000200E9EA8FED7AD6E9F2FFAD7890EE96EBC
:1043100097C2A4F296C2A3F295C2A2F294C2A1F2ED
:10432000060EA56F000119EC15F0350E0201A06F05
:10433000200E9EA8FED7AD6EA02FFAD7890EE96E8B
:104340009DC2A4F29CC2A3F29BC2A2F29AC2A1F2A5
:10435000060EA56F000119EC15F00D0E9EA8FED7F4
:10436000AD6E8151300DF3500201936B926F200EB0
:104370009225016E000E9321036E0150040FE96E29
:10438000010E0320EA6EEFCF94F2ECCF95F2ECCF62
:1043900096F2ECCF97F200018151300DF3500201FB
:1043A000996B986F200E9825016E000E9921036E6F
:1043B0000150C40FE96E010E0320EA6EEFCF9AF2AE
:1043C000ECCF9BF2ECCF9CF2ECCF9DF29E6B9E511A
:1043D000000197EC05F002019E2B006E00509EA894
:1043E000FED7AD6E0A0E9E5DF2E1190E9F6F200E94
:1043F0009EA8FED7AD6E9F2FFAD7890EE96E97C2A1
:10440000A4F296C2A3F295C2A2F294C2A1F2060E41
:10441000A56F000119EC15F0350E0201A06F200EFA
:104420009EA8FED7AD6EA02FFAD7890EE96E9DC269
:10443000A4F29CC2A3F29BC2A2F29AC2A1F2060EFF
:10444000A56F000119EC15F00D0E9EA8FED7AD6EFC
:104450008151300DF3500201936B926F240E92251F
:10446000016E000E9321036E0150040FE96E010EE0
:104470000320EA6EEFCF94F2ECCF95F2ECCF96F2F8
:10448000ECCF97F200018151300DF3500201996B8E
:10449000986F240E9825016E000E9921036E01502D
:1044A000C40FE96E010E0320EA6EEFCF9AF2ECCF53
:1044B0009BF2ECCF9CF2ECCF9DF29E6B9E510001E3
:1044C000ACEC05F002019E2B006E00509EA8FED7BA
:1044D000AD6E070E9E5DF2E11C0E9F6F200E9EA832
:1044E000FED7AD6E9F2FFAD7890EE96E97C2A4F260
:1044F00096C2A3F295C2A2F294C2A1F2060EA56FD3
:10450000000119EC15F0350E0201A06F200E9EA8D7
:10451000FED7AD6EA02FFAD7890EE96E9DC2A4F228
:104520009CC2A3F29BC2A2F29AC2A1F2060EA56F90
:10453000000119EC15F00D0E9EA8FED7AD6E81514D
:10454000300DF3500201936B926F280E9225016E8D
:10455000000E9321036E0150040FE96E010E03203B
:10456000EA6EEFCF94F2ECCF95F2ECCF96F2ECCF6F
:1045700097F200018151300DF3500201996B986F51
:10458000280E9825016E000E9921036E0150C40F6C
:10459000E96E010E0320EA6EEFCF9AF2ECCF9BF2A8
:1045A000ECCF9CF2ECCF9DF29E6B9E510001C0ECD3
:1045B00005F002019E2B006E00509EA8FED7AD6E46
:1045C000090E9E5DF2E11A0E9F6F200E9EA8FED787
:1045D000AD6E9F2FFAD7890EE96E97C2A4F296C2EC
:1045E000A3F295C2A2F294C2A1F2060EA56F000139
:1045F00019EC15F0350E0201A06F200E9EA8FED713
:10460000AD6EA02FFAD7890EE96E9DC2A4F29CC2AE
:10461000A3F29BC2A2F29AC2A1F2060EA56F0001FC
:1046200019EC15F00D0E9EA8FED7AD6E8151300D20
:10463000F3500201936B926F2C0E9225016E000EC7
:104640009321036E0150040FE96E010E0320EA6E00
:10465000EFCF94F2ECCF95F2ECCF96F2ECCF97F24D
:1046600000018151300DF3500201996B986F2C0EAF
:104670009825016E000E9921036E0150C40FE96E5A
:10468000010E0320EA6EEFCF9AF2ECCF9BF2ECCF53
:104690009CF2ECCF9DF29E6B9E510001D5EC05F093
:1046A00002019E2B006E00509EA8FED7AD6E090E33
:1046B0009E5DF2E11A0E9F6F200E9EA8FED7AD6E92
:1046C0009F2FFAD7890EE96E97C2A4F296C2A3F281
:1046D00095C2A2F294C2A1F2060EA56F000119ECD8
:1046E00015F0350E0201A06F200E9EA8FED7AD6E0C
:1046F000A02FFAD7890EE96E9DC2A4F29CC2A3F244
:104700009BC2A2F29AC2A1F2060EA56F000119EC9B
:1047100015F00D0E9EA8FED7AD6E0201926B925160
:1047200000016FEC04F0000907E00201922B9EA843
:10473000FED7AD6EF4D70001812BA3EF1DF047EF3C
:104740001CF000D07DEF2CF0F2CF0EF0F29EE824AA
:104750006D0FF66E470EF76ED8B0F72A0A00F550C7
:10476000FA6E0800F5500EBEF28EF96E9439C83913
:104770008E3A403B0C0E016EC250C30B0110C26E4C
:104780000400060E006E002EFED7C282C2B2FED713
:10479000C4500201996B986F00019CEC07F0020174
:1047A000B16BB06B340EAF6F840EAE6F03C0B5F259
:1047B00002C0B4F201C0B3F200C0B2F20001E1ECF9
:1047C0000DF000C089F001C08AF002C08BF003C078
:1047D0008CF003C09BF202C09AF201C099F200C0B3
:1047E00098F202019F6B9E6B7F0E9D6F860E9C6FF1
:1047F0000001AEEC0AF0D8920201956B946B480E62
:10480000936F830E926F03C099F202C098F201C0B9
:1048100097F200C096F20001ECEC0BF003C084F0BC
:1048200002C083F001C082F000C081F0000E016E72
:10483000C250C30B0110C26E0400060E006E002EA3
:10484000FED7C282C2B2FED7C4500201996B986FE4
:1048500000019CEC07F00201B16BB06B340EAF6F3E
:10486000840EAE6F03C0B5F202C0B4F201C0B3F261
:1048700000C0B2F20001E1EC0DF000C089F001C00F
:104880008AF002C08BF003C08CF003C09BF202C020
:104890009AF201C099F200C098F202019F6B9E6BE0
:1048A0007F0E9D6F860E9C6F0001AEEC0AF0D892D1
:1048B0000201956B946B480E936F830E926F03C049
:1048C00099F202C098F201C097F200C096F200017E
:1048D000ECEC0BF003C088F002C087F001C086F05A
:1048E00000C085F0D88284C095F283C094F282C063
:1048F00093F281C092F20201996B986B200E976F30
:10490000810E966F0001ECEC0BF003C08CF002C03E
:104910008BF001C08AF000C089F088C090F087C099
:104920008FF086C08EF085C08DF0B1EC0BF004E303
:10493000010E016E04D003D0000E016E00D0D2EF44
:104940002CF0926B560E916F6BEC08F058C05FF034
:1049500057C060F056C061F0838E000C926B560E0B
:10496000916F6BEC08F058C081F057C082F056C0D0
:1049700083F05FC091F060C092F061C093F081C09D
:1049800094F082C095F083C096F05DEC0EF001507B
:10499000622602506322839EE5EF2CF0015081C015
:1049A00095F2640E0201966F000178EC13F000C0DE
:1049B00081F00150300E07E182A30DD082B70BD0F9
:1049C00082B9200E03D0829782998281012601C08C
:1049D00093F29AEC06F081C095F20A0E0201966FEE
:1049E000000178EC13F000C081F00150300E06E1B8
:1049F00082B709D082A107D082B9200E012601C05A
:104A000093F29AEC06F0300E812781C093F29AEC73
:104A100006F0000C926B560E916F6BEC08F00201E1
:104A2000986B010E996F000130EC06F0816B81519B
:104A300048EC02F0812B006EE8CF93F29AEC06F07E
:104A4000070E815DF4E1020EE96E2EC089F02DC0E3
:104A500088F02CC087F02BC086F0010E8A6F7FECA7
:104A600011F0200E0201936F00019AEC06F0DF0EA8
:104A70000201936F00019AEC06F00F0E826F8251D3
:104A800048EC02F0822B006EE8CF93F29AEC06F02D
:104A9000180E825DF4E1585009080DE3816B8151D5
:104AA00062EC02F0000907E0812B0201936F000124
:104AB0009AEC06F0F4D758C081F01B0E826F6EDFBF
:104AC0003A0E0201936F00019AEC06F05750090864
:104AD0000DE3816B815162EC02F0000907E0812B4C
:104AE0000201936F00019AEC06F0F4D757C081F0F1
:104AF0001B0E826F53DF88EF25F05EEC0BF003C0D6
:104B00002EF002C02DF001C02CF000C02BF082D797
:104B10002EC08CF02DC08BF02CC08AF02BC089F0F9
:104B200026C090F025C08FF024C08EF023C08DF0F9
:104B3000B1EC0BF022E320521CE0206AD89226C090
:104B400095F225C094F224C093F223C092F232C0B1
:104B500099F231C098F230C097F22FC096F2ECEC87
:104B60000BF003C026F002C025F001C024F000C005
:104B700023F0010E016E23D022D020521DE1010E40
:104B8000206ED88226C095F225C094F224C093F2FC
:104B900023C092F232C099F231C098F230C097F23D
:104BA0002FC096F2ECEC0BF003C026F002C025F00B
:104BB00001C024F000C023F0000E016E00D0E7EF2A
:104BC0002CF0F86AD09E0D8EEA6AE96AB896190E42
:104BD000AF6E220EAC6E900EAB6EC150C00B0F09C3
:104BE000C16E070EB46E186A196A010E1A6E1B6A3E
:104BF0001C6A1D6A1E6A7E0E2F6E306A316A326A26
:104C0000030E936E0F0E956E58EF06F00201986B2F
:104C1000010E996F000130EC06F00201986B0C0E4A
:104C2000996F000130EC06F0816B815176EC00F059
:104C3000000907E0812B0201936F00019AEC06F056
:104C4000F4D7020EB46E92500F09926E0400060E55
:104C5000006E002EFED7B450A19CC150C00B0B09B2
:104C6000C16EC050C00B0209C06EC09EC28002015E
:104C7000966B100E956F060E976F996B6A0E986F74
:104C800000012AEC07F00201996B6AC098F200015A
:104C90009CEC07F003C026F002C025F001C024F010
:104CA00000C023F06BC054F0836B036A6D50832502
:104CB000646E03506C20656E6EC066F06FC067F066
:104CC000B8EF07F0545207E064EC09F006EC0AF084
:104CD000010E226E04D09A6B9B6B41EC08F0839A14
:104CE000839C839E216A636A626A5EEC0BF003C058
:104CF0002EF002C02DF001C02CF000C02BF026C019
:104D00008CF025C08BF024C08AF023C089F02EC01F
:104D100090F02DC08FF02CC08EF02BC08DF0B1EC38
:104D20000BF001E21EE1010E206ED88226C095F242
:104D300025C094F224C093F223C092F232C099F2BB
:104D400031C098F230C097F22FC096F2ECEC0BF025
:104D500003C026F002C025F001C024F000C023F0FB
:104D600001D0206AB4BC03D0010E1F6E01D01F6AAF
:104D7000686A68C069F0F288F086D190F29CF29E71
:104D8000F2BEFDD769526AE09A6B9B6B41EC08F06A
:104D9000225240E083BA2ED026C02AF025C029F046
:104DA00024C028F023C027F00201996B53C098F269
:104DB00000019CEC07F003C026F002C025F001C002
:104DC00024F000C023F0226A010E216E29EC0DF0C0
:104DD00051C070F052C071F0FA0E02019A6F0001DA
:104DE000F4EC05F070C083F071C084F0856BB2EC18
:104DF00009F00FD0FA0E02019A6F0001F4EC05F0F1
:104E0000552A5450555C01E1556A06EC0AF0010E32
:104E1000226E1ED0FA0E02019A6F0001F4EC05F02A
:104E200083AA0DD021520BE02AC026F029C025F01C
:104E300028C024F027C023F0216A76EC0FF0552A11
:104E40005450555C01E1556A06EC0AF0010E226EE1
:104E50009A6B040E9B6F41EC08F0696A6852D8B4F3
:104E6000CCEF2CF04A0E336E0201986B010E996F55
:104E7000000130EC06F0816B81518CEC00F00009F0
:104E800007E0812B0201936F00019AEC06F0F4D742
:104E90003350310811E0335032080EE033503308FC
:104EA0000BE03350340808E033504E0805E00BECBB
:104EB00011F001C033F0ECD73350310A0FE0030A90
:104EC0004CE0010AD8B4C4D1070AD8B4C9EF2BF01A
:104ED0007A0AD8B4A5EF2CF0CBEF2CF083BA17D018
:104EE0000201986B010E996F000130EC06F0816BA6
:104EF0008151A6EC00F0000907E0812B0201936FBD
:104F000000019AEC06F0F4D729EC0DF024D0020150
:104F1000986B010E996F000130EC06F0816B8151A6
:104F2000C1EC00F0000907E0812B0201936F000142
:104F30009AEC06F0F4D776EC0FF083AC01D0839CAA
:104F4000215209E02AC026F029C025F028C024F00B
:104F500027C023F0216ACBEF2CF04A0E336E0201FA
:104F6000986B010E996F000130EC06F0205242E080
:104F7000D89226C095F225C094F224C093F223C0A3
:104F800092F232C099F231C098F230C097F22FC03D
:104F900096F2ECEC0BF000C081F001C082F002C090
:104FA00083F003C084F0856B8551DAEC00F0852B2B
:104FB000006EE8CF93F29AEC06F0150E855DF4E1F1
:104FC000890EE96E84C089F083C088F082C087F0C2
:104FD00081C086F08A6B7FEC11F0DF0E0201936FC7
:104FE00000019AEC06F0430E0201936F00019AEC67
:104FF00006F026D0816B8151DAEC00F0812B006E37
:10500000E8CF93F29AEC06F0150E815DF4E1890E7B
:10501000E96E26C089F025C088F024C087F023C03F
:1050200086F08A6B7FEC11F0DF0E0201936F0001B6
:105030009AEC06F0430E0201936F00019AEC06F021
:10504000040E816FFA0E02019A6F0001F4EC05F074
:10505000812FF8D70201986B010E996F000130EC97
:1050600006F00201986B0E0E996F000130EC06F00D
:10507000816B8151F6EC00F0812B006EE8CF93F24A
:105080009AEC06F00D0E815DF4E1070E826F200EA2
:105090000201936F00019AEC06F0822FF8D7DF0E21
:1050A0000201936F00019AEC06F0430E0201936F28
:1050B00000019AEC06F0060E0201946F020E956F45
:1050C000000187EC06F03FEC13F001C074F074505F
:1050D000640803E07450650803E1A5EF2CF0B6D036
:1050E000020E816FFA0E02019A6F0001F4EC05F0D6
:1050F000812FF8D70201986B010E996F000130ECF7
:1051000006F00201986B0C0E996F000130EC06F06E
:10511000816B81510CEC01F0000907E0812B020149
:10512000936F00019AEC06F0F4D77450200870E3F6
:1051300074500F086DE25EEC0BF003C02EF002C05D
:105140002DF001C02CF000C02BF00201996B74C04F
:1051500098F200019CEC07F003C08CF002C08BF0C9
:1051600001C08AF000C089F02EC090F02DC08FF0F1
:105170002CC08EF02BC08DF0B1EC0BF001E22DE1D4
:10518000010E206E0201996B74C098F200019CEC34
:1051900007F000C081F001C082F002C083F003C0BC
:1051A00084F0D88203C095F202C094F201C093F259
:1051B00000C092F232C099F231C098F230C097F23A
:1051C0002FC096F2ECEC0BF003C026F002C025F0E5
:1051D00001C024F000C023F010D0206A0201996BB6
:1051E00074C098F200019CEC07F003C026F002C0E6
:1051F00025F001C024F000C023F0986B100E976FCB
:10520000010E996F9B6B740E9A6F2AEC0FF01ED0F3
:105210000201986B010E996F000130EC06F0816B72
:10522000815126EC01F0000907E0812B0201936F08
:1052300000019AEC06F0F4D7020E816FFA0E02011B
:105240009A6F0001F4EC05F0812FF8D7CBEF2CF02A
:105250004A0E336E0201986B010E996F000130EC1B
:1052600006F0816B81513FEC01F0000907E0812BD2
:105270000201936F00019AEC06F0F4D7020E816FE1
:10528000FA0E02019A6F0001F4EC05F0812FF8D7B5
:10529000726A72500408D8A06BD20201986B010E9A
:1052A000996F000130EC06F0010E7224816F826B61
:1052B000825156EC01F0822B006EE8CF93F29AEC0B
:1052C00006F00B0E825DF4E181C083F01F0E846F47
:1052D0008EEC13F00A0E0201936F00019AEC06F0B7
:1052E000030E836F200E0201936F00019AEC06F00B
:1052F000832FF8D73A0E0201936F00019AEC06F063
:10530000060E846F200E0201936F00019AEC06F0E6
:10531000842FF8D73A0E0201936F00019AEC06F041
:10532000020E0201946F956F000187EC06F00201F6
:10533000986B0E0E996F000130EC06F03FEC13F005
:1053400001C077F07750640801E1FFD2775065081B
:1053500009E1725206E19A6B9B6B41EC08F0F5D2C1
:1053600001D006D2050E0201946F020E956F000166
:1053700087EC06F03FEC13F001C078F07850640839
:1053800001E1E3D27850650809E1725206E19A6BB7
:105390009B6B41EC08F0D9D201D0EAD1090E020191
:1053A000946F020E956F000187EC06F03FEC13F04E
:1053B00001C079F07950640801E1C7D279506508DD
:1053C00009E1725206E19A6B9B6B41EC08F0BDD289
:1053D00001D0CED10C0E0201946F020E956F000128
:1053E00087EC06F03FEC13F001C07AF07A506408C5
:1053F00001E1ABD27A50650809E1725206E19A6B7D
:105400009B6B41EC08F0A1D201D0B2D10201986BA4
:105410000C0E996F000130EC06F0020E816FFA0E4F
:1054200002019A6F0001F4EC05F0812FF8D7775054
:10543000170815E37950170812E378503B080FE37B
:105440007A503B080CE379C09BF07AC09CF077C09F
:105450009DF078C09EF04AEC09F0015220E0020174
:10546000986B010E996F000130EC06F0816B815151
:105470006CEC01F0000907E0812B0201936F000141
:105480009AEC06F0F4D7020E816FFA0E02019A6FC1
:105490000001F4EC05F0812FF8D7720667D177C0D0
:1054A00091F078C092F079C093F07AC094F04DEC0E
:1054B0000DF002C082F001C081F0825303E18151FE
:1054C000F00820E20201986B010E996F000130ECA8
:1054D00006F0816B815186EC01F0000907E0812B19
:1054E0000201936F00019AEC06F0F4D7020E816F6F
:1054F000FA0E02019A6F0001F4EC05F0812FF8D743
:10550000720634D10201986B010E996F000130ECE4
:1055100006F0010E7224816F826B8251A1EC01F0C2
:10552000822B006EE8CF93F29AEC06F00B0E825DB0
:10553000F4E181C083F01F0E846F8EEC13F00A0E2D
:105540000201936F00019AEC06F0060E836F200EA5
:105550000201936F00019AEC06F0832FF8D7DF0E5B
:105560000201936F00019AEC06F0430E0201936F63
:1055700000019AEC06F0040E0201946F020E956F82
:10558000000187EC06F00201986B0E0E996F000186
:1055900030EC06F03FEC13F001C07BF00201986B99
:1055A0000C0E996F000130EC06F0020E816FFA0EBE
:1055B00002019A6F0001F4EC05F0812FF8D77B50BF
:1055C000200803E37B500F0820E30201986B010ED3
:1055D000996F000130EC06F0816B815126EC01F0EF
:1055E000000907E0812B0201936F00019AEC06F09D
:1055F000F4D7020E816FFA0E02019A6F0001F4ECEB
:1056000005F0812FF8D77206B1D0736A7250735CBF
:10561000D8B09AD07350050DF350036A360F016E5F
:10562000000E032201C081F003C082F0EA6A7C0E02
:10563000E96E03C0E2FF01C0E1FF050E016EE6CF97
:10564000EEFF012EFCD77CC09BF07DC09CF079C0A2
:105650009DF07AC09EF04AEC09F001520CE07CC04B
:105660009BF07DC09CF077C09DF078C09EF04AEC26
:1056700009F0015248E07EC09BF07FC09CF079C0E9
:105680009DF07AC09EF04AEC09F001520CE07EC019
:105690009BF07FC09CF077C09DF078C09EF04AECF4
:1056A00009F0015230E077C09BF078C09CF07EC0DA
:1056B0009DF07FC09EF04AEC09F001520CE077C0EB
:1056C0009BF078C09CF07CC09DF07DC09EF04AECC1
:1056D00009F0015218E079C09BF07AC09CF07EC0BE
:1056E0009DF07FC09EF04AEC09F001522BE079C09A
:1056F0009BF07AC09CF07CC09DF07DC09EF04AEC8F
:1057000009F001521FE10201986B010E996F00012F
:1057100030EC06F0816B8151B7EC01F0000907E035
:10572000812B0201936F00019AEC06F0F4D7040E6E
:10573000816FFA0E02019A6F0001F4EC05F0812FDF
:10574000F8D703D1732A62D77250050DF350036A5C
:10575000360FE96E000E0320EA6EE26A770EE16E04
:10576000050E016EE6CFEEFF012EFCD7722A91D511
:105770009A6B040E9B6F41EC08F072C054F0FAEF84
:1057800013F064EC09F006EC0AF0010E226E96EFBD
:1057900014F04A0E336E0201986B010E996F0001EE
:1057A00030EC06F00201986B0E0E996F000130ECA0
:1057B00006F0816B8151D2EC01F0000907E0812BEA
:1057C0000201936F00019AEC06F0F4D7726A7250EE
:1057D00002081DE00BEC11F001C033F033502F082C
:1057E00015E23350390812E32A0E0201936F0001CB
:1057F0009AEC06F0036A7250340FE96E000E032033
:10580000EA6E33C0EFFF4A0E336E722AE0D7846B24
:10581000340E836F72EC12F0036A01C075F003C09E
:1058200076F0726A725002081DE00BEC11F001C0B4
:1058300033F033502F0815E23350390812E32A0EA3
:105840000201936F00019AEC06F0036A7250340F64
:10585000E96E000E0320EA6E33C0EFFF4A0E336E8E
:10586000722AE0D776C0A3F075C0A2F0A56B640ED3
:10587000A46F3EEC0DF002C082F001C081F0846B99
:10588000340E836F72EC12F0036A0150E8BE030617
:105890008125016E8251032201C075F003C076F0AC
:1058A000020E816FFA0E02019A6F0001F4EC05F00E
:1058B000812FF8D77550610821E1765009081EE163
:1058C0000201986B010E996F000130EC06F00201A5
:1058D000986B0C0E996F000130EC06F0816B8151D2
:1058E000E5EC01F0000907E0812B0201936F000154
:1058F0009AEC06F0F4D743EF16F026D00201986B2D
:10590000010E996F000130EC06F00201986B0C0E4D
:10591000996F000130EC06F0816B8151FBEC01F0D6
:10592000000907E0812B0201936F00019AEC06F059
:10593000F4D7020E816FFA0E02019A6F0001F4ECA7
:1059400005F0812FF8D701D026D00201986B010E07
:10595000996F000130EC06F00201986B0C0E996F04
:10596000000130EC06F0816B815113EC02F000096C
:1059700007E0812B0201936F00019AEC06F0F4D747
:10598000020E816FFA0E02019A6F0001F4EC05F02D
:10599000812FF8D700D0686AB4AC0FD01F5208E04E
:1059A000BAEF23F0015203E11F6AA1EC24F004D006
:1059B00083BE02D0A1EC24F008D01F5202E1010EF8
:1059C0001F6E83AE02D0AEEF24F07DEF25F00152C2
:1059D0005DE083AA5BD01F5259E083BC01D0838C69
:1059E0005DC091F05EC092F058C093F057C094F043
:1059F0004DEC0DF002C082F001C081F0825303E152
:105A00008151F00842E20201986B010E996F00018A
:105A100030EC06F0816B81512DEC02F0000907E0BB
:105A2000812B0201936F00019AEC06F0F4D7020E6D
:105A3000816FFA0E02019A6F0001F4EC05F0812FDC
:105A4000F8D70201986B010E996F000130EC06F057
:105A5000816B8151C1EC00F0000907E0812B02014C
:105A6000936F00019AEC06F0F4D776EC0FF083AC5C
:105A700001D0839C215209E02AC026F029C025F0DC
:105A800028C024F027C023F0216A03D083AC01D0C2
:105A9000839CC00EF212D1800300BDEF26F00300FC
:020000040030CA
:0E00000000021E16008381000FC00FE00F40AB
:00000001FF
;PIC18F4520
