:020000040000FA
:10000000CFEF01F0090E235E0BE3EA6A230EE96EDF
:10001000D890EF32EF5004E001D00400EF2EFDD76E
:10002000000C929A899A0400020E226EF70E236E3B
:10003000E9DF222EFBD7928A0400020E226EF70E11
:10004000236EE0DF222EFBD7928A000C246A245014
:1000500007081AE3929A899A040000000000000041
:10006000D890233202E2899A01D0898A929A0400B8
:10007000270E006E002EFED70000928A04000000BA
:1000800000000000242AE3D7000C2250D8B471D01D
:10009000006E2650D8B46DD0002604E3810E0026F1
:1000A00068E204D07F0E005E64E363E023C02AF0C0
:1000B00027502A1A238E278E25502902F4CF2CF0A0
:1000C00024502802F4CF03F0F3CF2BF02902F35091
:1000D0002C26F4502B22000E032225502802F35028
:1000E0002C26F4502B22000E026A032202222350F7
:1000F0002902F3502B26F4500322000E0222235033
:100100002802F3500326F4500222000E016A012255
:1001100025502702F3502B26F4500322000E022212
:10012000012224502702F3500326F4500222000E2D
:10013000012223502702F3500226F4500122002A04
:1001400001BE05D02B360336023601360006000EFE
:100150002BAE0AD0032A02220122015005E10250EF
:1001600003E1035001E1002A2ABE018E2AAE019E5E
:1001700004D0006A016A026A036A0000000C8E0E55
:10018000006E2250005E23C002F024C001F0028EF7
:10019000005209E0D890025202E1015204E002321A
:1001A0000132002EF7D723AE05D0011E021E012A10
:1001B000D8B4022A0000000CEA6A220EE96EEF5061
:1001C00012E0020E016EBF0E006E0400002EFDD77D
:1001D000012EF9D7960E006E002EFED7000000000B
:1001E0000400EF2EEED74FEF01F01BDFCC0E236E95
:1001F0002DDF4E0E236E2ADF256A246A236A800EC5
:10020000226E15C029F014C028F013C027F012C0C8
:1002100026F03BDF03C01DF002C01CF001C01BF044
:1002200000C01AF0256A246A236A800E226E19C063
:1002300029F018C028F017C027F016C026F025DFD7
:1002400003C021F002C020F001C01FF000C01EF06A
:100250001DC025F01CC024F01BC023F01AC022F0E2
:100260008EDF01C022F001C023F0F0DE21C025F0B6
:1002700020C024F01FC023F01EC022F080DF01C088
:1002800022F001C023F0E2DECCDECC0E236EDEDEF7
:10029000480E236EDBDE04000A0E226E8DD70D0E93
:1002A000226E2C0E236EAEDE222EFBD7F4EF01F071
:1002B000146A145007081DE3929A899A04000000FA
:1002C00000000000928A0400040E006E002EFED78B
:1002D00000000000928A80BA02D0D89001D0D88065
:1002E000153204004F0E006E002EFED70000142AB7
:1002F000E0D715C001F088EF01F0126A92DECC0E53
:10030000236EA4DE440E236EA1DE125204E1D0D788
:1003100001C012F0FAD785DEEC0E236E97DE929ABA
:10032000899A0400000000000000928A0400040E74
:10033000006E002EFED700000000928A139080BA53
:10034000138004004F0E006E002EFED70000929A1C
:10035000899A0400000000000000928A0400040E44
:10036000006E002EFED700000000928A139280BA21
:10037000138204004F0E006E002EFED70000006AAC
:1003800013B2008013500018010B04E0010E016E3F
:1003900004D003D0000E016E00D0F5EF01F0F86A32
:1003A000D09EEA6AE96AB896190EAF6E220EAC6E5C
:1003B000900EAB6EC150C00B0F09C16E070EB46E2C
:1003C000030E936E956E946E839A839C839E156A3A
:1003D000146A7F0E136E850E126E196A186A200E4B
:1003E000176E830E166E01D788D7015202E0838AFA
:0803F00001D0839AF9D7030044
:020000040030CA
:0E00000000021E17008381000FC00FE00F40AA
:00000001FF
;PIC18F4520
