:020000040000FA
:04000000B1EF2CF040
:08000800056ED8CF06F0E0CF31
:1000100007F00001E9CF0DF0EACF08F0E1CF09F0D9
:10002000E2CF0AF0D9CF0BF0DACF0CF0F3CF14F017
:10003000F4CF15F0FACF16F000C00FF001C010F0A9
:1000400002C011F003C012F004C013F0F0A62CEFB0
:1000500000F0F0B06EEF08F00FC000F010C001F03B
:1000600011C002F012C003F013C004F00DC0E9FF8C
:1000700008C0EAFF09C0E1FF0AC0E2FF0BC0D9FFD8
:100080000CC0DAFF14C0F3FF15C0F4FF16C0FAFF6E
:10009000055007C0E0FF06C0D8FF1000F2CF0EF0F9
:1000A000F29EF76AB60FF66E000EF7220900F550C1
:1000B0000EBEF28E12002C0F0106F2CF0EF0F29E51
:1000C000F76AD40FF66E000EF7220900F5500EBE47
:1000D000F28E1200496E696369616C697A616E64BF
:1000E0006F2E2E2E0000F2CF0EF0F29EF76A000F58
:1000F000F66E010EF7220900F5500EBEF28E1200C8
:1001000053697374656D6120696E696369616C69B7
:100110007A61646F20636F6E20657869746F210D5A
:100120000000F2CF0EF0F29EF76A3C0FF66E010E61
:10013000F7220900F5500EBEF28E12002020456E07
:1001400063656E6469656E646F0A202073697374F9
:10015000656D612E2E2E0000F2CF0EF0F29EF76A32
:10016000720FF66E010EF7220900F5500EBEF28EE8
:100170001200202041706167616E646F0A20207355
:10018000697374656D612E2E2E00F2CF0EF0F29E13
:10019000F76AA40FF66E010EF7220900F5500EBEA5
:1001A000F28E12002020496E6469717565206C61C1
:1001B000200A20206F7065726163696F6E202020B5
:1001C0003100F2CF0EF0F29EF76ADC0FF66E010EF0
:1001D000F7220900F5500EBEF28E12002020416E6B
:1001E000756C616E646F0A20206F7065726163695F
:1001F0006F6E2E2E2E00F2CF0EF0F29EF76A100FC9
:10020000F66E020EF7220900F5500EBEF28E1200B5
:100210004D6F646966696361720A7465726D6F73AC
:100220007461746F20252E30662563430000F2CF81
:100230000EF0F29EF76A480FF66E020EF7220900E2
:10024000F5500EBEF28E12004E7565766F20766107
:100250006C6F723A0A2563430000F2CF0EF0F29EF3
:10026000F76A740FF66E020EF7220900F5500EBE03
:10027000F28E1200202041706C6963616E646F0A17
:10028000202063616D62696F732E2E2E0000F2CF05
:100290000EF0F29EF76AA80FF66E020EF722090022
:1002A000F5500EBEF28E12002050726F6772616DB3
:1002B00061720A2073697374656D6100F2CF0EF08C
:1002C000F29EF76AD60FF66E020EF7220900F5507D
:1002D0000EBEF28E120020494E54455256414C4FEC
:1002E0002025690A3A3A0000F2CF0EF0F29EF76A32
:1002F000020FF66E030EF7220900F5500EBEF28EC5
:10030000120020202056616C6F7265730A20202035
:10031000696E636F72726563746F7300F2CF0EF073
:10032000F29EF76A360FF66E030EF7220900F550BB
:100330000EBEF28E1200496E74657276616C6F208B
:100340006C696D6974650A6465203420686F726138
:100350007300F2CF0EF0F29EF76A6C0FF66E030E8A
:10036000F7220900F5500EBEF28E12005465726D30
:100370006F737461746F2025690A25634300F2CF9F
:100380000EF0F29EF76A980FF66E030EF722090040
:10039000F5500EBEF28E1200536F6C6170616D6984
:1003A000656E746F0A646520696E74657276616C3F
:1003B0006F732100F2CF0EF0F29EF76ACE0FF66E49
:1003C000030EF7220900F5500EBEF28E1200202017
:1003D000496E74726F64757A63610A2020636C6180
:1003E00076650000F2CF0EF0F29EF76AFE0FF66E11
:1003F000030EF7220900F5500EBEF28E12002020E7
:10040000436C6176650A2020696E636F7272656362
:1004100074610000F2CF0EF0F29EF76A2E0FF66EB6
:10042000040EF7220900F5500EBEF28E12002020B5
:100430004D6F646F0A20207265766973696F6E0074
:10044000F2CF0EF0F29EF76A5A0FF66E040EF72204
:100450000900F5500EBEF28E120044656D6173699D
:1004600061646F207469656D706F0A656E63656E97
:100470006469646F2100F2CF0EF0F29EF76A900F6C
:10048000F66E040EF7220900F5500EBEF28E120031
:100490003000F2CF0EF0F29EF76AAC0FF66E040E4B
:1004A000F7220900F5500EBEF28E12000D496E695A
:1004B0006369616C697A6163696F6E2064656C2041
:1004C00073697374656D610D0000F2CF0EF0F29EDA
:1004D000F76AE40FF66E040EF7220900F5500EBE1F
:1004E000F28E12002A2A2A2A2A2A2A2A2A2A2A2A82
:1004F0002A2A2A2A2A2A2A2A2A2A2A2A2A2A0D00A3
:10050000F2CF0EF0F29EF76A1A0FF66E050EF72282
:100510000900F5500EBEF28E120044696120646538
:10052000206C612073656D616E612028312D3E4C19
:10053000756E65732C20322D3E4D61727465732C7F
:10054000202E2E2E293A204C554E45532020202077
:100550000000F2CF0EF0F29EF76A6C0FF66E050EF9
:10056000F7220900F5500EBEF28E120008080808A6
:1005700008080808084C554E45532020202000004C
:10058000F2CF0EF0F29EF76A9A0FF66E050EF72282
:100590000900F5500EBEF28E12000808080808087F
:1005A0000808084D41525445532020200000F2CF46
:1005B0000EF0F29EF76AC80FF66E050EF7220900DC
:1005C000F5500EBEF28E1200080808080808080848
:1005D000084D494552434F4C45530000F2CF0EF0B1
:1005E000F29EF76AF60FF66E050EF7220900F55037
:1005F0000EBEF28E12000808080808080808084A0B
:1006000055455645532020200000F2CF0EF0F29EB3
:10061000F76A240FF66E060EF7220900F5500EBE9B
:10062000F28E12000808080808080808085649450C
:10063000524E455320200000F2CF0EF0F29EF76A92
:10064000520FF66E060EF7220900F5500EBEF28E1E
:1006500012000808080808080808085341424144E5
:100660004F2020200000F2CF0EF0F29EF76A800F9C
:10067000F66E060EF7220900F5500EBEF28E12003D
:10068000080808080808080808444F4D494E474F15
:1006900020200000F2CF0EF0F29EF76AAE0FF66E49
:1006A000060EF7220900F5500EBEF28E12000D461E
:1006B000454348413A200000F2CF0EF0F29EF76A1F
:1006C000D20FF66E060EF7220900F5500EBEF28E1E
:1006D00012000D526573657465616E646F20696EFA
:1006E000696369616C697A6163696F6E2E2E2E0D84
:1006F0000000F2CF0EF0F29EF76A0C0FF66E070EB6
:10070000F7220900F5500EBEF28E12000D44696109
:1007100020696E636F72726563746F2E2052657309
:10072000657465616E646F20696E696369616C6987
:100730007A6163696F6E2E2E2E0D0000F2CF0EF0DF
:10074000F29EF76A560FF66E070EF7220900F55073
:100750000EBEF28E12002F00F2CF0EF0F29EF76A5C
:10076000720FF66E070EF7220900F5500EBEF28EDC
:1007700012000D4D657320696E636F72726563744C
:100780006F2E20526573657465616E646F20696EAB
:10079000696369616C697A6163696F6E2E2E2E0DD3
:1007A0000000F2CF0EF0F29EF76ABC0FF66E070E55
:1007B000F7220900F5500EBEF28E12000D4572723E
:1007C0006F7220656E206C612066656368612E2003
:1007D000526573657465616E646F20696E696369E3
:1007E000616C697A6163696F6E2E2E2E0D00F2CFF7
:1007F0000EF0F29EF76A080FF66E080EF722090057
:10080000F5500EBEF28E12000D416E6E6F20696EB5
:10081000636F72726563746F2E20526573657465C1
:10082000616E646F20696E696369616C697A616386
:10083000696F6E2E2E2E0D00F2CF0EF0F29EF76A2B
:10084000520FF66E080EF7220900F5500EBEF28E1A
:1008500012000D456C20616E6E6F206E6F20657307
:1008600020626973696573746F2E205265736574B5
:1008700065616E646F20696E696369616C697A6134
:1008800063696F6E2E2E2E0D0000F2CF0EF0F29ED9
:10089000F76AA40FF66E080EF7220900F5500EBE97
:1008A000F28E12000D484F52413A2000F2CF0EF066
:1008B000F29EF76AC60FF66E080EF7220900F55091
:1008C0000EBEF28E12000D526573657465616E6422
:1008D0006F206C6120696E696369616C697A61631C
:1008E000696F6E2E2E2E0D00F2CF0EF0F29EF76A7B
:1008F000020FF66E090EF7220900F5500EBEF28EB9
:1009000012002020486F726120696E636F727265F9
:10091000637461210000F2CF0EF0F29EF76A300F8F
:10092000F66E090EF7220900F5500EBEF28E120087
:100930003A00F2CF0EF0F29EF76A4C0FF66E090EF7
:10094000F7220900F5500EBEF28E120020204D69EC
:100950006E75746F7320696E636F72726563746F06
:1009600073210000F2CF0EF0F29EF76A7E0FF66E52
:10097000090EF7220900F5500EBEF28E12000D4747
:1009800075617264616E646F20636F6E666967750E
:10099000726163696F6E2E2E2E00F2CF0EF0F29E02
:1009A000F76AB40FF66E090EF7220900F5500EBE75
:1009B000F28E12000D496E696369616E646F207377
:1009C000697374656D612E2E2E0D0000F2CF0EF04E
:1009D000F29EF76AE60FF66E090EF7220900F5504F
:1009E0000EBEF28E120054454D50202D2025332E80
:1009F0003166202563430A484F5241202D200000D4
:100A0000F2CF0EF0F29EF76A1A0FF66E0A0EF72278
:100A10000900F5500EBEF28E12000D5245474953A3
:100A200054524F204445204556454E544F530D00D7
:100A3000F2CF0EF0F29EF76A4A0FF66E0A0EF72218
:100A40000900F5500EBEF28E12002A2A2A2A2A2AFE
:100A50002A2A2A2A2A2A2A2A2A2A2A2A2A0D000067
:100A6000F2CF0EF0F29EF76A7A0FF66E0A0EF722B8
:100A70000900F5500EBEF28E1200466563686120D3
:100A80002020202020202020202054656D702E2042
:100A90002020205465726D2E20204D696E2E532E1D
:100AA00020204D696E2E432E0D00F2CF0EF0F29EE7
:100AB000F76AC40FF66E0A0EF7220900F5500EBE53
:100AC000F28E12003D3D3D3D3D3D3D3D3D3D3D3DB8
:100AD0003D3D3D3D3D3D3D3D3D3D3D3D3D3D3D3D46
:100AE0003D3D3D3D3D3D3D3D3D3D3D3D3D3D3D3D36
:100AF0003D3D0D00F2CF0EF0F29EF76A0E0FF66E3E
:100B00000B0EF7220900F5500EBEF28E12002000E7
:100B1000F2CF0EF0F29EF76A2A0FF66E0B0EF72256
:100B20000900F5500EBEF28E12000D3D3D3D3D3DDB
:100B30003D3D3D3D3D3D3D3D3D3D3D3D3D3D3D3DE5
:100B40003D3D3D3D3D3D3D3D3D3D3D3D3D3D3D3DD5
:100B50003D3D3D3D3D3D3D3D0D00F2CF0EF0F29E51
:100B6000F76A740FF66E0B0EF7220900F5500EBEF1
:100B7000F28E1200BF517565206F706572616369F6
:100B80006F6E206465736561207265616C697A615E
:100B9000723F0D00F2CF0EF0F29EF76AAE0FF66EC6
:100BA0000B0EF7220900F5500EBEF28E1200302E09
:100BB0002053616C69720D00F2CF0EF0F29EF76A5D
:100BC000D20FF66E0B0EF7220900F5500EBEF28E14
:100BD0001200312E20457874726165722074696547
:100BE0006D706F73206D6564696F7320706F722014
:100BF0006469610D0000F2CF0EF0F29EF76A100FEB
:100C0000F66E0C0EF7220900F5500EBEF28E1200A1
:100C1000322E2045787472616572207469656D703A
:100C20006F7320746F74616C65730D00F2CF0EF0FA
:100C3000F29EF76A460FF66E0C0EF7220900F55089
:100C40000EBEF28E1200332E2045787472616572EA
:100C5000206461746F73206D656E7375616C65736C
:100C60000D00F2CF0EF0F29EF76A7C0FF66E0C0EBE
:100C7000F7220900F5500EBEF28E12003D3D3D3DBB
:100C80003D3D3D3D3D3D3D3D3D3D3D3D3D3D3D3D94
:100C90003D3D3D3D3D3D3D3D3D3D3D3D3D3D3D3D84
:100CA0003D3D3D3D3D3D3D3D3D0D0000F2CF0EF053
:100CB000F29EF76AC60FF66E0C0EF7220900F55089
:100CC0000EBEF28E12000D53616C69656E646F2E5C
:100CD0002E2E0D00F2CF0EF0F29EF76AEE0FF66E9A
:100CE0000C0EF7220900F5500EBEF28E12000D54C4
:100CF0002E206D6564696F20656E63656E6469643E
:100D00006F2073697374656D6120706F7220646900
:100D1000613A2025332E3266206D696E75746F73CB
:100D20000D0D0000F2CF0EF0F29EF76A3E0FF66E48
:100D30000D0EF7220900F5500EBEF28E1200542E51
:100D4000206D6564696F20656E63656E6469646FAC
:100D50002063616C6465726120706F7220646961E8
:100D60003A2025332E3266206D696E75746F730DCF
:100D70000D00F2CF0EF0F29EF76A8C0FF66E0D0E9C
:100D8000F7220900F5500EBEF28E12000D542E20EF
:100D9000746F74616C20656E63656E6469646F2046
:100DA00073697374656D613A20256C75206D696E89
:100DB00075746F730D0D0000F2CF0EF0F29EF76A9E
:100DC000D20FF66E0D0EF7220900F5500EBEF28E10
:100DD0001200542E20746F74616C20656E63656E12
:100DE0006469646F2063616C646572613A20256C8C
:100DF00075206D696E75746F730D0D00F2CF0EF076
:100E0000F29EF76A160FF66E0E0EF7220900F550E5
:100E10000EBEF28E12000D323000F2CF0EF0F29EB6
:100E2000F76A340FF66E0E0EF7220900F5500EBE6B
:100E3000F28E12002D2D2D2D2D2D2D2D2D2D2D2D04
:100E40002D2D2D2D2D2D2D2D2D2D2D2D2D2D2D2DD2
:100E50002D2D2D2D2D2D2D2D2D2D2D2D2D2D2D2DC2
:100E60002D2D2D2D2D2D2D2D2D0D0000F2CF0EF021
:100E7000F29EF76A860FF66E0E0EF7220900F55005
:100E80000EBEF28E120020202020202020202020C4
:100E900020542E2073697374656D6120286D696E0E
:100EA0002F646961292020542E2063616C6465726F
:100EB0006120286D696E2F646961290D0000F2CFF1
:100EC0000EF0F29EF76AD80FF66E0E0EF7220900AA
:100ED000F5500EBEF28E1200454E45524F25332E70
:100EE000326625332E32660D0000F2CF0EF0F29EF0
:100EF000F76A040FF66E0F0EF7220900F5500EBECA
:100F0000F28E12004645425245524F25332E32662C
:100F100025332E32660D0000F2CF0EF0F29EF76AF6
:100F2000320FF66E0F0EF7220900F5500EBEF28E4C
:100F300012004D41525A4F25332E326625332E3240
:100F4000660D0000F2CF0EF0F29EF76A5E0FF66EAD
:100F50000F0EF7220900F5500EBEF28E120041422C
:100F600052494C25332E326625332E32660D000051
:100F7000F2CF0EF0F29EF76A8A0FF66E0F0EF7228E
:100F80000900F5500EBEF28E12004D41594F253327
:100F90002E326625332E32660D00F2CF0EF0F29E11
:100FA000F76AB40FF66E0F0EF7220900F5500EBE69
:100FB000F28E12004A554E494F25332E32662533A4
:100FC0002E32660D0000F2CF0EF0F29EF76AE00FAF
:100FD000F66E0F0EF7220900F5500EBEF28E1200CB
:100FE0004A554C494F25332E326625332E32660D35
:100FF0000000F2CF0EF0F29EF76A0C0FF66E100EA4
:10100000F7220900F5500EBEF28E120041474F53F1
:10101000544F25332E326625332E32660D00F2CF23
:101020000EF0F29EF76A380FF66E100EF7220900E6
:10103000F5500EBEF28E12005345505449454D42B4
:10104000524525332E326625332E32660D00F2CFFF
:101050000EF0F29EF76A680FF66E100EF722090086
:10106000F5500EBEF28E12004F43545542524525A4
:10107000332E326625332E32660D0000F2CF0EF08D
:10108000F29EF76A960FF66E100EF7220900F550E1
:101090000EBEF28E12004E4F5649454D4252452526
:1010A000332E326625332E32660D0000F2CF0EF05D
:1010B000F29EF76AC60FF66E100EF7220900F55081
:1010C0000EBEF28E120044494349454D4252452519
:1010D000332E326625332E32660D0000F0901E88C6
:1010E000F0902CEF00F0EA6A840EE96EEF5012E007
:1010F000020E016EBF0E006E0400002EFDD7012E01
:10110000F9D7960E006E002EFED7000000000400F6
:10111000EF2EEED7000C8539F00B006E0F0E811408
:101120000010816E000081860400000000000000B5
:101130008196000C090E855F0BE3EA6A850EE96E65
:10114000D890EF32EF5004E001D00400EF2EFDD72D
:10115000000C81940400020E846FC5DF090E846FB9
:101160006D0E856FE7DF842FFBD782A1819482B15A
:1011700081840000000081968339846F0F0E8417EC
:1011800084C085F0C8DF83510F0B846F856FC3DF88
:10119000000C030E936E81948196320E846FA3DF50
:1011A000020E856FB8DF050E846F9DDF6B6A6B5092
:1011B000030812E3036A6B50F2CF6CF0F29E4EEC20
:1011C00000F06CBEF28E6D6E826B836FC2DF050E17
:1011D000846F89DF6B2AEBD7E7EF2CF07F2C01D0EF
:1011E00003D0400E806F01D0806B010E7E5C8027A3
:1011F00080518009816F826B836FABDF000C7D5063
:101200000C0A05E0060A0BE0020A0FE013D0826B1D
:10121000010E836F9EDF020E846F65DF11D0010E19
:101220007E6E020E7F6EDADF0BD0826B100E836F44
:1012300090DF06D0010E826F7DC083F08ADF00D080
:10124000000C006A016A7D50D8907EB00026003202
:1012500001327EB20026003201327EB40026003216
:1012600001327EB60026003201327EB800260032FE
:1012700001327EBA0026003201327EBC00260032E6
:1012800001327EBE002600320132B3EF09F07B6AE4
:10129000796A0A0E7A6E786A7650771003E1000E4A
:1012A000016EC1D07B507B2A036A7624E96E7750A9
:1012B0000320EA6EEFCF7CF07C502D080DE1010E8B
:1012C000796E7B507B2A036A7624E96E775003207F
:1012D000EA6EEFCF7CF00DD07C502B080AE17B50FA
:1012E0007B2A036A7624E96E77500320EA6EEFCFFB
:1012F0007CF07C502F08D8B08ED07C503908D8A014
:101300008AD07C50300821E1036A7B507624E96E54
:1013100077500320EA6EEF5078080AE0036A7B50AA
:101320007624E96E77500320EA6EEF5058080DE1FD
:10133000100E7A6E7B2A7B507B2A036A7624E96E34
:1013400077500320EA6EEFCF7CF07A500A081BE159
:101350007C502F0817E27C50390814E30A0E7D6E8A
:1013600078C07EF06ED7300E7C5C0124786E7B50A6
:101370007B2A036A7624E96E77500320EA6EEFCF6A
:101380007CF0E6D748D07A50100845E17C506008E0
:1013900006E27C507A0803E37C50DF0B01D07C50DE
:1013A0007C6E7C502F0803E27C50390806E27C50AA
:1013B000400831E27C5046082EE37C502F080CE2B6
:1013C0007C50390809E378387D6EF00E7D16300EBA
:1013D0007C5C7D24786E09D078387D6EF00E7D16A9
:1013E000410E7C5C0A0F7D24786E7B507B2A036A59
:1013F0007624E96E77500320EA6EEFCF7CF07C50C4
:10140000600806E27C507A0803E37C50DF0B01D0D1
:101410007C507C6EC6D7792C04D07A500A0801E142
:10142000786C78C001F0000C756A75C074F074C0F7
:1014300073F073502F0803E27350390808E27350B9
:10144000080805E09EAAFED7AECF73F0F2D773501E
:10145000080803E1640E016E21D073509EA8FED7E8
:10146000AD6E74502F0803E27450390808E27450CE
:10147000080805E09EAAFED7AECF74F0F2D77450EC
:10148000080803E1640E016E09D074509EA8FED7CF
:10149000AD6E776A730E766EFADE0150000C7C6AD0
:1014A0007B50090805E20A0E7B5E100E7C2603D0F5
:1014B0007B507C2601D0F4D77CC001F0000CC69E86
:1014C0009E967EC0C9FF020EC6BE05D09EA6FED760
:1014D000000EC5BC010E016E000CF29CF29EF2BE25
:1014E000FDD7C580C5B0FED7A00E7E6EE8DF7CC0FC
:1014F0007EF0E5DF7DC07EF0E2DFC584C5B4FED7B7
:10150000000C7350E96E74C0EAFFEFCF7AF07AC036
:101510007BF0C5DF01C075F0010E7324E96E000E8B
:101520007420EA6EEFCF7AF07AC07BF0B8DF01C0AA
:1015300076F0020E7324E96E000E7420EA6EEFCF8F
:101540007AF07AC07BF0ABDF01C077F0030E732432
:10155000E96E000E7420EA6EEFCF7AF07AC07BF06D
:101560009EDF050E7324E96E000E7420EA6EEF38DC
:10157000006E00360036C00E001600500110786E66
:10158000040E7324E96E000E7420EA6EEFCF7AF039
:101590007AC07BF084DF060E7324E96E000E74209F
:1015A000EA6EEF38006E0036E00E001600500110B3
:1015B000796E7C6A800E7D6E90DFF29CF29EF2BEA8
:1015C000FDD7C580C5B0FED7A00E7E6E78DF010EB8
:1015D0007E6E75DF7E6A73DF75C07EF070DF76C069
:1015E0007EF06DDF77C07EF06ADF78C07EF067DF67
:1015F00079C07EF064DFC584C5B4FED7050E7324C0
:10160000E96E000E7420EA6EEFCF7AF0100E7C6E59
:101610007AC07DF062DF7C6A7D6A5FDF80EF0EF06A
:101620008E0E006E8351005E84C002F085C001F012
:10163000028E005209E0D890025202E1015204E009
:1016400002320132002EF7D784AF05D0011E021EF0
:10165000012AD8B4022A0000000C929A899A040048
:10166000020E836FF70E856F65DD832FFBD7928A9D
:101670000400020E836FF70E856F5CDD832FFBD7AE
:10168000928A000C856B855107081AE3929A899A11
:101690000400000000000000D890843302E2899A20
:1016A00001D0898A929A0400270E006E002EFED780
:1016B0000000928A0400000000000000852BE3D7A0
:1016C000000C02019A51D8B471D0006E9E51D8B46A
:1016D0006DD0002604E3810E002668E204D07F0E60
:1016E000005E64E363E09BC2A2F29F51A21B9B8F4A
:1016F0009F8F9D51A103F4CFA4F29C51A003F4CF7E
:1017000003F0F3CFA3F2A103F350A427F450A323D3
:10171000000E03229D51A003F350A427F450A323ED
:10172000000E026A032202229B51A103F350A32759
:10173000F4500322000E02229B51A003F350032613
:10174000F4500222000E016A01229D519F03F350C2
:10175000A327F4500322000E022201229C519F0372
:10176000F3500326F4500222000E01229B519F03E6
:10177000F3500226F4500122002A01BE05D0A337FF
:101780000336023601360006000EA3AF0AD0032A44
:1017900002220122015005E1025003E1035001E160
:1017A000002AA2BF018EA2AF019E04D0006A016A86
:1017B000026A036A00000001000C4FDFCC0E846F48
:1017C00061DF4E0E846F5EDF02019D6B9C6B9B6B35
:1017D000800E9A6F76C0A1F275C0A0F274C09FF21D
:1017E00073C09EF200016DDF03C07EF002C07DF089
:1017F00001C07CF000C07BF002019D6B9C6B9B6B79
:10180000800E9A6F7AC0A1F279C0A0F278C09FF2E0
:1018100077C09EF2000155DF03C082F002C081F064
:1018200001C080F000C07FF07EC086F07DC085F0F2
:101830007CC084F07BC083F0F3DE01C083F001C084
:1018400084F020DF82C086F081C085F080C084F003
:101850007FC083F0E5DE01C083F001C084F012DFB9
:10186000FCDECC0E846F0EDF480E846F0BDF0400AD
:101870000A0E846F38DC0D0E836F2C0E856F5ADCD8
:10188000832FFBD7000C736A735049EC02F00009F8
:1018900005E0732A9EA8FED7AD6EF6D7736A735023
:1018A00065EC02F0000905E0732A9EA8FED7AD6E34
:1018B000F6D7736A735080EC02F0000905E0732AD2
:1018C0009EA8FED7AD6EF6D76B6A726A72C071F0D1
:1018D00071500D08D8B465D09EAAFED7AECF71F076
:1018E000776A710E766ED3DC010E015C6B6E6B5005
:1018F000F90F56E2070F16EF0FF0736A7350A9EC59
:1019000002F0000905E0732A9EA8FED7AD6EF6D757
:1019100047D0736A7350C0EC02F0000905E0732AE7
:101920009EA8FED7AD6EF6D73BD0736A7350D7EC46
:1019300002F0000905E0732A9EA8FED7AD6EF6D727
:101940002FD0736A7350EEEC02F0000905E0732AA1
:101950009EA8FED7AD6EF6D723D0736A735005EC00
:1019600003F0000905E0732A9EA8FED7AD6EF6D7F6
:1019700017D0736A73501CEC03F0000905E0732A5A
:101980009EA8FED7AD6EF6D70BD0736A735033ECBA
:1019900003F0000905E0732A9EA8FED7AD6EF6D7C6
:1019A00097D7736A73504AEC03F0000905E0732A75
:1019B0009EA8FED7AD6EF6D737DD01C06CF06C5037
:1019C00064080CE1736A73505CEC03F0000905E0F5
:1019D000732A9EA8FED7AD6EF6D755D76C501F0858
:1019E00002E36C5214E1736A735079EC03F000095E
:1019F00005E0732A9EA8FED7AD6EF6D7020E736E71
:101A0000FA0E846F73EC08F0732EFAD73CD7736A22
:101A100073509EEC03F0000905E0732A9EA8FED7E0
:101A2000AD6EF6D701DD01C06DF06D5064080CE1BC
:101A3000736A73505CEC03F0000905E0732A9EA8FA
:101A4000FED7AD6EF6D71FD76D500C0802E36D526E
:101A500014E1736A7350ACEC03F0000905E0732ADB
:101A60009EA8FED7AD6EF6D7020E736EFA0E846F87
:101A700073EC08F0732EFAD706D76C501D0803E2FA
:101A80006D5002080FE06C501F0820E16D500408F3
:101A900009E06D50060806E06D50090803E06D503E
:101AA0000B0814E1736A7350D1EC03F0000905E0F0
:101AB000732A9EA8FED7AD6EF6D7020E736EFA0E8D
:101AC000846F73EC08F0732EFAD7DDD6736A735007
:101AD0009EEC03F0000905E0732A9EA8FED7AD6EC8
:101AE000F6D7A2DC01C06EF06E50640814E1736A90
:101AF00073505CEC03F0000905E0732A9EA8FED742
:101B0000AD6EF6D7020E736EFA0E846F73EC08F0AA
:101B1000732EFAD7B8D66E50630803E36E500808E8
:101B200014E3736A7350F7EC03F0000905E0732ABD
:101B30009EA8FED7AD6EF6D7020E736EFA0E846FB6
:101B400073EC08F0732EFAD79ED66E50030B1AE092
:101B50006D50020817E16C501D0814E1736A735050
:101B60001CEC04F0000905E0732A9EA8FED7AD6EB8
:101B7000F6D7020E736EFA0E846F73EC08F0732EB4
:101B8000FAD781D6020E736EFA0E846F73EC08F0EA
:101B9000732EFAD76E50030B02E1556A14D0010E72
:101BA0006E5C030B03E1010E556E0DD0020E6E5CF0
:101BB000030B03E1020E556E06D0030E6E5C030BA1
:101BC00002E1030E556E736A735045EC04F0000990
:101BD00005E0732A9EA8FED7AD6EF6D725DC01C0BE
:101BE0006FF06F50640814E1736A735056EC04F0A0
:101BF000000905E0732A9EA8FED7AD6EF6D7020E47
:101C0000736EFA0E846F73EC08F0732EFAD73BD61E
:101C10006F50170814E2736A735074EC04F00009F3
:101C200005E0732A9EA8FED7AD6EF6D7020E736E3E
:101C3000FA0E846F73EC08F0732EFAD7C4D7736A68
:101C400073508BEC04F0000905E0732A9EA8FED7C0
:101C5000AD6EF6D714EC0AF001C070F07050640855
:101C600014E1736A735056EC04F0000905E0732A1E
:101C70009EA8FED7AD6EF6D7020E736EFA0E846F75
:101C800073EC08F0732EFAD7FED570503B0814E2BF
:101C9000736A735099EC04F0000905E0732A9EA85A
:101CA000FED7AD6EF6D7020E736EFA0E846F73EC2C
:101CB00008F0732EFAD787D7020E736EFA0E846F70
:101CC00073EC08F0732EFAD7736A7350B2EC04F019
:101CD000000905E0732A9EA8FED7AD6EF6D76DC049
:101CE00049F06CC048F055C04AF06FC047F070C072
:101CF00046F0456A6BC04BF0746A450E736E01D4B2
:101D0000226A216A200E206E830E1F6E436A536A78
:101D10006EC054F022C086F021C085F020C084F04F
:101D20001FC083F07DDC01C073F0A96A01C0A8FF69
:101D3000A69CA69EA684F2CF00F0F29E0F01550E3F
:101D4000A76EAA0EA76EA682A6B2FED7A6940050D2
:101D5000F212010EA96E43C0A8FFA69CA69EA684FF
:101D6000F2CF00F0F29E550EA76EAA0EA76EA682C5
:101D7000A6B2FED7A6940050F212020EA96E53C06E
:101D8000A8FFA69CA69EA684F2CF00F0F29E550E58
:101D9000A76EAA0EA76EA682A6B2FED7A694005082
:101DA000F212030EA96E54C0A8FFA69CA69EA6849C
:101DB000F2CF00F0F29E550EA76EAA0EA76EA68275
:101DC000A6B2FED7A6940050F212040EA96E55C01A
:101DD000A8FFA69CA69EA684F2CF00F0F29E550E08
:101DE000A76EAA0EA76EA682A6B2FED7A694005032
:101DF000F212766A756A7F0E746E850E736E22C05B
:101E00007AF021C079F020C078F01FC077F000018F
:101E1000D4DC736A7350CDEC04F0000905E0732A3A
:101E20009EA8FED7AD6EF6D7FEEF2CF0F2CF0EF0E7
:101E3000F29EE824510FF66E1E0EF76ED8B0F72A08
:101E40000A00F550FA6E0800F5500EBEF28EF96EDB
:101E5000FA1812192A1942195A1972198A197C6A20
:101E60007C5007081DE3929A899A04000000000044
:101E70000000928A0400040E006E002EFED70000BF
:101E80000000928A80BA02D0D89001D0D8807D32EA
:101E900004004F0E006E002EFED700007C2AE0D713
:101EA0007DC001F0000C8E0E006E7DC001F07CC084
:101EB00002F0036A7DAE05D0011E021E022A01E176
:101EC000012A015209E102C001F0026A080E005E17
:101ED000015202E1006A0AD0D89001BE04D0023655
:101EE00001360006F9D77DBE01D0019E000053EFF8
:101EF00010F002018451D8B4A5D0906F8851D8B4A5
:101F0000A1D0905F05E37F0E9027D8B09BD006D07C
:101F1000810E905FD8A096D0D8B494D090C200F033
:101F2000016A026A036A8F6B85C28EF28E8F86C247
:101F30008DF287C28CF2190E906F8B518C5F0DE27F
:101F4000010E8D5F0AE28E5F08E28F5F06E28F2B43
:101F50008E2B8D2B8B518C2728D08A518D5F12E2CE
:101F6000010E8E5F0FE28F5F0DE28F2B8E2B8A5159
:101F70008D278B518C2719E38D2B17E18E2B15E1C3
:101F80008F2B13D0895180098E5F0EE2010E8F5F77
:101F90000BE28F2B895180098E278A518D27E9E327
:101FA0008E2BE7E18F2BE5D70380902F01D00BD04C
:101FB000D8908C378D378E378F37D89003360236CE
:101FC00001369137BAD791A106D0D89001320232AA
:101FD0000332913302D0000635E091BF1ED0D89075
:101FE0008C378D378E378F378B518C5F07E2010E20
:101FF0008D5F04E28E5F02E28F5F1AE38A518D5F8C
:1020000005E2010E8E5F02E28F5F12E389518009C3
:102010008E5F03E2010E8F5F0BE3032A09E1022AC0
:1020200007E1012A05E1002A0DE001320232033204
:1020300085C290F28951901B90AF02D0018E06D0DC
:10204000019E04D0006A016A026A036A000000016E
:10205000000C736A2DEC0BF0CC0E846F42EC0BF08D
:10206000440E846F42EC0BF0735204E1F8DE01C0C1
:1020700073F0FAD72DEC0BF0CC0E846F42EC0BF022
:10208000BE0E846F42EC0BF0EADE01C074F0E7DEB6
:1020900001C075F075C077F074C076F077C07DF040
:1020A00076C07CF000D700C07CF001C07DF002C09B
:1020B0007EF003C07FF003C087F202C086F201C049
:1020C00085F200C084F202018B6B8A6B896B800EF3
:1020D000886F00010EDF03C07BF002C07AF001C000
:1020E00079F000C078F0C80E846F73EC08F078C007
:1020F00000F079C001F07AC002F07BC003F0000C60
:102100006B6A2DEC0BF0CC0E846F42EC0BF0440E9E
:10211000846F42EC0BF06B5204E1A1DE01C06BF066
:10212000FAD72DEC0BF0EC0E846F42EC0BF0929A88
:10213000899A0400000000000000928A0400040E46
:10214000006E002EFED700000000928A6C9080BACC
:102150006C8004004F0E006E002EFED70000929A95
:10216000899A0400000000000000928A0400040E16
:10217000006E002EFED700000000928A6C9280BA9A
:102180006C8204004F0E006E002EFED70000006A25
:102190006CB200806C500018010B04E0010E016E5F
:1021A00004D003D0000E016E00D0000C800ED8A227
:1021B00002D00201831B0201886B896B7FC287F208
:1021C0008351871B7E51D8B4DFD0866F006E825159
:1021D000D8B4E3D0865FD8B483D03EE383C28CF218
:1021E0008C8F84C28BF285C28AF2896BD8908C3333
:1021F0008B338A338933862FF8D787AF03D0888112
:10220000E0D0889186918889020EEA6E810EE96E8F
:10221000EBD0889987BF0AD086A113D08C338B333B
:102220008A338933002AD8B4C7D00BD08CBF0CD0E6
:10223000D89089378A378B378C370006D8B4BCD012
:10224000F5D7888D6DD0889D7FC287F27FAF02D091
:102250008C8FABD08C9FA9D082C286F282C200F054
:102260007E51865F7FC28CF28C8F80C28BF281C2DE
:102270008AF2896BD8908C338B338A338933862FDB
:10228000F8D787AF03D088839CD088938691888BBA
:10229000020EEA6E850EE96EA7D0889B87BF0AD032
:1022A00086A113D08C338B338A338933002AD8B478
:1022B00083D00BD08CBF0CD0D89089378A378B371E
:1022C0008C370006D8B478D0F5D7888F29D0889F6E
:1022D00083C287F283AF02D08C8F67D08C9F65D08A
:1022E00083C28CF28C8F84C28BF285C28AF287AF54
:1022F00004D08C9F888565D08895896B8691020E65
:10230000EA6E810EE96E70D087BF1CD07FC287F263
:1023100086A106D08C338B338A338933002A4CE074
:1023200089AF0BD08A2B09E18B2B07E18C2B05E1C0
:102330008C338B338A33002A3FE088BD84D788BF33
:10234000C6D71CD0800E8C1B8CAF04D03AD083C271
:1023500087F20AD07FC287F28C5306E18B5304E1E7
:102360008A5302E1006A21D08CBF08D0D890893707
:102370008A378B378C37002EF7D71ED087AF02D025
:102380008C8F13D08C9F11D082C200F083C28CF24C
:1023900084C28BF285C28AF208D07EC200F07FC26E
:1023A0008CF280C28BF281C28AF28CC201F08BC2A5
:1023B00002F08AC203F034D0006A016A026A036A3A
:1023C0002FD0896B8A1F8B1F8C1F891F892B05E1DA
:1023D0008A2B03E18B2B01E18C2B88B112D788B3B8
:1023E00054D788B589D7B3D7EF508A2705E38B2B0D
:1023F00003E18C2BD8B48681ED52EF508B2703E399
:102400008C2BD8B48681ED52EF50EFBE01D0800AFC
:102410008C27D8B0868188B9FCD688BB3ED774D7C4
:1024200000000001000C8E0E006E85C201F084C217
:1024300002F0036A015209E102C001F0026A080ECB
:10244000005E015202E1006A08D0D89001BE04D0BB
:10245000023601360006F9D7019E0000000C74C058
:102460007BF078507B1A7BAE05D0D894D89074BEA0
:10247000D8802FD074C07BF077C07CF073507C5E26
:1024800006E07BAE26D0D850010AD86E22D078C0A4
:102490007CF074507C5E06E07BAE1BD0D850010A05
:1024A000D86E17D079C07CF075507C5E06E07BAEAC
:1024B00010D0D850010AD86E0CD07AC07CF076507B
:1024C0007C5E06E07BAE05D0D850010AD86E01D004
:1024D000D890000C0C0E016EC250C30B0110C26EDE
:1024E0000400060E006E002EFED7C282C2B2FED7D6
:1024F000C4500201856B846F000195DF02019D6B62
:102500009C6B480E9B6F850E9A6F03C0A1F202C0B0
:10251000A0F201C09FF200C09EF2000161EC0BF03E
:1025200000C073F001C074F002C075F003C076F013
:1025300003C087F202C086F201C085F200C084F2B7
:1025400002018B6B8A6B7F0E896F860E886F00018C
:10255000D0DCD8920201816B806B7F6B7E6B03C0F5
:1025600085F202C084F201C083F200C082F2000151
:102570001DDE03C06EF002C06DF001C06CF000C043
:102580006BF0080E016EC250C30B0110C26E040046
:10259000060E006E002EFED7C282C2B2FED7C45015
:1025A0000201856B846F00013EDF02019D6B9C6B15
:1025B000480E9B6F850E9A6F03C0A1F202C0A0F275
:1025C00001C09FF200C09EF2000161EC0BF000C060
:1025D00073F001C074F002C075F003C076F003C060
:1025E00087F202C086F201C085F200C084F20201C7
:1025F0008B6B8A6B7F0E896F860E886F000179DC8A
:10260000D8920201816B806B7F6B7E6B03C085F279
:1026100002C084F201C083F200C082F20001C6DD74
:1026200003C072F002C071F001C070F000C06FF022
:102630001EA02DD0D8826EC081F26DC080F26CC019
:102640007FF26BC07EF20201856B846B200E836F7C
:10265000810E826F0001AADD03C076F002C075F022
:1026600001C074F000C073F072C07AF071C079F0EC
:1026700070C078F06FC077F0F2DE01E204E1010E85
:10268000016E1FD003D0000E016E1BD01AD06EC099
:1026900076F06DC075F06CC074F06BC073F072C0F2
:1026A0007AF071C079F070C078F06FC077F0D7DE43
:1026B00001E204E1010E016E04D003D0000E016EB0
:1026C00000D0000CC586C5B6FED700B0C59A00A0E4
:1026D000C58AC588C5B8FED7C9CF01F0000C7FC038
:1026E00080F0D8908033780E80178031006E0032F1
:1026F0003F0E001600508025816F7F500F0B812503
:10270000016E000CF29CF29EF2BEFDD7C580C5B0F2
:10271000FED7A00E7E6E5FEC0AF07CC07EF05FEC10
:102720000AF0C582C5B2FED7A10E7E6E5FEC0AF03C
:10273000006AC8DF01C07DF0C584C5B4FED77DC086
:1027400001F049EF14F0F29CF29EF2BEFDD7C58075
:10275000C5B0FED7A00E7E6E5FEC0AF0020E7E6E54
:102760005FEC0AF0C582C5B2FED7A10E7E6E5FECAB
:102770000AF0010E006EA6DF01C077F0010E006EB8
:10278000A1DF01C078F0010E006E9CDF01C079F07E
:10279000010E006E97DF01C07AF0006A93DF01C07E
:1027A0007BF0C584C5B4FED773C001F074C003F0DC
:1027B00073C07CF074C07DF077C07FF090DF7DC087
:1027C000EAFF7CC0E9FF01C0EFFF010E7324016E38
:1027D000000E7420036E01C07CF07D6E78C07FF027
:1027E0007EDF7DC0EAFF7CC0E9FF01C0EFFF020E83
:1027F0007324016E000E7420036E01C07CF07D6EA8
:1028000079503F0B7E6E7F6E6ADF7DC0EAFF7CC031
:10281000E9FF01C0EFFF030E7324016E000E742068
:10282000036E01C07CF07D6E7A503F0B7E6E7F6E32
:1028300056DF7DC0EAFF7CC0E9FF01C0EFFF040E58
:102840007324016E000E7420036E01C07CF07D6E57
:102850007B501F0B7E6E7F6E42DF7DC0EAFF7CC027
:10286000E9FF01C0EFFF060E7324E96E000E74202D
:10287000EA6E7B38006E0032070E001600C0EFFFD4
:102880007A38756E75327532030E7516100E7C6EC1
:1028900039D701C076F07650030B755C02E0762ADA
:1028A000FAD7050E7324E96E000E7420EA6E76C026
:1028B000EFFF100E7C6E76C07DF06DEC0AF0000C20
:1028C000746A450E736E3FDF47C04CF046C04DF052
:1028D000526A516A83A006D047C04EF046C04FF0FE
:1028E00045C050F08384000C4450050DF350036A3A
:1028F0002F0F016E000E032201C06BF003C06CF0BD
:10290000EA6A3E0EE96E03C0E2FF01C0E1FF050E78
:10291000016EE6CFEEFF012EFCD73EC056F03FC061
:1029200057F01E8C000C7F507D5C03E2010E016E9F
:1029300013D07D507F5C03E2000E016E0DD07F50FE
:102940007D5C0AE17E50805D04E3010E016E04D0DF
:1029500003D0000E016E00D0000C84518603F3CF2B
:1029600001F0F4CF00F08703F35000268551860371
:10297000F3500020026E000C73C07DF074C07EF036
:1029800075C07FF076C080F0CEDF015230E07A6A09
:1029900075C079F07AC085F075C084F0876B3C0E05
:1029A000866FDBDF02C07BF001C07AF0036A7650ED
:1029B00001247C6E035002207D6E7F6A73C07EF01E
:1029C0007FC085F073C084F0876B3C0E866FC5DFD7
:1029D00001C07FF0036A74500124016E025003228B
:1029E00001507C5C776E03507D58786E36D07A6AE1
:1029F00073C079F07AC085F073C084F0876B3C0EA9
:102A0000866FABDF02C07BF001C07AF0036A7450BE
:102A10000124016E025003220150FF0AA10F7C6EB7
:102A2000050E03547D6E7F6A75C07EF07FC085F011
:102A300075C084F0876B3C0E866F8FDF02C003F099
:102A400001507C247F6E02507D20806F036A765097
:102A50007F24776E03508021786E77C001F078C0B4
:102A600002F0000C73C07DF074C07EF076C07FF081
:102A700077C080F058DF01524FE07650735C08E178
:102A80007750745C05E17550785C7A6A796E43D052
:102A90007E6A76C07DF07EC085F076C084F0876B5C
:102AA0003C0E866F5ADF02C07FF001C07EF0036AE1
:102AB00077500124806F03500220816F836B73C0B5
:102AC00082F083C085F073C084F0876B3C0E866F04
:102AD00044DF01C083F0036A74500124016E025088
:102AE00003220150805D7B6E035081597C6E7CC057
:102AF00085F07BC084F0876B3C0E866F2EDF7850AC
:102B000001247F6E000E0220806F75507F5C796E0D
:102B1000000E80597A6E4AD07E6A73C07DF07EC006
:102B200085F073C084F0876B3C0E866F16DF02C0A1
:102B30007FF001C07EF0036A74500124016E0250E0
:102B400003220150FF0AA10F806F050E0354816F0D
:102B5000836B76C082F083C085F076C084F0876B8B
:102B60003C0E866FFADE02C003F001508025836FB1
:102B700002508121846F036A775083257B6E035056
:102B800084217C6E7CC085F07BC084F0876B3C0E1A
:102B9000866FE3DE785001247F6E000E0220806F86
:102BA00075507F5C796E000E80597A6E79C001F0A5
:102BB0007AC002F0000C016A026A006A036A785067
:102BC00002E1775018E0100E796ED890753676369F
:102BD000003603367850035C02E17750005C07E36F
:102BE0007750005ED8A003067850035ED880013687
:102BF0000236792EEAD7000082EF17F053501A08F8
:102C000001E2536A746A450E736E9DDD4CC073F029
:102C10004DC074F047C075F046C076F0ADDE02C01E
:102C20006CF001C06BF029EC10F003C072F002C030
:102C300071F001C070F000C06FF072C086F071C01A
:102C400085F070C084F06FC083F010EC0BF001C011
:102C50006DF00201856B6DC084F2000113EC12F07F
:102C6000D88272C081F271C080F270C07FF26FC0F2
:102C70007EF203C085F202C084F201C083F200C07C
:102C800082F2D6EC10F000C073F001C074F002C004
:102C900075F003C076F003C09DF202C09CF201C043
:102CA0009BF200C09AF20201A16BA06B480E9F6FCD
:102CB000850E9E6F000161EC0BF003C086F002C030
:102CC00085F001C084F000C083F010EC0BF001C06F
:102CD0006EF083A011D04EC073F04FC074F050C09E
:102CE00075F047C076F046C077F045C078F0BADEA0
:102CF00001505126025052224A50555C2CE0542A71
:102D0000552A030EA96E54C0A8FFA69CA69EA684B1
:102D1000F2CF00F0F29E0F01550EA76EAA0EA76E1D
:102D2000A682A6B2FED7A6940050F212040EA96E97
:102D300055C0A8FFA69CA69EA684F2CF00F0F29EE6
:102D4000550EA76EAA0EA76EA682A6B2FED7A694AF
:102D50000050F212000153500A0DF350140F736E1D
:102D6000A96E48C0A8FFA69CA69EA684F2CF00F03C
:102D7000F29E0F01550EA76EAA0EA76EA682A6B2EE
:102D8000FED7A6940050F21253500A0DF350140FC0
:102D9000010F746EA96E49C0A8FFA69CA69EA684CA
:102DA000F2CF00F0F29E550EA76EAA0EA76EA68275
:102DB000A6B2FED7A6940050F21253500A0DF3505B
:102DC000140F020F746EA96E54C0A8FFA69CA69E95
:102DD000A684F2CF00F0F29E550EA76EAA0EA76E43
:102DE000A682A6B2FED7A6940050F21253500A0D46
:102DF000F350140F030F746EA96E47C0A8FFA69C72
:102E0000A69EA684F2CF00F0F29E550EA76EAA0EE3
:102E1000A76EA682A6B2FED7A6940050F212535017
:102E20000A0DF350140F040F746EA96E46C0A8FF6C
:102E3000A69CA69EA684F2CF00F0F29E550EA76E29
:102E4000AA0EA76EA682A6B2FED7A6940050F212D2
:102E500053500A0DF350140F050F746EA96E6DC018
:102E6000A8FFA69CA69EA684F2CF00F0F29E550E67
:102E7000A76EAA0EA76EA682A6B2FED7A694005091
:102E8000F21253500A0DF350140F060F746EA96E10
:102E90006EC0A8FFA69CA69EA684F2CF00F0F29E6C
:102EA000550EA76EAA0EA76EA682A6B2FED7A6944E
:102EB0000050F21253500A0DF350140F070F746EA6
:102EC000A96E6BC0A8FFA69CA69EA684F2CF00F0B8
:102ED000F29E550EA76EAA0EA76EA682A6B2FED7C8
:102EE000A6940050F21253500A0DF350140F080F1D
:102EF000746E52C076F051C075F0786A3C0E776EF1
:102F0000000159D601C075F074C0A9FF01C0A8FF27
:102F1000A69CA69EA684F2CF00F0F29E0F01550E4D
:102F2000A76EAA0EA76EA682A6B2FED7A6940050E0
:102F3000F2121EA23CD053500A0DF350140F090F89
:102F4000746ED89222C081F221C080F220C07FF23C
:102F50001FC07EF22EC085F22DC084F22CC083F2F9
:102F60002BC082F20001D6EC10F003C086F002C044
:102F700085F001C084F000C083F010EC0BF001C0BC
:102F800075F074C0A9FF01C0A8FFA69CA69EA684E8
:102F9000F2CF00F0F29E0F01550EA76EAA0EA76E9B
:102FA000A682A6B2FED7A6940050F21228D05350A3
:102FB0000A0DF350140F090F746E22C086F021C061
:102FC00085F020C084F01FC083F0000110EC0BF0EE
:102FD00001C075F074C0A9FF01C0A8FFA69CA69E01
:102FE000A684F2CF00F0F29E0F01550EA76EAA0E36
:102FF000A76EA682A6B2FED7A6940050F212532A5C
:10300000020EA96E53C0A8FFA69CA69EA684F2CF6E
:1030100000F0F29E550EA76EAA0EA76EA682A6B26B
:10302000FED7A6940050F21283940001000C020116
:103030008251016A815D03E281C200F00CD0006A16
:10304000080E836F813700368251005CD8B0006E65
:103050000136832FF7D70001000C200E77A8300E21
:10306000786E76C000F076AE07D0001E002A00C051
:1030700076F02D0E786E778E015076C081F2640E58
:103080000201826F0001D3DF00C076F0300E012410
:10309000796E76C081F20A0E0201826F0001C7DFED
:1030A000300E00247B6E300E01247A6E78C000F062
:1030B00077A602D077AE779477B80BD077AE22D0D0
:1030C00077B420D000C079F077B21CD000C07AF07D
:1030D00019D0300E795C16E100C079F0200E786EC0
:1030E00077A604D07794778277AE7792300E7A5CA9
:1030F00009E100C07AF0200E796E77A6F7D77792B3
:1031000077AE779077A404D078C07DF0FFEC08F01C
:1031100077A204D079C07DF0FFEC08F077A004D04E
:103120007AC07DF0FFEC08F07BC07DF0FFEC08F08A
:10313000000C02019A51B6089A6F036A9BC29EF274
:103140009B8FD8909B339C339D33033202320132E4
:1031500000329A2FF6D79EAF0BD0001E011E021E22
:10316000031E002AD8B4012AD8B4022AD8B4032AEC
:103170000001000C006A016A026A036A0201A26B84
:10318000A36BA46BA56BA151A0119F119E112CE004
:10319000200EA66FD8909A379B379C379D37A23761
:1031A000A337A437A537A151A55D08E1A051A45DBF
:1031B00005E19F51A35D02E19E51A25D0FE39E5187
:1031C000A25F9F51D8A09F3DA35FA051D8A0A03D72
:1031D000A45FA151D8A0A13DA55FD88000360136DB
:1031E00002360336A62FD6D70000020EEA6EA20ED4
:1031F000E96E0001000CE950756E7450776E1CE0AA
:1032000073C09DF272C09CF271C09BF270C09AF2C2
:103210000201A16BA06B200E9F6F820E9E6F0001BA
:1032200061EC0BF003C073F002C072F001C071F0EA
:1032300000C070F0772EE4D773C09DF272C09CF28C
:1032400071C09BF270C09AF274DF03C073F002C0C9
:1032500072F001C071F000C070F073AE0DD0750651
:10326000758A701E711E721E731E702AD8B4712A60
:10327000D8B4722AD8B4732A3B0E7C6E9A0E7B6E39
:10328000CA0E7A6E796A0A0E776E7450D8B4752AAF
:1032900073C09DF272C09CF271C09BF270C09AF232
:1032A0007CC0A1F27BC0A0F27AC09FF279C09EF2EE
:1032B00061DF0150EFCF70F0ECCF71F0ECCF72F026
:1032C000ECCF73F000520FE17428775C0CE075507E
:1032D0000CE00F0B775C01E03BE275BE39D075BCAA
:1032E00004D0200E30D0200E751675AA0DD0759A18
:1032F0007450D8A475060050756E2D0E7D6EFFECCF
:1033000008F07550006E756A7450775C0BE10050E0
:10331000756E2E0E7D6EFFEC08F07550006E200E5F
:103320007516000E300E75AA0ED0759A7450D8A47A
:1033300075060050756E2D0E7D6EFFEC08F0755011
:10334000006E756A300E002600C07DF0FFEC08F0BC
:103350007CC09DF27BC09CF27AC09BF279C09AF24D
:103360000201A16BA06B9F6B0A0E9E6F000102DF32
:1033700003C07CF002C07BF001C07AF000C079F09D
:10338000772E86D7000C70C071F0826B0E0E836FA3
:10339000A9EC08F06DC07EF0020E7F6EEEEC08F036
:1033A00071BE03D0715009080BE3766A76503BEC8E
:1033B00002F0000905E0762A7D6EFFEC08F0F6D7F2
:1033C00071C076F01F0E776E48DE6DC07EF0020E83
:1033D0007F6EEEEC08F082B068D0712A71BE05D025
:1033E00071506F5C02E26EC071F071BE03D071501B
:1033F00009080BE3766A76503BEC02F0000905E021
:10340000762A7D6EFFEC08F0F6D771C076F01F0EBD
:10341000776E23DE6DC07EF0020E7F6EEEEC08F05C
:10342000756A746A736A010E726E82B03DD075520D
:103430000AE1745208E173509B082DE2FF0A03E190
:103440007250400828E2712A71BE05D071506F5C3D
:1034500002E26EC071F071BE03D0715009080BE337
:10346000766A76503BEC02F0000905E0762A7D6E24
:10347000FFEC08F0F6D771C076F01F0E776EEDDD29
:103480006DC07EF0020E7F6EEEEC08F0C80E846F09
:1034900073EC08F008D0010E7226D8B0732AD8B4A5
:1034A000742AD8B4752AC1D796D782B268D071066B
:1034B00071BE03D06E50715C02E26FC071F071BEDC
:1034C00003D0715009080BE3766A76503BEC02F0AA
:1034D000000905E0762A7D6EFFEC08F0F6D771C092
:1034E00076F01F0E776EB9DD6DC07EF0020E7F6E36
:1034F000EEEC08F0756A746A736A010E726E82B23D
:103500003DD075520AE1745208E173509B082DE2D8
:10351000FF0A03E17250400828E2710671BE03D031
:103520006E50715C02E26FC071F071BE03D07150D9
:1035300009080BE3766A76503BEC02F0000905E0DF
:10354000762A7D6EFFEC08F0F6D771C076F01F0E7C
:10355000776E83DD6DC07EF0020E7F6EEEEC08F0BC
:10356000C80E846F73EC08F008D0010E7226D8B034
:10357000732AD8B4742AD8B4752AC1D72CD782B488
:1035800004D082B401D0FDD709D082BA06D0640E2F
:10359000716E82BA01D0FDD701D01DD7826B0C0E9F
:1035A000836FA9EC08F071C001F0000C6C6A2F0E5B
:1035B0006B6E6E6A6D6E6F6A43506F5CD8B090D060
:1035C0004350050DF3502F0F7A6E7B6AD8B07B2ADB
:1035D0000A0E7A5C6B6E000E7B586C6E4350050DC4
:1035E000F3502F0F7A6E7B6AD8B07B2A050E7A5C77
:1035F0006D6E000E7B586E6E706A6F50435CFF0FED
:10360000705C6CE26BC0E9FF6CC0EAFFEFCF71F059
:10361000010E6B24E96E000E6C20EA6EEFCF72F0A3
:103620006DC0E9FF6EC0EAFFEFCF73F0010E6D24AD
:10363000E96E000E6E20EA6EEFCF74F073C07DF07D
:1036400074C07EF071C07FF072C080F093EC14F013
:1036500001523AE06CC003F06BC07AF06CC07BF0B2
:10366000EA6A750EE96E6CC0E2FF6BC0E1FF050E01
:10367000016EE6CFEEFF012EFCD76BC07CF06CC074
:103680007DF06EC003F06DC07EF06EC07FF06CC048
:10369000EAFF6BC0E9FF6EC0E2FF6DC0E1FF050EFF
:1036A000016EE6CFEEFF012EFCD76EC003F06DC0B9
:1036B000E9FF03C0EAFFE26A750EE16E050E016ED6
:1036C000E6CFEEFF012EFCD7FB0E6B26D8A06C06D2
:1036D000FB0E6D26D8A06E06702A8FD76F2A6CD786
:1036E00076EF32F0446A746A450E736EA3EC13F001
:1036F00047C06CF046C06DF06B6A43506B5C31E2C2
:103700006B50050DF350716A706E2F0E7024E96EC8
:10371000000E7120EA6EEFCF6EF06B50050DF35086
:10372000716A706E010E7024016E000E7120036EBE
:1037300001502F0FE96E000E0320EA6EEFCF6FF0FD
:103740006EC07DF06FC07EF06CC07FF06DC080F009
:1037500093EC14F0015203E16BC044F002D06B2AE9
:10376000CCD778EF32F0706A4350705CD8B099D003
:103770007050050DF350036A2F0F016E000E0322E7
:1037800001C071F003C072F0EA6A6B0EE96E03C00B
:10379000E2FF01C0E1FF050E016EE6CFEEFF012E54
:1037A000FCD77050050DF350050F716EA96E6BC0FC
:1037B000A8FFA69CA69EA684F2CF00F0F29E0F0161
:1037C000550EA76EAA0EA76EA682A6B2FED7A69425
:1037D0000050F2127050050DF350050F010F726E7C
:1037E000A96E6CC0A8FFA69CA69EA684F2CF00F08E
:1037F000F29E550EA76EAA0EA76EA682A6B2FED79F
:10380000A6940050F2127050050DF350050F020FF0
:10381000726EA96E6DC0A8FFA69CA69EA684F2CF6C
:1038200000F0F29E550EA76EAA0EA76EA682A6B253
:10383000FED7A6940050F2127050050DF350050FFC
:10384000030F726EA96E6EC0A8FFA69CA69EA684EA
:10385000F2CF00F0F29E550EA76EAA0EA76EA682BA
:10386000A6B2FED7A6940050F2127050050DF35088
:10387000050F040F726EA96E6FC0A8FFA69CA69ECE
:10388000A684F2CF00F0F29E550EA76EAA0EA76E88
:10389000A682A6B2FED7A6940050F212702A0001AA
:1038A00063D7010EA96E43C0A8FFA69CA69EA6845E
:1038B000F2CF00F0F29E0F01550EA76EAA0EA76E72
:1038C000A682A6B2FED7A6940050F212000128EFFD
:1038D00033F001507FC281F2640E0201826F000159
:1038E00017EC18F000C07FF20150300E08E1020121
:1038F00080A30ED080B70CD080B9200E04D0020176
:10390000809780998081012601509EA8FED7AD6ED8
:103910007FC281F20A0E826F000117EC18F000C01E
:103920007FF20150300E08E1020180B70BD080A178
:1039300009D080B9200E0001012601509EA8FED7B3
:10394000AD6E0201300E7F277F519EA8FED7AD6E6F
:103950000001000CE9500201926F9151946F1CE03C
:1039600090C29DF28FC29CF28EC29BF28DC29AF2DF
:10397000A16BA06B200E9F6F820E9E6F000161EC09
:103980000BF003C090F202C08FF201C08EF200C0B3
:103990008DF20201942FE4D790C29DF28FC29CF267
:1039A0008EC29BF28DC29AF2000199EC18F003C00E
:1039B00090F202C08FF201C08EF200C08DF20201BF
:1039C00090AF0DD09207928B8D1F8E1F8F1F901F6F
:1039D0008D2BD8B48E2BD8B48F2BD8B4902B3B0E14
:1039E000996F9A0E986FCA0E976F966B0A0E946F26
:1039F0009151D8B4922B90C29DF28FC29CF28EC28C
:103A00009BF28DC29AF299C2A1F298C2A0F297C21B
:103A10009FF296C29EF20001BAEC18F00150EFCF6F
:103A20008DF2ECCF8EF2ECCF8FF2ECCF90F2005211
:103A300013E102019129945DD8A402D000010CD0B9
:103A400092510DE00F0B945D01E03CE292BF3AD041
:103A500092BD05D0200E31D0200E0201921792ABFC
:103A60000DD0929B9151D8A492070050926F2D0EC9
:103A70009EA8FED7AD6E9251006E926B9151945DEF
:103A80000BE10050926F2E0E9EA8FED7AD6E9251A4
:103A9000006E200E9217000E300E92AB0ED0929B4D
:103AA0009151D8A492070050926F2D0E9EA8FED778
:103AB000AD6E9251006E926B300E002600509EA8A3
:103AC000FED7AD6E99C29DF298C29CF297C29BF24E
:103AD00096C29AF2A16BA06B9F6B0A0E9E6F0001BB
:103AE000BAEC18F003C099F202C098F201C097F244
:103AF00000C096F20201942F7ED70001000CEACF9D
:103B000087F2E9CF86F202018039F009826F8227BD
:103B1000E20F836F320F856F80510F0B832783274E
:103B20008527E90F846F842784277F390F0B84272B
:103B3000852784378537851F85377F510F0B85276C
:103B40008237070E816F0A0E84078527FDE38307FE
:103B50008427FDE382078327FDE381078227FDE3B6
:103B6000020EEA6E810EE96E070E8615869DE92625
:103B7000850EE95CD8B4868DEF50006E08E186BDF5
:103B800006D086B90CD086B702D0200E03D0868727
:103B90008699300E002600509EA8FED7AD6EEE50DE
:103BA00086ADE6D70001000C1F0EB36FB3C0B1F0B5
:103BB000B1C0AFF0AFC0AEF0AEC0ACF0ACC0AAF0D8
:103BC000AAC0A8F01C0EA96F1E0EB26FB2C0B0F052
:103BD000B0C0ADF0ADC0ABF06B6A6B500B080FE33B
:103BE0006B50040DF350036A780FE96E000E03204A
:103BF000EA6EEF6AEC6AEC6AEC6A6B2AEED76B6AE3
:103C00006B500B080FE36B50040DF350036ABC0FAD
:103C1000E96E000E0320EA6EEF6AEC6AEC6AEC6A69
:103C20006B2AEED76B6A6B50030821E36C6A6C5009
:103C30000B081BE36B50300DF35002017F6B7E6F5E
:103C40006C50040DF350036A7E25016E7F510322F0
:103C50000150F00FE96E000E0320EA6EEF6AEC6A85
:103C6000EC6AEC6A6C2A0001E2D76B2ADCD76B6A3B
:103C70006B50030821E36C6A6C500B081BE36B501C
:103C8000300DF35002017F6B7E6F6C50040DF350CA
:103C9000036A7E25016E7F5103220150B00FE96E49
:103CA000010E0320EA6EEF6AEC6AEC6AEC6A6C2A99
:103CB0000001E2D76B2ADCD702017B6B7BC27AF270
:103CC0007AC279F27D6B7C6B706B0001B76BB66B5F
:103CD000B56BB46BBB6BBA6BB96BB86BED6BEC6B64
:103CE000EF6BEE6B02017E6B7E51000100EC05F084
:103CF000000907E002017E2B9EA8FED7AD6EF4D727
:103D0000000102017E6B7E51000118EC05F00009F4
:103D100007E002017E2B9EA8FED7AD6EF4D700010E
:103D200002017E6B7E51000130EC05F0000907E0D6
:103D300002017E2B9EA8FED7AD6EF4D700010201D2
:103D40007E6B7E51000155EC05F0000907E0020191
:103D50007E2B9EA8FED7AD6EF4D700016B6A535040
:103D60006B5CD8B07DEF22F06B500A0DF350140F4E
:103D70000201F2CF7FF2F29EA96EA69CA69EA680BB
:103D8000A8507FBFF28E6E6E6B500A0DF350140F69
:103D9000010FF2CF80F2F29EA96EA69CA69EA6808D
:103DA000A85080BFF28E6F6E6B500A0DF350140F47
:103DB000020FF2CF80F2F29EA96EA69CA69EA6806C
:103DC000A85080BFF28E706E6B500A0DF350140F26
:103DD000030FF2CF80F2F29EA96EA69CA69EA6804B
:103DE000A85080BFF28E716E6B500A0DF350140F05
:103DF000040FF2CF80F2F29EA96EA69CA69EA6802A
:103E0000A85080BFF28E726E6B500A0DF350140FE3
:103E1000050FF2CF80F2F29EA96EA69CA69EA68008
:103E2000A85080BFF28E736E6B500A0DF350140FC2
:103E3000060FF2CF80F2F29EA96EA69CA69EA680E7
:103E4000A85080BFF28E746E6B500A0DF350140FA1
:103E5000070FF2CF80F2F29EA96EA69CA69EA680C6
:103E6000A85080BFF28E756E6B500A0DF350140F80
:103E7000080FF2CF80F2F29EA96EA69CA69EA680A5
:103E8000A85080BFF28E766E6B500A0DF350140F5F
:103E9000090FF2CF80F2F29EA96EA69CA69EA68084
:103EA000A85080BFF28E776E6E50795D07E16F503B
:103EB0007A5D04E170507B5DD8B4AED179536AE08D
:103EC00076C285F275C284F2000113EC12F0D8922A
:103ED000BBC081F2BAC080F2B9C07FF2B8C07EF236
:103EE00003C085F202C084F201C083F200C082F2F6
:103EF000D6EC10F003C0BBF002C0BAF001C0B9F0BC
:103F000000C0B8F0010E02017A5D040DF350036A9F
:103F1000780FE96E000E0320EA6EB8C0EFFFB9C05B
:103F2000ECFFBAC0ECFFBBC0ECFF78C285F277C2F1
:103F300084F2000113EC12F0D892B7C081F2B6C03F
:103F400080F2B5C07FF2B4C07EF203C085F202C039
:103F500084F201C083F200C082F2D6EC10F003C0FC
:103F6000B7F002C0B6F001C0B5F000C0B4F0010E69
:103F700002017A5D040DF350036ABC0FE96E000E76
:103F80000320EA6EB4C0EFFFB5C0ECFFB6C0ECFF93
:103F9000B7C0ECFF70507B5DD8B431D17B53D8B43F
:103FA00023D16C6A6C500B08D8A014D16C50040D4E
:103FB000F350036A780F016E000E032201C07EF2F7
:103FC00003C07FF26C50040DF350036A780FE96E62
:103FD000000E0320EA6EEFCF80F2ECCF81F2ECCF3F
:103FE00082F2ECCF83F2036A6C50A80FE96E000EE8
:103FF0000320EA6EEF50856B846F000113EC12F022
:1040000083C287F282C286F281C285F280C284F2C4
:1040100003C08BF202C08AF201C089F200C088F2AC
:1040200079EC0FF07FC2EAFF7EC2E9FF00C0EFFF2C
:1040300001C0ECFF02C0ECFF03C0ECFF6C50040DAC
:10404000F350036ABC0F016E000E032201C07EF222
:10405000020103C07FF26C50040DF350036ABC0FE1
:10406000E96E000E0320EA6EEFCF80F2ECCF81F212
:10407000ECCF82F2ECCF83F2036A6C50A80FE96EAA
:10408000000E0320EA6EEF50856B846F000113EC85
:1040900012F083C287F282C286F281C285F280C2A8
:1040A00084F203C08BF202C08AF201C089F200C020
:1040B00088F279EC0FF07FC2EAFF7EC2E9FF00C010
:1040C000EFFF01C0ECFF02C0ECFF03C0ECFF0201F8
:1040D0007051300DF3507F6B7E6F6C50040DF350B8
:1040E000036A7E25016E7F5103220150F00F016E9D
:1040F000000E032201C080F203C081F26C50040D57
:10410000F350036A780FE96E000E0320EA6EEFCFDA
:1041100000F0ECCF01F0ECCF02F0ECCF03F081C265
:10412000EAFF80C2E9FF00C0EFFF01C0ECFF02C060
:10413000ECFF03C0ECFF7051300DF3507F6B7E6FCE
:104140006C50040DF350036A7E25016E7F510322EB
:104150000150B00F016E010E032201C080F203C0B6
:1041600081F26C50040DF350036ABC0FE96E000E2F
:104170000320EA6EEFCF00F0ECCF01F0ECCF02F0BD
:10418000ECCF03F081C2EAFF80C2E9FF00C0EFFF7D
:1041900001C0ECFF02C0ECFF03C0ECFF6C50040D4B
:1041A000F350036A780FE96E000E0320EA6EEF6A9F
:1041B000EC6AEC6AEC6A6C50040DF350036ABC0FB5
:1041C000E96E000E0320EA6EEF6AEC6AEC6AEC6AB4
:1041D0006C2AE8D6036A7051710FE96E020E032053
:1041E000EA6E7BC2EFFF702B7050030B04E11D0ED3
:1041F0000001A96F03D01C0E0001A96F02016EC05F
:1042000079F26FC07AF270C07BF27C2BD8B47D2B30
:10421000766B756B786B776B75507527000E762310
:1042200076507727000E782375500001EC27000E9A
:10423000ED237650EE27000EEF236E5009080FE3B2
:1042400002017E6B7E5100017AEC05F0000907E067
:1042500002017E2B9EA8FED7AD6EF4D700016EC082
:104260007FF21B0E0201806F000169EC1CF02F0E23
:104270009EA8FED7AD6E6F5009080FE302017E6B5A
:104280007E5100013BEC02F0000907E002017E2BA9
:104290009EA8FED7AD6EF4D700016FC07FF21B0E53
:1042A0000201806F000169EC1CF02F0E9EA8FED762
:1042B000AD6E705009080FE302017E6B7E51000164
:1042C0003BEC02F0000907E002017E2B9EA8FED71E
:1042D000AD6EF4D7000170C07FF21B0E0201806F3B
:1042E000000169EC1CF0200E9EA8FED7AD6E200EDA
:1042F0009EA8FED7AD6E715009080FE302017E6BD8
:104300007E5100013BEC02F0000907E002017E2B28
:104310009EA8FED7AD6EF4D7000171C07FF21B0ED0
:104320000201806F000169EC1CF03A0E9EA8FED7D6
:10433000AD6E725009080FE302017E6B7E510001E1
:104340003BEC02F0000907E002017E2B9EA8FED79D
:10435000AD6EF4D7000172C07FF21B0E0201806FB8
:10436000000169EC1CF0200E9EA8FED7AD6E7350C4
:1043700009080FE302017E6B7E5100017AEC05F023
:10438000000907E002017E2B9EA8FED7AD6EF4D790
:10439000000173C07FF21B0E0201806F000169EC07
:1043A0001CF02E0E9EA8FED7AD6E745009080FE3C8
:1043B00002017E6B7E5100013BEC02F0000907E038
:1043C00002017E2B9EA8FED7AD6EF4D7000174C00B
:1043D0007FF21B0E0201806F000169EC1CF0DF0E02
:1043E0009EA8FED7AD6E430E9EA8FED7AD6E200EE2
:1043F0009EA8FED7AD6E200E9EA8FED7AD6E77C0EC
:104400007FF21B0E0201806F000169EC1CF0DF0ED1
:104410009EA8FED7AD6E430E9EA8FED7AD6E030ECE
:1044200002017E6F200E9EA8FED7AD6E7E2FFAD7BA
:10443000755063080DE37E6B7E5100017AEC05F048
:10444000000907E002017E2B9EA8FED7AD6EF4D7CF
:104450000001755009080FE302017E6B7E510001D7
:104460007AEC05F0000907E002017E2B9EA8FED73A
:10447000AD6EF4D7000175C07FF21B0E0201806F94
:10448000000169EC1CF0050E02017E6F200E9EA853
:10449000FED7AD6E7E2FFAD7765063080DE37E6BA4
:1044A0007E5100017AEC05F0000907E002017E2B45
:1044B0009EA8FED7AD6EF4D70001765009080FE331
:1044C00002017E6B7E5100017AEC05F0000907E0E5
:1044D00002017E2B9EA8FED7AD6EF4D7000176C0F8
:1044E0007FF21B0E0201806F000169EC1CF00D0EC3
:1044F0009EA8FED7AD6E6B2A32D4020179536AE0D2
:1045000076C285F275C284F2000113EC12F0D892E3
:10451000BBC081F2BAC080F2B9C07FF2B8C07EF2EF
:1045200003C085F202C084F201C083F200C082F2AF
:10453000D6EC10F003C0BBF002C0BAF001C0B9F075
:1045400000C0B8F0010E02017A5D040DF350036A59
:10455000780FE96E000E0320EA6EB8C0EFFFB9C015
:10456000ECFFBAC0ECFFBBC0ECFF78C285F277C2AB
:1045700084F2000113EC12F0D892B7C081F2B6C0F9
:1045800080F2B5C07FF2B4C07EF203C085F202C0F3
:1045900084F201C083F200C082F2D6EC10F003C0B6
:1045A000B7F002C0B6F001C0B5F000C0B4F0010E23
:1045B00002017A5D040DF350036ABC0FE96E000E30
:1045C0000320EA6EB4C0EFFFB5C0ECFFB6C0ECFF4D
:1045D000B7C0ECFF7B53D8B409D16C6A6C500B08A0
:1045E000D8A0FAD06C50040DF350036A780F016E16
:1045F000000E032201C07EF203C07FF26C50040D56
:10460000F350036A780FE96E000E0320EA6EEFCFD5
:1046100080F2ECCF81F2ECCF82F2ECCF83F2036A2E
:104620006C50A80FE96E000E0320EA6EEF50856B08
:10463000846F000113EC12F083C287F282C286F20B
:1046400081C285F280C284F203C08BF202C08AF27A
:1046500001C089F200C088F279EC0FF07FC2EAFF56
:104660007EC2E9FF00C0EFFF01C0ECFF02C0ECFF1B
:1046700003C0ECFF6C50040DF350036ABC0F016ED5
:10468000000E032201C07EF2020103C07FF26C50D3
:10469000040DF350036ABC0FE96E000E0320EA6EAE
:1046A000EFCF80F2ECCF81F2ECCF82F2ECCF83F24D
:1046B000036A6C50A80FE96E000E0320EA6EEF50FB
:1046C000856B846F000113EC12F083C287F282C203
:1046D00086F281C285F280C284F203C08BF202C0EE
:1046E0008AF201C089F200C088F279EC0FF07FC233
:1046F000EAFF7EC2E9FF00C0EFFF01C0ECFF02C08D
:10470000ECFF03C0ECFF02017051300DF3507F6BE2
:104710007E6F6C50040DF350036A7E25016E7F514D
:1047200003220150F00F016E000E032201C080F23F
:1047300003C081F26C50040DF350036A780FE96EE8
:10474000000E0320EA6EEFCF00F0ECCF01F0ECCFCB
:1047500002F0ECCF03F081C2EAFF80C2E9FF00C0A3
:10476000EFFF01C0ECFF02C0ECFF03C0ECFF705193
:10477000300DF3507F6B7E6F6C50040DF350036A65
:104780007E25016E7F5103220150B00F016E010E94
:10479000032201C080F203C081F26C50040DF3507B
:1047A000036ABC0FE96E000E0320EA6EEFCF00F043
:1047B000ECCF01F0ECCF02F0ECCF03F081C2EAFFC6
:1047C00080C2E9FF00C0EFFF01C0ECFF02C0ECFFB8
:1047D00003C0ECFF6C2A02D7036A7051710FE96EB7
:1047E000020E0320EA6E7BC2EFFF702B7DC285F2C2
:1047F0007CC284F2000113EC12F0BBC087F2BAC095
:1048000086F2B9C085F2B8C084F203C08BF202C050
:104810008AF201C089F200C088F279EC0FF003C07F
:10482000BBF002C0BAF001C0B9F000C0B8F07DC260
:1048300085F27CC284F213EC12F0B7C087F2B6C0E6
:1048400086F2B5C085F2B4C084F203C08BF202C018
:104850008AF201C089F200C088F279EC0FF003C03F
:10486000B7F002C0B6F001C0B5F000C0B4F002016C
:104870007E6B7E51000188EC05F0000907E0020123
:104880007E2B9EA8FED7AD6EF4D7000102017E6B91
:104890007E510001ADEC05F0000907E002017E2B1E
:1048A0009EA8FED7AD6EF4D7000102017E6B7E514B
:1048B0000001CAEC05F0000907E002017E2B9EA86A
:1048C000FED7AD6EF4D7000102017E6B7E51000170
:1048D000DCEC05F0000907E002017E2B9EA8FED764
:1048E000AD6EF4D7000102017E6B7E510001FBEC3E
:1048F00005F0000907E002017E2B9EA8FED7AD6EF1
:10490000F4D7000102017E6B7E51000116EC06F027
:10491000000907E002017E2B9EA8FED7AD6EF4D7FA
:10492000000102017E6B7E51000131EC06F00009AE
:1049300007E002017E2B9EA8FED7AD6EF4D70001E2
:104940004A0E6D6E6D5030080EE06D5031080BE070
:104950006D50320808E06D50330805E09EAAFED77E
:10496000AECF6DF0EFD7300E6D5CFC0FD8B054EFCA
:104970002BF0040F56EF2BF002017E6B7E510001ED
:1049800056EC06F0000907E002017E2B9EA8FED738
:10499000AD6EF4D7000154EF2BF002017E6B7E5117
:1049A00000016AEC06F002017E2B006E00509EA80A
:1049B000FED7AD6E250E7E5DF2E1020EE96EBBC044
:1049C00090F2BAC08FF2B9C08EF2B8C08DF2916F7A
:1049D0000001AAEC1CF02A0E02017F6F7F5100013A
:1049E0006AEC06F002017F2B006E00509EA8FED7F5
:1049F000AD6E340E7F5DF2E17E6B7E51000192EC74
:104A000006F002017E2B006E00509EA8FED7AD6E10
:104A1000240E7E5DF2E1020EE96EB7C090F2B6C0E0
:104A20008FF2B5C08EF2B4C08DF2916F0001AAEC86
:104A30001CF0290E02017F6F7F51000192EC06F0FD
:104A400002017F2B006E00509EA8FED7AD6E330E84
:104A50007F5DF2E100010BD754EF2BF002017E6B7A
:104A60007E510001B9EC06F002017E2B006E005071
:104A70009EA8FED7AD6E1D0E7E5DF2E1100EE96EB2
:104A8000EDC080F2ECC07FF200017FEC1DF0200E43
:104A900002017F6F7F510001B9EC06F002017F2B0C
:104AA000006E00509EA8FED7AD6E2A0E7F5DF2E12B
:104AB0007E6B7E510001DCEC06F002017E2B006E65
:104AC00000509EA8FED7AD6E1C0E7E5DF2E1100E6A
:104AD000E96EEFC080F2EEC07FF200017FEC1DF0C6
:104AE0001F0E02017F6F7F510001DCEC06F0020116
:104AF0007F2B006E00509EA8FED7AD6E290E7F5D05
:104B0000F2E10001B4D654EF2BF06B6A0201705150
:104B10006B5CD8B050EF2BF07E6B7E510001FEEC49
:104B200006F0000907E002017E2B9EA8FED7AD6EBD
:104B3000F4D70001036A6B50710FE96E020E032077
:104B4000EA6EEF5009080FE302017E6B7E5100010F
:104B50003BEC02F0000907E002017E2B9EA8FED785
:104B6000AD6EF4D70001036A6B50710FE96E020E4F
:104B70000320EA6EEFCF7EF27EC27FF21B0E0201AF
:104B8000806F000169EC1CF00D0E9EA8FED7AD6E83
:104B900002017E6B7E5100010DEC07F0000907E079
:104BA00002017E2B9EA8FED7AD6EF4D70001020154
:104BB0007E6B7E51000136EC07F0000907E0020130
:104BC0007E2B9EA8FED7AD6EF4D700016B50300D42
:104BD000F35002017F6B7E6FF00E7E25E96E000EB2
:104BE0007F21EA6EEFCF80F2ECCF81F2ECCF82F240
:104BF000ECCF83F26B50300DF350856B846FB00EA9
:104C00008425E96E010E8521EA6EEFCF86F2ECCFA6
:104C100087F2ECCF88F2ECCF89F28A6B8A510001DF
:104C20005FEC07F002018A2B006E00509EA8FED7B1
:104C3000AD6E050E8A5DF2E10E0E8B6F200E9EA802
:104C4000FED7AD6E8B2FFAD7020EE96E83C290F2BB
:104C500082C28FF281C28EF280C28DF2916F00010A
:104C6000AAEC1CF0100E02018C6F200E9EA8FED73D
:104C7000AD6E8C2FFAD7020EE96E89C290F288C20F
:104C80008FF287C28EF286C28DF2916F0001AAEC7C
:104C90001CF00D0E9EA8FED7AD6E6B50300DF3507C
:104CA00002017F6B7E6F040E7E25016E000E7F2158
:104CB000036E0150F00FE96E000E0320EA6EEFCF95
:104CC00080F2ECCF81F2ECCF82F2ECCF83F26B502A
:104CD000300DF350856B846F040E8425016E000E39
:104CE0008521036E0150B00FE96E010E0320EA6EBC
:104CF000EFCF86F2ECCF87F2ECCF88F2ECCF89F2DF
:104D00008A6B8A51000175EC07F002018A2B006E54
:104D100000509EA8FED7AD6E070E8A5DF2E10C0E24
:104D20008B6F200E9EA8FED7AD6E8B2FFAD7020E8A
:104D3000E96E83C290F282C28FF281C28EF280C28B
:104D40008DF2916F0001AAEC1CF0100E02018C6F25
:104D5000200E9EA8FED7AD6E8C2FFAD7020EE96EFC
:104D600089C290F288C28FF287C28EF286C28DF21B
:104D7000916F0001AAEC1CF00D0E9EA8FED7AD6E3F
:104D80006B50300DF35002017F6B7E6F080E7E2555
:104D9000016E000E7F21036E0150F00FE96E000ED0
:104DA0000320EA6EEFCF80F2ECCF81F2ECCF82F2FB
:104DB000ECCF83F26B50300DF350856B846F080E8F
:104DC0008425016E000E8521036E0150B00FE96E3F
:104DD000010E0320EA6EEFCF86F2ECCF87F2ECCF24
:104DE00088F2ECCF89F28A6B8A5100018CEC07F0D3
:104DF00002018A2B006E00509EA8FED7AD6E050EF4
:104E00008A5DF2E10E0E8B6F200E9EA8FED7AD6E6E
:104E10008B2FFAD7020EE96E83C290F282C28FF214
:104E200081C28EF280C28DF2916F0001AAEC1CF05B
:104E3000100E02018C6F200E9EA8FED7AD6E8C2F37
:104E4000FAD7020EE96E89C290F288C28FF287C249
:104E50008EF286C28DF2916F0001AAEC1CF00D0E4D
:104E60009EA8FED7AD6E6B50300DF35002017F6BE4
:104E70007E6F0C0E7E25016E000E7F21036E0150A9
:104E8000F00FE96E000E0320EA6EEFCF80F2ECCF58
:104E900081F2ECCF82F2ECCF83F26B50300DF35005
:104EA000856B846F0C0E8425016E000E8521036EC8
:104EB0000150B00FE96E010E0320EA6EEFCF86F2CB
:104EC000ECCF87F2ECCF88F2ECCF89F28A6B8A5173
:104ED0000001A2EC07F002018A2B006E00509EA890
:104EE000FED7AD6E050E8A5DF2E10E0E8B6F200EC1
:104EF0009EA8FED7AD6E8B2FFAD7020EE96E83C245
:104F000090F282C28FF281C28EF280C28DF2916FD6
:104F10000001AAEC1CF0100E02018C6F200E9EA85E
:104F2000FED7AD6E8C2FFAD7020EE96E89C290F2D1
:104F300088C28FF287C28EF286C28DF2916F000115
:104F4000AAEC1CF00D0E9EA8FED7AD6E6B50300D76
:104F5000F35002017F6B7E6F100E7E25016E000EF6
:104F60007F21036E0150F00FE96E000E0320EA6E00
:104F7000EFCF80F2ECCF81F2ECCF82F2ECCF83F274
:104F80006B50300DF350856B846F100E8425016ECD
:104F9000000E8521036E0150B00FE96E010E032053
:104FA000EA6EEFCF86F2ECCF87F2ECCF88F2ECCF4F
:104FB00089F28A6B8A510001B8EC07F002018A2B52
:104FC000006E00509EA8FED7AD6E040E8A5DF2E121
:104FD0000F0E8B6F200E9EA8FED7AD6E8B2FFAD7CB
:104FE000020EE96E83C290F282C28FF281C28EF20B
:104FF00080C28DF2916F0001AAEC1CF0100E02012C
:105000008C6F200E9EA8FED7AD6E8C2FFAD7020EA5
:10501000E96E89C290F288C28FF287C28EF286C290
:105020008DF2916F0001AAEC1CF00D0E9EA8FED728
:10503000AD6E6B50300DF35002017F6B7E6F140E1E
:105040007E25016E000E7F21036E0150F00FE96E88
:10505000000E0320EA6EEFCF80F2ECCF81F2ECCFAE
:1050600082F2ECCF83F26B50300DF350856B846F7E
:10507000140E8425016E000E8521036E0150B00FC1
:10508000E96E010E0320EA6EEFCF86F2ECCF87F2D5
:10509000ECCF88F2ECCF89F28A6B8A510001CDEC1B
:1050A00007F002018A2B006E00509EA8FED7AD6E5D
:1050B000050E8A5DF2E10E0E8B6F200E9EA8FED7C4
:1050C000AD6E8B2FFAD7020EE96E83C290F282C2C8
:1050D0008FF281C28EF280C28DF2916F0001AAEC34
:1050E0001CF0100E02018C6F200E9EA8FED7AD6E34
:1050F0008C2FFAD7020EE96E89C290F288C28FF225
:1051000087C28EF286C28DF2916F0001AAEC1CF06C
:105110000D0E9EA8FED7AD6E6B50300DF350020100
:105120007F6B7E6F180E7E25016E000E7F21036E51
:105130000150F00FE96E000E0320EA6EEFCF80F20F
:10514000ECCF81F2ECCF82F2ECCF83F26B50300DDA
:10515000F350856B846F180E8425016E000E852137
:10516000036E0150B00FE96E010E0320EA6EEFCF1F
:1051700086F2ECCF87F2ECCF88F2ECCF89F28A6B23
:105180008A510001E3EC07F002018A2B006E005007
:105190009EA8FED7AD6E050E8A5DF2E10E0E8B6FF6
:1051A000200E9EA8FED7AD6E8B2FFAD7020EE96EA9
:1051B00083C290F282C28FF281C28EF280C28DF2DF
:1051C000916F0001AAEC1CF0100E02018C6F200EF2
:1051D0009EA8FED7AD6E8C2FFAD7020EE96E89C25B
:1051E00090F288C28FF287C28EF286C28DF2916FE2
:1051F0000001AAEC1CF00D0E9EA8FED7AD6E6B5000
:10520000300DF35002017F6B7E6F1C0E7E25016E08
:10521000000E7F21036E0150F00FE96E000E032097
:10522000EA6EEFCF80F2ECCF81F2ECCF82F2ECCFDE
:1052300083F26B50300DF350856B846F1C0E842508
:10524000016E000E8521036E0150B00FE96E010E54
:105250000320EA6EEFCF86F2ECCF87F2ECCF88F234
:10526000ECCF89F28A6B8A510001F9EC07F0020158
:105270008A2B006E00509EA8FED7AD6E060E8A5D8A
:10528000F2E10D0E8B6F200E9EA8FED7AD6E8B2F18
:10529000FAD7020EE96E83C290F282C28FF281C207
:1052A0008EF280C28DF2916F0001AAEC1CF0100EFC
:1052B00002018C6F200E9EA8FED7AD6E8C2FFAD700
:1052C000020EE96E89C290F288C28FF287C28EF216
:1052D00086C28DF2916F0001AAEC1CF00D0E9EA803
:1052E000FED7AD6E6B50300DF35002017F6B7E6FB9
:1052F000200E7E25016E000E7F21036E0150F00FFF
:10530000E96E000E0320EA6EEFCF80F2ECCF81F25F
:10531000ECCF82F2ECCF83F26B50300DF350856B03
:10532000846F200E8425016E000E8521036E0150CE
:10533000B00FE96E010E0320EA6EEFCF86F2ECCFDC
:1053400087F2ECCF88F2ECCF89F28A6B8A510001A8
:105350000FEC08F002018A2B006E00509EA8FED7C9
:10536000AD6E0A0E8A5DF2E1090E8B6F200E9EA8CB
:10537000FED7AD6E8B2FFAD7020EE96E83C290F284
:1053800082C28FF281C28EF280C28DF2916F0001D3
:10539000AAEC1CF0100E02018C6F200E9EA8FED706
:1053A000AD6E8C2FFAD7020EE96E89C290F288C2D8
:1053B0008FF287C28EF286C28DF2916F0001AAEC45
:1053C0001CF00D0E9EA8FED7AD6E6B50300DF35045
:1053D00002017F6B7E6F240E7E25016E000E7F2101
:1053E000036E0150F00FE96E000E0320EA6EEFCF5E
:1053F00080F2ECCF81F2ECCF82F2ECCF83F26B50F3
:10540000300DF350856B846F240E8425016E000EE1
:105410008521036E0150B00FE96E010E0320EA6E84
:10542000EFCF86F2ECCF87F2ECCF88F2ECCF89F2A7
:105430008A6B8A51000127EC08F002018A2B006E6A
:1054400000509EA8FED7AD6E070E8A5DF2E10C0EED
:105450008B6F200E9EA8FED7AD6E8B2FFAD7020E53
:10546000E96E83C290F282C28FF281C28EF280C254
:105470008DF2916F0001AAEC1CF0100E02018C6FEE
:10548000200E9EA8FED7AD6E8C2FFAD7020EE96EC5
:1054900089C290F288C28FF287C28EF286C28DF2E4
:1054A000916F0001AAEC1CF00D0E9EA8FED7AD6E08
:1054B0006B50300DF35002017F6B7E6F280E7E25FE
:1054C000016E000E7F21036E0150F00FE96E000E99
:1054D0000320EA6EEFCF80F2ECCF81F2ECCF82F2C4
:1054E000ECCF83F26B50300DF350856B846F280E38
:1054F0008425016E000E8521036E0150B00FE96E08
:10550000010E0320EA6EEFCF86F2ECCF87F2ECCFEC
:1055100088F2ECCF89F28A6B8A5100013EEC08F0E8
:1055200002018A2B006E00509EA8FED7AD6E090EB8
:105530008A5DF2E10A0E8B6F200E9EA8FED7AD6E3B
:105540008B2FFAD7020EE96E83C290F282C28FF2DD
:1055500081C28EF280C28DF2916F0001AAEC1CF024
:10556000100E02018C6F200E9EA8FED7AD6E8C2F00
:10557000FAD7020EE96E89C290F288C28FF287C212
:105580008EF286C28DF2916F0001AAEC1CF00D0E16
:105590009EA8FED7AD6E6B50300DF35002017F6BAD
:1055A0007E6F2C0E7E25016E000E7F21036E015052
:1055B000F00FE96E000E0320EA6EEFCF80F2ECCF21
:1055C00081F2ECCF82F2ECCF83F26B50300DF350CE
:1055D000856B846F2C0E8425016E000E8521036E71
:1055E0000150B00FE96E010E0320EA6EEFCF86F294
:1055F000ECCF87F2ECCF88F2ECCF89F28A6B8A513C
:10560000000156EC08F002018A2B006E00509EA8A3
:10561000FED7AD6E090E8A5DF2E10A0E8B6F200E89
:105620009EA8FED7AD6E8B2FFAD7020EE96E83C20D
:1056300090F282C28FF281C28EF280C28DF2916F9F
:105640000001AAEC1CF0100E02018C6F200E9EA827
:10565000FED7AD6E8C2FFAD7020EE96E89C290F29A
:1056600088C28FF287C28EF286C28DF2916F0001DE
:10567000AAEC1CF00D0E9EA8FED7AD6E02017E6B4B
:105680007E5100010DEC07F0000907E002017E2BBE
:105690009EA8FED7AD6EF4D700016B2A86EF25F0E9
:1056A000000137EF24F000D028EF33F0F2CF0EF0F6
:1056B000F29EE824D10FF66E560EF76ED8B0F72A98
:1056C0000A00F550FA6E0800F5500EBEF28EF96E23
:1056D00078499A495C4A0A4B746A450E736EA3EC8A
:1056E00013F047C04EF046C04FF045C050F08380E5
:1056F00036EF33F0746A450E736EA3EC13F047C0B7
:105700006BF046C06CF045C06DF04EC073F04FC0FA
:1057100074F050C075F06BC076F06CC077F06DC05F
:1057200078F032EC15F0015051260250522283904D
:105730003EEF33F001506BC081F2640E0201826FC4
:10574000000117EC18F000C06BF00150300E07E1BB
:105750006CA20DD06CB60BD06CB8200E03D06C963A
:105760006C986C80012601C07DF0FFEC08F06BC0E6
:1057700081F20A0E0201826F000117EC18F000C0DE
:105780006BF00150300E06E16CB609D06CA007D06A
:105790006CB8200E012601C07DF0FFEC08F0300E41
:1057A0006B266BC07DF0FFEC08F0000C746A450EB0
:1057B000736EA3EC13F0C00EF212826B010E836FB6
:1057C000A9EC08F06B6A6B50E6EC04F06B2A006EF3
:1057D0007D6EFFEC08F0070E6B5CF5E1020EE96EE2
:1057E0002AC073F029C072F028C071F027C070F091
:1057F000010E746EFBEC18F0200E7D6EFFEC08F0CD
:10580000DF0E7D6EFFEC08F00F0E6C6E6C50E6EC58
:1058100004F06C2A006E7D6EFFEC08F0180E6C5CD4
:10582000F5E1475009080BE36B6A6B503BEC02F063
:10583000000905E06B2A7D6EFFEC08F0F6D747C043
:105840006BF01B0E6C6E76DF3A0E7D6EFFEC08F08F
:10585000465009080BE36B6A6B503BEC02F0000901
:1058600005E06B2A7D6EFFEC08F0F6D746C06BF0C2
:105870001B0E6C6E5FDF48EF2CF029EC10F003C0BC
:105880002AF002C029F001C028F000C027F08ED70E
:1058900080EC10F0015232E01EA22CD01E92D89261
:1058A00022C081F221C080F220C07FF21FC07EF2B0
:1058B0002EC085F22DC084F22CC083F22BC082F260
:1058C000D6EC10F003C022F002C021F001C020F09D
:1058D00000C01FF0766A756A7F0E746E850E736E57
:1058E00022C07AF021C079F020C078F01FC077F094
:1058F000DDEC0BF0010E016E32D031D01EB22CD097
:105900001E82D88222C081F221C080F220C07FF2A4
:105910001FC07EF22EC085F22DC084F22CC083F20F
:105920002BC082F2D6EC10F003C022F002C021F0AE
:1059300001C020F000C01FF0766A756A7F0E746E99
:10594000850E736E22C07AF021C079F020C078F005
:105950001FC077F0DDEC0BF0000E016E00D040EFC1
:1059600033F0F86AD09E0D8EEA6AE96AB896190E8D
:10597000AF6E220EAC6E900EAB6E94869488130EB2
:10598000C86E280EC66EC78EC79CC150C00B0F09CB
:10599000C16E070EB46E186A196A010E1A6E1B6A80
:1059A0001C6A1D6A7E0E2B6E2C6A2D6A2E6AF19A75
:1059B000F0908394839283901E94526A516A030EEE
:1059C000936E000E956EE70E946EC9EF08F0826B31
:1059D000010E836FA9EC08F0826B0C0E836FA9ECAB
:1059E00008F06B6A6B505DEC00F0000905E06B2A73
:1059F0007D6EFFEC08F0F6D743EF0CF0C150C00B02
:105A00000B09C16EC050C00B0209C06EC09EC2809F
:105A100029EC10F003C02AF002C029F001C028F0E0
:105A200000C027F080EC10F001522DE11E82D882D8
:105A300022C081F221C080F220C07FF21FC07EF21E
:105A40002EC085F22DC084F22CC083F22BC082F2CE
:105A5000D6EC10F003C022F002C021F001C020F00B
:105A600000C01FF0766A756A7F0E746E850E736EC5
:105A700022C07AF021C079F020C078F01FC077F002
:105A8000DDEC0BF001D01E921E906AEC12F0015278
:105A900001E01E801E981E9AF086C00EF2126B6AFC
:105AA0006B5073EC00F0000905E06B2A9EA8FED74E
:105AB000AD6EF6D7D190F0901EAAB7D0F29CF29EB0
:105AC000F2BEFDD71EA672D083B463D01EA21CD036
:105AD000D89222C081F221C080F220C07FF21FC084
